:020000022000DC
:1060000000000420C53F0A0005400A00354F0A0081
:1060100009400A000B400A000D400A000000000081
:10602000000000000000000000000000693E0A00BF
:1060300011400A0000000000893E0A0015400A00D5
:10604000FD410A0017400A00451C0A0075080A00B5
:1060500017400A0017400A00591E0A0017400A009C
:1060600017400A0017400A0017400A0017400A00AC
:1060700017400A0017400A0017400A0017400A009C
:1060800017400A00F93B0A0017400A0017400A00AF
:1060900017400A0017400A00DD0E0A0017400A00E8
:1060A00017400A0017400A0017400A0017400A006C
:1060B00017400A0017400A0000000000000000001E
:1060C00017400A0017400A0017400A00A1460A00BC
:1060D00017400A0017400A0017400A0015040A007A
:1060E000511C0A0017400A0017400A000000000077
:1060F0000000000017400A0000000000D1460A001E
:10610000000000000000000000000000000000008F
:10611000000000000000000000000000000000007F
:10612000000000000000000000000000000000006F
:10613000000000000000000000000000000000005F
:10614000000000000000000000000000000000004F
:10615000000000000000000000000000000000003F
:10616000000000000000000000000000000000002F
:10617000000000000000000000000000000000001F
:10618000000000000000000000000000000000000F
:1061900000000000000000000000000000000000FF
:1061A00000000000000000000000000000000000EF
:1061B00000000000000000000000000000000000DF
:1061C00000000000000000000000000000000000CF
:1061D00000000000000000000000000000000000BF
:1061E00000000000000000000000000000000000AF
:1061F000000000000000000000000000000000009F
:1062000010B5054C237833B9044B13B10448AFF3F0
:1062100000800123237010BDD04900200000000041
:106220009C430E0008B5034B1BB103490348AFF371
:10623000008008BD00000000D44900209C430E00EF
:10624000A3F5803A704700BF174B002B08BF134BD4
:106250009D46FFF7F5FF00218B460F461348144A71
:10626000121A93F02BFB0E4B002B00D098470D4BCE
:10627000002B00D098470020002104000D000D489D
:10628000002802D00C48AFF3008093F0E3F920001F
:1062900029007DF0D9FE92F0F5FE00BF0000080055
:1062A000000000000000000000000420D049002091
:1062B00084DA0120000000000000000070477047F1
:1062C000008A704741827047817270477047402052
:1062D0007047202070471020704770476FF01800FB
:1062E00070476FF0180070476FF0180070477047E4
:1062F0006FF01800704700207047BBEE090A704726
:1063000084B004A800E90E006FF0180004B07047D4
:106310006FF0180070476FF0180070470368D3F8EB
:10632000E03018470368D3F8DC3018474AB1162923
:106330000B466FF00800A8BF16238342B8BF034680
:1063400013700931C9B220292CBF6FF00C00002056
:106350007047836841601944C160704700207047EE
:1063600000207047808B70471C30704701207047B9
:10637000704724307047084A8B8992F8300108B181
:10638000422B08D0012B05D00A3B012B8CBF0020EB
:106390000120704718467047105C0020006A431EB9
:1063A0005842584170470020704747F230507047BC
:1063B00090F83C00831E58425841704790F83800CE
:1063C000831E584258417047002070470120704793
:1063D000006A431E584258417047007B70470020B6
:1063E0007047007B70477047014B93F85801704726
:1063F000105C0020014B93F849017047105C0020AD
:10640000002070470120704700207047002070472F
:10641000014B93F862017047105C00207047704791
:1064200070474B6A032B01BF034B1B68B3F8503016
:1064300003840020704700BF484E0120F1E7F0E7D9
:106440001C307047002070470068096803689B682B
:10645000184700207047C0F88011704780ED5F0A30
:106460007047002070470068096803689B681847F8
:106470000068096803689B68184700680968036832
:106480009B6818477047022A06D0032A02D0012AC7
:1064900000D10160002070470B680360FAE7F2E763
:1064A000012A08BF016000207047F9E7F8E7F7E725
:1064B000F6E7F5E7F4E7F3E7F2E7F1E7F0E7EFE710
:1064C000EEE7EDE7ECE7EBE7EAE7E9E7E8E7E7E740
:1064D000E6E7E5E7E4E7E3E7E2E7E1E7E0E7DFE770
:1064E000DEE7DDE7DCE7DBE7DAE7D9E7D8E7D7E7A0
:1064F000D6E7D5E7D4E7D3E7D2E7D1E7D0E7CFE7D0
:10650000CEE7CDE7CCE7CBE7CAE7C9E7C8E7022A81
:1065100006D0032A02D0012A00D101600020704772
:106520000B680360FAE7F2E7F1E7F0E7EFE7EEE781
:10653000EDE7012A03D0022A03D000207047016052
:10654000FBE70B680360F8E7F3E7F2E77047704793
:10655000704770B501F07F05082D2A4B2A4C4FEA91
:10656000D11123D0012202FA05F0C043A1B905F1EF
:106570000C06B240C3F80823D3F814251040C3F822
:10658000140501EB450104EB01110023CB72BFF3AD
:106590006F8FBFF34F8F70BDAE1CB240C3F808239E
:1065A000D3F810251040C3F81005EAE704EB0112F8
:1065B0000020A2F80801D1B94FF48012C3F80823D3
:1065C000D3F8142522F48072C3F81425C3F85011AF
:1065D0000C4BB4F808010022C3F81C25B4F81821AC
:1065E000C24204BF4FF40012C3F80823C9E74FF4B6
:1065F0000062C3F80823D3F8102522F48072C3F890
:106600001025E5E700700240EC49002044DF7047A8
:1066100043DF704742DF7047064B1868043B1B6836
:10662000082B04D103288CBF0020012070470020D4
:10663000704700BF34010010012057F080BDFBE718
:1066400010B5044678F08AFF204610BD10B50C2125
:1066500004467DF041FD204610BD10B534210446AE
:106660007DF03AFD204610BD10B5046844B1201DF0
:1066700078F074FF20461421BDE810407DF02CBD59
:1066800010BD024B024819887AF0E7BB923F012007
:10669000887E0120024B034819887AF0DEBB00BFD8
:1066A000923F0120887E012070B505460C464CB112
:1066B000E1682846FFF7F8FFA66820467BF048FF10
:1066C0003446F4E770BD70B505460C464CB1E16840
:1066D0002846FFF7F8FFA66820467BF039FF3446CE
:1066E000F4E770BD70B505460C464CB1E16828462C
:1066F000FFF7F8FFA66820467BF02AFF3446F4E750
:1067000070BD70B505460C464CB1E1682846FFF7F0
:10671000F8FFA66820467BF01BFF3446F4E770BD07
:1067200010B50446006808B17BF012FF204610BD8A
:1067300011B108307BF05FBD704713B50A4C20687B
:10674000403056F0E3FE206800210BF079FE074B45
:1067500001221A7000230193054B01A918687CF0EF
:1067600019F902B010BD00BF1C4F0120044E0120DA
:1067700098560020E1E7E0E707B500680B6801687C
:10678000019301EB0311C3680BB98BF00AFA03699B
:1067900001AA0430984703B05DF804FBECE707B5A5
:1067A00000680B680168019301EB0311C3680BB922
:1067B0008BF0F7F9036901AA0430984703B05DF83C
:1067C00004FB07B500680B68026801930C2101FB0C
:1067D0000321C3680BB98BF0E4F9036901AA043003
:1067E000984703B05DF804FBEBE707B500680B685A
:1067F000026801930C2101FB0321C3680BB98BF0E4
:10680000D0F9036901AA0430984703B05DF804FB8E
:10681000EBE7EAE7E9E7034607B59A680191013A31
:1068200008469A608AF0E4FF019803B05DF804EB33
:106830007BF08EBE01230360BFF36F8FBFF34F8FDA
:10684000074B984202D0043B984207D1BFF35B8FBD
:10685000044B002283F82021BFF35B8F704700BFF9
:1068600050700240EC49002010B40D4BBFF35B8F19
:1068700001464FF00104D3E84F2FC3E84C4FBCF161
:10688000000FF8D1BFF35B8F12F0FF0F05D0054862
:106890005DF8044B012204F0ADBE5DF8044BC9E77E
:1068A0000C4B002069680200F0B501F1200C0025B6
:1068B0004FF0000E51F8043B05F001055E1B52F845
:1068C000043B6EEB4E07F41A67F10005614540F892
:1068D000044BEFD105F00100F0BD08B5D0E900038D
:1068E0001B1A6FF00040834202D107488BF034F945
:1068F000012B1A4638BF01229B1804D2002BACBFD3
:1069000018466FF0004008BDF3F10B0008B5D0E960
:1069100000031B1A9810094B43430948834202D1D4
:1069200008488BF019F9012B1A4638BF01229A1832
:1069300002D2904228BF104608BD00BFABAAAAAA47
:10694000AAAAAA0AF3F10B00034610B41B681C683C
:10695000084611462CB1A4469B685DF8044B012201
:10696000604702205DF8044B704710B548B10469D8
:1069700054B184680123A047002818BF6FF00200BB
:1069800010BD6FF00A00FBE76FF00400F8E720B1DC
:10699000024B800143F0010318477047C0F60B001B
:1069A000F5E7F4E7A4DF7047A3DF7047B2DF704775
:1069B000B1DF7047B0DF704711DF70473DDF7047D0
:1069C0003CDF704763DF704762DF7047A8DF7047C6
:1069D00086DF704785DF704781DF704746DF70478D
:1069E0008ADF70477ADF7047A0DF7047007D70470D
:1069F000407C7047007D7047B5DF704790DF70477F
:106A00008FDF7047AEDF7047ADDF7047ACDF704798
:106A1000ABDF7047AADF704775DF704774DF7047E0
:106A200000231A4619467BF0EDBE4FF0FF317CF093
:106A300055B830B5294C05469DB0206DFFF7F5FFE0
:106A400094F84C30019525467BB1254801AB02AA4C
:106A500006A908F0C9FE044678B1286DFFF7E0FFEB
:106A6000B4FA84F040091DB030BD04F10C0008F008
:106A700036FB04460028E8D0EFE79DF80C30222BC7
:106A800016D0174802AA06A908F070FD044600288F
:106A9000E3D19DF80C30222BDFD1114806AA12A9B0
:106AA00008F04AFA041ED8DB0BD10E4857F0E6FB7B
:106AB0000B4804AA11A907F0D6FD04460028E0D02F
:106AC000CBE71A9B0F931B9B1093002304481A4695
:106AD00006A908F0CFFB0446BFE700BFB052002074
:106AE000BC5200200DF20B0012DF704743F204038A
:106AF00007B51A68094B9A424FF000000AD18DF889
:106B000007000DF10700FFF7EFFF9DF807000038C1
:106B100018BF012003B05DF804FB00BFDBE5B151F5
:106B200007B5FFF7E3FF58B1002301A80193FFF772
:106B30006DFD0198003818BF012003B05DF804FB1B
:106B40004FF08043D3F80C24D3F80C0410F48030B9
:106B500018BF02F00100F0E74B1E062B88BF0A4663
:106B6000817A98BF08220231D208C9B24AF0ACB982
:106B70004B1E062B88BF0A46417A98BF0822023175
:106B8000D208C9B24AF0A0B94B1E062B88BF0A46EC
:106B9000017A98BF08220231D208C9B24AF094B9EA
:106BA00030B5044685B00A200D467BF08AFC0A4BBE
:106BB000009303210023CDE9011303932079236877
:106BC0006A4641F025FD00B220B92946684645F0E5
:106BD00064FB00B205B030BD7014012030B504462E
:106BE00085B001200D467BF06CFC0A4B009303211D
:106BF0000023CDE901130393207923686A4641F00D
:106C000007FD00B220B92946684645F046FB00B2B0
:106C100005B030BDA435012038B5437A04460D4691
:106C20000BB94CF0DCFC2046032280214CF070FCB8
:106C3000E27A20462A4381214CF06AFC25732046E3
:106C4000BDE838404CF07BBC38B5437A04460D466D
:106C50000BB94CF0C4FC2046032280214CF058FCB8
:106C6000227B20462A4381214CF052FCE5722046CB
:106C7000BDE838404CF063BC38B515461A4650B1F3
:106C8000C368AB420AD344682B46A047002818BF0C
:106C90006FF0020038BD6FF00A00FBE76FF00400F0
:106CA000F8E710B40446084611461A4623685C68A3
:106CB00024B1A4469B685DF8044B604702205DF850
:106CC000044B704713B50446002146F062FC0123D3
:106CD00001AA06212046FFF7E4FF50B99DF80430D1
:106CE00001AA60F34513062120468DF80430FFF712
:106CF0002BFE02B010BD37B504460D46002146F00C
:106D000048FC012301AA06212046FFF7CAFF50B91B
:106D10009DF8043001AA65F38613062120468DF8FC
:106D20000430FFF711FE03B030BD38B5437C044694
:106D30000D4673B1204644F077FB227A65722046F7
:106D40002A43A12144F014FB2046BDE8384044F01A
:106D500020BB034944F030FB0028EBD138BD00BF15
:106D60004C5E012038B5437C04460D4673B1204685
:106D700044F05AFB627A257220462A43A12144F04E
:106D8000F7FA2046BDE8384044F003BB024944F01E
:106D900013FB0028EBD138BD4C5E01201FB5046801
:106DA0008DF80C10ACB103230022CDE9003203AB07
:106DB0000122194620460AF0FEFB9DF80D309DF891
:106DC0000C001B0243EA00439DF80E00184304B078
:106DD00010BD0323009303AB0122194640680AF05B
:106DE000F3FAEAE71FB504688DF80C108CB10223A2
:106DF0000022CDE9003203AB0122194620460AF0F9
:106E0000DAFB9DF80C009DF80D3043EA002004B039
:106E100010BD0223009303AB0122194640680AF01B
:106E2000D3FAEEE708B5FFF7DDFF40BA80B208BD40
:106E30001FB504688DF80C1064B100230122CDE960
:106E4000002303AB194620460AF0B5FB9DF80C0061
:106E500004B010BD0122009203AB194640680AF04D
:106E6000B3FAF3E71FB504688DF80D2064B1002371
:106E7000CDE900338DF80C100123022203A920462E
:106E80000AF069FB04B010BD01F07F0100948DF899
:106E90000C102346022203A940680AF0B5FAF1E774
:106EA0000078C0F3C20300F007029B0043EA4213DC
:106EB00043EA901070471FB544688DF80C10ACB1D0
:106EC00003230022CDE9003203AB012219462046FC
:106ED0000AF071FB9DF80D309DF80C001B0243EA8F
:106EE00000439DF80E00184304B010BD0323009327
:106EF00003AB0122194680680AF066FAEAE71FB57B
:106F000044688DF80C109CB102230022CDE90032B8
:106F100003AB0122194620460AF04DFB9DF80C30C8
:106F20009DF80D0040EA032040BA80B204B010BDC5
:106F30000223009303AB0122194680680AF044FA49
:106F4000ECE71FB544688DF80C1064B100230122F2
:106F5000CDE9002303AB194620460AF02CFB9DF82F
:106F60000C0004B010BD0122009203AB19468068EA
:106F70000AF02AFAF3E71FB544688DF80D2064B1D2
:106F80000023CDE900338DF80C100123022203A960
:106F900020460AF0E0FA04B010BD01F07F01009431
:106FA0008DF80C102346022203A980680AF02CFAFF
:106FB000F1E7836903B118471846704703786422E4
:106FC00023F0020303704068B0FBF2F0B0FBF2F371
:106FD00002FB1300C0B27047037C0BB9037070470B
:106FE000836843600378C16043F0030303700023A8
:106FF00003747047037819B143F0040303707047BA
:1070000003F0FB03FAE74BDF704733DF704732DFF3
:107010007047BFF34F8F0549054BCA6802F4E06221
:107020001343CB60BFF34F8F00BFFDE700ED00E0DF
:107030000400FA0508B17BF08BBA704710B504461E
:1070400019F036FF08B12388838110BD0B4B10B5B2
:107050001C680EF07BFF236801461B68204698479A
:10706000044640B11DF064FC28B194F82D3013B1F2
:1070700004F12D0010BD0248FCE700BF246A002087
:1070800011F20B00034B1A79062A0CBF93F89800F3
:1070900000207047E8660020064B187900F0FB03DB
:1070A000022B04D0A0F10B03584258417047012035
:1070B000704700BFE8660020094B10B51C6864B13A
:1070C00060680EF02DFF38B194F8600194F86A31D1
:1070D00098422CBF0020012010BD2046FCE700BFD5
:1070E000FCF1002010B5044600688AF0EDFB20603A
:1070F000204610BD38B5044608200D467CF0E6FF5A
:107100002B68436023680360206038BD70B5054676
:107110000C464CB1E1682846FFF7F8FFA668204608
:107120007BF016FA3446F4E770BD10B504460068EB
:107130008AF0A4FB2060204610BD836810B5044689
:107140002BB10322014698470023C4E902332046AD
:1071500010BD8B6873B5164604460D1D01225BB148
:1071600030681A69904234BF9868D8681D4634BFA9
:10717000012200220346F2E7019552B1CA68AA42F1
:1071800004D1C4E90035204602B070BD01A8FFF764
:10719000A9FF019A3368116999424FF00003F0D3B7
:1071A000C4E90023EFE770B505460C464CB1E16831
:1071B0002846FFF7F8FFA66820467BF0C9F9344659
:1071C000F4E770BD38B504460068844204D0056811
:1071D0007BF0BEF92846F8E738BD70B5046805466F
:1071E0000E46AC4207D0A068036831469B689847BA
:1071F00010B92468F5E7002070BD70B50468054635
:107200000E46AC4207D0A068036831469B68984799
:1072100010B92468F5E7002070BD08B5054B984209
:1072200001D98AF093FC0C235843BDE808407CF058
:107230004DBF00BFAAAAAA0A08B17BF089B970475E
:107240008B6873B5164604460D1D01225BB130886C
:107250001A8A904234BF9868D8681D4634BF01220C
:1072600000220346F2E7019552B1CA68AA4204D14E
:10727000C4E90035204602B070BD01A8FFF732FF17
:10728000019A3388118A99424FF00003F0D3C4E980
:107290000023EFE78B6873B5164604460D1D0122E7
:1072A0005BB130881A8A904234BF9868D8681D460E
:1072B00034BF012200220346F2E7019552B1CA68A9
:1072C000AA4204D1C4E90035204602B070BD01A82D
:1072D000FFF708FF019A3388118A99424FF00003A3
:1072E000F0D3C4E90023EFE770B505460C464CB176
:1072F000E1682846FFF7F8FFA66820467BF028F9EA
:107300003446F4E770BD10B50C4650B137F07CFB45
:1073100038B1043050E8003F234440E80032002AEE
:10732000F8D110BD0368013B13F8012FFF2A03D0E9
:107330008A42F9D1012070470020704710B501380A
:10734000029C0F2800F28480DFE800F05E8236287D
:107350001A1458084A6D7073797D8044DFED427AC3
:107360009FED427A002908BFF0EE477AC2ED007A1D
:10737000052261E0DFED3E7A9FED3E7A0029F2E7DB
:10738000DFED3B7A9FED3B7A002908BFF0EE477AAC
:10739000C2ED007A05222270082242E0DFED347A45
:1073A0009FED347A002908BFF0EE477AC2ED007AEB
:1073B00005222270092234E0DFED2D7A9FED2D7A2F
:1073C000002908BFF0EE477AC2ED007A052222704C
:1073D0000A2226E0DFED247A9FED247A0029E2E7F5
:1073E000DFED217A9FED217A002908BFF0EE477A80
:1073F000C2ED007A082222700B2212E0DFED1E7A25
:107400009FED1E7A0029F0E7DFED1B7A9FED1B7AD6
:10741000002908BFF0EE477AC2ED007A08222270F8
:107420000C221A7010BD16491160C1E71449116091
:10743000CCE714491160062222700722F1E71149B6
:1074400011600622A7E71049116091E70E49F7E79E
:10745000DFED077A9FED077A002908BFF0EE477A43
:10746000C2ED007A0522C6E70020CB440000FA43B3
:1074700000204B4400007A430020CB430000FA4236
:107480000000FA4200007A429A9979411FB5002320
:10749000039300238DF80B308DF80A300DF10A03A9
:1074A000009303AA0DF10B03FFF748FF9DED030ABC
:1074B00005B05DF804FB38B504460C200D467CF0A1
:1074C00005FE2B68836021468AF08BF9A36801339F
:1074D000A36038BD38B504460C200D467CF0F6FD9F
:1074E0002B68836021468AF07CF9A3680133A3608E
:1074F00038BDF8B50D460168044606468C420FD0EB
:107500008A682B680F689A4208D101F108039D42EE
:1075100003D02046FFF77FF900E00E463946EDE73D
:10752000B44205D031462046BDE8F840FFF773B9B4
:10753000F8BDF8B50D460168044606468C420FD0EA
:107540008A682B680F689A4208D101F108039D42AE
:1075500003D02046FFF75FF900E00E463946EDE71D
:10756000B44205D031462046BDE8F840FFF753B994
:10757000F8BD2DE9F047D0E90487436AD0E902A9B4
:1075800004463D1D1E1DAE4204D955F8040B7AF089
:10759000DFFFF8E7C4E906A9C4E90887BDE8F0877A
:1075A0002DE9F047D0E90487436AD0E902A90446EF
:1075B0003D1D1E1DAE4204D955F8040B7AF0C8FFDC
:1075C000F8E7C4E906A9C4E90887BDE8F0870368BD
:1075D00070B5044663B1436A45691E1DAE4204D9C5
:1075E00055F8040B7AF0B4FFF8E720687AF0B0FFA2
:1075F000204670BD036870B5044663B1436A4569AF
:107600001E1DAE4204D955F8040B7AF0A1FFF8E72D
:1076100020687AF09DFF204670BD50F8183B8342E9
:1076200002D018467AF094BF704710B50446FFF7B1
:10763000C9FD0023C4E90044A36010BDB0F1005FA0
:1076400008B501D38AF082FABDE8084080007CF0DA
:107650003DBD08B17AF07CBF7047026962B18368B2
:1076600050F82310013303F0010348BF5B42013A95
:1076700083600261084670471146FBE7826A10B5D5
:1076800082B1036A50F823400133594201F00701E7
:1076900003F0070302F1FF3258BF4B4203628262DC
:1076A000204610BD1446FBE7026962B1836850F8BA
:1076B0002310013303F0010348BF5B42013A8360AA
:1076C0000261084670471146FBE7826C10B582B133
:1076D000036C50F823400133594201F00F0103F0CD
:1076E0000F0302F1FF3258BF4B420364826420460D
:1076F00010BD1446FBE70146014819F001BC00BF6C
:10770000B09A00202DE9F347CB68DFF8649001932D
:107710000E1D07460C4635464FF0FF38DDF804A035
:10772000564510D0DAF81010D9F80430994206D036
:1077300038460EF0CBF9804584BF5546804601A8F7
:10774000FFF7F3FCEAE7AE4210D001A80195FFF77E
:10775000ECFC314628468AF015F97AF0F9FE6369A7
:10776000013B6361012002B0BDE8F0870020FAE729
:10777000D85F00202DE9F347CB68DFF864900193D0
:107780000E1D07460C4635464FF0FF38DDF804A0C5
:10779000564510D0DAF81010D9F80430994206D0C6
:1077A00038460EF093F9804584BF5546804601A8BF
:1077B000FFF7BBFCEAE7AE4210D001A80195FFF746
:1077C000B4FC314628468AF0DDF87AF0C1FE6369E0
:1077D000013B6361012002B0BDE8F0870020FAE7B9
:1077E000D85F00202DE9F347CB68DFF86490019360
:1077F0000E1D07460C4635464FF0FF38DDF804A055
:10780000564510D0DAF81010D9F80430994206D055
:1078100038460EF05BF9804584BF5546804601A886
:10782000FFF783FCEAE7AE4210D001A80195FFF70D
:107830007CFC314628468AF0A5F87AF089FE636917
:10784000013B6361012002B0BDE8F0870020FAE748
:10785000D85F00202DE9F347CB68DFF864900193EF
:107860000E1D07460C4635464FF0FF38DDF804A0E4
:10787000564510D0DAF81010D9F80430994206D0E5
:1078800038460EF023F9804584BF5546804601A84E
:10789000FFF74BFCEAE7AE4210D001A80195FFF7D5
:1078A00044FC314628468AF06DF87AF051FE63694F
:1078B000013B6361012002B0BDE8F0870020FAE7D8
:1078C000D85F00208B6873B5164604460D1D012253
:1078D0005BB130681A69904234BF9868D8681D4619
:1078E00034BF012200220346F2E7019552B1CA6873
:1078F000AA4204D1C4E90035204602B070BD01A8F7
:10790000FFF7F0FB019A3368116999424FF00003C9
:10791000F0D3C4E90023EFE78B6873B5164604463D
:107920000D1D01225BB130681A69904234BF98681E
:10793000D8681D4634BF012200220346F2E70195B4
:1079400052B1CA68AA4204D1C4E90035204602B047
:1079500070BD01A8FFF7C6FB019A3368116999420F
:107960004FF00003F0D3C4E90023EFE78B6873B551
:10797000164604460D1D01225BB130681A6990421B
:1079800034BF9868D8681D4634BF012200220346E0
:10799000F2E7019552B1CA68AA4204D1C4E90035A0
:1079A000204602B070BD01A8FFF79CFB019A336826
:1079B000116999424FF00003F0D3C4E90023EFE7C7
:1079C0008B6873B5164604460D1D01225BB1306805
:1079D0001A69904234BF9868D8681D4634BF0122A6
:1079E00000220346F2E7019552B1CA68AA4204D1C7
:1079F000C4E90035204602B070BD01A8FFF772FB54
:107A0000019A3368116999424FF00003F0D3C4E939
:107A10000023EFE730B5031D826818463AB11569B7
:107A20000C68A5422ABF1046D2689268F6E78342E6
:107A300004D009680269914238BF184630BD30B59C
:107A4000031D826818463AB115690C68A5422ABF21
:107A50001046D2689268F6E7834204D0096802694A
:107A6000914238BF184630BD30B5031D82681846B4
:107A70003AB115690C68A5422ABF1046D2689268CF
:107A8000F6E7834204D009680269914238BF18467C
:107A900030BD30B5031D826818463AB115690C68CF
:107AA000A5422ABF1046D2689268F6E7834204D006
:107AB00009680269914238BF184630BD37B54B6935
:107AC0000192272B05460C460AD901A92046FFF74B
:107AD000E0FF231D834203D121462846FFF7BAFE6B
:107AE00003B030BD10B581680446FEF7DDFD00230C
:107AF000221DC4E90322A360636110BD10B5816833
:107B00000446FEF7E0FD0023221DC4E90322A36022
:107B1000636110BD10B581680446FEF7E3FD0023E4
:107B2000221DC4E90322A360636110BD10B5816802
:107B30000446FEF7E6FD0023221DC4E90322A360EC
:107B4000636110BD2DE9F84300F10409846805461E
:107B50004E46ECB123690868834204D2E368344698
:107B600026461C46F5E7A368FAD8E26843B11969CE
:107B700088428ABFD968996823461C460B46F5E7B8
:107B80003AB11369984236BF1646D2689268F7E751
:107B90003446EB68D5F81480A34209D1B14507D12A
:107BA0002846FFF7C3FF6869A8EB0000BDE8F8832B
:107BB000A642F8D0204689F074FE49460746204682
:107BC00089F0E0FE7AF0C4FC6B69013B6B613C46D6
:107BD000EEE710B50446002029F042FBA368C01A66
:107BE00020EAE07010BD08B17AF0B2BC7047B0F185
:107BF000005F13B501D389F0A9FF820010460192FE
:107C00007CF064FA019A0021044691F057FE204668
:107C100002B010BD42680B4604318A4210B50446DA
:107C200004D01846521A91F02FFE03466268043AB7
:107C30006260184610BD814210B51346A1EB0004E6
:107C400005D001462246184691F01EFE034618193B
:107C500010BD38B50346D3E90035ED1A6FF0604327
:107C6000AC10A3EBA5058D42104601D289F074FF3C
:107C7000A14238BF2146601803D2984228BF184657
:107C800038BD1846FCE708B17AF062BC704710B501
:107C900004460068FFF7F7FF204610BD10B10368E7
:107CA0005B681847704708281BD00A281CD010288A
:107CB0001DD015281ED01F281FD02A2820D03E28CE
:107CC00021D0C82822D0B0F5C87F22D0B0F5487F97
:107CD00022D0B0F5C86F22D007EE900AB8EE670A3E
:107CE00070479FED100A70479FED0F0A70479FED98
:107CF0000F0A70479FED0E0A70479FED0E0A7047FE
:107D00009FED0D0A70479FED0D0A70479FED0C0A1D
:107D100070479FED0C0A70479FED0B0A70479FED6F
:107D20000B0A70479A99F940666626419A997941FB
:107D30006666A6410000FA41CDCC264200007A4298
:107D400000204B430020CB4300204B440020CB4479
:107D500010B103685B681847704710B103685B682F
:107D60001847704710B103681B691847704710B572
:107D70000446006808B1FFF7F5FF204610BD10B1BA
:107D800003681B691847704710B103685B681847A0
:107D9000704770B505460C464CB1E1682846FFF7C0
:107DA000F8FFA66820467AF0D3FB3446F4E770BDAE
:107DB00070B5046805460E46AC4207D0A06803685B
:107DC00031469B68984710B92468F5E7002070BDDC
:107DD0002DE9F84FD0E90087A7EB0804A310234C46
:107DE0005C43234B9C4206468946934602D1214878
:107DF00089F0B2FE012C224638BF0122A418A1EB63
:107E0000080531D244B19C4228BF1C460C20604377
:107E10007CF05CF9824600E0A2469BE807000AEB92
:107E20000503002D83E8070004DD2A46414650463D
:107E300091F02AFDA7EB09070C35002F554404DD0E
:107E40003A464946284691F011FD3D44B8F1000FED
:107E500002D040467AF07CFB0C2000FB04A4C6E96B
:107E600000A5B460BDE8F88F1C46CFE7ABAAAAAA6C
:107E7000AAAAAA0AF3F10B002DE9F84F0646894693
:107E80009346FEF72AFDD6E900A8071EA9EB0A04CF
:107E900028D001DA89F05AFE7CF018F905469BF8E3
:107EA00000302B55002C04DD22465146284691F027
:107EB000EBFCA8EB09080134B8F1000F2C4404DDF9
:107EC00042464946204691F0D1FC4444BAF1000FA5
:107ED00002D050467AF03CFBC6E900543D44B56000
:107EE000BDE8F88F3D46DAE72DE9F04106468846C1
:107EF000154617460446444509D0214638468AF0BF
:107F000039F920468AF04CF818341837F3E7A01BEB
:107F1000C4080448444324F06044182000FB045083
:107F2000BDE8F081ABAAAA0A10B50C1A002C1346C2
:107F300005DD01462246184691F0A6FC03461819B5
:107F400010BDB0F1005F08B501D389F0FFFDBDE8B9
:107F5000084080007CF0BAB808B17AF0F9BA7047EE
:107F6000B1F1005FF8B504460E4602D3104889F01F
:107F7000F3FD026883689B1AB1EBA30F14D947681D
:107F8000BF1A91B10846FFF7DCFF05462A46D4E93F
:107F90000001FFF7C9FF2068FFF7DEFF2F442560CF
:107FA00005EB86056760A560F8BD0D46EEE700BFEE
:107FB00015F20B0008B17AF0CBBA70472DE9F843FF
:107FC000D0E901439C420746894607D00B6844F834
:107FD000043B446078680438BDE8F883D0F800803A
:107FE0006FF06042A4EB0804B2EBA40F4FEAA403C5
:107FF00002D1164889F0B0FD012B1D4638BF01257E
:10800000ED1821D23DB1954228BF1546A8007CF05D
:108010005DF8064600E02E46D9F800303351002CBA
:1080200004DD22464146304691F02EFC04343444AF
:10803000B8F1000F02D040467AF08AFA06EB8505C7
:10804000C7E90064BD60C5E71546DFE7F3F10B0043
:1080500038B50346D3E90035ED1A6FF06043AC1034
:10806000A3EBA5058D42104601D289F075FDA14212
:1080700038BF2146601803D2984228BF184638BD41
:108080001846FCE72DE9F84F05460F4691460121B9
:10809000134AFFF7DDFFD5E9008A0646A7EB080B78
:1080A000D8B1FFF74EFF0446D9F8003044F80B3042
:1080B000224639464046FFF737FF5146021D3846F3
:1080C000FFF732FF07464046FFF746FFC5E9004786
:1080D00004EB8604AC60BDE8F88F0446E4E700BF1B
:1080E000F3F10B00D0E90032934218BF43607047B0
:1080F00010B504460068FFF72FFF204610BD30B5CD
:108100000D68836885B0D0E9004205604D68456020
:1081100003938D6885600023C1E900338B6001A85B
:10812000CDE90142FFF7E4FF05B030BDD0E90023FF
:108130009A4209D1C3681A1F53F8043C436003F5FF
:10814000FC73C2608360036003681C3B036070477C
:1081500013B50B460246D0E900016C4684E80300E3
:1081600093E8030082E8030094E8030083E8030037
:108170009868916890609960D168D868D060D9603B
:1081800002B010BD30B585B0002302938B68054660
:108190000C4633B1022268469847E3680393A3680C
:1081A000029329466846FFF7D3FF684677F0D6F971
:1081B000284605B030BD10B50378DB07044604D56A
:1081C0007AF074F9E368C01A10BD4FF0FF30FBE796
:1081D00008B5064B064A1868064900F61C7076F08A
:1081E0007CFDBDE808400E2015F052BAE452012093
:1081F00025F20B003EF20B0070B5046805460E46F2
:10820000AC4207D0A068036831469B68984710B914
:108210002468F5E7002070BD10B50B4904460B48F3
:10822000FFF7EAFF68B123681D2B0BD801332360E9
:10823000074B084A1868084900F61C7076F04DFD97
:10824000012010BD0020FCE7A4260C0058360120B8
:10825000E452012044F20B0061F20B0070B5046897
:1082600005460E46AC4207D0A068036831469B68BD
:10827000984710B92468F5E7002070BD10B5D0E923
:108280000043144AE31A9B1002FB0312002A1BDB73
:10829000112A04DC1C2303FB0141016010BD1223E1
:1082A00092FBF3F3C16801EB830451F82310C4601F
:1082B00001F5FC748460122404FB13231C2202FBCE
:1082C000031341600360E9E7D3431221B3FBF1F3E9
:1082D000DB43E7E7B76DDBB6CA68C3689B1AD0E932
:1082E0000020121A07489B109210424310B5013B20
:1082F000122404FB03238A680968521A921000FBB7
:10830000023010BDB76DDBB62DE9F04704460F46CD
:1083100000F108011830FFF7DFFF3C4B984202D113
:108320003B4889F019FC626A20686368111AA3EB64
:10833000A101012925D86169A2EB01084FEAA8062D
:10834000B51CB3EB450F3CD95D1B6D0800EB8505F3
:10835000131DA942A3EB01022CD9994202D0284651
:1083600091F092FA2B68E36003F5FC73236105EB4F
:108370000803636255F80830E36103F5FC73656137
:1083800023624FF4FC70656A7BF0A0FE68603D4696
:108390000FCDA6690FC695E80700636A86E8070057
:1083A0001A1D5B68626203F5FC72E3612262A361DD
:1083B000BDE8F0879942D5D008F10400801A28441E
:1083C000CEE703F10209012B2CBF994409F1010901
:1083D000B9F1005F01D389F0B9FB4FEA89007BF066
:1083E00075FE626A6169A9EB050504326D08914268
:1083F000824600EB850503D0521A284691F044FAD4
:1084000020687AF0A5F8C4E900A9ABE724499204F2
:1084100067F20B0073B5044616460D4619B912B142
:108420000D4889F096FB731B0F2B019307D900228F
:1084300001A9204689F092FD019B2060A36032468D
:108440002946206889F01AFE019B2268636000219A
:10845000D15402B070BD00BF97F20B00FFF7DABF36
:10846000036870B5044663B1436A45691E1DAE4298
:1084700004D955F8040B7AF06BF8F8E720687AF025
:1084800067F8204670BD036882681C33934203601E
:1084900008D1C3681A1D5B68C26003F5FC724360B3
:1084A00082600360704701281FB5044600F0BD805C
:1084B000022855D0002844D1784BD3F80025002A53
:1084C0003FD14FF48002C3F808234FF40062C3F891
:1084D0000024BFF36F8FBFF34F8F714B1B68082BC6
:1084E00012D1704B1A68032A0ED86F4B134493F8BD
:1084F000F6334BB16D4B6E4A1868032118BB49F235
:108500007530186011601860FEF786F848B1674B47
:10851000684A1868C021C0B949F275301860116006
:1085200018605E4B0124C3F80045BFF36F8FBFF3A3
:108530004F8FFEF7F5FA20B9FEF7D8FA38B1FEF7FB
:1085400069F804B010BD1160DEE71160E9E75A4B2D
:1085500018601B680193019B4FF080431C60F0E79B
:108560004E4CD4F804351BB1FEF7DAFA0028E8D1F6
:10857000D4F800341B05FBD54FF40063C4F8003475
:10858000BFF36F8FBFF34F8FFEF746F848B1474BED
:10859000484A1868002842D149F2753119601060C4
:1085A00019603F4B1B68082B11D13E4B1A68032AF8
:1085B0000DD83D4B134493F8F63343B13B4B3C4A43
:1085C000186878BB49F27531196010601960FEF7C0
:1085D00023F848B1394B40F2E3721A6040225A60E6
:1085E000BFF36F8FBFF34F8F2C4C35488022012192
:1085F000C4F81C25C4F804133249C1F8842100785A
:10860000FF2800D04A60FEF78BFA0028FBD0012338
:10861000C4F80435BFF36F8FBFF34F8F91E700238A
:108620001360BEE700231360D1E71C4BD3F800258D
:10863000002A86D00022C3F80425BFF36F8FBFF352
:108640004F8F20498020C1F88400BFF34F8FBFF3C4
:108650006F8FD3F80013C3F80813C3F80025BFF3D6
:108660006F8FBFF34F8FFEF741FAA0B1FDF7D0FF38
:10867000154B5968C1F3080100230039CDE90133D6
:10868000039318BF01214FF4007301A8ADF8043023
:1086900002F0DAFF55E70D4B1C60E9E7007002407D
:1086A0003001001034010010D0F20B0000EC064045
:1086B00014ED064014EC0640000100400078024032
:1086C0000440002000E100E000ED00E00400004074
:1086D000F0B42C4ABFF35B8F02F590734FF00104A6
:1086E000D3E84F1FC3E8454F002DF9D1BFF35B8F8F
:1086F00011F0FF0F14460BD0234B5A68C2F3080247
:10870000003A0146F0BC214818BF012202F072BFB6
:1087100008281F491AD1D1F8C034D80308D5BFF3AF
:108720005B8F002384F82031BFF35B8FF0BC704770
:1087300092F80B010028F2D0D2F800211548C1F8B8
:10874000A027C1F8A437F0BCFEF774B802EB4015BF
:1087500000F59473460151F82340EF88AB88DB1B8A
:108760009BB2A4B2A34228BF23469459142202FB11
:108770000011C1F80047C1F80437074B03EB800034
:10878000E1E700BFEC49002000ED00E0E5870200D2
:1087900000700240487002402870024010F07F01D3
:1087A00008B507D10D4B01225A65BFF36F8FBFF398
:1087B0004F8F08BD0829F8D0084B40F48072C3F8E9
:1087C0001825C309F1D1064A02EB4112907A00281C
:1087D000EBD093720846FFF77BFFE6E7007002409C
:1087E000EC490020C0B273E70D4B03EB4013D98A6C
:1087F0009A8A521A198B92B28A4228BF0A4619697C
:108800001423434303F1804303F51C33C3F80016DC
:10881000C3F80426034B03EB8000FEF725B800BF26
:10882000EC490020047002402DE9F04FC34BC44ACC
:10883000D3F80013002385B01C4601201D4621FA01
:1088400003F6F6070BD552F8236046B100FA03F69B
:10885000344342F82350BFF36F8FBFF34F8F013380
:10886000192BECD1E7073BD5B44B0122C3F81425F3
:10887000C3F8102500221546930003F1804303F549
:108880001C330132082A5D609D62F5D1AB4B5D62FD
:108890009D64C3F85851D3F80024D3F800140A4358
:1088A000C3F80024D3F80023C3F80823A54AC3F86B
:1088B0000423A54B4FF492720021184690F0FEFF5E
:1088C0004022028302814FF48073012101A8CDE987
:1088D00001550395ADF804308DF8085002F0B4FE50
:1088E00014F4006F984D08D0944BD3F8A8369BB27F
:1088F000A5F81631012385F81C31A60204F480077F
:1089000036D58E4ED6F8143513F4807308D01FB1C7
:10891000D6F80034D80702D40820FFF7D9FE012387
:10892000D6F81025D10540F15D8195F81C319BB139
:10893000B5F8163100229BB2CDE9012285F81C2141
:1089400003934FF4E0628823012101A8ADF80420CD
:10895000ADF8083002F078FE0023CDE9013303932F
:1089600001214FF4407301A8ADF8043002F06CFE11
:10897000002F37D0714BD3F8006440F201723240BF
:10898000C3F80024F2050DD50121C3F82C150023EE
:10899000CDE90133039301A84FF48063ADF80430AF
:1089A00002F052FE77050FD5644B0122C3F808256B
:1089B0009A65D3F8002312F4001208BFC3F85421BB
:1089C0004FF40012C3F80423B0050BD50023CDE902
:1089D0000133039301214FF4A06301A8ADF80430E3
:1089E00002F032FE21023BD5544BD3F880E4D3F899
:1089F0008424D3F88814D3F88C74D3F89064D3F813
:108A000094045FFA81FCD3F89814D3F89C341EF0D8
:108A10007F0F5FFA8EF8D2B2FFB2F6B2C0B2C9B21F
:108A2000DBB201D1052A1BD04FF0000EADF806E0F5
:108A30008DF80D004FF4C06E8DF80E1001A80121C5
:108A4000ADF804E08DF808808DF809208DF80AC093
:108A50008DF80B708DF80C608DF80F3002F0F4FD7E
:108A60003A4B23406BB1BFF35B8F95F82031BFF3D6
:108A70005B8F002B40F0BE80354B1B68DA0700D5BA
:108A800000BEDFF8C480DFF8B490DFF8CCB0474612
:108A900000264FF0140A06F10C0324FA03F3DB0757
:108AA000F1B224D50AFB06933A68D3F8083705EBF0
:108AB000461C12FA83F23A60BCF806E098B273449E
:108AC0009BB2082E4FEA4612ACF8063000F09A80AE
:108AD0003B89834240F09680BCF80630B8889BB250
:108AE000984240F28F8011B95846FDF7BDFE01361D
:108AF000092E07F12007CED1164B2340002B00F0A2
:108B000089800E4BD3F86C74C3F86C74BFF36F8F0D
:108B1000BFF34F8F14F4806408D0D3F88044D3F8A7
:108B200080341906C4F3C01440F18D804FF0000961
:108B3000DFF808A000264FF0140B0FE00070024091
:108B4000007102400514C001EC490020FCFB1F002D
:108B5000F0ED00E0000400014C70024027FA06F33B
:108B6000DA07F0B201D4D6B9CCB10BFB06A3D8F822
:108B70001020D3F8083652FA83F2C8F8102005EB1B
:108B80004612D18A89B251FA83F39BB2D382D38A37
:108B9000B8F814109BB2994258D9FFF725FE013658
:108BA000082E08F12008D9D10024012604F1100371
:108BB00027FA03F3DB07E0B203D47CB9B9F1000F65
:108BC0000CD005EB44116301CA7A002A53D0CA883D
:108BD000898892B291424ED9FFF77AFD0134082C70
:108BE000E4D117E0002B7FF4B7AE4FF40013C6F8C2
:108BF0000833B1E60023BFF35B8F85F82031BFF364
:108C00005B8F3EE72A44D37A3BB91C4B1B68D807DD
:108C100000D500BE05B0BDE8F08FD388BB8000232F
:108C2000D372D2884FF4E060CDE9013392B2ADF84F
:108C300004008DF8081001A8012103928DF8093075
:108C400002F002FD53E74FF0010971E7D28A0023D9
:108C50004FF4E06160F07F00CDE9013392B2ADF8EE
:108C600004108DF80800012101A803928DF8093045
:108C700002F0EAFC93E72B449E72AFE7F0ED00E0D0
:108C8000024B1B68DB0700D500BE7047F0ED00E02B
:108C9000034B1B68DB0700D500BE0020704700BFF8
:108CA000F0ED00E037B50446142001917BF00EFA98
:108CB000019905461BF070FF256003B030BD022A04
:108CC00070B5054607D0032A13D0012A01D10B68DD
:108CD0000360002070BD0C6814207BF0F7F921467A
:108CE000064651F8043B40F8043B1AF0FBFB2E60AB
:108CF000EFE7FDF7B9FCECE7E1E7022A70B50546BE
:108D000007D0032A13D0012A01D10B680360002089
:108D100070BD0C6814207BF0D9F92146064651F845
:108D2000043B40F8043B1AF0DDFB2E60EFE7FDF753
:108D30009BFCECE7022A70B5054607D0032A13D046
:108D4000012A01D10B680360002070BD0C6814205B
:108D50007BF0BCF92146064651F8043B40F8043B41
:108D60001AF0C0FB2E60EFE7FDF77EFCECE7E1E7D1
:108D7000022A70B5054607D0032A13D0012A01D173
:108D80000B680360002070BD0C6814207BF09EF916
:108D90002146064651F8043B40F8043B1AF0A2FB7A
:108DA0002E60EFE7FDF760FCECE7E1E7E0E7DFE7E7
:108DB0001FB5044668461AF095FB21466846FFF742
:108DC000C7F9684676F0CAFB204604B010BD00BF64
:108DD000014B93F858017047105C0020014B93F849
:108DE00049017047105C0020014B93F86201704705
:108DF000105C00202DE9F047DFF8F0A3CB4BCC4D01
:108E0000CC4E504694B0442240F80C3B0021002444
:108E100090F054FDC84BCAF808308AF804400AF1B3
:108E20005401012079F072FDC44BCAF85000CAF811
:108E30000030C34AC349504688F0CEFC2346224640
:108E400021460094C04878F0C3F9234622462146C3
:108E50000094BE4878F0BCF923462246214600948F
:108E6000BB4878F0B5F92346224621460094B9481C
:108E700078F0AEF92346224621460094B64878F0B1
:108E8000A7F92346224621460094B44878F0A0F979
:108E90002346224621460094B14878F099F92346AA
:108EA000224621460094AF4878F092F9AE4878F017
:108EB00087F92346224621460094AC4878F088F989
:108EC0002346224621460094A94878F081F9A94812
:108ED0009B4AA949C0F884404FF40053A0F8803061
:108EE000A64BC0F88830A0F89C4088F075FCA44BD5
:108EF000A44ADC604FF00808C3E9014483F800800D
:108F00001C82A14BA1481C705C70A14B01271A6008
:108F1000A04A1F71D2F8B4101973D2F8AC1099732B
:108F2000D2F8B0105973DC731C829C609A4B9B4939
:108F30001C711960516F1973D1689973926F9C609D
:108F40005A73DC731C82224623462146009478F033
:108F50003FF94FF47A7919232B61C5E90C44AC60D1
:108F6000AC81AC73AC82EC61AE61C5F828A085F829
:108F70002C402146C5E90055C5F82090802205F116
:108F80007C0085F8384085F8784090F097FC2146C1
:108F9000882205F1FC0090F091FC694A804928463E
:108FA00088F01AFC23462246214600947D4878F03A
:108FB0000FF923462246214600947B4878F008F9B1
:108FC0007A485F4A7A498460C0E9000088F004FC6E
:108FD00078485B4A76498460C0E9000088F0FCFB71
:108FE0007548574A72498460C0E9000088F0F4FB74
:108FF0002346224621460094704878F0E9F823463B
:109000002246214600946E4878F0E2F82346224634
:10901000214600946B4878F0DBF82346224621462F
:109020000094694878F0D4F82346224621460094FB
:10903000664878F0CDF823462246214600946448DD
:1090400078F0C6F82346224621460094614878F01D
:10905000BFF823462246214600945F4878F0B8F8CE
:1090600023462246214600945C4878F0B1F85C48DB
:1090700074F03EFF324A5B49594888F0ADFB234605
:10908000224621460094584878F0A2F84FF4A47084
:109090007BF01CF806F124030546214640F8043B0A
:1090A000202290F00BFC6C622146102205F1280072
:1090B00090F004FC2146212205F1380090F0FEFBDF
:1090C0002146202205F1590090F0F8FB214620228C
:1090D00005F1790090F0F2FB2146C5F89C40202272
:1090E00005F1A00090F0EAFB85F8C04005F1C4004E
:1090F00074F0FEFE2146202205F1C80090F0DEFB50
:109100002146202205F1E80090F0D8FB21462022DC
:1091100005F5847090F0D2FB2146202205F594706D
:1091200090F0CCFB06F1680362E000BF882B0C00D6
:10913000C40B0120D8F20B0064400020982B0C00D7
:109140000040002075030300A81201200012012036
:1091500034250120201501203C2501205425012023
:109160005C250120841201207C120120642501204D
:109170006C9200209C9400205905040080EE36007B
:10918000CC14012000F0024020360120480D0120BF
:1091900028360120CC080E003C3601200030024069
:1091A0007BA604005036012070360120583601207D
:1091B00015E107006436012078360120843601204D
:1091C0008C360120943601209C360120B4360120D3
:1091D000C0360120C8360120D0360120D836012003
:1091E000E0360120E3DE0900E4360120B052002021
:1091F0002B60C34BC3481D60224623462146009482
:1092000006F1AC0A77F0E4FFBF4BC04810930EA9FB
:10921000CDF838A08DF83E40ADF83C40119446F0B2
:10922000D1FEBB4ABB49B948BB4D88F0D5FABB4B10
:10923000BB4810930EA9CDF838A08DF83E40ADF88C
:109240003C40119404F0ACFEB14AB649B44888F0F1
:10925000C3FAB54BB54810930EA9CDF838A08DF8D8
:109260003E40ADF83C40119404F09AFEA84AAD4946
:10927000AE4888F0B1FAAE4BAE4810930EA9CDF8C7
:1092800038A08DF83E40ADF83C40119404F088FEC3
:109290009F4AA449A74888F09FFAA74BA748109374
:1092A0000EA9CDF838A08DF83E40ADF83C401194A1
:1092B00004F076FE964A9B49A04888F08DFA41F664
:1092C0000A030EA92846CDE91044CDF838A08DF840
:1092D0003E70ADF83C3046F075FE284606F1BC0302
:1092E000214640F8183B242290F0E8FA944BEB61B9
:1092F0001523C5E90F4485F83D30924BEB620523F9
:1093000085F84130904B2B63132385F8444085F852
:10931000423028468D4D7E4A8D4988F05DFA41F6EF
:109320000F030EA92846CDE91044CDF838A08DF8DA
:109330003E70ADF83C3046F045FE284606F1D003BD
:1093400040F8183B0EA942F61923ADF83C30CDE9A0
:109350001044CDF838A08DF83E7004F021FE284668
:109360007C4D6B4A7C4988F037FA7C4BCDF838A0AD
:109370000EA9284610938DF83E40ADF83C4011945C
:1093800046F020FE2846E436754B40F8186B0EA9CF
:109390001093CDF838A08DF83E40ADF83C401194C4
:1093A00004F0FEFD5A4A6F49DFF820A2284688F0F3
:1093B00013FA23462246214600946B486B4D77F002
:1093C00007FF2346224621460094694877F000FFB4
:1093D0002346224621460094664877F0F9FE23464C
:1093E000224621460094644877F0F2FE2346224646
:1093F00021460094614877F0EBFE23462246214641
:1094000000945F4877F0E4FE23462246214600940C
:109410005C4877F0DDFE23462246214600945A48F8
:1094200077F0D6FE2346224621460094574877F02F
:10943000CFFE2346224621460094554877F0C8FEC9
:109440002346224621460094524877F0C1FE234627
:10945000224621460094504877F0BAFE2346224621
:10946000214600944D4877F0B3FE4D4874F040FD1E
:10947000274A4C494A4888F0AFF9234622462146FC
:109480000094494877F0A4FE2346224621460094E2
:10949000464877F09DFE23462246214600944448E4
:1094A00077F096FE2346224621460094414877F005
:1094B0008FFE23462246214600943F4877F088FEDF
:1094C00023462246214600943C4877F081FE2346FD
:1094D0002246214600943A4877F07AFE23462246F7
:1094E00021460094374877F073FE234622462146F2
:1094F0000094354877F06CFE2346224668E000BFB2
:10950000EC360120943F01204F080E00A8390120BD
:10951000004000209BF10700303A012060080E0057
:10952000F0360120C5DF020070080E00E83A012085
:109530003E080E00403D01202D080E004837012056
:10954000E1090E00F4F00B00FAF00B00783A01206C
:1095500099F10700C03901209DF10700F30E0D00BD
:10956000030F0D009FF107009C3F0120544901208B
:10957000A43F0120AC3F0120B43F0120BC3F0120AB
:10958000C43F0120CC3F0120D43F0120DC3F01201B
:1095900090940020E43F0120EC3F0120581101206D
:1095A00060110120E3DE0900F43F0120FC3F0120AF
:1095B000044001200C4001201440012020400120E3
:1095C0002C4001203840012040400120D449012096
:1095D00021460094C44877F0FBFD234622462146ED
:1095E0000094C24877F0F4FD2346224621460094B9
:1095F000BF4877F0EDFD2346224621460094BD4842
:1096000077F0E6FD2346224621460094BA4877F0DB
:10961000DFFD2346224621460094B84877F0D8FD66
:109620002346224621460094B54877F0D1FD2346D3
:10963000224621460094B34877F0CAFD23462246CD
:1096400021460094B04877F0C3FD234622462146C8
:109650000094AE4877F0BCFD234622462146009494
:10966000AB4877F0B5FD2346224621460094A94831
:1096700077F0AEFD2346224621460094A64877F0B7
:10968000A7FD2346224621460094A44877F0A0FD7A
:109690002346224621460094A14877F099FD2346AF
:1096A0002246214600949F4877F092FD23462246A9
:1096B000214600949C4877F08BFD234622462146A4
:1096C00000949A4877F084FD234622462146009470
:1096D000974877F07DFD2346224621460094954821
:1096E00077F076FD2346224621460094924877F093
:1096F0006FFD2346224621460094904877F068FD8E
:1097000023462246214600948D4877F061FD23468A
:109710002246214600948B4877F05AFD2346224684
:1097200021460094884877F053FD2346224621467F
:109730000094864877F04CFD23462246214600944B
:10974000834877F045FD2346224621460094814810
:1097500077F03EFD23462246214600947E4877F06E
:1097600037FD23462246214600947C4877F030FDA1
:109770002346224621460094794877F029FD234666
:10978000224621460094774877F022FD2346224660
:1097900021460094744877F01BFD2346224621465B
:1097A0000094724877F014FD234622462146009427
:1097B0006F4877F00DFD23462246214600946D4800
:1097C00077F006FD23462246214600946A4877F04A
:1097D000FFFC2346224621460094684877F0F8FCB7
:1097E0002346224621460094654877F0F1FC234643
:1097F000224621460094634877F0EAFC234622463D
:1098000021460094604877F0E3FC23462246214637
:1098100000945E4877F0DCFC234622462146009403
:109820005B4877F0D5FC23462246214600945948F0
:1098300077F0CEFC2346224621460094564877F026
:10984000C7FC2346224621460094544877F0C0FCCA
:109850002346224621460094514877F0B9FC23461E
:109860002246214600944F4877F0B2FC2346224618
:10987000214600944C4877F0ABFC23462246214613
:1098800000944A4877F0A4FC2346224621460094DF
:10989000474877F09DFC23462246214600944548E0
:1098A00077F096FC2346224621460094424877F002
:1098B0008FFC2346224621460094404877F088FCDE
:1098C00023462246214600943D4877F081FC2346FA
:1098D0002246214600943B4877F07AFC3A483B4ABE
:1098E0003B49046076E000BF484001205040012021
:1098F0005840012060400120684001207040012054
:1099000078400120C0140120A00F012084400120D4
:109910009040012098400120A0400120A840012053
:10992000B0400120B8400120C0400120C8400120C3
:10993000D0400120600D0120D8400120E0400120EE
:10994000E8400120F0400120F840012000410120C2
:10995000084101201041012020410120284101201F
:109960003041012038410120404101204C4101207B
:10997000544101205C410120644101206C410120DF
:10998000744101207C410120844101208C4101204F
:10999000944101209C410120A4410120B0410120BB
:1099A000B8410120C0410120C8410120D04101201F
:1099B000D8410120E0410120B8140120E8410120F4
:1099C000F0410120B0140120A81401200040002023
:1099D000D577060087F000FF2346224621460094F3
:1099E000C74877F0F5FB2346224621460094C54838
:1099F00077F0EEFBC448C54AC549046087F0ECFE29
:109A00002346224621460094C24877F0E1FB2346D4
:109A1000224621460094C04877F0DAFB23462246CE
:109A200021460094BD4877F0D3FB234622462146C9
:109A30000094BB4877F0CCFB234622462146009495
:109A4000B84877F0C5FB2346224621460094B64825
:109A500077F0BEFB2346224621460094B34877F0B8
:109A6000B7FB2346224621460094B14877F0B0FB6D
:109A70002346224621460094AE4877F0A9FB2346B0
:109A8000224621460094AC4877F0A2FB23462246AA
:109A900021460094A94877F09BFB234622462146A5
:109AA0000094A74877F094FB234622462146009471
:109AB000A44877F08DFB2346224621460094A24815
:109AC00077F086FB23462246214600949F4877F094
:109AD0007FFB23462246214600949D4877F078FB81
:109AE00023462246214600949A4877F071FB23468C
:109AF000224621460094984877F06AFB2346224686
:109B000021460094954877F063FB23462246214680
:109B10000094934877F05CFB23462246214600944C
:109B2000904877F055FB23462246214600948E4804
:109B300077F04EFB23462246214600948B4877F06F
:109B400047FB2346224621460094894877F040FB94
:109B50002346224621460094864877F039FB234667
:109B6000224621460094844877F032FB2346224661
:109B700021460094814877F02BFB2346224621465C
:109B800000947F4877F024FB234622462146009428
:109B90007C4877F01DFB22462146234600947A48F4
:109BA00077F016FB50461436CAE9014940F8146BA9
:109BB00077F006FB754B2C71AB608AF8208005F1BD
:109BC0000C0077F0FDFA40F23953C5E905344EF642
:109BD0006023C5E907346E4BAB606C62C5F800A02A
:109BE0006C4D2846C5E9014940F8146B77F0E8FA56
:109BF00085F82080DFF8EC81404677F0E1FA664A8C
:109C000048F8045CC8E904224FF47F02C8F8084011
:109C1000A8F80C40C8F81820234622462146009494
:109C20005E485F4D77F0D4FA2346224621460094E1
:109C30005C4877F0CDFA23462246214600945A48E4
:109C400077F0C6FA2346224621460094574877F01B
:109C5000BFFA2346224621460094554877F0B8FAC9
:109C60002346224621460094524877F0B1FA234613
:109C7000224621460094504877F0AAFA234622460D
:109C8000214600944D4877F0A3FA23462246214608
:109C900000944B4877F09CFA2346224621460094D4
:109CA000484877F095FA23462246214600944648D4
:109CB00077F08EFA2346224621460094434877F0F7
:109CC00087FA2346224621460094414877F080FADD
:109CD00023462246214600943E4877F079FA2346EF
:109CE0002246214600943C4877F072FA23462246E9
:109CF00021460094394877F06BFA394B2B6173E0B9
:109D0000A0140120681401206414012000400020E8
:109D1000D5770600F8410120044201200C420120C1
:109D2000184201206C4401203C950020744401201D
:109D30007C440120844401208C440120944401206F
:109D4000BC0F0120200F01209C4401205814012049
:109D5000A84401209C470120501401200448012000
:109D600010480120144901202C1401202014012046
:109D700020490120AC0F01202C4901203449012049
:109D80003C49012044490120CC490120D0310C003C
:109D90000F680020F849012076430E00204A012078
:109DA000B09A0020284A0120304A0120384A012078
:109DB000444A01204C4A0120544A01205C4A0120B7
:109DC000644A01206C4A0120784A0120804A01201F
:109DD000884A0120904A0120984A0120A89A002030
:109DE00049640200B0490120C54BEB602846C54BD1
:109DF0006B6106F1540340F8183B21466D6045F253
:109E0000E8628FF05BFD2146362205F5AE408FF00B
:109E100055FD2846BC4DBD4ABD4987F0DDFC2846AE
:109E2000214600F8044B4FF4CE728FF047FD2146D7
:109E30004FF4CE7205F5D0708FF040FD23462246D8
:109E400021460094B348B44D77F0C2F92346224628
:109E500021460094B14877F0BBF9234622462146BB
:109E60000094AF4877F0B4F9AE48A84AAE49846090
:109E7000C0E9000087F0B0FC23462246214600944A
:109E8000AA4877F0A5F92346224621460094A8481F
:109E900077F09EF92346224621460094A54877F0A4
:109EA00097F92346224621460094A34877F090F97B
:109EB0002346224621460094A04877F089F923469C
:109EC0002246214600949E4877F082F99D488F4AA9
:109ED0009D49C463C0E90144C0E90344C0E90544A5
:109EE000C0E90744C0E90944C0E90B44C0E90D4496
:109EF00087F072FC2346224621460094934877F06F
:109F000067F92346224621460094914877F060F98C
:109F1000904B2B612846904BEB6006F16C0340F8A8
:109F2000183B6C6121466D604FF4FB528FF0C6FC0C
:109F30002146102289488FF0C1FC744A884928467E
:109F4000884D87F049FC884B2B612846874BEB6096
:109F500006F1840340F8183B6C6121466D602022B5
:109F60008FF0ACFCAC63694A81492846814D87F08B
:109F700033FC814B2B612846804BEB6006F19C0340
:109F800040F8183B6C6121466D604FF4F0628FF031
:109F900095FCC5F898475D4A7949284687F01CFC2E
:109FA0002346224621460094764877F011F923464D
:109FB000224621460094744877F00AF92346224647
:109FC00021460094714877F003F923462246214642
:109FD00000946F4877F0FCF823462246214600940F
:109FE0006C4877F0F5F823462246214600946A48EB
:109FF00077F0EEF82346224621460094674877F032
:10A00000E7F82346224621460094654877F0E0F8B9
:10A010002346224621460094624877F0D9F8234629
:10A02000224621460094604877F0D2F82346224623
:10A03000214600945D4877F0CBF85D48214620F832
:10A04000024B10228FF03AFC234622462146009410
:10A05000584877F0BDF823462246214600945648DA
:10A0600077F0B6F82346224621460094534877F00D
:10A07000AFF85349254A534887F0AEFB5C207AF08D
:10A0800025F8054607F0A1FE2B464F4A43F8382B2A
:10A09000C5E90E3306F1B4036B634C4B2C64C5E980
:10A0A00012344FF400734FF00208A5F85830484BB3
:10A0B0006C656F626D6485F8508085F85A80CC209D
:10A0C0001D607AF003F8054607F07FFE2B46414AF3
:10A0D00043F8382BC5E90E3306F1C8036B633E4BDA
:10A0E0002C642146C5E912347422A5F8504085F845
:10A0F00052406D6405F154008FF0E0FB6EE000BF4C
:10A100002D6502000EF10B00689700200040002032
:10A11000A90C0400A04A0120E4720020AC4A0120EE
:10A12000CC100120D410012015E10700B44A012011
:10A13000BC4A0120C84A012098120120D04A0120BF
:10A140001C6A00209C660020475D0300D84A01205D
:10A15000D87200207B640200276502005C92002018
:10A16000C5E00300F86A002071640200296502005E
:10A170009BE00300386B0020676402002B6502003F
:10A180006DE00300A0120120F0F10020E04A012060
:10A19000E84A0120F04A0120F84A0120004B012042
:10A1A00090120120084B0120104C0120EC6A002085
:10A1B000D86A0020F81101201C4C0120504E0120CB
:10A1C00037850900104E01205C2E0C002918030071
:10A1D000E84D012040A50C00FDD80400BE4BC5F899
:10A1E000C840C5F8248058201D6079F06FFF0546EF
:10A1F00007F0EBFD2B46B94A43F8382BC5E90E337F
:10A20000B74B2C64C5E9123403236B62DC36B54BC3
:10A210002C65A5F8544085F856406E636D646C203B
:10A220001D6079F053FF054607F0CFFD2B46AE4A7F
:10A2300043F8382BC5E90E33AC4B6B63AC4BAD4FD9
:10A24000AD4A39782C64C5E9123405F15C03C5E9DF
:10A25000153404236B62A94B2C651D603B88138069
:10A26000A74A85F85C401380A64A6D641380A64A0D
:10A27000A6481380A64A1380A64B7A781C705970A2
:10A280009A70214623462246009476F0A1FF234689
:10A29000224621460094A04876F09AFF23462246A3
:10A2A000214600949D4876F093FF2346224621469E
:10A2B00000949B4876F08CFF23462246214600946A
:10A2C000984876F085FF234622462146009496481A
:10A2D00076F07EFF2346224621460094934876F08E
:10A2E00077FF2346224621460094914876F070FF7E
:10A2F00023462246214600948E4876F069FF234685
:10A300002246214600948C4876F062FF234622467E
:10A3100021460094894876F05BFF23462246214679
:10A320000094874876F054FF234622462146009445
:10A33000844876F04DFF2346224621460094824809
:10A3400076F046FF23462246214600947F4876F069
:10A350003FFF23462246214600947D4876F038FF91
:10A3600023462246214600947A4876F031FF234660
:10A37000224621460094784876F02AFF234622465A
:10A3800021460094754876F023FF23462246214655
:10A390000094734876F01CFF234622462146009421
:10A3A000704876F015FF23462246214600946E48F9
:10A3B00076F00EFF23462246214600946B4876F045
:10A3C00007FF2346224621460094694876F000FFA5
:10A3D0002346224621460094664876F0F9FE23463D
:10A3E000224621460094644876F0F2FE2346224637
:10A3F00021460094614876F0EBFE23462246214632
:10A4000000945F4876F0E4FE5E485F4A5F498460EE
:10A41000C0E9004487F0E0F9234622462146009433
:10A420005B4876F0D5FE5B48574A5B49846087F00D
:10A43000D3F95A48544A5A49846087F0CDF92346E3
:10A44000224621460094574876F0C2FE2346224613
:10A4500021460094544876F0BBFE54484A4A544979
:10A460008460C0E9004487F0B7F95248464A52492F
:10A470008460C0E9004487F0AFF95048424A4E4931
:10A480008460C0E9004487F0A7F94D483E4A4D4931
:10A490008460C0E9004487F09FF9234622462146A4
:10A4A0000094494876F094FE2346224621460094C3
:10A4B000464876F08DFE23462246214600944448C5
:10A4C00076F086FE2346224621460094414876F0E7
:10A4D0007FFE234680E000BF444E0120CC800C006C
:10A4E000EF2C0400484E012050C10D00C8C10D00E2
:10A4F00021890900535201202C4E0120584E012081
:10A500002F4E0120204E0120224E0120684E0120B6
:10A51000244E0120324E0120704E0120784E012041
:10A52000804E0120884E0120944E01209C4E012037
:10A53000A44E0120AC4E0120B44E0120BC4E01209F
:10A54000C44E0120CC4E0120D44E0120DC4E01200F
:10A55000E84E0120F04E012044110120F84E012068
:10A56000004F0120084F0120144F0120244F0120EB
:10A570002C4F01203C110120344F01203C4F012081
:10A58000BC0B0120AC0B0120004000202167020021
:10A590009C5900203C590020416602007859002057
:10A5A00041660200880F012034110120F8100120BB
:10A5B000A1DD0900041101203D4B04001811012008
:10A5C000241101203D4B0400580B0120444F012071
:10A5D0004C4F0120584F01202246214600946848E4
:10A5E00076F0F6FD2346224621460094654876F033
:10A5F000EFFD2346224621460094634876F0E8FDAD
:10A600002346224600942146604876F0E1FD604BE7
:10A6100030240022013C1A7303F10E03FAD12346C1
:10A62000224621465B48009476F0D2FD5A485B4AA8
:10A630005B498460C0E9004487F0CEF85948574A26
:10A640005949047200F10803C0E9003487F0C4F8E6
:10A650002346224621465548009476F0B9FD5448D9
:10A66000544D4E4A54498460C0E9004487F0B4F820
:10A67000012614222146C5E90044AC6005F10C0016
:10A680008FF01CF9C5E90844C5E90A44C5E90C4442
:10A69000C5E90E44C5E91044C5E912442C6585F8A6
:10A6A00054602346224621464448009476F090FDAB
:10A6B0002346224621464248009476F089FD2346EF
:10A6C000224621463F48009476F082FD23462246EA
:10A6D00021463D48009476F07BFD234622462146E4
:10A6E0003A48009476F074FD2346224621463848C5
:10A6F000009476F06DFD23462246214635480094AD
:10A7000076F066FD254A3449344887F065F82346DB
:10A71000224621463248009476F05AFD31481F4ABD
:10A720003149046087F058F8304B3C701C705C7005
:10A730009C702246234621467C702D48009476F07A
:10A7400047FD2C4820F05AF8144A2B49294887F035
:10A7500043F82A4820F052F8104A2749274887F042
:10A760003BF803222146304678F026F8244B186047
:10A7700000284DD1234B244A24480C2153F0DAFD04
:10A78000000F0120580F0120604F0120684F012069
:10A79000704F0120500F0120105201200040002076
:10A7A000A1DD09001C520120A9210B00546A0020E0
:10A7B0003C6A00205C6A00208F7C02003452012039
:10A7C000A00B01203C520120F80E01204452012030
:10A7D000CC0E0120C40E01206F7D0200680D012007
:10A7E000580D01204C520120D5770600505201200F
:10A7F000C0550020EC540020A5240300C8550020BB
:10A80000985600201CF10B0026F10B0066F10B009E
:10A81000AE4AAF49AF4DB04F184686F0DDFF234634
:10A82000224621460094AD4876F0D2FC23462246CB
:10A8300021460094AA4876F0CBFC234622462146C6
:10A840000094A84876F0C4FC234622462146009492
:10A85000A54876F0BDFC2346224621460094A34835
:10A8600076F0B6FC2346224621460094A04876F0B6
:10A87000AFFC23462246214600949E4876F0A8FC71
:10A8800023462246214600949B4876F0A1FC2346AD
:10A89000224621460094994876F09AFC23462246A7
:10A8A00021460094964876F093FC234622462146A2
:10A8B0000094944876F08CFC23462246214600946E
:10A8C000914876F085FC23462246214600948F4825
:10A8D00076F07EFC23462246214600948C4876F092
:10A8E00077FC23462246214600948A4876F070FC85
:10A8F000894B8A4A9C60C3E90024894ADA60894B03
:10A90000894A9C60C3E90024884ADA608849894BF7
:10A910008948C3E90242C3E90014884B884A1A6097
:10A92000884A5A60884A9A60884ADA60884B894A1D
:10A930009C60C3E90024884ADA60884B884A9C609E
:10A94000C3E90024874ADA60874B884A8849C3E90B
:10A950000024884A9A60884ADA60884B884A9C605A
:10A96000C3E90024874ADA60874A11608749846016
:10A97000C2E901148649D160864A87491160874936
:10A980005160874991608749D160C0E900344F4ADE
:10A990008549C0F8EC4080F8F04086F01DFF234662
:10A9A000224621460094814876F012FC8048814B73
:10A9B00003610523037105F14C0300264FF04008A5
:10A9C000036205F15803C0E90934404A7A49047327
:10A9D0000475846104778460056080F82D80446389
:10A9E000866386F0F9FE7548754B03612223037177
:10A9F00005F16403036005F1B003036205F1BC03D4
:10AA0000436242F21073314A6E49047304758461E3
:10AA10000477846080F82880C762C663A0F840305D
:10AA200080F842804764066386634663846486F0E8
:10AA3000D3FE6548654B03610423037105F1C80328
:10AA4000036005F58873214A6149047304758461C4
:10AA500004778460036286F0BFFE5E485E4B03614C
:10AA60000E23037105F58E73036005F5B47303625D
:10AA700005F5BA734362422380F83430574B134ACA
:10AA80005749047304758461047784608763836223
:10AA9000C3620363C46386F09FFE5248524B036156
:10AAA0001C23037105F5C073036005F5E473C0E969
:10AAB0000834064A4D490473047584610477846040
:10AAC00086F08AFE23462246214691E0004000207F
:10AAD00031DF0900C0F40B004C5E0120500D012055
:10AAE000585201206052012068520120705201200A
:10AAF000D06A00207C52012084520120D0520120D3
:10AB0000DC520120E8520120F05201209C53012028
:10AB1000A45301204054012030540120C9F0090001
:10AB200092F10B0048540120ADF009009BF10B009D
:10AB30008FF00900205401205854012000540120B6
:10AB400041F609004F6502004D6502005B870C006D
:10AB5000D05301201DF609009FF10B00E0530120A6
:10AB6000F5F50900A2F10B0010540120D1F5090000
:10AB7000A5F509003F660200A7F10B00F053012084
:10AB80001D640200AEF10B00C05301207BF00900F0
:10AB9000B3F10B00B05301206FF5090069F0090013
:10ABA00039660200B6F10B0075D70300B4540020DB
:10ABB000B4530020BCF10B00051E0300F05300202D
:10ABC000C3F10B00431E03003C540020CAF10B00EC
:10ABD000411E030070540020D1F10B00CDCCCC3DC0
:10ABE0003F1E0300BC540020D9F10B003D1E0300A2
:10ABF00000943948394E76F0EBFA23462246214636
:10AC00000094374876F0E4FA364902A805F0BAFE17
:10AC1000304605F0DDFD06F13003C6E90A3402AA2C
:10AC20000EA8314986F8304005F0FCFD2F490EA8EA
:10AC300087F0AAFC014608A887F09CFA08A906F14B
:10AC4000280087F0B7FA08A887F0AAF90EA887F0BD
:10AC5000A7F905F043FE02A887F0A2F9244A254986
:10AC6000304686F0B9FD234622462146009422480C
:10AC700076F0AEFA23462246214600941F4876F02D
:10AC8000A7FA23462246214600941D4876F0A0FAF2
:10AC900023462246214600941A4876F099FA234624
:10ACA000224600942146184876F092FA174B83F812
:10ACB000E44083F8E840164B4FF47A729A6005F549
:10ACC000EA721A6005F5FE754FF47F425C601D6103
:10ACD0009A8214B0BDE8F0874C5501205C530020E7
:10ACE000AC530020B73D0C00E2F10B00EDF10B007E
:10ACF00000400020FD0D0300545501205453002056
:10AD0000A8520020A05200205C550120B451002020
:10AD1000104B002007B503688DF807105B6801220F
:10AD20000DF10701984703B05DF804FBA0F1100096
:10AD300000F032B9407DFF2801D075F0D1B97047DD
:10AD400010B5437DFF2B0CD0074A4FF4567000FB23
:10AD5000032001F011FC044608B979F005FE2046F5
:10AD600010BD0020FCE700BF045B01202DE9F74F78
:10AD7000437DFF2B06460F4614462FD015464FF451
:10AD8000567A4FF6FE7B15B3707D75F0E7F9F0B19A
:10AD9000737D134A01930AFB03294FF6FF7209F1F1
:10ADA00024095D4598BF2A4692B23946484601F0CB
:10ADB00047FB8046484601F0DFFB3F28019B02D954
:10ADC000184675F08DF9B5EB0805474403D1601BB3
:10ADD00003B0BDE8F08F79F0C7FDD4E70020F7E7B6
:10ADE000F45A012008B5437DFF2B07D0044A4FF4E5
:10ADF000567000FB032001F0ADFB08BD0020FCE70E
:10AE0000185B012073B5437DFF2B14D04FF45674AB
:10AE10005C430A4E04F1100001220DF10701304499
:10AE200001F03EFA0546301975F0AEF91DB19DF8F6
:10AE3000070002B070BD4FF0FF30FAE7F45A01206E
:10AE400073B5457DFF2D03D14FF0FF3002B070BDCB
:10AE5000254E4FF4567303FB0563186A18B14FF083
:10AE6000FF3177F03BFE4FF4567202FB0562118B07
:10AE7000538B908A89B29BB2994236BFC3EB400292
:10AE8000CA1A521894B2E4B1A04209D281424FF4D6
:10AE900056722CBF0B1A0B1802FB05629BB2538330
:10AEA00098421ED94FF4567101FB05610DF1070060
:10AEB000CA8A0969C2F30E0202FB03118EF0D6FCA6
:10AEC00001244FF4567303FB0565286A20B1002363
:10AED0001A46194677F096FC002CB5D09DF807006D
:10AEE000B4E71B1A9BB2DBE7F45A012010B5194BEB
:10AEF0005A7DFF2A2CD11A7E52BB174C5A7501215C
:10AF0000197694F850110B2908D84A1C84F850215E
:10AF100001F14802114844F822000A461A75B4F8B3
:10AF20001821B4F81A3161690A489B1A9BB20A4485
:10AF300094F81C1100F030F850B1B4F818311844EE
:10AF4000636980B2A4F81801588094F81C211A7122
:10AF500010BD00BF104B00202C4B0020D0250C0052
:10AF600010B5407DFF2807D075F0F8F8044608B901
:10AF700079F0FAFC204610BD0024FBE7034B9B68E8
:10AF8000B3F5966F01D175F05BBA7047F45A0120A2
:10AF900009B900B9F2E770472DE9F047074692B0CA
:10AFA00098461546002A00F090804B4B93F81C61A0
:10AFB00093F81D1193F81EA1B21C83F81C214C1CA0
:10AFC0008A1C83F81D2164F07F040AF1010241F01C
:10AFD0008009E4B283F81E214222002101A88EF0EC
:10AFE0006DFC002D6DD0B8F1410F73D940F20220F5
:10AFF000ADF8080040F20940ADF80C0040F2012025
:10B00000ADF8100024208DF8160034480690731C0B
:10B010000120DBB28DF806608DF80E608DF81C0003
:10B020008DF826602E48397D8DF81E30032640F6B7
:10B03000083208908DF8273040F224608DF82B609C
:10B040008DF8313008260A230427ADF804208DF846
:10B05000141002220521ADF824008DF82C6040F276
:10B0600007508DF834304FF4116640238DF80720D7
:10B070008DF812208DF81510ADF828008DF83320CA
:10B08000ADF838008DF83B208DF81F708DF82A90B0
:10B09000ADF82E608DF830708DF83AA08DF83C3008
:10B0A00007238DF83F308DF8401044F2020342220E
:10B0B0000DEB070128468DF84140ADF842308EF087
:10B0C000D5FB422012B0BDE8F08792461446914667
:10B0D000164681E70020F5E72C4B002020010524CF
:10B0E000240202057FB5204B204A03F110061446C6
:10B0F00018685968154603C50833B3422A46F7D184
:10B100001B4A1B88106851682B8001AB03C3127A5D
:10B110001A7004AA12E90700164B03C3194603F577
:10B12000887001F80829144AC4F818214FF4807275
:10B13000A4F81C210122616184F81E210021202233
:10B140008EF0BCFB40F20943C4F820310B4BC4F82D
:10B1500024310B4BC4F828310023C4F82C310423CC
:10B1600084F8503104B070BDEB250C002C4B00204E
:10B17000FD250C00444B002009000001DF250C00D8
:10B18000E1090E00F0B50546002004462B5D2E199E
:10B19000002B68D003F14002D2B2012A3DD9F42B32
:10B1A0003BD81A061BD40122A3F55846B6F5006F0A
:10B1B00033D3B3F5803F14444FD31E2853DCA3F59B
:10B1C000803342009E0A0A44C3F30903A6F52056C1
:10B1D000A3F5105321F8106002305380D6E703F036
:10B1E000E002C02A1BD103F01F03022206F1010C6A
:10B1F00016441CF8017B07F0C00EBEF1800F0CD185
:10B2000007F03F07664547EA8313F2D1022A16D1B9
:10B21000A3F18006B6F5F06FC6D30134B6E703F0AC
:10B22000F002E02A03D103F00F030322DEE703F06C
:10B23000F802F02AF1D103F007030422D6E7032A2B
:10B2400004D1A3F50066B6F5784FE5E7A3F58032A3
:10B25000B2F5801FE1D20422A6E7202803D021F80E
:10B260001030013092E7F0BD0B6802490B610121FB
:10B27000184700BF645501202DE9F041174C184FC5
:10B280008046002518262279EBB2511D994212DA28
:10B290003822002113488EF011FB1022FF2104F107
:10B2A00009008EF00BFB04F119001222BDE8F041F9
:10B2B000FF218EF003BB9A4207D9226806FB0323C5
:10B2C00033B9BDE8F041FDF7DBBC9B1A06FB037305
:10B2D0005B68404698470135D5E700BFC04C002069
:10B2E00014260C00C54C0020F8B5124C266C00F05A
:10B2F0007F07C5094FF0FF31304677F0EFFB04EBD5
:10B3000047032B4425339A79C2F38004520708D5AA
:10B310009A7912F0010103BF9A7961F382029A715E
:10B32000002400231A461946304677F06BFA20466F
:10B33000F8BD00BFC04C0020F8B5194A00F07F03EB
:10B3400002EB430303EBD01000F1250490F82B50DF
:10B3500015F0010521D190F82B305907C3F3800770
:10B3600017D4166C4FF0FF31304677F0B7FBA57954
:10B3700015F001050FD1A3795B0704D4A37943F03D
:10B380000403A371012500231A461946304677F0BD
:10B3900039FA2846F8BD3D46F5E70025F9E700BF34
:10B3A000C04C002070B4827802F07F03082B07D9CC
:10B3B000524B1B68DB0700D500BE002070BC7047F5
:10B3C0004F49C478CD79818804F00304022CC1F37D
:10B3D0000A010BD0032C45D0012C11D1022D40F2D3
:10B3E000FF3408BF4FF48064A1420DE0022D0AD162
:10B3F000B1F5007F09D0414B1B68DA0700D500BECC
:10B4000070BCFDF745BC4029F5D83E4E5C0004EB0E
:10B41000D21406EB0414D5092181C17801F003018F
:10B4200001292FD00120384900FA03F405BB03F1AC
:10B430000C06B040C1F80403D1F8140503F5947369
:10B440000443C1F8144541F823502F4BC3F8182585
:10B4500042F48072C3F80C25BFF36F8FBFF34F8F98
:10B460000120ABE7022D0CBF4FF480644024BBE702
:10B4700002339840C1F80403D1F810351C43C1F8D9
:10B480001045E2E7082B93D11F4BDDB9B6F8182120
:10B4900012B18022C3F81C250022C3F85021D3F832
:10B4A000002312F4001208BFC3F85421164B4FF4C6
:10B4B0004012C3F80423D3F8142542F48072C3F871
:10B4C0001425C9E70022C3F82C21B6F8082112B1CF
:10B4D0008022C3F81C250C4BD3F8002312F4001271
:10B4E00008BFC3F85421094AC3F80423D3F8102530
:10B4F00042F48072C3F81025AEE700BFF0ED00E023
:10B50000C04C0020EC4900200070024000082000E0
:10B5100010B50B4B00F07F0203EB420303EBD0149A
:10B520002534A3799B0709D4FDF738F9A37943F0B3
:10B530000203A371A37943F00103A37110BD00BFFF
:10B54000C04C002010B5104B044601461878FBF79C
:10B5500000F80E4B04F07F0103EB410303EBD41022
:10B5600090F82B306FF3410380F82B3090F82B309C
:10B570006FF3000380F82B3090F82B306FF38203C9
:10B5800080F82B3010BD00BF04400020C04C0020CC
:10B590002DE9F843DDE908890C4616461F460025CB
:10B5A000AE4201DC01200EE06378052B04D1E37884
:10B5B00003F00303BB4208D00D4B186810F00100E4
:10B5C00001D000BE0020BDE8F8832046FFF7EAFE68
:10B5D00018B9BDE8F843FDF75BBBA378DA0914BFDF
:10B5E00089F8003088F80030237801351C44D7E70B
:10B5F000F0ED00E01FB5CDE9020111490023082458
:10B600000193486C8DF805403AB9134601A94FF0F3
:10B61000FF3277F0F7F804B010BD6A4601A9009335
:10B6200077F089F9009B002BF5D0064B4FF0805244
:10B630005A6040BFBFF34F8FBFF36F8FEBE700BF80
:10B64000C04C002000ED00E02DE9FF414378484C5C
:10B65000023B0546042B12D8DFE803F003291B2226
:10B66000710063796FF300036371637900226FF3F4
:10B6700041036371A271637962F382036371606C49
:10B68000002961D10B464FF0FF32294677F0BAF816
:10B690002FE06379D8072CD5637943F00403EDE7F5
:10B6A0006379DA0725D563796FF38203E6E7637977
:10B6B0005B0715D563796FF3820363710278606C61
:10B6C0000023CDE901338DF80420052203938DF882
:10B6D000052089B90B464FF0FF3201A977F092F8A7
:10B6E000DFF89480002618272279F3B2511D994281
:10B6F00014DA04B0BDE8F0816A4601A9009377F03E
:10B700001AF9009B002BEBD01A4B4FF080525A6075
:10B7100040BFBFF34F8FBFF36F8FE1E79A420AD963
:10B72000226807FB032323B15B6913B1696828789A
:10B7300098470136D8E79B1A07FB0383F4E7237A7F
:10B740000133DBB223729AE7002301AA2946019351
:10B7500077F0F1F8019B002BCBD0064B4FF08052D5
:10B760005A6040BFBFF34F8FBFF36F8FC1E700BF79
:10B77000C04C002000ED00E014260C002DE9FF472E
:10B78000474D074600F07F0005EB400606EBD71655
:10B790002536B47914F001044FEAD71E4FEA40036E
:10B7A00006D0FDF775FA0446204604B0BDE8F087E0
:10B7B00096F806C0DFF800814CF0010C86F806C050
:10B7C00003EB0E0C4FEA0C1908EB0C1C46469CF8D8
:10B7D0000BA0BAF1000F17D0324A1168C90700D583
:10B7E00000BE2B44734493F82B106FF3000183F8D1
:10B7F0002B1093F82B106FF3820183F82B10136832
:10B80000DB07D1D500BECFE748F80910ACF804201B
:10B81000ACF8064008BB02BB234BD3F88034C3F31B
:10B82000C0139E4519D02148FBF71EF8204B5968DC
:10B830000394C1F3080100394FF4E06318BF0121FC
:10B8400001A8CDE90144ADF804308DF808708DF8F9
:10B850000940FFF7F9FE0124A6E70125BEF1000F1C
:10B860001AD106EB4012D57218B91248FAF7FCFF4C
:10B87000F1E7BFF36F8FBFF34F8F937A03F0FF04AD
:10B8800043B1D37A03F0FF05002B8DD082F80AE094
:10B89000FCF71EFF2C4687E7FCF7A6FFFAE700BF80
:10B8A000C04C0020F0ED00E00070024050700240FB
:10B8B00000ED00E04C700240EC4900202DE9F04F13
:10B8C000B54B1B78FF2B93B0834600F029844FF4CF
:10B8D0007A72002380024FEA9B518DF0D5F901283E
:10B8E00038BF01200390AD4CBBF1FF3F606C264692
:10B8F0001BD0039BBBF1000F14BF1A46002207A9FF
:10B9000077F072F8002800F00B849DF81D30013BA1
:10B91000072B00F2B283DFE813F00A001C00B0032B
:10B92000170426042B008D0332045A46E7E79DF8DE
:10B930001C00FFF7A1FC9A48142200218DF0BEFFE5
:10B940009DF82030E371606C77F05EF90028CAD171
:10B95000E6E39DF81C00FFF78FFC914814220021BC
:10B960008DF0ACFF8F4B002BEDD0AFF30080EAE7FA
:10B97000237A013BDBB22372227A02F0FF03002A12
:10B98000E1D16279DFF818829DF81C50C8F81030B8
:10B9900042F00102627194F82B2063F3000284F8F4
:10B9A0002B2094F82B2063F3820284F82B2094F848
:10B9B0002C2063F3000284F82C2094F82C2063F3ED
:10B9C00082029DF8203084F82C2003F06002602A67
:10B9D00006D1754B1B68DD0740F1DF8200BEDCE25B
:10B9E000402A0AD1714BC8F8103008AA0121284614
:10B9F00074F0B8FC0028A6D1CFE203F01F03012B9E
:10BA000000F03E82022B00F08882002BE1D1202A38
:10BA100020D19DF824300F2B00F2BF821E442379E1
:10BA2000717A99420CD2236801EB410113EBC101F9
:10BA300000F0B38208AA0C312846FFF715FCD9E7BD
:10BA40005A1D8A42C0F2A982594AC91A182303FB17
:10BA50000121EFE7002ABCD19DF82130092BB8D88D
:10BA600001A252F823F000BF6BBE020059BE0200D3
:10BA7000D3B9020045BE0200D3B9020091BA020058
:10BA8000F7BC0200D3B90200C5BA0200D9BA02005D
:10BA9000DDE90801474BC8E90001D3F80014D3F8E9
:10BAA000000400220143C8E90222C3F80014C3F8CD
:10BAB00058214FF48002C3F80423637943F0020352
:10BAC000637140E7A3798DF8383001230EAA08A9E5
:10BAD000284673F02FFE36E79DF822300193019A35
