:020000022000DC
:106000000000042015AC080055AC080081BB080056
:1060100059AC08005BAC08005DAC08000000000053
:10602000000000000000000000000000B9AA080005
:1060300061AC080000000000D9AA080065AC0800A7
:1060400049AE080067AC08007D890800B9750800F2
:1060500067AC080067AC0800918B080067AC0800CB
:1060600067AC080067AC080067AC080067AC0800C4
:1060700067AC080067AC080067AC080067AC0800B4
:1060800067AC080049A8080067AC080067AC0800C6
:1060900067AC080067AC0800217C080067AC08000A
:1060A00067AC080067AC080067AC080067AC080084
:1060B00067AC080067AC08000000000000000000AA
:1060C00067AC080067AC080067AC0800EDB20800D8
:1060D00067AC080067AC080067AC0800597108009D
:1060E0008989080067AC080067AC08000000000060
:1060F0000000000067AC0800000000001DB30800AD
:10610000000000000000000000000000000000008F
:10611000000000000000000000000000000000007F
:10612000000000000000000000000000000000006F
:10613000000000000000000000000000000000005F
:10614000000000000000000000000000000000004F
:10615000000000000000000000000000000000003F
:10616000000000000000000000000000000000002F
:10617000000000000000000000000000000000001F
:10618000000000000000000000000000000000000F
:1061900000000000000000000000000000000000FF
:1061A00000000000000000000000000000000000EF
:1061B00000000000000000000000000000000000DF
:1061C00000000000000000000000000000000000CF
:1061D00000000000000000000000000000000000BF
:1061E00000000000000000000000000000000000AF
:1061F000000000000000000000000000000000009F
:1062000010B5054C237833B9044B13B10448AFF3F0
:1062100000800123237010BDD04500200000000045
:106220008C7C0B0008B5034B1BB103490348AFF34B
:10623000008008BD00000000D44500208C7C0B00CD
:10624000A3F5803A704700BF174B002B08BF134BD4
:106250009D46FFF7F5FF00218B460F461348144A71
:10626000121A6FF00BFD0E4B002B00D098470D4B10
:10627000002B00D098470020002104000D000D489D
:10628000002802D00C48AFF300806FF0C1FB200063
:10629000290064F001FD6FF0D3F800BF0000080092
:1062A000000000000000000000000420D045002095
:1062B000B4A3012000000000000000007047022A83
:1062C00006D0032A02D0012A00D1016000207047C5
:1062D0000B680360FAE7F2E7F1E7F0E77047704711
:1062E000008A704741827047817270477047402032
:1062F0007047202070471020704770476FF01800DB
:1063000070476FF0180070476FF0180070477047C3
:10631000002070476FF01800704700207047BBEEF8
:10632000090A704784B004A800E90E006FF0180055
:1063300004B070476FF0180070476FF01800704796
:106340000368D3F8E03018470368D3F8DC30184707
:10635000806D70474AB116290B466FF00800A8BF40
:1063600016238342B8BF034613700931C9B22029EE
:106370002CBF6FF00C000020704783684160194407
:10638000C160704700207047808B70473220704793
:10639000012070477047084A8B8992F8300108B194
:1063A000422B08D0012B05D00A3B012B8CBF0020CB
:1063B0000120704718467047E0870020006A431E9E
:1063C0005842584170470020704747F2305070479C
:1063D0002038704790F83C00831E5842584170475F
:1063E0002038704790F83800831E58425841704753
:1063F0000020704700207047007B704700207047E6
:10640000006A431E584258417047024B93F85801A6
:10641000704700BFE0870020014B93F849017047A7
:10642000E087002000207047203870470020704728
:1064300001207047704700207047024B93F86201BB
:10644000704700BFE0870020704770474B6A032BFE
:1064500001BF034B1B68B3F85030838300207047A3
:1064600094F90020F2E7F1E70020704727E7012ABE
:1064700003D0022A03D0002070470160FBE70B68BD
:106480000360F8E7F3E70068096803689B6818474A
:1064900000207047C0F88011704780ED5F0A704798
:1064A000002070470068096803689B681847006807
:1064B000096803689B6818470068096803689B6857
:1064C000184770477047704720387047203870472A
:1064D00001207047002070470120704770477047C7
:1064E000704770477047007B7047044B43F60222A9
:1064F0009A87002283F83E20704700BFEC450020B9
:106500005FF0A2BD5FF0A0BD5FF09EBD5FF09CBDDF
:106510000248402200216FF0B1BB00BFEC450020D3
:106520000248402200216FF0A9BB00BFEC450020CB
:1065300010B4114B02209A6B83F82C10996883F8E1
:10654000300093F83C008A1A9A6220B942F205049E
:106550009C8783F83E0059B152B11A7B5DF8044B19
:10656000D20914BF93F82E0093F82F0004F02CBA30
:106570005DF8044B704700BFEC45002038B5134C64
:106580000546607B60F092FD48B942F2077384F8DB
:106590003E00A38728460121BDE83840C8E7A2682D
:1065A000A36B94F82F00D21AB2F5007F28BF4FF4E6
:1065B000007292B204F1400104F03CFB20B9044B9C
:1065C0001B68DB0700D500BE38BD00BFEC450020CE
:1065D000F0ED00E008B5FFF788FFBDE808400121B5
:1065E000A6E710B50C21044664F09EFB204610BDC2
:1065F00010B53421044664F097FB204610BD10B559
:106600004468A318436011B120466FF00FFB0120CE
:1066100010BD10B54468A3184360084611B1214667
:106620006FF004FB012010BD024B0348198861F094
:10663000B6BA00BF085800204C4B0120024B03485B
:10664000198861F0ACBA00BF085800204C4B0120FB
:1066500070B505460C464CB1E1682846FFF7F8FFD7
:10666000A668204662F09CFD3446F4E770BD70B524
:1066700005460C464CB1E1682846FFF7F8FFA668CE
:10668000204662F08DFD3446F4E770BD70B50546D6
:106690000C464CB1E1682846FFF7F8FFA668204693
:1066A00062F07EFD3446F4E770BD70B505460C46D9
:1066B0004CB1E1682846FFF7F8FFA668204662F073
:1066C0006FFD3446F4E770BD2DE9F041AC4C0D464A
:1066D00094F8301001298AB0074600F0428103295E
:1066E00000F07381002945D194F82F20AA4201D0EF
:1066F000012011E01F2B03D12268A24B9A420ED039
:1067000094F82E00042384F8303004F05DF994F8F6
:106710002F0004F059F900200AB0BDE8F0819A4B2F
:1067200023626368A26884F82C10C4E9093101234C
:1067300084F83030E37BC4E90D2103F0FD01282902
:106740003FD1E18A49BA89B23AB9002900F0038100
:1067500002213846FFF7ECFE0CE0282B27D1207BE6
:10676000C009F5D0A1B38A42F2D3282B25D13846EF
:10677000FFF730FF94F83030022BB9D194F82E0097
:10678000824B00F07F0203EB420303EBD013203374
:106790009B799B07ACD4A368A26B934240F23B81E8
:1067A000217BC90900F0378104F00EF9A0E72A2BFC
:1067B000D8D1207BC009D5D0CAE73846FFF7DEFE26
:1067C000D8E7A2B1217BC90911D1B2F5007F01D967
:1067D0000121BEE76E4992B2284604F02BFA002848
:1067E000C8D16C4B1B68DC0795D500BE94E7252B00
:1067F00094F80D8006D8192B0ED8032B75D0122BC8
:106800003FD093B394F83C30002BE1D142F2050223
:10681000A28784F83E30DBE71A3B0B2BF2D801A2AB
:1068200052F823F0D16802005568020005680200A2
:10683000056802000568020005680200056802009C
:106840000568020005680200796802000568020018
:106850006B680200E17C4046C1F3400301F0010295
:10686000090960F026FC002871D194F83C30002B17
:10687000C8D1FFF73AFEC5E70023CDE90133039302
:10688000F3E7454B424E0021CDE901314FF020386E
:106890001F231022202105A88DF80830CDE9038898
:1068A00001AD6FF0EBF9CDF824800FCD0FC60FCD01
:1068B0000FC62420C6F80080A268002A88D0824231
:1068C00028BF02466263324994F82E0092B284E7F0
:1068D000404660F0EBFB80F00103DBB2DB0543F0E8
:1068E0000303019323640420E6E71222002101A898
:1068F0006FF0C4F994F83C0094F83D1094F83E20F1
:106900008DF81010F0238DF804304FF0000360F381
:1069100003038DF806300A238DF80B308DF8112013
:1069200001AD0FCD1A4E0FC62B6833801B4BB3B190
:106930004FF40072A6F110014046AFF3008000232F
:106940009842A38784F83E30FFF65CAFB4D1A368C9
:10695000002B7FF43DAF022384F830300AE7122089
:10696000EDE7A56BE27B2B44282AA36303D1626B7E
:106970009A42F0D9FBE62A2A12D1FFF7B6FDE8E6E3
:10698000EC4500205553424355534253E149002002
:106990002C460020F0ED00E0008002020000000024
:1069A000237BDB0906D142F20502A28784F83E3040
:1069B000FFF7BEFDD4E90D329A42CCD21C4B1B68C6
:1069C000DA077FF5D7AE00BED4E694F82E20AA42AF
:1069D0007FF4D0AE0D2B7FF4CDAEE37B282B09D016
:1069E0002A2B14D0134B53B1607B04F10F01AFF38A
:1069F000008004E0104B13B1607BAFF300800023F4
:106A00000E4994F82F0084F830301F22E5E6607BB1
:106A100060F04EFBF3E79B1AA362094903230D22A2
:106A200084F8303004F006F900287FF461AED8E62F
:106A3000F0ED00E00000000000000000EC45002048
:106A40000C46002011B1083062F057BA7047034677
:106A500007B59A680191013A08469A606AF024F8ED
:106A6000019803B05DF804EB62F09ABB012973B59D
:106A70000646154613D1137803F07F02022A42D14D
:106A80006C78012C3FD16A88002A3CD13749A8880C
:106A900091F83030042BC0B203D103F095FF0120F0
:106AA00017E091F82E20904215D1022BF7D18A6B76
:106AB0008B689B1A8B62032381F830300D222031C2
:106AC00004F0B8F80028EAD1294B1B68DB074AD547
:106AD00000BE02B070BD91F82F40A042DFD1002B64
:106AE000DDD1244A04F07F0302EB430303EBD4130C
:106AF00020339A79D107D2D49B799A07CFD41B49F6
:106B00001F222046DCE703F06003202B2BD16B789B
:106B1000FE2B13D0FF2B26D16B8823BBE9888AB2CA
:106B20000ABB124B304699872946C3E90D2283F8E8
:106B3000302083F83E205FF05BFCB0E76B8893B9B0
:106B4000EC88012C0FD18DF8074060F0B4FA50B1F9
:106B5000431E8DF807300DF10702234629463046C3
:106B60005FF08AFC9BE70020B3E700BFEC45002004
:106B7000F0ED00E0E149002037B54B79082B02D059
:106B8000002003B030BD8B79062BF9D1CB79502B87
:106B9000F6D1162A05D8174B1B68D907F0D500BEC9
:106BA000EEE7154C8B7884F82D3004F12E030D7828
:106BB000019304F12F03009302231A46294403F0A2
:106BC00043FF28B90B4B1B68DA07D9D500BED8E7BD
:106BD000002394F82F0084F830301F22214604F05F
:106BE00029F820B9034B1B68DB0700D500BE17202E
:106BF000C7E700BFF0ED00E0EC450020F0B501F183
:106C0000200C00254FF0000E51F8043B05F0010563
:106C10005E1B52F8043B6EEB4E07F41A67F1000559
:106C2000614540F8044BEFD105F00100F0BD70B5AF
:106C3000046805460E46A54207D0A06803683146A1
:106C40009B68984710B92468F5E7002070BD03469B
:106C500010B41B685C68084611462CB1A4469B68BA
:106C60005DF8044B0122604702205DF8044B704739
:106C7000034610B41B681C68084611462CB1A44694
:106C80009B685DF8044B0122604702205DF8044BCD
:106C9000704713B50446002135F0B2F801AA062169
:106CA0002046FFF7D4FF50B99DF8043001AA60F3E5
:106CB0004513062120468DF80430FFF7D9FF02B0B6
:106CC00010BD13B50446002135F09AF801AA06213B
:106CD0002046FFF7BCFF50B99DF8043001AA60F3CD
:106CE0008613062120468DF80430FFF7C1FF02B05D
:106CF00010BD10B548B1046954B184680123A047A0
:106D0000002818BF6FF0020010BD6FF00A00FBE70B
:106D10006FF00400F8E720B1024B800143F001035B
:106D20001847704700B90900A4DF7047A3DF704718
:106D3000B2DF7047B1DF7047B0DF704711DF7047D7
:106D40003DDF70473CDF704763DF704762DF7047AD
:106D5000A8DF704786DF704785DF704781DF7047A7
:106D600046DF70478ADF70477ADF7047A0DF7047E1
:106D7000007D7047407C7047007D7047B5DF7047ED
:106D800090DF70478FDF7047AEDF7047ADDF704731
:106D9000ACDF7047ABDF7047AADF704775DF704725
:106DA00074DF704700231A46194662F053BB4FF058
:106DB000FF3162F0BBBC30B5294C05469DB0206D5B
:106DC000FFF7F5FF94F84C30019525467BB1254837
:106DD00001AB02AA06A908F021F9044678B1286D92
:106DE000FFF7E0FFB4FA84F040091DB030BD04F1B4
:106DF0000C0007F08EFD04460028E8D0EFE79DF870
:106E00000C30222B16D0174802AA06A907F0C8FF9B
:106E100004460028E3D19DF80C30222BDFD1114825
:106E200006AA12A907F0A2FC041ED8DB0BD10E485B
:106E300044F0B8FE0B4804AA11A907F02EF8044646
:106E40000028E0D0CBE71A9B0F931B9B10930023E5
:106E500004481A4606A907F027FE0446BFE700BF0C
:106E6000B04E0020BC4E0020CAB4090012DF7047AB
:106E70004B1E062B88BF0A46817A98BF0822023132
:106E8000D208C9B238F040B94B1E062B88BF0A465B
:106E9000417A98BF08220231D208C9B238F034B919
:106EA0004B1E062B88BF0A46017A98BF0822023182
:106EB000D208C9B238F028B930B5044685B00A20E6
:106EC0000D4662F026F90A4B009303210023CDE919
:106ED00001130393207923686A462EF0BBFD00B2AC
:106EE00020B92946684632F0F8FE00B205B030BD40
:106EF00090FB002030B5044685B001200D4662F0BD
:106F000008F90A4B009303210023CDE901130393F1
:106F1000207923686A462EF09DFD00B220B92946EB
:106F2000684632F0DAFE00B205B030BDC40C012074
:106F300038B5437A04460D460BB93AF0C0FA2046FC
:106F4000032280213AF054FAE27A20462A43812132
:106F50003AF04EFA25732046BDE838403AF05FBA61
:106F600038B5437A04460D460BB93AF0A8FA2046E4
:106F7000032280213AF03CFA227B20462A438121D9
:106F80003AF036FAE5722046BDE838403AF047BAA2
:106F900038B515461A4650B1C368AB420AD34468A7
:106FA0002B46A047002818BF6FF0020038BD6FF0D5
:106FB0000A00FBE76FF00400F8E738B5437C0446AD
:106FC0000D4673B1204631F003FB227A65722046EC
:106FD0002A43A12131F0A0FA2046BDE8384031F023
:106FE000ACBA034931F0BCFA0028EBD138BD00BF80
:106FF000102B012038B5437C04460D4673B1204662
:1070000031F0E6FA627A257220462A43A12131F056
:1070100083FA2046BDE8384031F08FBA024931F09A
:107020009FFA0028EBD138BD102B01201FB5046852
:107030008DF80C10ACB103230021CDE9003103AB76
:1070400001221946204608F07CFE9DF80D309DF87F
:107050000C001B0243EA00439DF80E00184304B0E5
:1070600010BD0323FF22CDE9003203AB01221946F4
:10707000406836F08DFCE8E71FB504688DF80C1009
:107080008CB102230021CDE9003103AB0122194666
:10709000204608F056FE9DF80C009DF80D3043EA9E
:1070A000002004B010BD0223FF22CDE9003203AB63
:1070B00001221946406836F06BFCECE708B5FFF793
:1070C000DBFF40BA80B208BD1FB504688DF80C1014
:1070D00064B100230122CDE9002303AB1946204609
:1070E00008F02FFE9DF80C0004B010BD0122FF2314
:1070F000CDE9002303AB1946406836F049FCF1E7BF
:107100001FB504688DF80D2064B10023CDE900336C
:107110008DF80C100123022203A9204608F0E1FD9E
:1071200004B010BD01F07F0100948DF80C102346CF
:10713000022203A9406836F04FFCF1E70078C0F363
:10714000C20300F007029B0043EA421343EA901097
:1071500070471FB544688DF80C10ACB103230021B3
:10716000CDE9003103AB01221946204608F0E9FDC4
:107170009DF80D309DF80C001B0243EA00439DF87A
:107180000E00184304B010BD0323FF22CDE90032E6
:1071900003AB01221946806836F0FAFBE8E71FB519
:1071A00044688DF80C109CB102230021CDE9003118
:1071B00003AB01221946204608F0C3FD9DF80C30B0
:1071C0009DF80D0040EA032040BA80B204B010BD23
:1071D0000223FF22CDE9003203AB01221946806869
:1071E00036F0D6FBEAE71FB544688DF80C1064B1A1
:1071F00000230122CDE9002303AB1946204608F005
:10720000A0FD9DF80C0004B010BD0122FF23CDE9C4
:10721000002303AB1946806836F0BAFBF1E71FB5CF
:1072200044688DF80D2064B10023CDE900338DF85A
:107230000C100123022203A9204608F052FD04B0DD
:1072400010BD01F07F0100948DF80C10234602223E
:1072500003A9806836F0C0FBF1E7836903B11847E2
:10726000184670470378642223F0020303704068D5
:10727000B0FBF2F0B0FBF2F302FB1300C0B27047B8
:10728000037C0BB903707047836843600378C16067
:1072900043F003030370002303747047037819B1AC
:1072A00043F004030370704703F0FB03FAE77047F1
:1072B0004BDF704733DF704732DF7047BFF34F8FCC
:1072C0000549064BCA6802F4E0621343CB60BFF382
:1072D0004F8F00BFFDE700BF00ED00E00400FA059E
:1072E00038B504460068844204D0056861F058FF50
:1072F0002846F8E738BD10B5044613F00FFC08B176
:107300002388838110BD425C0144487840EA022012
:1073100070470B4B10B51C680EF09AFB23680146B2
:107320001B6820469847044640B10BF011FC28B179
:1073300094F82D3013B104F12D0010BD0148FCE785
:10734000B0950020CEB40900034B1A79062A0CBF71
:1073500093F898000020704778920020064B187927
:1073600000F0FB03022B04D0A0F10B03584258415C
:1073700070470120704700BF78920020094B10B57C
:107380001C6864B160680EF04DFB38B194F864017C
:1073900094F86E3198422CBF0020012010BD204689
:1073A000FCE700BF1CF4002010B50446006869F03B
:1073B000E7FB2060204610BD38B5044608200D4686
:1073C00063F0ACFC2B68436023680360206038BD29
:1073D00070B505460C464CB1E1682846FFF7F8FF4A
:1073E000A668204661F0DCFE3446F4E770BD10B5B7
:1073F0000446006869F09EFB2060204610BD8B6843
:1074000073B5164604460D1D01225BB130681A693A
:10741000904234BF9868D8681D4634BF01220022CC
:107420000346F2E7019552B1CA68AA4204D1C4E901
:107430000035204602B070BD01A8FFF7B5FF019AE4
:107440003368116999424FF00003F0D3C4E9002377
:10745000EFE770B505460C464CB1E1682846FFF7EA
:10746000F8FFA668204661F09BFE3446F4E770BD45
:1074700038B504460C200D4663F050FC2B68836041
:10748000214669F00AFBA3680133A36038BD38B513
:1074900004460C200D4663F041FC2B6883602146B6
:1074A00069F0FBFAA3680133A36038BD70B50468C6
:1074B00005460E46AC4207D0A068036831469B687B
:1074C000984710B92468F5E7002070BD8B6873B544
:1074D000164604460D1D01225BB130881A8A90427F
:1074E00034BF9868D8681D4634BF01220022034685
:1074F000F2E7019552B1CA68AA4204D1C4E9003545
:10750000204602B070BD01A8FFF74EFF019A3388F4
:10751000118A99424FF00003F0D3C4E90023EFE74A
:107520008B6873B5164604460D1D01225BB1308889
:107530001A8A904234BF9868D8681D4634BF012229
:1075400000220346F2E7019552B1CA68AA4204D16B
:10755000C4E90035204602B070BD01A8FFF724FF42
:10756000019A3388118A99424FF00003F0D3C4E99D
:107570000023EFE770B505460C464CB1E16828469C
:10758000FFF7F8FFA668204661F00AFE3446F4E7EC
:1075900070BD10B50C4650B121F026F938B1043059
:1075A00050E8003F234440E80032002AF8D110BDE3
:1075B00010B50138029C0F2800F28480DFE800F04B
:1075C0005E8236281A1458084A6D7073797D80449B
:1075D000DFED427A9FED427A002908BFF0EE477A4C
:1075E000C2ED007A052261E0DFED3E7A9FED3E7A42
:1075F0000029F2E7DFED3B7A9FED3B7A002908BFD7
:10760000F0EE477AC2ED007A05222270082242E0AD
:10761000DFED347A9FED347A002908BFF0EE477A27
:10762000C2ED007A05222270092234E0DFED2D7AC6
:107630009FED2D7A002908BFF0EE477AC2ED007A5F
:10764000052222700A2226E0DFED247A9FED247ABB
:107650000029E2E7DFED217A9FED217A002908BFBA
:10766000F0EE477AC2ED007A082222700B2212E077
:10767000DFED1E7A9FED1E7A0029F0E7DFED1B7A21
:107680009FED1B7A002908BFF0EE477AC2ED007A21
:10769000082222700C221A7010BD16491160C1E731
:1076A00014491160CCE714491160062222700722A8
:1076B000F1E7114911600622A7E71049116091E72F
:1076C0000E49F7E7DFED077A9FED077A002908BF3B
:1076D000F0EE477AC2ED007A0522C6E70020CB44DF
:1076E0000000FA4300204B4400007A430020CB43C3
:1076F0000000FA420000FA4200007A429A99794169
:10770000F8B50D460168044606468C420FD08A68DB
:107710002B680F689A4208D101F108039D4203D0FB
:107720002046FFF794F900E00E463946EDE7B442F3
:1077300005D031462046BDE8F840FFF788B9F8BDCE
:10774000F8B50D460168044606468C420FD08A689B
:107750002B680F689A4208D101F108039D4203D0BB
:107760002046FFF774F900E00E463946EDE7B442D3
:1077700005D031462046BDE8F840FFF768B9F8BDAE
:107780002DE9F047D0E90487436AD0E902A904460D
:107790003D1D1E1DAE4204D955F8040B61F000FDDD
:1077A000F8E7C4E906A9C4E90887BDE8F0872DE930
:1077B000F047D0E90487436AD0E902A904463D1D99
:1077C0001E1DAE4204D955F8040B61F0E9FCF8E740
:1077D000C4E906A9C4E90887BDE8F087036870B565
:1077E000044663B1436A45691E1DAE4204D955F88B
:1077F000040B61F0D5FCF8E7206861F0D1FC20466D
:1078000070BD036870B5044663B1436A45691E1DC7
:10781000AE4204D955F8040B61F0C2FCF8E72068C9
:1078200061F0BEFC204670BD50F8183B834202D088
:10783000184661F0B5BC704710B50446FFF750FD1F
:107840000023C4E90044A36010BDD0E90032934294
:1078500018BF43607047B0F1005F08B501D369F00D
:10786000D1FABDE80840800063F058BA08B161F071
:1078700097BC7047026962B1836850F823100133E6
:1078800003F0010348BF5B42013A8360026108468E
:1078900070471146FBE7826A10B582B1036A50F85F
:1078A00023400133594201F0070103F0070302F1BD
:1078B000FF3258BF4B4203628262204610BD14461D
:1078C000FBE7026962B1836850F82310013303F0CB
:1078D000010348BF5B42013A83600261084670477A
:1078E0001146FBE7826C10B582B1036C50F823405F
:1078F0000133594201F00F0103F00F0302F1FF328F
:1079000058BF4B4203648264204610BD1446FBE717
:107910000146014813F028B9F89B00202DE9F347F0
:10792000CB68DFF8649001930E1D07460C46354680
:107930004FF0FF38DDF804A0564510D0DAF81010EB
:10794000D9F80430994206D038460DF04FFF8045F3
:1079500084BF5546804601A8FFF749FDEAE7AE42DD
:1079600010D001A80195FFF742FD3146284669F085
:1079700065F961F015FC6369013B6361012002B0A8
:10798000BDE8F0870020FAE75C8B00202DE9F34783
:10799000CB68DFF8649001930E1D07460C46354610
:1079A0004FF0FF38DDF804A0564510D0DAF810107B
:1079B000D9F80430994206D038460DF017FF8045BB
:1079C00084BF5546804601A8FFF711FDEAE7AE42A5
:1079D00010D001A80195FFF70AFD3146284669F04D
:1079E0002DF961F0DDFB6369013B6361012002B0A9
:1079F000BDE8F0870020FAE75C8B00202DE9F34713
:107A0000CB68DFF8649001930E1D07460C4635469F
:107A10004FF0FF38DDF804A0564510D0DAF810100A
:107A2000D9F80430994206D038460DF0DFFE804583
:107A300084BF5546804601A8FFF7D9FCEAE7AE426D
:107A400010D001A80195FFF7D2FC3146284669F015
:107A5000F5F861F0A5FB6369013B6361012002B0A9
:107A6000BDE8F0870020FAE75C8B00202DE9F347A2
:107A7000CB68DFF8649001930E1D07460C4635462F
:107A80004FF0FF38DDF804A0564510D0DAF810109A
:107A9000D9F80430994206D038460DF0A7FE80454B
:107AA00084BF5546804601A8FFF7A1FCEAE7AE4235
:107AB00010D001A80195FFF79AFC3146284669F0DD
:107AC000BDF861F06DFB6369013B6361012002B0A9
:107AD000BDE8F0870020FAE75C8B00208B6873B567
:107AE000164604460D1D01225BB130681A699042AA
:107AF00034BF9868D8681D4634BF0122002203466F
:107B0000F2E7019552B1CA68AA4204D1C4E900352E
:107B1000204602B070BD01A8FFF746FC019A336809
:107B2000116999424FF00003F0D3C4E90023EFE755
:107B30008B6873B5164604460D1D01225BB1306893
:107B40001A69904234BF9868D8681D4634BF012234
:107B500000220346F2E7019552B1CA68AA4204D155
:107B6000C4E90035204602B070BD01A8FFF71CFC37
:107B7000019A3368116999424FF00003F0D3C4E9C8
:107B80000023EFE78B6873B5164604460D1D0122EE
:107B90005BB130681A69904234BF9868D8681D4656
:107BA00034BF012200220346F2E7019552B1CA68B0
:107BB000AA4204D1C4E90035204602B070BD01A834
:107BC000FFF7F2FB019A3368116999424FF0000305
:107BD000F0D3C4E90023EFE78B6873B5164604467B
:107BE0000D1D01225BB130681A69904234BF98685C
:107BF000D8681D4634BF012200220346F2E70195F2
:107C000052B1CA68AA4204D1C4E90035204602B084
:107C100070BD01A8FFF7C8FB019A3368116999424A
:107C20004FF00003F0D3C4E90023EFE730B5031DA4
:107C3000826818463AB115690C68A5422ABF1046F9
:107C4000D2689268F6E7834204D0096802699142DB
:107C500038BF184630BD30B5031D826818463AB1AA
:107C600015690C68A5422ABF1046D2689268F6E7EB
:107C7000834204D009680269914238BF184630BD7A
:107C800030B5031D826818463AB115690C68A542E3
:107C90002ABF1046D2689268F6E7834204D009688A
:107CA0000269914238BF184630BD30B5031D826865
:107CB00018463AB115690C68A5422ABF1046D26829
:107CC0009268F6E7834204D009680269914238BF9E
:107CD000184630BD37B54B690192272B05460C4637
:107CE0000AD901A92046FFF7E0FF231D834203D1F3
:107CF00021462846FFF7BAFE03B030BD10B58168B3
:107D00000446FEF7A5FC0023221DC4E90322A3605C
:107D1000636110BD10B581680446FEF7A8FC00231E
:107D2000221DC4E90322A360636110BD10B5816800
:107D30000446FEF7ABFC0023221DC4E90322A36026
:107D4000636110BD10B581680446FEF7AEFC0023E8
:107D5000221DC4E90322A360636110BD2DE9F8432D
:107D600000F10409846805464E46ECB123690868B1
:107D7000834204D2E368344626461C46F5E7A368EE
:107D8000FAD8E26843B1196988428ABFD96899680C
:107D900023461C460B46F5E73AB11369984236BFB5
:107DA0001646D2689268F7E73446EB68D5F8148037
:107DB000A34209D1B14507D12846FFF7C3FF68693F
:107DC000A8EB0000BDE8F883A642F8D0204668F092
:107DD000C4FE49460746204668F030FF61F0E0F9EE
:107DE0006B69013B6B613C46EEE708B161F0D8B9C5
:107DF0007047B0F1005F13B501D369F003F882005A
:107E00001046019262F08AFF019A002104466DF04B
:107E100035FF204602B010BD42680B4604318A424D
:107E200010B5044604D01846521A6DF00DFF0346F3
:107E30006268043A6260184610BD70B5B0F8681008
:107E40000446D4EDC36A90F80403B4F80A3388B04A
:107E500011B199427AD80B460F2B7ADD42F210729B
:107E6000824007EE902AB8EE677AF2EE047A66EE68
:107E7000A76AA3F11002C7EE267A92B2FCEEE77A67
:107E800017EE901A4A4303FB01139B1A03F57A730A
:107E90005B0801EBC1018B4238BF0B46D4F82C13B1
:107EA00001F57E75954204F52A703DD8521A7D255C
:107EB000DB00A2F57A72B3FBF5F616F07F4F4FEABE
:107EC000C202B2FBF5F53CD17C2B3AD915F07F43C9
:107ED0003AD17C2A38D96FF07F42079340F276235B
:107EE000CDE90423D4F8A8320221D3F8D03006918A
:107EF00004AA984718BB330C8DF80830330A8DF864
:107F000009302B0C8DF80B300123CDE900336DBA0D
:107F1000D4F800038DF80A60062302AA9421ADF874
:107F20000C5021F0A2FD0AE0D4F8A8320022009201
:107F3000DC6940F2762202236FF07F41A04708B04F
:107F400070BD6FF43170FAE70348F8E76FF0110085
:107F5000F5E700221346A1E73CFDFFFF10B10368DF
:107F60005B681847704710B103681B691847704772
:107F700010B103685B6818477047036801600BB174
:107F80001846F5E7704710B103685B6818477047FB
:107F900070B505460C464CB1E1682846FFF7F8FF7E
:107FA000A668204661F0FCF83446F4E770BD70B571
:107FB000046805460E46AC4207D0A0680368314607
:107FC0009B68984710B92468F5E7002070BD10B58C
:107FD0000378DB07044604D561F090F8E368C01A23
:107FE00010BD4FF0FF30FBE72DE9F0431546074683
:107FF00087B01420894662F091FE2B6807F10408CF
:10800000197801740023C845064600F11002437434
:1080100083744C460CD17B691BB13D692B7C8B4230
:1080200023D3394604A815F054F9DDE9044518E0D6
:1080300099F81000019288422DD9FB68CDF80C9078
:108040004B4526D003A8FFF7AFF90368019A197CC6
:10805000337C9942E5D2039DEB68002B0CBF0024D2
:108060004D46002D37D0002C33D1454531D0307CE2
:108070002B7C98422CBF0020012043462A463146E3
:1080800068F080FD7B6901337B61304607B0BDE855
:10809000F0834D46E5E71ED23969CDF80C9049458D
:1080A0000DD003A8FFF7A3F90368317C1B7C019A6C
:1080B000994207D2D9F80C300BB1039B1C462546D8
:1080C0001C46CEE7394604A815F003F9DDE904346F
:1080D000F5E70120D1E7304661F062F82046D5E7A8
:1080E00010B503463BB11C7C107884422ABF194668
:1080F000DB689B68F6E7084610BD73B50446164674
:108100000D4619B912B10D4868F07FFE731B0F2B95
:10811000019307D9002201A9204669F07BF8019B51
:108120002060A36032462946206869F0B2F8019BBE
:10813000226863600021D15402B070BDD2B409003E
:10814000FFF7DBBF08B5064B064A1868064900F67C
:108150001C7008F0A3FFBDE808400E2009F0F2BF34
:1081600040200120FCB4090015B5090070B5046871
:1081700005460E46AC4207D0A068036831469B68AE
:10818000984710B92468F5E7002070BD10B50B4979
:1081900004460B48FFF7EAFF68B123681D2B0BD894
:1081A00001332360074B084A1868084900F61C7021
:1081B00008F074FF012010BD0020FCE75CE9090015
:1081C0007C0D0120402001201BB5090038B50900B5
:1081D00070B5046805460E46AC4207D0A068036837
:1081E00031469B68984710B92468F5E7002070BDB8
:1081F00044DF704743DF704742DF7047064B186823
:10820000043B1B68082B04D103288CBF00200120ED
:1082100070470020704700BF34010010024B1B68FC
:10822000DB0700D500BE7047F0ED00E0034B1B6894
:10823000DB0700D500BE0020704700BFF0ED00E076
:10824000014B93F858017047E0870020014B93F8E9
:1082500049017047E0870020014B93F862017047A5
:10826000E08700202DE9F041C84EC94BC94DDFF829
:10827000DC83304686B0442240F80C3B00210024C9
:108280006DF0FCFCC44BB360347106F15401012065
:1082900061F064F9C14B30653360C14AC149304671
:1082A00068F0F6FB2346224621460094BE485FF064
:1082B00031FE2346224621460094BC485FF02AFE48
:1082C0002346224621460094B9485FF023FE234608
:1082D000224621460094B7485FF01CFE2346224602
:1082E00021460094B4485FF015FE234622462146FD
:1082F0000094B2485FF00EFE2346224621460094C9
:10830000AF485FF007FE2346224621460094AD4861
:108310005FF000FEAC485FF0F5FD234622462146A3
:108320000094AA485FF0F6FD2346224621460094B9
:10833000A7485FF0EFFDA748994AA749C0F88440D5
:108340004FF40053A0F88030A44BC0F88830A0F858
:108350009C4068F09DFBA24BA248DC600822C3E968
:1083600001441A701C82A04BA04A1C705C70A04B88
:1083700001271A609F4A1F71D2F8B4101973D2F8FE
:10838000AC109973D2F8B0105973DC731C829C60E6
:10839000994B9A491C711960516F1973D16899737F
:1083A000926F9C605A73DC731C82224623462146DE
:1083B00000945FF0AFFD19232B614FF47A732B62A9
:1083C000C5E90C44AC60AC81AC73AC82EC61C5F81F
:1083D0001880AE6285F82C402146C5E90055802200
:1083E00005F17C0085F8384085F878406DF046FC52
:1083F0002146882205F1FC006DF040FC684A804966
:10840000284668F045FB23462246214600947D48D5
:108410005FF080FD23462246214600947A485FF0B3
:1084200079FD7A485E4A7A498460C0E9000068F0C4
:108430002FFB78485A4A76498460C0E9000068F00A
:1084400027FB7548564A72498460C0E9000068F00D
:108450001FFB234622462146009470485FF05AFDD8
:1084600023462246214600946D485FF053FD234683
:108470002246214600946B485FF04CFD234622467D
:108480002146009468485FF045FD23462246214678
:10849000009466485FF03EFD234622462146009444
:1084A00063485FF037FD2346224621460094614829
:1084B0005FF030FD23462246214600945E485FF07F
:1084C00029FD23462246214600945C485FF022FDA8
:1084D0005B485CF0C1FE324A5A49594868F0D8FA04
:1084E000234622462146009457485FF013FD4FF47F
:1084F000A47062F013FC08F124030546214640F8FD
:10850000043B20226DF0BAFB6C622146102205F17B
:1085100028006DF0B3FB2146212205F138006DF0F3
:10852000ADFB2146202205F159006DF0A7FB214645
:10853000202205F179006DF0A1FB2146C5F89C4091
:10854000202205F1A0006DF099FB85F8C04005F1EF
:10855000C4005CF081FE2146202205F1C8006DF0C8
:108560008DFB2146202205F1E8006DF087FB2146B6
:10857000202205F584706DF081FB2146202205F54F
:1085800094706DF07BFB08F1680361E0B04E002051
:10859000ACED090020F4002064400020BCED09008F
:1085A00000400020A9FB020058FB002040FA0020F8
:1085B000540C012044FB00205C0C0120740C0120B1
:1085C0007C0C0120C4FA002048FA0020840C012011
:1085D00044830020B4950020EDA0030080EE360017
:1085E00034FC0020A4F50020400D012000F00240E2
:1085F0004C0D0120A84A0B00600D01200030024004
:1086000083C90300740D0120940D01207C0D01200D
:1086100041BA0600880D01209C0D0120A80D012003
:10862000B00D0120B80D0120C00D0120D80D012092
:10863000E40D0120EC0D0120F40D0120FC0D0120C2
:10864000040E01204B520800080E012058B5090005
:108650002B60BC4BBC481D6022462346214600943B
:1086600008F1AC065FF056FCB84BB948049302A978
:1086700002968DF80E40ADF80C40059435F0AAFD39
:10868000B44AB549B248B54D68F002FAB44BB548A2
:10869000049302A902968DF80E40ADF80C400594A3
:1086A00005F098F8AB4AB049AE4868F0F1F9AF4B25
:1086B000AF48049302A902968DF80E40ADF80C4025
:1086C000059405F087F8A34AA749A94868F0E0F99E
:1086D000A84BA948049302A902968DF80E40ADF864
:1086E0000C40059405F076F89A4A9F49A24868F034
:1086F000CFF9A24BA248049302A902968DF80E402E
:10870000ADF80C40059405F065F8924A96499C48EE
:1087100068F0BEF941F60A0302A92846CDE90444EF
:108720000296ADF80C308DF80E7035F053FD2846EA
:1087300008F1BC03214640F8183B24226DF09EFA54
:10874000904BEB611523C5E90F4485F83D308E4B06
:10875000EB62052385F841308C4B2B63132385F89E
:10876000444085F842302846894D7A4A894968F064
:108770008FF941F60F0302A92846CDE90444029679
:10878000ADF80C308DF80E7035F024FD284608F158
:10879000D00340F8183B02A942F61923ADF80C307B
:1087A000CDE9044402968DF80E7005F013F82846C2
:1087B000794D684A794968F06BF9794B029602A9BC
:1087C000284604938DF80E40ADF80C40059435F022
:1087D00001FD284608F1E40340F8183B02A9714B5B
:1087E000049302968DF80E40ADF80C40059404F009
:1087F000F1FF584A6C496D4E284668F049F9234606
:108800002246214600946A486A4D5FF083FB234666
:1088100022462146009468485FF07CFB23462246AE
:108820002146009465485FF075FB234622462146A9
:10883000009463485FF06EFB234622462146009475
:1088400060485FF067FB23462246214600945E485D
:108850005FF060FB23462246214600945B485FF0B0
:1088600059FB234622462146009459485FF052FBAB
:10887000234622462146009456485FF04BFB234690
:1088800022462146009454485FF044FB234622468A
:108890002146009451485FF03DFB23462246214685
:1088A00000944F485FF036FB234622462146009451
:1088B0004C485FF02FFB23462246214600944A484D
:1088C0005FF028FB234622462146009447485FF08C
:1088D00021FB234622462146009445485FF01AFBBF
:1088E000234622462146009442485FF013FB23466C
:1088F00022462146009440485FF00CFB3F485CF064
:10890000ABFC144A3E493D4868F0C2F83D485CF073
:10891000A3FC104A3A493B4868F0BAF8234622467D
:108920002146009438485FF0F5FA23462246214656
:10893000009436485FF0EEFA234622462146009422
:1089400066E000BF100E0120A05B00202D4A0B0046
:108950008058002000400020BF1A03000859002062
:108960003E4A0B00FC520020F9D702004E4A0B0091
:10897000B05700201C4A0B00505900200B4A0B0036
:1089800054530020BD4B0B00DCB30900E2B30900D7
:108990000C580020BD1A030098580020C11A03008B
:1089A00039B90A0049B90A00C31A0300B8170120EF
:1089B000E0FA002038170120140E01201C0E0120BF
:1089C000240E01202C0E0120340E01203C0E01202B
:1089D000440E01204C0E0120540E01205C0E01209B
:1089E000640E0120688500206C0E0120740E0120A9
:1089F0007C0E0120840E012010FC002018FC0020B9
:108A00004B5208001CFC00208C0E0120940E01200B
:108A1000C5485FF07FFA2346224621460094C348AA
:108A20005FF078FA2346224621460094C0485FF062
:108A300071FA2346224621460094BE485FF06AFA46
:108A40002346224621460094BB485FF063FA234642
:108A5000224621460094B9485FF05CFA234622463C
:108A600021460094B6485FF055FA23462246214637
:108A70000094B4485FF04EFA234622462146009403
:108A8000B1485FF047FA2346224621460094AF489A
:108A90005FF040FA2346224621460094AC485FF03E
:108AA00039FA2346224621460094AA485FF032FA5A
:108AB0002346224621460094A7485FF02BFA23461E
:108AC000224621460094A5485FF024FA2346224618
:108AD00021460094A2485FF01DFA23462246214613
:108AE0000094A0485FF016FA2346224621460094DF
:108AF0009D485FF00FFA23462246214600949B488A
:108B00005FF008FA234622462146009498485FF019
:108B100001FA234622462146009496485FF0FAF96E
:108B2000234622462146009493485FF0F3F92346FA
:108B300022462146009491485FF0ECF923462246F4
:108B4000214600948E485FF0E5F9234622462146EF
:108B500000948C485FF0DEF92346224621460094BB
:108B600089485FF0D7F9234622462146009487487A
:108B70005FF0D0F9234622462146009484485FF0F6
:108B8000C9F9234622462146009482485FF0C2F983
:108B900023462246214600947F485FF0BBF92346D6
:108BA0002246214600947D485FF0B4F923462246D0
:108BB000214600947A485FF0ADF9234622462146CB
:108BC000009478485FF0A6F9234622462146009497
:108BD00075485FF09FF9234622462146009473486A
:108BE0005FF098F9234622462146009470485FF0D2
:108BF00091F923462246214600946E485FF08AF997
:108C000023462246214600946B485FF083F92346B1
:108C100022462146009469485FF07CF923462246AB
:108C20002146009466485FF075F9234622462146A6
:108C3000009464485FF06EF9234622462146009472
:108C400061485FF067F923462246214600945F4859
:108C50005FF060F923462246214600945C485FF0AD
:108C600059F923462246214600945A485FF052F9AA
:108C7000234622462146009457485FF04BF923468D
:108C800022462146009455485FF044F92346224687
:108C90002146009452485FF03DF923462246214682
:108CA000009450485FF036F923462246214600944E
:108CB0004D485FF02FF923462246214600944B4849
:108CC0005FF028F9234622462146009448485FF089
:108CD00021F9234622462146009446485FF01AF9BE
:108CE000234622462146009443485FF013F9234669
:108CF00022462146009441485FF00CF92346224663
:108D0000214600943E485FF005F92346224621465D
:108D100000943C485FF0FEF823462246214600942A
:108D200039485FF0F7F871E09C0E0120A40E012095
:108D3000AC0E0120B80E0120C40E0120D00E01207F
:108D4000D80E0120E00E0120E80E0120F00E0120D7
:108D5000F80E0120000F0120080F0120100F012044
:108D6000180F012004FC0020F8FB0020200F012038
:108D70002C0F0120340F01203C0F0120440F012053
:108D80004C0F0120540F01205C0F0120640F0120C3
:108D90006C0F0120C8F50020740F01207C0F01200A
:108DA000840F01208C0F0120940F01209C0F0120C3
:108DB000A40F0120AC0F0120BC0F0120C40F012023
:108DC000CC0F0120D40F0120DC0F0120E80F01207F
:108DD000F00F0120F80F01200010012008100120E1
:108DE000101001201810012020100120D8FB0020B5
:108DF00028100120301001203810012040100120DF
:108E00004C100120541001205C1001202346224602
:108E100021460094C1485FF07DF823462246214652
:108E20000094BF485FF076F823462246214600941E
:108E3000BC485FF06FF82346224621460094BA48AA
:108E40005FF068F82346224621460094B7485FF059
:108E500061F82346224621460094B5485FF05AF84F
:108E60002346224621460094B2485FF053F8234639
:108E7000224621460094B0485FF04CF82346224633
:108E800021460094AD485FF045F82346224621462E
:108E90000094AB485FF03EF8AA48AB4AAB49046087
:108EA00067F0F6FD2346224621460094A8485FF06D
:108EB00031F82346224621460094A6485FF02AF85E
:108EC000A548A14AA149046067F0E2FD2346224675
:108ED00021460094A1485FF01DF823462246214612
:108EE00000949F485FF016F82346224621460094DE
:108EF0009C485FF00FF823462246214600949A488A
:108F00005FF008F8234622462146009497485FF018
:108F100001F8234622462146009495485EF0FAFF68
:108F2000234622462146009492485EF0F3FF2346F2
:108F300022462146009490485EF0ECFF23462246EC
:108F4000214600948D485EF0E5FF234622462146E7
:108F500000948B485EF0DEFF2346224621460094B3
:108F600088485EF0D7FF2346224621460094864873
:108F70005EF0D0FF234622462146009483485EF0EF
:108F8000C9FF234622462146009481485EF0C2FF75
:108F900023462246214600947E485EF0BBFF2346CE
:108FA0002246214600947C485EF0B4FF23462246C8
:108FB0002146009479485EF0ADFF234622462146C3
:108FC000009477485EF0A6FF23462246214600948F
:108FD00074485EF09FFF2346224621460094724863
:108FE0005EF098FF23462246214600946F485EF0CB
:108FF00091FF23462246214600946D485EF08AFF89
:1090000023462246214600946A485EF083FF2346A9
:1090100022462146009468485EF07CFF23462246A3
:109020002146009465485EF075FF2346224621469E
:10903000009463485EF06EFF23462246214600946A
:1090400060485EF067FF23462246214600945E4852
:109050005EF060FF23462246214600945B485EF0A6
:1090600059FF234622462146009459485EF052FF9C
:10907000224621462346009456485EF04BFF304678
:1090800052F02EF8544B2C71AB6005F10C005EF0E1
:1090900039FF40F23953C5E905344EF66023C5E97E
:1090A00007342E604D4B4E4EAB606C624D4D3046DA
:1090B00052F016F828465EF025FF4B4A45F8046C3E
:1090C000C5E904224FF47F02AC60AC81AA6123465B
:1090D0002246214600944548454D5EF01BFF23463D
:1090E00022462146009443485EF014FF2346224660
:1090F0002146009440485EF00DFF2346224621465B
:1091000000943E485EF006FF0F4A3D493D4867F037
:10911000BFFC234622462146009475E064100120DE
:109120006C100120741001207C100120841001209B
:109130008C100120E0FB0020941001209C100120E5
:10914000CCFB0020C8FB0020004000205B4E050047
:10915000C0FB002088FB002084FB0020A41001201D
:10916000B0100120B8100120C410012014130120F8
:10917000549600201C130120241301202C130120DD
:10918000341301203C130120FCFA00204413012079
:109190004C13012078FB00205813012058160120A1
:1091A0006CFB0020C4160120D0160120D816012027
:1091B000E016012060FB0020FC16012004170120AE
:1091C0004CFB002010170120181701202017012048
:1091D00028170120B017012000040A009F930020E7
:1091E000DC17012094170120667C0B000418012075
:1091F000F89B00200C180120141801201C180120D5
:109200004BB1070024180120C2485EF083FE2346BC
:10921000224621460094C0485EF07CFE234622464A
:1092200021460094BD485EF075FE23462246214645
:109230000094BB485EF06EFE234622462146009411
:10924000B8485EF067FE2346224621460094B648A1
:109250005EF060FE2346224621460094B3485EF04D
:1092600059FE2346224621460094B1485EF052FE44
:109270002346224621460094AE485EF04BFE23462C
:10928000224621460094AC485EF044FE2346224626
:1092900021460094A9485EF03DFE23462246214621
:1092A0000094A7485EF036FE2346224621460094ED
:1092B000A4485EF02FFE2346224621460094A24891
:1092C0005EF028FEA14B2B612846A14BEB6008F114
:1092D000F806A04B6B61214640F8186B6D6045F2B3
:1092E000C0726CF0CBFC214636229B486CF0C6FC69
:1092F00028469A4D9A4A9B4967F0CAFB2846214660
:1093000000F8044B4FF4D0726CF0B8FC21464FF4D7
:10931000D07205F5D2706CF0B1FC2346224621468E
:1093200000949148914D5EF0F5FD2346224621467A
:1093300000948F485EF0EEFD2346224621460094BD
:109340008C485EF0E7FD23462246214600948A4879
:109350005EF0E0FD234622462146009487485EF0F9
:10936000D9FD87487E4A87498460C0E9000067F0DC
:109370008FFB234622462146009483485EF0CAFDB7
:10938000234622462146009480485EF0C3FD2346D2
:109390002246214600947E485EF0BCFD23462246CC
:1093A000214600947B485EF0B5FD234622462146C7
:1093B000009479485EF0AEFD234622462146009493
:1093C00076485EF0A7FD2346224621460094744865
:1093D0005EF0A0FD7348624A7349C463C0E901446A
:1093E000C0E90344C0E90544C0E90744C0E90944B1
:1093F000C0E90B44C0E90D4467F04AFB234622460E
:109400002146009469485EF085FD234622462146A8
:10941000009467485EF07EFD664B2B612846664BE4
:10942000EB6008F5887340F8183B6C6121466D606D
:109430004FF4FB526CF022FC214610225F486CF086
:109440001DFC474A5E4928465E4D67F021FB5E4B96
:109450002B6128465D4BEB6008F5947340F8183B90
:109460006C6121466D6020226CF008FCAC633C4AC4
:1094700057492846574D67F00BFB574B2B61284641
:10948000564BEB6008F5A07340F8183B6C61214621
:109490006D604FF4F0626CF0F1FBC5F89847304A0C
:1094A0004F49284667F0F4FA2346224621460094A5
:1094B0004C485EF02FFD23462246214600944A4840
:1094C0005EF028FD234622462146009447485EF080
:1094D00021FD234622462146009445485EF01AFDB0
:1094E000234622462146009442485EF013FD23465F
:1094F00022462146009440485EF00CFD2346224659
:10950000214600943D485EF005FD23462246214653
:10951000009475E028180120301801203818012027
:109520004018012048180120501801205C18012023
:10953000641801206C180120741801207C18012087
:10954000841801208C180120F09B00208764020001
:10955000DB620200F6B30900D0F30020A8980020D7
:10956000004000200DA9030094180120BC630020D6
:10957000A0180120A8180120B4180120C419012046
:10958000CC19012041BA0600DC190120E4190120A0
:10959000EC190120F8190120D8FA0020001A012046
:1095A000A89500202C9200204F580300081A012093
:1095B000B0630020B9640200BF620200348300205F
:1095C000C52B0300D05B0020AF640200D76202000D
:1095D0009B2B0300105C0020A5640200D9620200EE
:1095E0006D2B0300F0FA002010F40020101A012067
:1095F000181A0120201A0120281A0120301A0120EF
:10960000C3485EF087FC2346224621460094C148A9
:109610005EF080FC2346224621460094BE485EF060
:1096200079FC2346224621460094BC485EF072FC39
:109630002346224621460094B9485EF06BFC23463F
:10964000224621460094B7485EF064FC2346224639
:1096500021460094B4485EF05DFC23462246214634
:109660000094B2485EF056FCB148214620F8024B07
:1096700010226CF003FB2346224621460094AD489D
:109680005EF048FC2346224621460094AA485EF03C
:1096900041FC2346224621460094A8485EF03AFC4D
:1096A000A749A84AA84867F0F3F95C2061F036FBA7
:1096B000054606F0CAFE2B46A44A43F8382BC5E9F6
:1096C0000E3308F5AC736B63A14B2C64C5E91234FF
:1096D0004FF400734FF00208A5F858309D4B6C65AD
:1096E0006D6485F8508085F85A806F62CC201D60CB
:1096F00061F014FB054606F0A8FE2B46964A43F897
:10970000382BC5E90E3306F174036B63934B2C645D
:109710002146C5E9123474222C656D6405F15400AC
:109720006CF0ACFA8E4BC5F8C840C5F824805820C0
:109730001D6061F0F3FA054606F087FE2B46894A64
:1097400043F8382BC5E90E33874B2C64C5E9123436
:1097500003236B628836854B2C65A5F8544085F849
:1097600056406E636D646C201D6061F0D7FA05464B
:1097700006F06BFE2B467E4A43F8382BC5E90E33C4
:109780007C4B6B637C4B7D4A7D492C64C5E912346C
:1097900005F15C03C5E9153404236B62794B2C6534
:1097A0001D6013880B80784985F85C400B807749F1
:1097B0006D640B80764977480B8077496F4D0B803D
:1097C000764B117852781C7059709A702146234656
:1097D000224600945EF09EFB2346224621460094DA
:1097E0006F485EF097FB23462246214600946D4861
:1097F0005EF090FB23462246214600946A485EF0C4
:1098000089FB234622462146009468485EF082FB8D
:10981000234622462146009465485EF07BFB2346A2
:1098200022462146009463485EF074FB234622469C
:109830002146009460485EF06DFB23462246214697
:1098400000945E485EF066FB234622462146009463
:109850005B485EF05FFB2346224621460094594850
:109860005EF058FB234622462146009456485EF09F
:1098700051FB234622462146009454485EF04AFBA1
:10988000234622462146009451485EF043FB23467E
:109890002246214600944F485EF03CFB2346224678
:1098A000214600944C485EF035FB23462246214673
:1098B00000944A485EF02EFB23462246214600943F
:1098C00047485EF027FB2346224621460094454840
:1098D0005EF020FB234622462146009442485EF07B
:1098E00019FB234622462146009440485EF012FBB5
:1098F00023462246214600943D485EF00BFB23465A
:109900002246214600943B485EF004FB234673E068
:10991000381A0120401A0120E8FA0020481A0120D4
:10992000D0FA0020501A0120601B0120C45B0020E7
:10993000B05B002038FA00206C1B01209CF900204D
:109940003161040000400020A4F90020A8EF0900C4
:1099500087FF020048F9002064530A0061140400E4
:1099600090F9002030660A007758040094F900202E
:1099700020660A00AC660A0099610400DF1F01201E
:10998000ACF90020A8F9002082F900207CF9002021
:109990007EF90020781B012080F9002085F9002045
:1099A000801B0120881B0120901B0120981B012097
:1099B000A41B0120AC1B0120B41B0120BC1B0120F7
:1099C000C41B0120CC1B0120D41B0120DC1B012067
:1099D000E41B0120EC1B0120F41B0120FC1B0120D7
:1099E000081C0120101C012070F70020181C012009
:1099F000201C0120281C0120224621460094964864
:109A00005EF088FA234622462146009493485EF091
:109A100081FA234622462146009491485EF07AFA64
:109A200023462246214600948E485EF073FA234670
:109A30002246214600948C485EF06CFA234622466A
:109A40002146009489485EF065FA23462246214665
:109A5000009487485EF05EFA234622462146009431
:109A600084485EF057FA23462246214600948248F5
:109A70005EF050FA23462246214600947F485EF06D
:109A800049FA23462246214600947D485EF042FA78
:109A900023462246214600947A485EF03BFA23464C
:109AA00022462146009478485EF034FA2346224646
:109AB0002146009475485EF02DFA23462246214641
:109AC000009473485EF026FA23462246214600940D
:109AD00070485EF01FFA23462246214600946E48E5
:109AE0005EF018FA23462246009421466B485EF049
:109AF00011FA6B4B30240022013C1A7303F10E0360
:109B0000FAD1234622462146664800945EF002FAC6
:109B10006548664A66498460C0E9004466F0B8FF5B
:109B20006448624A6449047200F10803C0E90034E1
:109B300066F0AEFF234622462146604800945EF060
:109B4000E9F92346224621465D4800945EF0E2F999
:109B50002346224621465B4800945EF0DBF923460B
:109B600022462146584800945EF0D4F92346224606
:109B70002146564800945EF0CDF923462246214600
:109B8000534800945EF0C6F92346224621465148C8
:109B900000945EF0BFF92346224621464E480094C9
:109BA0005EF0B8F92346224621464C4800945EF008
:109BB000B1F9234622462146494800945EF0AAF9AD
:109BC000234622462146474800945EF0A3F92346E7
:109BD00022462146444800945EF09CF9334A4349AA
:109BE000434866F055FF23462246214641480094EB
:109BF0005EF090F940482D4A4049046066F048FF05
:109C00003F4B2C701C705C709C7022462346214692
:109C10006C703C4800945EF07DF93B4813F0BCF951
:109C2000224A3A49384866F033FF394813F0B4F90C
:109C30001E4A3649364866F02BFF03222146012092
:109C40005FF0E2FB334B186000286BD1324B334A94
:109C500033480C2142F010F8381C0120441C01202C
:109C60004C1C012068F70020541C01205C1C0120C2
:109C7000641C01206C1C0120741C01207C1C012030
:109C8000841C01208C1C0120941C01209C1C0120A0
:109C9000A41C0120AC1C0120B41C0120BC1C012010
:109CA000C41C0120641F01206C1F01200040002003
:109CB000554F0800781F012095130900901F0120BF
:109CC000981F0120A01F0120A81F0120B01F012004
:109CD000B81F0120C01F012060F70020C81F01200D
:109CE000D01F012034F700202CF700205D20040055
:109CF000D0F50020C0F50020D81F01205B4E0500E4
:109D0000DC1F012064510020905000203D0B030017
:109D10006C5100203C52002004B409000EB409002C
:109D20004EB40900AE4AAF49AF4DB04F184666F089
:109D3000AFFE2346224621460094AD485EF0EAF885
:109D40002346224621460094AA485EF0E3F82346C3
:109D5000224621460094A8485EF0DCF823462246BD
:109D600021460094A5485EF0D5F8234622462146B8
:109D70000094A3485EF0CEF8234622462146009484
:109D8000A0485EF0C7F823462246214600949E482C
:109D90005EF0C0F823462246214600949B485EF0C0
:109DA000B9F8234622462146009499485EF0B2F85D
:109DB000234622462146009496485EF0ABF823469F
:109DC00022462146009494485EF0A4F82346224699
:109DD0002146009491485EF09DF823462246214694
:109DE00000948F485EF096F8234622462146009460
:109DF0008C485EF08FF823462246214600948A481C
:109E00005EF088F8234622462146009487485EF09B
:109E100081F8874B874A9C60C3E90024864ADA6050
:109E2000864B874A9C60C3E90024864ADA608649EB
:109E3000864B8748C3E90242C3E90014854B864A32
:109E40001A60864A5A60864A9A60864ADA60864B69
:109E5000864A9C60C3E90024854ADA60854B864ABD
:109E60009C60C3E90024854ADA60854B854A8649AF
:109E7000C3E90024854A9A60854ADA60854B864AA0
:109E80009C60C3E90024854ADA60854A11608549EF
:109E90008460C2E901148449D160844A8449116014
:109EA00084495160844991608449D160C0E900349B
:109EB0004B4A8349C0F8EC4080F8F04066F0E8FD7A
:109EC00023462246214600947E485EF023F87E48D1
:109ED0007E4B03610523037105F14C0300264FF00F
:109EE0004008036205F15803C0E909343C4A784947
:109EF00004730475846104778460056080F82D80A4
:109F00004463866366F0C4FD7248734B0361222389
:109F1000037105F16403036005F1B003036205F109
:109F2000BC03436242F210732D4A6C4904730475FA
:109F300084610477846080F82880C762C663A0F8D3
:109F4000403080F8428047640663866346638464D9
:109F500066F09EFD6248634B03610423037105F1C3
:109F6000C803036005F58A73036205F590731C4A04
:109F70005D4904730475846104778460436266F00C
:109F800087FD5A485A4B03610E23037105F59673FA
:109F9000036005F5BC73036205F5C2734362422397
:109FA00080F83430534B0E4A53490473047584616E
:109FB0000477846087638362C3620363C46366F06B
:109FC00067FD4E484E4B03611C23037105F5C873B2
:109FD000036005F5EC73C0E90834014A92E000BF64
:109FE0000040002099520800ECB60900102B012017
:109FF000B8F50020E41F0120EC1F0120F41F012010
:10A00000FC1F0120A85B0020082001201020012057
:10A01000ACF500201C200120382001204420012024
:10A020004C200120F452002058200120F42001206F
:10A03000E4200120B55B08007AB40900FC2001206F
:10A04000995B080083B409007D5B0800D4200120DF
:10A050000C210120B4200120555B0800E3640200BC
:10A06000E1640200EB2F0A0084200120DF6402007B
:10A0700087B40900942001200D6502008AB409000C
:10A08000C4200120DD6402000565020009650200AC
:10A090008FB40900A4200120BD62020096B409001B
:10A0A00074200120695B08009BB409006420012032
:10A0B00065600800575B0800016502009EB4090056
:10A0C0002922030058500020544F0020A4B4090056
:10A0D00085040300904F0020ABB40900C3040300C3
:10A0E000DC4F0020B2B40900C1040300145000206A
:10A0F000B9B40900CDCCCC3DBF04030060500020B2
:10A10000C1B409002749047304758461047784602D
:10A1100066F0BEFC234622462146009422485DF0AC
:10A12000F9FE234622462146009420485DF0F2FEC7
:10A1300023462246214600941D485DF0EBFE23464F
:10A140002246214600941B485DF0E4FE2346224649
:10A150002146009418485DF0DDFE23462246214644
:10A16000009416485DF0D6FE234622460094214610
:10A1700013485DF0CFFE134B83F8E44083F8E840CA
:10A18000114B4FF47A729A6005F5F2721A6005F578
:10A1900003754FF47F425C601D619A8206B0BDE892
:10A1A000F08100BFBD04030000220120082201202D
:10A1B0001022012018220120A84E0020A04E0020CD
:10A1C00020220120B44D00202C48002007B5036850
:10A1D0008DF807105B6801220DF10701984703B065
:10A1E0005DF804FBA0F1100000F032B9407DFF28BB
:10A1F00001D05CF017BE704710B5437DFF2B0CD02B
:10A20000074A4FF4567000FB032001F011FC04468E
:10A2100008B961F0CFF9204610BD0020FCE700BF6F
:10A22000C82701202DE9F74F437DFF2B06460F4637
:10A2300014462FD015464FF4567A4FF6FE7B15B3D1
:10A24000707D5CF02DFEF0B1737D134A01930AFB23
:10A2500003294FF6FF7209F124095D4598BF2A468C
:10A2600092B23946484601F047FB8046484601F025
:10A27000DFFB3F28019B02D918465CF0D3FDB5EB0C
:10A280000805474403D1601B03B0BDE8F08F61F0BF
:10A2900091F9D4E70020F7E7B827012008B5437DFE
:10A2A000FF2B07D0044A4FF4567000FB032001F047
:10A2B000ADFB08BD0020FCE7DC27012073B5437D22
:10A2C000FF2B14D04FF456745C430A4E04F1100077
:10A2D00001220DF10701304401F03EFA0546301924
:10A2E0005CF0F4FD1DB19DF8070002B070BD4FF0A9
:10A2F000FF30FAE7B827012073B5457DFF2D03D164
:10A300004FF0FF3002B070BD254E4FF4567303FB83
:10A310000563186A18B14FF0FF315FF007FA4FF488
:10A32000567202FB0562118B538B908A89B29BB2E5
:10A33000994236BFC3EB4002CA1A521894B2E4B134
:10A34000A04209D281424FF456722CBF0B1A0B184F
:10A3500002FB05629BB2538398421ED94FF456719B
:10A3600001FB05610DF10700CA8A0969C2F30E02FB
:10A3700002FB03116BF05AFC01244FF4567303FBEC
:10A380000565286A20B100231A4619465FF062F875
:10A39000002CB5D09DF80700B4E71B1A9BB2DBE791
:10A3A000B827012010B5194B5A7DFF2A2CD11A7EEF
:10A3B00052BB174C5A750121197694F850110B298C
:10A3C00008D84A1C84F8502101F14802114844F889
:10A3D00022000A461A75B4F81821B4F81A316169D6
:10A3E0000A489B1A9BB20A4494F81C1100F030F8FA
:10A3F00050B1B4F818311844636980B2A4F8180158
:10A40000588094F81C211A7110BD00BF2C48002000
:10A410004848002084E8090010B5407DFF2807D097
:10A420005CF03EFD044608B961F0C4F8204610BD5A
:10A430000024FBE7034B9B68B3F5966F01D15CF0FA
:10A44000A1BE7047B827012009B900B9F2E77047EB
:10A450002DE9F047074692B098461546002A00F0CD
:10A4600090804B4B93F81C6193F81D1193F81EA13B
:10A47000B21C83F81C214C1C8A1C83F81D2164F03B
:10A480007F040AF1010241F08009E4B283F81E2141
:10A490004222002101A86BF0F1FB002D6DD0B8F134
:10A4A000410F73D940F20220ADF8080040F2094094
:10A4B000ADF80C0040F20120ADF8100024208DF81A
:10A4C000160034480690731C0120DBB28DF806603C
:10A4D0008DF80E608DF81C008DF826602E48397DB1
:10A4E0008DF81E30032640F6083208908DF827308C
:10A4F00040F224608DF82B608DF8313008260A2355
:10A500000427ADF804208DF8141002220521ADF8BF
:10A5100024008DF82C6040F207508DF834304FF451
:10A52000116640238DF807208DF812208DF8151044
:10A53000ADF828008DF83320ADF838008DF83B20B9
:10A540008DF81F708DF82A90ADF82E608DF8307060
:10A550008DF83AA08DF83C3007238DF83F308DF808
:10A56000401044F2020342220DEB070128468DF809
:10A570004140ADF842306BF059FB422012B0BDE8CB
:10A58000F087924614469146164681E70020F5E78B
:10A590004848002020010524240202057FB5204BF5
:10A5A000204A03F11006144618685968154603C579
:10A5B0000833B3422A46F7D11B4A1B8810685168FA
:10A5C0002B8001AB03C3127A1A7004AA12E90700A8
:10A5D000164B03C3194603F5887001F80829144A7D
:10A5E000C4F818214FF48072A4F81C210122616183
:10A5F00084F81E21002120226BF040FB40F2094329
:10A60000C4F820310B4BC4F824310B4BC4F828316B
:10A610000023C4F82C31042384F8503104B070BDF9
:10A620009FE8090048480020B1E809006048002080
:10A630000900000193E80900BD4B0B00F0B5054689
:10A64000002004462B5D2E19002B68D003F1400238
:10A65000D2B2012A3DD9F42B3BD81A061BD40122D1
:10A66000A3F55846B6F5006F33D3B3F5803F1444D5
:10A670004FD31E2853DCA3F5803342009E0A0A44C0
:10A68000C3F30903A6F52056A3F5105321F8106073
:10A6900002305380D6E703F0E002C02A1BD103F05A
:10A6A0001F03022206F1010C16441CF8017B07F07F
:10A6B000C00EBEF1800F0CD107F03F07664547EA98
:10A6C0008313F2D1022A16D1A3F18006B6F5F06FFA
:10A6D000C6D30134B6E703F0F002E02A03D103F059
:10A6E0000F030322DEE703F0F802F02AF1D103F0B2
:10A6F00007030422D6E7032A04D1A3F50066B6F5C2
:10A70000784FE5E7A3F58032B2F5801FE1D204224D
:10A71000A6E7202803D021F81030013092E7F0BDE1
:10A720000B6802490B610121184700BF2822012054
:10A730002DE9F041174C184F804600251826227944
:10A74000EBB2511D994212DA3822002113486BF006
:10A7500095FA1022FF2104F109006BF08FFA04F141
:10A7600019001222BDE8F041FF216BF087BA9A422E
:10A7700007D9226806FB032333B9BDE8F041FDF792
:10A780004DBD9B1A06FB03735B6840469847013535
:10A79000D5E700BFDC490020C8E80900E1490020F6
:10A7A000F8B5124C266C00F07F07C5094FF0FF3159
:10A7B00030465EF0BBFF04EB47032B4425339A7908
:10A7C000C2F38004520708D59A7912F0010103BF41
:10A7D0009A7961F382029A71002400231A4619467D
:10A7E00030465EF037FE2046F8BD00BFDC49002051
:10A7F000F8B5194A00F07F0302EB430303EBD010D6
:10A8000000F1250490F82B5015F0010521D190F8A6
:10A810002B305907C3F3800717D4166C4FF0FF3164
:10A8200030465EF083FFA57915F001050FD1A379BD
:10A830005B0704D4A37943F00403A371012500232B
:10A840001A46194630465EF005FE2846F8BD3D46DC
:10A85000F5E70025F9E700BFDC49002070B48278F5
:10A8600002F07F03082B07D9524B1B68DB0700D58A
:10A8700000BE002070BC70474F49C478CD798188F4
:10A8800004F00304022CC1F30A010BD0032C45D0C1
:10A89000012C11D1022D40F2FF3408BF4FF4806427
:10A8A000A1420DE0022D0AD1B1F5007F09D0414B44
:10A8B0001B68DA0700D500BE70BCFDF7B7BC4029A5
:10A8C000F5D83E4E5C0004EBD21406EB0414D50917
:10A8D0002181C17801F0030101292FD001203849DD
:10A8E00000FA03F405BB03F10C06B040C1F8040301
:10A8F000D1F8140503F594730443C1F8144541F8E5
:10A9000023502F4BC3F8182542F48072C3F80C254E
:10A91000BFF36F8FBFF34F8F0120ABE7022D0CBF4A
:10A920004FF480644024BBE702339840C1F804032D
:10A93000D1F810351C43C1F81045E2E7082B93D13C
:10A940001F4BDDB9B6F8182112B18022C3F81C25BF
:10A950000022C3F85021D3F8002312F4001208BFDC
:10A96000C3F85421164B4FF44012C3F80423D3F814
:10A97000142542F48072C3F81425C9E70022C3F8F5
:10A980002C21B6F8082112B18022C3F81C250C4BEB
:10A99000D3F8002312F4001208BFC3F85421094A67
:10A9A000C3F80423D3F8102542F48072C3F81025AD
:10A9B000AEE700BFF0ED00E0DC490020344B0020A2
:10A9C000007002400008200010B50B4B00F07F0221
:10A9D00003EB420303EBD0142534A3799B0709D47E
:10A9E00001F07AFAA37943F00203A371A37943F04B
:10A9F0000103A37110BD00BFDC49002010B5104B4E
:10AA000004460146187801F023F80E4B04F07F014C
:10AA100003EB410303EBD41090F82B306FF34103A9
:10AA200080F82B3090F82B306FF3000380F82B3038
:10AA300090F82B306FF3820380F82B3010BD00BFED
:10AA400004400020DC4900202DE9F843DDE90889B5
:10AA50000C4616461F460025AE4201DC01200EE0E2
:10AA60006378052B04D1E37803F00303BB4208D0DD
:10AA70000D4B186810F0010001D000BE0020BDE8A9
:10AA8000F8832046FFF7EAFE18B9BDE8F843FDF762
:10AA9000CDBBA378DA0914BF89F8003088F80030FC
:10AAA000237801351C44D7E7F0ED00E01FB5CDE970
:10AAB00002011149002308240193486C8DF80540D8
:10AAC0003AB9134601A94FF0FF325EF0C3FC04B05F
:10AAD00010BD6A4601A900935EF055FD009B002B56
:10AAE000F5D0064B4FF080525A6040BFBFF34F8FF6
:10AAF000BFF36F8FEBE700BFDC49002000ED00E003
:10AB00002DE9FF414378484C023B0546042B12D8FF
:10AB1000DFE803F003291B22710063796FF3000360
:10AB20006371637900226FF341036371A2716379EA
:10AB300062F382036371606C002961D10B464FF0B0
:10AB4000FF3229465EF086FC2FE06379D8072CD5CA
:10AB5000637943F00403EDE76379DA0725D5637978
:10AB60006FF38203E6E763795B0715D563796FF3CB
:10AB7000820363710278606C0023CDE901338DF8A4
:10AB80000420052203938DF8052089B90B464FF068
:10AB9000FF3201A95EF05EFCDFF8948000261827E2
:10ABA0002279F3B2511D994214DA04B0BDE8F08164
:10ABB0006A4601A900935EF0E6FC009B002BEBD0F7
:10ABC0001A4B4FF080525A6040BFBFF34F8FBFF314
:10ABD0006F8FE1E79A420AD9226807FB032323B16A
:10ABE0005B6913B16968287898470136D8E79B1AE2
:10ABF00007FB0383F4E7237A0133DBB223729AE77E
:10AC0000002301AA294601935EF0BDFC019B002BA5
:10AC1000CBD0064B4FF080525A6040BFBFF34F8FEE
:10AC2000BFF36F8FC1E700BFDC49002000ED00E0FB
:10AC3000C8E809002DE9FF47474D074600F07F00AF
:10AC400005EB400606EBD7162536B47914F001045F
:10AC50004FEAD71E4FEA400306D0FDF7E7FA044655
:10AC6000204604B0BDE8F08796F806C0DFF8008102
:10AC70004CF0010C86F806C003EB0E0C4FEA0C19E1
:10AC800008EB0C1C46469CF80BA0BAF1000F17D03D
:10AC9000324A1168C90700D500BE2B44734493F8AB
:10ACA0002B106FF3000183F82B1093F82B106FF328
:10ACB000820183F82B101368DB07D1D500BECFE7E4
:10ACC00048F80910ACF80420ACF8064008BB02BBF9
:10ACD000234BD3F88034C3F3C0139E4519D02148C9
:10ACE00000F02EFF204B59680394C1F3080100398E
:10ACF0004FF4E06318BF012101A8CDE90144ADF88C
:10AD000004308DF808708DF80940FFF7F9FE012432
:10AD1000A6E70125BEF1000F1AD106EB4012D5724D
:10AD200018B9124800F00CFFF1E7BFF36F8FBFF3C3
:10AD30004F8F937A03F0FF0443B1D37A03F0FF05FA
:10AD4000002B8DD082F80AE001F062F82C4687E7EC
:10AD500001F0E8F8FAE700BFDC490020F0ED00E080
:10AD6000007002405070024000ED00E04C70024064
:10AD7000344B00202DE9F04FB54B1B78FF2B93B0DF
:10AD8000834600F029844FF47A72002380024FEA50
:10AD90009B516AF07FF8012838BF01200390AD4C29
:10ADA000BBF1FF3F606C26461BD0039BBBF1000F3D
:10ADB00014BF1A46002207A95EF03EFC002800F0EE
:10ADC0000B849DF81D30013B072B00F2B283DFE8B6
:10ADD00013F00A001C00B003170426042B008D0397
:10ADE00032045A46E7E79DF81C00FFF7A1FC9A4899
:10ADF000142200216AF042FF9DF82030E371606C5C
:10AE00005EF02AFD0028CAD1E6E39DF81C00FFF79A
:10AE10008FFC9148142200216AF030FF8F4B002BE9
:10AE2000EDD0AFF30080EAE7237A013BDBB2237277
:10AE3000227A02F0FF03002AE1D16279DFF818825A
:10AE40009DF81C50C8F8103042F00102627194F86D
:10AE50002B2063F3000284F82B2094F82B2063F35B
:10AE6000820284F82B2094F82C2063F3000284F8EB
:10AE70002C2094F82C2063F382029DF8203084F873
:10AE80002C2003F06002602A06D1754B1B68DD0799
:10AE900040F1DF8200BEDCE2402A0AD1714BC8F8E3
:10AEA000103008AA012128465CF0FEF80028A6D13F
:10AEB000CFE203F01F03012B00F03E82022B00F0D3
:10AEC0008882002BE1D1202A20D19DF824300F2B3D
:10AED00000F2BF821E442379717A99420CD2236812
:10AEE00001EB410113EBC10100F0B38208AA0C3160
:10AEF0002846FFF715FCD9E75A1D8A42C0F2A982FD
:10AF0000594AC91A182303FB0121EFE7002ABCD1D3
:10AF10009DF82130092BB8D801A252F823F000BFC8
:10AF200023B3020011B302008BAE0200FDB2020097
:10AF30008BAE020049AF0200AFB102008BAE02003F
:10AF40007DAF020091AF0200DDE90801474BC8E97F
:10AF50000001D3F80014D3F8000400220143C8E92B
:10AF60000222C3F80014C3F858214FF48002C3F83A
:10AF70000423637943F00203637140E7A3798DF8FA
:10AF8000383001230EAA08A928465BF075FA36E787
:10AF90009DF822300193019AA3799A4200F08A80A9
:10AFA000A379002B42D0324B8022C3F88420BFF318
:10AFB0004F8FBFF36F8F0127DFF8B080DFF8C0A09D
:10AFC000B94607F10C03BA1C09FA02F209FA03F3B5
:10AFD0001343C8F80833BB0003F1804303F51C3367
:10AFE000002159600AEB47109962202201376AF06C
:10AFF00045FE082F4FF00001E3D11E4BC8F808337F
:10B000002022C8F81C151C48C8F82410C8F848109D
:10B010006AF034FEC8F81495C8F81095144B8022D5
:10B020005A60E7792846FFF783FBE771019B002B05
:10B0300000F0B780114B5A6912B15378022B21D01E
:10B04000074B1B68DA077FF520AF00BE1DE700BF86
:10B0500004400020DC4900202822012000000000DC
:10B06000F0ED00E0A9700800C8E809000070024097
:10B0700000E100E000083000344C00204848002087
:10B08000344B0020D379C3F38011C3F340131B0169
:10B0900043EA4113617921F030010B436371538816
:10B0A000D31802F109010293029B8B4209D8B74BD6
:10B0B000002B73D1019BA37108A928465BF098F976
:10B0C0009DE64B780B2B03BF0B7891F80390C918C2
:10B0D0004FF001094B78042BB2D1029B5A1A92B25D
:10B0E0004FF0000A37795FFA8AF87B1D9845A7DC94
:10B0F00047452ED93768182303FB0877002F9FD0C8
:10B10000BB682846CDE9041298470828DDE90412F7
:10B1100041D982423FD3B9F1010F0AD1BB689C4AA1
:10B12000934208BF4FF002099A4A934208BF4FF07A
:10B1300002090022D3B2994512D8974A084488429E
:10B140001AD8954B1B79053398453FF779AF0146DF
:10B15000AAE7924BA8EB0707182000FB0737CFE7B9
:10B160008F783B4456FA83F301325F7AFF2F7FF4E6
:10B1700067AF83F80980DDE74B78052B08D18F781E
:10B1800007F07F0302EB430303EBD71383F8198027
:10B190000B781944D3E70AF1010AA3E7AFF3008063
:10B1A00088E77F4B002B85D0AFF3008082E7BDF8A6
:10B1B0002200030A5A1EC0B20E2A00F24A81DFE8BA
:10B1C00012F00F001A002B004801480191001A00EC
:10B1D000480148014801480148014801480116005A
:10B1E000704A122308A928465BF046F95EE66E4ACB
:10B1F00032F80239F6E7022B06D16A4B5A69002A67
:10B200003FF443AE5388EDE7684B002B00F02181FB
:10B21000AFF300800246F2E7624E60B1032819D016
:10B2200096F85031834240F21481483006F5AA71F5
:10B2300056F8200053E0D6F82031A6F8543101200A
:10B240000130430043F44072A6F8522103F0FE039C
:10B25000574AC7E7D6F82C71002F3DD10AA85BF0FA
:10B2600093FF0DF1280C0346B6463A46D1B28B4205
:10B270000EF1040E2DD94F4F0DF1380907F1100AC8
:10B2800038687968C846A8E8030008375745C146BA
:10B29000F6D11CF8018B474F08F00F0112A80144AA
:10B2A0000DF1380A11F8101CAEF85211796838689F
:10B2B000D146A9E80300404908378F42CA46F5D174
:10B2C00012A901EB1818013218F8101CAEF8501131
:10B2D000CCE75800C0B2B3E706F5AA713846FFF7CD
:10B2E000ADF9F7E7354B002B00F0B380AFF30080EA
:10B2F0000246002800F0AD80037873E7BDF82230E5
:10B30000012B40F0A680637943F008036371D3E614
:10B31000BDF82230012B40F09C8063796FF3C303AA
:10B32000F4E76379C3F340129B0803F0020313436D
:10B33000ADF83830022325E69DF824300F2B00F2BB
:10B3400088801E442379717A994239D2236801EBAF
:10B35000410113EBC1017CD008AA0C312846FFF74C
:10B36000DFF900287FF44BAD9DF8203013F0600327
:10B370006FD19DF82120A2F10A01012969D80A2A7A
:10B38000C8F810307FF498AEF9E500BF0000000067
:10B39000FD6F08005D680800DC490020C8E809006E
:10B3A0000000000048480020604A0B000000000038
:10B3B0009A49002044770B0054770B0000000000EE
:10B3C0005A1D8A4245DBA24AC91A182303FB0121F0
:10B3D000C2E79DF8240000F07F0CBCF1080F3FF697
:10B3E00054AD06EB4C0707EBD01794F804E07F7ED2
:10B3F00077454FEAD0114FEA4C0A16D2236807EB83
:10B40000470703EBC70712BB9DF8212002F0FD0E92
:10B41000BEF1010F24D0002A7FF437AD56443144E9
:10B4200091F82B30C3F3400382E70EF10509B945CB
:10B43000C0F20981864BA7EB0E074FF0180E0EFBEA
:10B440000737002AE0D008AA07F10C0150E5002FC9
:10B45000F9D1002000F040FD802000F03DFDCEE459
:10B46000BDF822E0BEF1000F2BD1012A3BD106EB43
:10B470000A020A4425329279930722D510F0770FF9
:10B4800011D0744A40F4807EC2F80C05C2F80CE575
:10B49000C2F8180519B90CF5947C42F82C10BFF3CA
:10B4A0006F8FBFF34F8F5644314491F82B306FF3B9
:10B4B000410381F82B3091F82B306FF3000381F8B2
:10B4C0002B30002F3FF49BAC08AA07F10C01284653
:10B4D000FFF726F90023C8F8103094F82C30DE0767
:10B4E0003FF58DACE8E5FFF76FFAEAE79DF820102D
:10B4F00001F07F0706EB470606EBD116CA0996F85E
:10B500002B006FF3000086F82B0096F82B006FF3EA
:10B51000820086F82B00002F4FD14F4D9DF81C6004
:10B520002B78DDF82480B2EBD31F12D0B8F1000FD6
:10B5300006D04A4B1B68DB077FF561AC00BE5EE4BA
:10B540002B69002B3FF45BAC2A4603213046984719
:10B5500055E495F90030002B07DBA86800283FF47C
:10B560004EAC3F4942466AF061FBAA68EB8942440F
:10B570004344AA60EA889BB29A42EB8102D0B8F1B8
:10B580003F0F16D82B696BB995F900300022002BBC
:10B590001146B4BF38468020FFF74CFB00287FF4EB
:10B5A0002EACC6E72C4A0221304698470028EBD142
:10B5B00050E730465AF034FFF0E7737E2279934229
:10B5C0000DD2226803EB430312EBC3030FD1234BCD
:10B5D0001B68D80700D500BE13B0BDE8F08F501D22
:10B5E0009842F4DB1A489B1A182202FB03031D69D8
:10B5F0009DF82120099B9DF81C00A847FFF7FFBB81
:10B600006379D9077FF5FBAB164B002B3FF4F7AB03
:10B610006079C0F3C000AFF30080FFF7F0BB63793F
:10B62000DA077FF5ECAB104B002B3FF4E8ABAFF340
:10B630000080FFF7E4BB089B002B3FF4E0AB0998C8
:10B640009847FFF7DCBB002A7FF403AF1746DBE621
:10B65000C8E809000070024028220120F0ED00E057
:10B660003C22012000000000000000002DE9F7430B
:10B67000DFF8D88098F80030FF2B0646474648D1BF
:10B68000DFF8CC903822002109F105006AF0F6FAC3
:10B6900009F1480101205DF061FF4D46C9F8400005
:10B6A00040B9274B1B6813F0010F46D1002003B0AF
:10B6B000BDE8F08300230093D8F80820B8F80610FE
:10B6C000B8F8040008F110035DF088FED8F80C10FB
:10B6D00004465EF0D9F8C9F844402CB9184B1B68F1
:10B6E000DB07E3D500BEE1E7164B23B1281DAFF31E
:10B6F0000080C9F80000DFF85C9000244FF01808C3
:10B700002879E3B2421D934205DD3E700E4B802244
:10B710005A600120CBE7984208D9286808FB03004B
:10B7200038B9074A126812F0010FBEE71B1A08FB6E
:10B730000390036898470134E2E700BEB7E700BF13
:10B74000F0ED00E00000000000E100E00440002017
:10B75000DC490020C8E809002DE9F04706460069E9
:10B760008846914618B14FF0FF315DF0DFFF338915
:10B770007489B7889BB2A4B2A34236BFC4EB470515
:10B780001D1BED18ADB2F5B1AF4206D2BB422CBFC6
:10B79000DC1BDC19A4B274813D464D4528BF4D46E3
:10B7A000A74229D9F2883168A7EB04091FFA89F961
:10B7B000C2F30E0A4D4552460AFB04111FD86A43D4
:10B7C00040466AF033FA7389B28899B215FA83F366
:10B7D0009BB299424FEA420201D8934201DB9B1A85
:10B7E0009BB23069738120B100231A4619465DF07F
:10B7F00031FE2846BDE8F087E41BA4B2D0E719FB70
:10B800000AF91FFA89F94A4640466AF00FFAEA1B1C
:10B81000224412FB0AF2316892B208EB0900D0E729
:10B82000F8B50446C0680F4616461D4618B14FF0DD
:10B83000FF315DF07BFF206918B14FF0FF315DF003
:10B8400075FFED03E0682760002345F00105638183
:10B85000A680E580238118B11A4619465DF0FAFDED
:10B86000206920B100231A4619465DF0F3FD01203E
:10B87000F8BD38B50446C0680D4618B14FF0FF3129
:10B880005DF054FF206918B14FF0FF315DF04EFFBD
:10B89000E379E06865F3C713E37120B100231A462A
:10B8A00019465DF0D7FD206920B100231A461946DC
:10B8B0005DF0D0FD012038BD10B50446C06818B158
:10B8C0004FF0FF315DF032FF206918B14FF0FF31CA
:10B8D0005DF02CFFE06800236381238118B11A46D4
:10B8E00019465DF0B7FD206920B100231A461946BC
:10B8F0005DF0B0FD012010BD2DE9F84F07468846E8
:10B90000164642B3C06818B14FF0FF315DF00EFF2C
:10B91000FA793D897B89B7F80490D209ADB29BB220
:10B920001CD19D4239BFC3EB49046419EB1A9CB288
:10B9300038BFA4B2A14586BFA9EB0404A4B2002479
:10B94000A64228BF264656BBF86820B100231A46F7
:10B9500019465DF07FFD3046BDE8F88FF9884E4509
:10B96000C1F30E0106D3A6EB090601FB06881D46AE
:10B970004E46E8E79D424FEA490136BFCA1AEA1A25
:10B98000521992B232448A4209DB09EB0305AD1B1E
:10B99000ADB2AB4201D8A94201DC6D1AADB22C4662
:10B9A000A1451DD9FA883868A9EB040A1FFA8AFA5A
:10B9B000C2F30E0BB2455A460BFB040014D372437C
:10B9C00041466AF033F97319BA889BB2AB424FEA29
:10B9D000420201D3934201DB9B1A9BB23B81B3E746
:10B9E000A4EB0904A4B2DBE71AFB0BFA1FFA8AFAEC
:10B9F000524641466AF01AF9A6EB0903234413FBA9
:10BA00000BF2386892B208EB0A01DAE78288038900
:10BA100040899BB280B2834236BFC0EB4200181A05
:10BA2000C01880B2824286BF101A80B200207047D0
:10BA30000389428981889BB292B2934236BFC2EB9E
:10BA400041029B1A9B1898B2884228BF084670474B
:10BA500070B501F07F05082D2A4B2B4C4FEAD11110
:10BA600023D0012202FA05F0C043A1B905F10C066A
:10BA7000B240C3F80823D3F814251040C3F81405C6
:10BA800001EB450104EB01110023CB72BFF36F8F73
:10BA9000BFF34F8F70BDAE1CB240C3F80823D3F87C
:10BAA00010251040C3F81005EAE704EB011200204E
:10BAB000A2F80801D1B94FF48012C3F80823D3F8D3
:10BAC000142522F48072C3F81425C3F850110D4BCD
:10BAD000B4F808010022C3F81C25B4F81821C242AA
