:020000022000DC
:1060000000000420354E0A00754E0A00A55D0A0006
:10601000794E0A007B4E0A007D4E0A000000000007
:10602000000000000000000000000000D94C0A0041
:10603000814E0A0000000000F94C0A00854E0A005B
:106040006D500A00874E0A00BD2A0A0025170A0073
:10605000874E0A00874E0A00D12C0A00874E0A009C
:10606000874E0A00874E0A00874E0A00874E0A00B4
:10607000874E0A00874E0A00874E0A00874E0A00A4
:10608000874E0A00694A0A00874E0A00874E0A00B6
:10609000874E0A00874E0A008D1D0A00874E0A00AF
:1060A000874E0A00874E0A00874E0A00874E0A0074
:1060B000874E0A00874E0A00000000000000000022
:1060C000874E0A00874E0A00874E0A0011550A00C3
:1060D000874E0A00874E0A00874E0A00C5120A0042
:1060E000C92A0A00874E0A00874E0A0000000000F5
:1060F00000000000874E0A000000000041550A0021
:10610000000000000000000000000000000000008F
:10611000000000000000000000000000000000007F
:10612000000000000000000000000000000000006F
:10613000000000000000000000000000000000005F
:10614000000000000000000000000000000000004F
:10615000000000000000000000000000000000003F
:10616000000000000000000000000000000000002F
:10617000000000000000000000000000000000001F
:10618000000000000000000000000000000000000F
:1061900000000000000000000000000000000000FF
:1061A00000000000000000000000000000000000EF
:1061B00000000000000000000000000000000000DF
:1061C00000000000000000000000000000000000CF
:1061D00000000000000000000000000000000000BF
:1061E00000000000000000000000000000000000AF
:1061F000000000000000000000000000000000009F
:1062000010B5054C237833B9044B13B10448AFF3F0
:1062100000800123237010BD104A00200000000000
:10622000B4B00D0008B5034B1BB103490348AFF3ED
:10623000008008BD00000000144A0020B4B00D002A
:10624000A3F5803A704700BF174B002B08BF134BD4
:106250009D46FFF7F5FF00218B460F461348144A71
:10626000121A8BF07BFA0E4B002B00D098470D4B87
:10627000002B00D098470020002104000D000D489D
:10628000002802D00C48AFF300808BF031F92000D9
:1062900029007EF011FE8AF043FE00BF00000800D6
:1062A000000000000000000000000420104A002050
:1062B000FCC1012000000000000000007047817256
:1062C000704770474020704720207047102070476B
:1062D00070476FF0180070476FF0180070476FF04C
:1062E00018007047704770476FF018007047002023
:1062F0007047BBEE090A704784B004A800E90E009D
:106300006FF0180004B070476FF0180070476FF01E
:10631000180070470368D3F8E03018470368D3F8D3
:10632000DC3018474AB116290B466FF00800A8BFA9
:1063300016238342B8BF034613700931C9B220291E
:106340002CBF6FF00C000020704783684160194437
:10635000C160704700207047002070471C307047B4
:1063600001207047704724307047084A8B8992F8A3
:10637000300108B1422B08D0012B05D00A3B012B7C
:106380008CBF002001207047184670479886002077
:10639000006A431E5842584170470020704747F238
:1063A000305070472038704790F83C00831E5842A8
:1063B000584170472038704790F83800831E584283
:1063C0005841704701207047007B7047002070479C
:1063D000006A431E58425841704700207047024BE4
:1063E00093F85801704700BF98860020014B93F83E
:1063F0004901704798860020002070472038704778
:106400000020704701207047704700207047024B02
:1064100093F86201704700BF98860020704770476C
:1064200070474B6A032B01BF034B1B68B3F8503016
:1064300003840020704700BF083B0120F1E7F0E72C
:106440001C307047002070470068096803689B682B
:10645000184700207047C0F88011704780ED5F0A30
:106460007047002070470068096803689B681847F8
:106470000068096803689B68184700680968036832
:106480009B68184770477047022A06D0032A02D03B
:10649000012A00D10160002070470B680360FAE711
:1064A000F2E7012A08BF016000207047F9E7F8E72A
:1064B000F7E7F6E7F5E7F4E7F3E7F2E7F1E7F0E708
:1064C000EFE7EEE7EDE7ECE7EBE7EAE7E9E7E8E738
:1064D000E7E7E6E7E5E7E4E7E3E7E2E7E1E7E0E768
:1064E000DFE7DEE7DDE7DCE7DBE7DAE7D9E7D8E798
:1064F000D7E7D6E7D5E7D4E7D3E7D2E7D1E7D0E7C8
:10650000CFE7CEE7CDE7CCE7CBE7CAE7C9E7C8E7F7
:10651000C7E7C6E7C5E7C4E7C3E7C2E7C1E7022AA2
:1065200006D0032A02D0012A00D101600020704762
:106530000B680360FAE7F2E7F1E7F0E7EFE7EEE771
:10654000EDE7203870472038704701207047002061
:10655000704700207047704770477047007B704756
:1065600079F0DABD79F0D8BD10B50C2104467EF083
:10657000EBFC204610BD10B5342104467EF0E4FC4F
:10658000204610BD10B54468A318436011B12046E1
:106590008BF0BCF8012010BD10B54468A31843600F
:1065A000084611B121468BF0B1F8012010BD024B15
:1065B000024819887BF0A9BBFA30012094690120B8
:1065C000024B034819887BF0A0BB00BFFA300120C2
:1065D0009469012070B505460C464CB1E168284627
:1065E000FFF7F8FFA66820467CF0EAFE3446F4E7A1
:1065F00070BD70B505460C464CB1E1682846FFF702
:10660000F8FFA66820467CF0DBFE3446F4E770BD58
:1066100070B505460C464CB1E1682846FFF7F8FF17
:10662000A66820467CF0CCFE3446F4E770BD70B519
:1066300005460C464CB1E1682846FFF7F8FFA6680E
:1066400020467CF0BDFE3446F4E770BD10B504462C
:10665000006808B17CF0B4FE204610BD11B10830CE
:106660007CF002BD704713B50A4C2068403058F0EA
:106670003FF9206800210AF0C3FA074B01221A7083
:1066800000230193054B01A918687DF0BBF802B007
:1066900010BD00BF3C3B0120C43A0120AC56002095
:1066A000E1E7E0E710B5044679F0F6FC204610BDBE
:1066B00010B5046844B1201D79F0EEFC2046142189
:1066C000BDE810407EF040BC10BD07B500680B6807
:1066D0000168019301EB0311C3680BB984F0CFFC8F
:1066E000036901AA0430984703B05DF804FBECE7A6
:1066F00007B500680B680168019301EB0311C368DB
:106700000BB984F0BCFC036901AA0430984703B0BC
:106710005DF804FB07B500680B68026801930C2163
:1067200001FB0321C3680BB984F0A9FC036901AA2A
:106730000430984703B05DF804FBEBE707B5006849
:106740000B68026801930C2101FB0321C3680BB99C
:1067500084F095FC036901AA0430984703B05DF802
:1067600004FBEBE7EAE7E9E7034607B59A6801911E
:10677000013A08469A6084F0A9FA019803B05DF8DE
:1067800004EB7CF01DBEF0B501F1200C00254FF0AC
:10679000000E51F8043B05F001055E1B52F8043B66
:1067A0006EEB4E07F41A67F10005614540F8044BA3
:1067B000EFD105F00100F0BD08B5D0E900031B1AC8
:1067C0006FF00040834202D1074884F033FC012B74
:1067D0001A4638BF01229B1804D2002BACBF1846C2
:1067E0006FF0004008BD00BFFF700B0008B5D0E996
:1067F00000031B1A9810094B43430948834202D1F6
:10680000084884F017FC012B1A4638BF01229A1859
:1068100002D2904228BF104608BD00BFABAAAAAA68
:10682000AAAAAA0AFF700B00034610B41B681C68D2
:10683000084611462CB1A4469B685DF8044B012222
:10684000604702205DF8044B704710B548B10469F9
:1068500054B184680123A047002818BF6FF00200DC
:1068600010BD6FF00A00FBE76FF00400F8E720B1FD
:10687000024B800143F001031847704790750B00ED
:10688000A4DF7047A3DF7047B2DF7047B1DF704706
:10689000B0DF704711DF70473DDF70473CDF704766
:1068A00063DF704762DF7047A8DF704786DF70479D
:1068B00085DF704781DF704746DF70478ADF7047AA
:1068C0007ADF7047A0DF7047007D7047407C7047DB
:1068D000007D7047B5DF704790DF70478FDF7047EE
:1068E000AEDF7047ADDF7047ACDF7047ABDF70479E
:1068F000AADF704775DF704774DF704700231A46C0
:1069000019467CF0B7BE4FF0FF317DF01FB830B5AF
:10691000294C05469DB0206DFFF7F5FF94F84C30EB
:10692000019525467BB1254801AB02AA06A907F0CF
:10693000A3FE044678B1286DFFF7E0FFB4FA84F0B7
:1069400040091DB030BD04F10C0007F010FB0446F7
:106950000028E8D0EFE79DF80C30222B16D017481E
:1069600002AA06A907F04AFD04460028E3D19DF8D3
:106970000C30222BDFD1114806AA12A907F024FA05
:10698000041ED8DB0BD10E4858F072FE0B4804AA47
:1069900011A906F0B0FD04460028E0D0CBE71A9B11
:1069A0000F931B9B1093002304481A4606A907F077
:1069B000A9FB0446BFE700BFE0520020EC520020D4
:1069C00019710B0012DF70474B1E062B88BF0A4659
:1069D000817A98BF08220231D208C9B24CF04EBC6D
:1069E0004B1E062B88BF0A46417A98BF0822023107
:1069F000D208C9B24CF042BC4B1E062B88BF0A46D7
:106A0000017A98BF08220231D208C9B24CF036BCD4
:106A100030B5044685B00A200D467CF08AFC0A4B4E
:106A2000009303210023CDE9011303932079236808
:106A30006A4644F03FF800B220B92946684646F05D
:106A400060FE00B205B030BDB816012030B5044676
:106A500085B001200D467CF06CFC0A4B00930321AD
:106A60000023CDE901130393207923686A4644F09B
:106A700021F800B220B92946684646F042FE00B22D
:106A800005B030BD6C27012038B5437A04460D4669
:106A90000BB94DF0F0FE2046032280214DF084FE1C
:106AA000E27A20462A4381214DF07EFE257320465E
:106AB000BDE838404DF08FBE38B5437A04460D46E8
:106AC0000BB94DF0D8FE2046032280214DF06CFE1C
:106AD000227B20462A4381214DF066FEE572204646
:106AE000BDE838404DF077BE38B515461A4650B16E
:106AF000C368AB420AD344682B46A047002818BF9E
:106B00006FF0020038BD6FF00A00FBE76FF0040081
:106B1000F8E710B40446084611461A4623685C6834
:106B200024B1A4469B685DF8044B604702205DF8E1
:106B3000044B704713B50446002149F068F901235E
:106B400001AA06212046FFF7E4FF50B99DF8043062
:106B500001AA60F34513062120468DF80430FFF7A3
:106B600063FE02B010BD37B504460D46002149F062
:106B70004EF9012301AA06212046FFF7CAFF50B9AA
:106B80009DF8043001AA65F38613062120468DF88E
:106B90000430FFF749FE03B030BD38B5437C0446EE
:106BA0000D4673B1204645F0F7F8227A657220460B
:106BB0002A43A12145F094F82046BDE8384045F02D
:106BC000A0B8034945F0B0F80028EBD138BD00BFAC
:106BD0005849012038B5437C04460D4673B1204620
:106BE00045F0DAF8627A257220462A43A12145F061
:106BF00077F82046BDE8384045F083B8024945F0B3
:106C000093F80028EBD138BD584901201FB504681E
:106C10008DF80C10ACB103230021CDE9003103AB9A
:106C200001221946204609F0FAF89DF80D309DF82A
:106C30000C001B0243EA00439DF80E00184304B009
:106C400010BD0323FF22CDE9003203AB0122194618
:106C500040684AF06FFFE8E71FB504688DF80C1034
:106C60008CB102230021CDE9003103AB012219468A
:106C7000204609F0D4F89DF80C009DF80D3043EA49
:106C8000002004B010BD0223FF22CDE9003203AB87
:106C90000122194640684AF04DFFECE708B5FFF7BE
:106CA000DBFF40BA80B208BD1FB504688DF80C1038
:106CB00064B100230122CDE9002303AB194620462D
:106CC00009F0ADF89DF80C0004B010BD0122FF23BF
:106CD000CDE9002303AB194640684AF02BFFF1E7EA
:106CE0001FB504688DF80D2064B10023CDE9003391
:106CF0008DF80C100123022203A9204609F05FF849
:106D000004B010BD01F07F0100948DF80C102346F3
:106D1000022203A940684AF031FFF1E70078C0F38E
:106D2000C20300F007029B0043EA421343EA9010BB
:106D300070471FB544688DF80C10ACB103230021D7
:106D4000CDE9003103AB01221946204609F067F86E
:106D50009DF80D309DF80C001B0243EA00439DF89E
:106D60000E00184304B010BD0323FF22CDE900320A
:106D700003AB0122194680684AF0DCFEE8E71FB544
:106D800044688DF80C109CB102230021CDE900313C
:106D900003AB01221946204609F041F89DF80C305A
:106DA0009DF80D0040EA032040BA80B204B010BD47
:106DB0000223FF22CDE9003203AB0122194680688D
:106DC0004AF0B8FEEAE71FB544688DF80C1064B1CC
:106DD00000230122CDE9002303AB1946204609F028
:106DE0001EF89DF80C0004B010BD0122FF23CDE970
:106DF000002303AB194680684AF09CFEF1E71FB5FB
:106E000044688DF80D2064B10023CDE900338DF87E
:106E10000C100123022203A9204608F0D0FF04B081
:106E200010BD01F07F0100948DF80C102346022262
:106E300003A980684AF0A2FEF1E7836903B118470D
:106E4000184670470378642223F0020303704068F9
:106E5000B0FBF2F0B0FBF2F302FB1300C0B27047DC
:106E6000037C0BB903707047836843600378C1608B
:106E700043F003030370002303747047037819B1D0
:106E800043F004030370704703F0FB03FAE7704715
:106E90004BDF704733DF704732DF7047BFF34F8FF0
:106EA0000549064BCA6802F4E0621343CB60BFF3A6
:106EB0004F8F00BFFDE700BF00ED00E00400FA05C2
:106EC00008B17CF07DBA704710B5044618F07CFD1F
:106ED00008B12388838110BD425C0144487840EAB0
:106EE000022070470B4B10B51C6813F027FD236878
:106EF00001461B6820469847044640B11CF0F2FA50
:106F000028B194F82D3013B104F12D0010BD0248C2
:106F1000FCE700BF649400201D710B00034B1A793D
:106F2000062A0CBF93F8980000207047309100208B
:106F3000064B187900F0FB03022B04D0A0F10B03E1
:106F40005842584170470120704700BF30910020DF
:106F5000094B10B51C6864B1606813F0D9FC38B1F6
:106F600094F8640194F86E3198422CBF00200120FF
:106F700010BD2046FCE700BFBCF2002010B504465F
:106F8000006883F00FFF2060204610BD38B504462E
:106F900008200D467DF0D2FF2B6843602368036014
:106FA000206038BD70B505460C464CB1E1682846F6
:106FB000FFF7F8FFA66820467CF002FA3446F4E7B3
:106FC00070BD10B50446006883F0C6FE2060204600
:106FD00010BD836810B504462BB1032201469847C3
:106FE0000023C4E90233204610BD8B6873B51646F2
:106FF00004460D1D01225BB130681A69904234BF0E
:107000009868D8681D4634BF012200220346F2E783
:10701000019552B1CA68AA4204D1C4E9003520469C
:1070200002B070BD01A8FFF7A9FF019A336811698A
:1070300099424FF00003F0D3C4E90023EFE770B5A5
:1070400005460C464CB1E1682846FFF7F8FFA668F4
:1070500020467CF0B5F93446F4E770BD38B50446F7
:107060000068844204D005687CF0AAF92846F8E755
:1070700038BD70B5046805460E46AC4207D0A0681E
:10708000036831469B68984710B92468F5E70020EB
:1070900070BD38B504460C200D467DF04FFF2B68BF
:1070A0008360214683F00BFEA3680133A36038BDE3
:1070B00038B504460C200D467DF040FF2B688360F8
:1070C000214683F0FCFDA3680133A36038BDF8B509
:1070D0000D460168044606468C420FD08A682B682C
:1070E0000F689A4208D101F108039D4203D020465F
:1070F000FFF73AFB00E00E463946EDE7B44205D013
:1071000031462046BDE8F840FFF72EBBF8BD10B56C
:107110000446FFF7A3FF0023C4E90044A36010BDA9
:1071200070B5046805460E46AC4207D0A0680368F7
:1071300031469B68984710B92468F5E7002070BD78
:1071400008B5054B984201D983F06EFF0C235843D4
:10715000BDE808407DF0F2BEAAAAAA0A08B17CF0F8
:107160002FB970478B6873B5164604460D1D012272
:107170005BB130881A8A904234BF9868D8681D463F
:1071800034BF012200220346F2E7019552B1CA68DA
:10719000AA4204D1C4E90035204602B070BD01A85E
:1071A000FFF7ECFE019A3388118A99424FF00003F1
:1071B000F0D3C4E90023EFE78B6873B516460446A5
:1071C0000D1D01225BB130881A8A904234BF986845
:1071D000D8681D4634BF012200220346F2E701951C
:1071E00052B1CA68AA4204D1C4E90035204602B0AF
:1071F00070BD01A8FFF7C2FE019A3388118A994237
:107200004FF00003F0D3C4E90023EFE770B5054663
:107210000C464CB1E1682846FFF7F8FFA668204607
:107220007CF0CEF83446F4E770BD10B50C4650B192
:107230003AF010FC38B1043050E8003F234440E8F5
:107240000032002AF8D110BD10B50138029C0F2879
:1072500000F28480DFE800F05E8236281A145808B5
:107260004A6D7073797D8044DFED427A9FED427AFA
:10727000002908BFF0EE477AC2ED007A052261E0EE
:10728000DFED3E7A9FED3E7A0029F2E7DFED3B7AB3
:107290009FED3B7A002908BFF0EE477AC2ED007AF5
:1072A00005222270082242E0DFED347A9FED347A25
:1072B000002908BFF0EE477AC2ED007A052222705D
:1072C000092234E0DFED2D7A9FED2D7A002908BFE9
:1072D000F0EE477AC2ED007A052222700A2226E0FB
:1072E000DFED247A9FED247A0029E2E7DFED217AB1
:1072F0009FED217A002908BFF0EE477AC2ED007AAF
:10730000082222700B2212E0DFED1E7A9FED1E7A1A
:107310000029F0E7DFED1B7A9FED1B7A002908BFFB
:10732000F0EE477AC2ED007A082222700C221A7021
:1073300010BD16491160C1E714491160CCE714492A
:107340001160062222700722F1E71149116006221E
:10735000A7E71049116091E70E49F7E7DFED077ADB
:107360009FED077A002908BFF0EE477AC2ED007A58
:107370000522C6E70020CB440000FA4300204B441E
:1073800000007A430020CB430000FA420000FA429A
:1073900000007A429A9979411FB500230393002394
:1073A0008DF80B308DF80A300DF10A03009303AA13
:1073B0000DF10B03FFF748FF9DED030A05B05DF8E3
:1073C00004FBF8B50D460168044606468C420FD012
:1073D0008A682B680F689A4208D101F108039D4220
:1073E00003D02046FFF7C0F900E00E463946EDE72E
:1073F000B44205D031462046BDE8F840FFF7B4B9A5
:10740000F8BD2DE9F047D0E90487436AD0E902A925
:1074100004463D1D1E1DAE4204D955F8040B7BF0F9
:10742000CFFFF8E7C4E906A9C4E90887BDE8F087FB
:107430002DE9F047D0E90487436AD0E902A9044660
:107440003D1D1E1DAE4204D955F8040B7BF0B8FF5C
:10745000F8E7C4E906A9C4E90887BDE8F08703682E
:1074600070B5044663B1436A45691E1DAE4204D936
:1074700055F8040B7BF0A4FFF8E720687BF0A0FF31
:10748000204670BD036870B5044663B1436A456920
:107490001E1DAE4204D955F8040B7BF091FFF8E7AE
:1074A00020687BF08DFF204670BD50F8183B83426A
:1074B00002D018467BF084BF7047B0F1005F08B57A
:1074C00001D383F0B1FDBDE8084080007DF036BDFA
:1074D00008B17BF075BF7047026962B1836850F8EC
:1074E0002310013303F0010348BF5B42013A83607C
:1074F0000261084670471146FBE7826A10B582B107
:10750000036A50F823400133594201F0070103F0A8
:10751000070302F1FF3258BF4B42036282622046EA
:1075200010BD1446FBE7026962B1836850F823106E
:10753000013303F0010348BF5B42013A83600261FB
:10754000084670471146FBE7826C10B582B1036CA8
:1075500050F823400133594201F00F0103F00F03AB
:1075600002F1FF3258BF4B4203648264204610BDD3
:107570001446FBE70146014818F04CBAA09A0020D7
:107580002DE9F347CB68DFF8649001930E1D0746A1
:107590000C4635464FF0FF38DDF804A0564510D0B4
:1075A000DAF81010D9F80430994206D0384612F0B3
:1075B0005DFF804584BF5546804601A8FFF701FD69
:1075C000EAE7AE4210D001A80195FFF7FAFC314678
:1075D000284683F045FC7BF0F3FE6369013B636161
:1075E000012002B0BDE8F0870020FAE7148A0020ED
:1075F0002DE9F347CB68DFF8649001930E1D074631
:107600000C4635464FF0FF38DDF804A0564510D043
:10761000DAF81010D9F80430994206D0384612F042
:1076200025FF804584BF5546804601A8FFF7C9FC69
:10763000EAE7AE4210D001A80195FFF7C2FC31463F
:10764000284683F00DFC7BF0BBFE6369013B636160
:10765000012002B0BDE8F0870020FAE7148A00207C
:107660002DE9F347CB68DFF8649001930E1D0746C0
:107670000C4635464FF0FF38DDF804A0564510D0D3
:10768000DAF81010D9F80430994206D0384612F0D2
:10769000EDFE804584BF5546804601A8FFF791FC6A
:1076A000EAE7AE4210D001A80195FFF78AFC314607
:1076B000284683F0D5FB7BF083FE6369013B636161
:1076C000012002B0BDE8F0870020FAE7148A00200C
:1076D0002DE9F347CB68DFF8649001930E1D074650
:1076E0000C4635464FF0FF38DDF804A0564510D063
:1076F000DAF81010D9F80430994206D0384612F062
:10770000B5FE804584BF5546804601A8FFF759FC69
:10771000EAE7AE4210D001A80195FFF752FC3146CE
:10772000284683F09DFB7BF04BFE6369013B636160
:10773000012002B0BDE8F0870020FAE7148A00209B
:107740008B6873B5164604460D1D01225BB1306887
:107750001A69904234BF9868D8681D4634BF012228
:1077600000220346F2E7019552B1CA68AA4204D149
:10777000C4E90035204602B070BD01A8FFF7FEFB4A
:10778000019A3368116999424FF00003F0D3C4E9BC
:107790000023EFE78B6873B5164604460D1D0122E2
:1077A0005BB130681A69904234BF9868D8681D464A
:1077B00034BF012200220346F2E7019552B1CA68A4
:1077C000AA4204D1C4E90035204602B070BD01A828
:1077D000FFF7D4FB019A3368116999424FF0000317
:1077E000F0D3C4E90023EFE78B6873B5164604466F
:1077F0000D1D01225BB130681A69904234BF986850
:10780000D8681D4634BF012200220346F2E70195E5
:1078100052B1CA68AA4204D1C4E90035204602B078
:1078200070BD01A8FFF7AAFB019A3368116999425C
:107830004FF00003F0D3C4E90023EFE78B6873B582
:10784000164604460D1D01225BB130681A6990424C
:1078500034BF9868D8681D4634BF01220022034611
:10786000F2E7019552B1CA68AA4204D1C4E90035D1
:10787000204602B070BD01A8FFF780FB019A336873
:10788000116999424FF00003F0D3C4E90023EFE7F8
:1078900030B5031D826818463AB115690C68A542D7
:1078A0002ABF1046D2689268F6E7834204D009687E
:1078B0000269914238BF184630BD30B5031D826859
:1078C00018463AB115690C68A5422ABF1046D2681D
:1078D0009268F6E7834204D009680269914238BF92
:1078E000184630BD30B5031D826818463AB1156997
:1078F0000C68A5422ABF1046D2689268F6E7834218
:1079000004D009680269914238BF184630BD30B5CD
:10791000031D826818463AB115690C68A5422ABF52
:107920001046D2689268F6E7834204D0096802697B
:10793000914238BF184630BD37B54B690192272BAD
:1079400005460C460AD901A92046FFF7E0FF231D92
:10795000834203D121462846FFF7BAFE03B030BD6B
:1079600010B581680446FEF735FE0023221DC4E9E8
:107970000322A360636110BD10B581680446FEF761
:1079800038FE0023221DC4E90322A360636110BDF9
:1079900010B581680446FEF73BFE0023221DC4E9B2
:1079A0000322A360636110BD10B581680446FEF731
:1079B0003EFE0023221DC4E90322A360636110BDC3
:1079C0002DE9F84300F10409846805464E46ECB100
:1079D00023690868834204D2E368344626461C467D
:1079E000F5E7A368FAD8E26843B1196988428ABF0B
:1079F000D968996823461C460B46F5E73AB11369E6
:107A0000984236BF1646D2689268F7E73446EB686C
:107A1000D5F81480A34209D1B14507D12846FFF714
:107A2000C3FF6869A8EB0000BDE8F883A642F8D060
:107A3000204683F0A4F949460746204683F010FA11
:107A40007BF0BEFC6B69013B6B613C46EEE708B125
:107A50007BF0B6BC7047B0F1005F13B501D383F083
:107A6000E3FA8200104601927DF068FA019A002143
:107A7000044689F073FE204602B010BD42680B46F2
:107A800004318A4210B5044604D01846521A89F0CF
:107A90004BFE03466268043A6260184610BD81429C
:107AA00010B51346A1EB000405D001462246184646
:107AB00089F03AFE0346181910BD38B50346D3E9DC
:107AC0000035ED1A6FF06043AC10A3EBA5058D42B5
:107AD000104601D283F0AEFAA14238BF21466018A9
:107AE00003D2984228BF184638BD1846FCE708B1B3
:107AF0007BF066BC704710B504460068FFF7F7FFDF
:107B0000204610BD08281BD00A281CD010281DD0E4
:107B100015281ED01F281FD02A2820D03E2821D06B
:107B2000C82822D0B0F5C87F22D0B0F5487F22D037
:107B3000B0F5C86F22D007EE900AB8EE670A70471A
:107B40009FED100A70479FED100A70479FED0F0AD6
:107B500070479FED0F0A70479FED0E0A70479FED2B
:107B60000E0A70479FED0D0A70479FED0D0A704792
:107B70009FED0C0A70479FED0C0A70479FED0B0AB2
:107B8000704700BF9A99F940666626419A997941F3
:107B90006666A6410000FA41CDCC264200007A423A
:107BA00000204B430020CB4300204B440020CB441B
:107BB00010B103685B681847704710B103681B6910
:107BC0001847704710B50446006808B1FFF7F5FF85
:107BD000204610BD10B103681B691847704710B1EB
:107BE00003685B6818477047036801600BB118466B
:107BF000F5E7704710B103685B681847704770B5C8
:107C000005460C464CB1E1682846FFF7F8FFA66828
:107C100020467BF0D5FB3446F4E770BD70B50468B0
:107C200005460E46AC4207D0A068036831469B6803
:107C3000984710B92468F5E7002070BD2DE9F84F8A
:107C4000D0E90087A7EB0804A310234C5C43234B27
:107C50009C4206468946934602D1214883F0EAF9C0
:107C6000012C224638BF0122A418A1EB080531D20D
:107C700044B19C4228BF1C460C2060437DF05EF955
:107C8000824600E0A2469BE807000AEB0503002DB0
:107C900083E8070004DD2A464146504689F044FD4A
:107CA000A7EB09070C35002F554404DD3A46494639
:107CB000284689F02BFD3D44B8F1000F02D0404624
:107CC0007BF07EFB0C2000FB04A4C6E900A5B46099
:107CD000BDE8F88F1C46CFE7ABAAAAAAAAAAAA0AAF
:107CE000FF700B002DE9F84F064689469346FEF7D4
:107CF00063FDD6E900A8071EA9EB0A0428D001DA23
:107D000083F092F97DF01AF905469BF800302B5567
:107D1000002C04DD22465146284689F005FDA8EBDB
:107D200009080134B8F1000F2C4404DD42464946ED
:107D3000204689F0EBFC4444BAF1000F02D05046D3
:107D40007BF03EFBC6E900543D44B560BDE8F88FCA
:107D50003D46DAE72DE9F0410646884615461746C6
:107D60000446444509D02146384683F076FC204637
:107D700083F084FB18341837F3E7A01BC4080448C9
:107D8000444324F06044182000FB0450BDE8F08117
:107D9000ABAAAA0A10B50C1A002C134605DD014641
:107DA0002246184689F0C0FC0346181910BDB0F1F0
:107DB000005F08B501D383F037F9BDE808408000C3
:107DC0007DF0BCB808B17BF0FBBA7047B1F1005F41
:107DD000F8B504460E4602D3104883F02BF902682A
:107DE00083689B1AB1EBA30F14D94768BF1A91B1EE
:107DF0000846FFF7DCFF05462A46D4E90001FFF7F5
:107E0000C9FF2068FFF7DEFF2F44256005EB8605DC
:107E10006760A560F8BD0D46EEE700BF21710B005D
:107E200008B17BF0CDBA70472DE9F843D0E90143A2
:107E30009C420746894607D00B6844F8043B4460DF
:107E400078680438BDE8F883D0F800806FF06042AD
:107E5000A4EB0804B2EBA40F4FEAA40302D1164826
:107E600083F0E8F8012B1D4638BF0125ED1821D21B
:107E70003DB1954228BF1546A8007DF05FF8064643
:107E800000E02E46D9F800303351002C04DD2246A4
:107E90004146304689F048FC04343444B8F1000FC0
:107EA00002D040467BF08CFA06EB8505C7E90064FA
:107EB000BD60C5E71546DFE7FF700B0038B5034628
:107EC000D3E90035ED1A6FF06043AC10A3EBA505C4
:107ED0008D42104601D283F0ADF8A14238BF214651
:107EE000601803D2984228BF184638BD1846FCE7F0
:107EF0002DE9F84F05460F4691460121134AFFF739
:107F0000DDFFD5E9008A0646A7EB080BD8B1FFF7DD
:107F10004EFF0446D9F8003044F80B30224639466B
:107F20004046FFF737FF5146021D3846FFF732FF44
:107F300007464046FFF746FFC5E9004704EB8604C5
:107F4000AC60BDE8F88F0446E4E700BFFF700B00AB
:107F5000D0E90032934218BF4360704710B5044621
:107F60000068FFF72FFF204610BD30B50D6883680D
:107F700085B0D0E9004205604D68456003938D6887
:107F800085600023C1E900338B6001A8CDE901427F
:107F9000FFF7E4FF05B030BDD0E900239A4209D1D4
:107FA000C3681A1F53F8043C436003F5FC73C260B6
:107FB0008360036003681C3B0360704713B50B4686
:107FC0000246D0E900016C4684E8030093E8030010
:107FD00082E8030094E8030083E80300986891684E
:107FE00090609960D168D868D060D96002B010BD47
:107FF00010B50378DB07044604D57BF08FF9E368FE
:10800000C01A10BD4FF0FF30FBE72DE9F0431546D5
:10801000074687B0142089467CF090FF2B6807F153
:108020000408197801740023C845064600F11002BF
:10803000437483744C460CD17B691BB13D692B7C26
:108040008B4223D3394604A822F0C7FADDE9044560
:1080500018E099F81000019288422DD9FB68CDF8FC
:108060000C904B4526D003A8FEF788FF0368019AC1
:10807000197C337C9942E5D2039DEB68002B0CBF41
:1080800000244D46002D37D0002C33D1454531D04A
:10809000307C2B7C98422CBF0020012043462A468E
:1080A000314682F081FE7B6901337B61304607B047
:1080B000BDE8F0834D46E5E71ED23969CDF80C9056
:1080C00049450DD003A8FEF77CFF0368317C1B7C7B
:1080D000019A994207D2D9F80C300BB1039B1C4688
:1080E00025461C46CEE7394604A822F076FADDE99B
:1080F0000434F5E70120D1E730467BF061F92046F2
:10810000D5E710B503463BB11C7C107884422ABFEA
:108110001946DB689B68F6E7084610BDD0E90023E6
:1081200010B5D31A114C9B1004FB0313002B18DB62
:10813000012B04DCCC2303FB0121016010BD5A108C
:10814000C16801EB820451F82210C460A3EB420322
:10815000CC2201F5CC7402FB031341608460036000
:10816000ECE7DA436FEA5202EAE700BFFBFAFAFAF9
:10817000CA68C3689B1A9B105A1ED0E900301B1AAC
:1081800005489B10434303EB42038A680968521A6F
:10819000921000FB02307047FBFAFAFA036870B5E0
:1081A000044663B1436A45691E1DAE4204D955F8C1
:1081B000040B7BF005F9F8E720687BF001F9204615
:1081C00070BD03688268CC339342036008D1C368F2
:1081D0001A1D5B68C26003F5CC7243608260036065
:1081E000704708B5064B074A1868074900F61C7027
:1081F00077F004FBBDE808400E200FF0C7BB00BFBE
:10820000303E012031710B004A710B0070B50468DB
:1082100005460E46AC4207D0A068036831469B680D
:10822000984710B92468F5E7002070BD10B50B49D8
:1082300004460B48FFF7EAFF68B123681D2B0BD8F3
:1082400001332360074B084A1868084900F61C7080
:1082500077F0D4FA012010BD0020FCE774A60B00D3
:1082600018280120303E012050710B006D710B0069
:1082700070B5046805460E46AC4207D0A068036896
:1082800031469B68984710B92468F5E7002070BD17
:1082900010B5D0E90043144AE31A9B1002FB031205
:1082A000002A1BDB112A04DC1C2303FB01410160B3
:1082B00010BD122392FBF3F3C16801EB830451F864
:1082C0002310C46001F5FC748460122404FB1323A2
:1082D0001C2202FB031341600360E9E7D343122130
:1082E000B3FBF1F3DB43E7E7B76DDBB6CA68C368FE
:1082F0009B1AD0E90020121A07489B1092104243A3
:1083000010B5013B122404FB03238A680968521A42
:10831000921000FB023010BDB76DDBB62DE9F047BF
:1083200004460F4600F108011830FFF7DFFF3C4B11
:10833000984202D13B4882F07DFE626A2068636801
:10834000111AA3EBA101012925D86169A2EB01084B
:108350004FEAA806B51CB3EB450F3CD95D1B6D0871
:1083600000EB8505131DA942A3EB01022CD999420C
:1083700002D0284689F0D8F92B68E36003F5FC7336
:10838000236105EB0803636255F80830E36103F5E8
:10839000FC73656123624FF4FC70656A7CF0CEFD6E
:1083A00068603D460FCDA6690FC695E80700636A71
:1083B00086E807001A1D5B68626203F5FC72E361E0
:1083C0002262A361BDE8F0879942D5D008F104008C
:1083D000801A2844CEE703F10209012B2CBF9944EF
:1083E00009F10109B9F1005F01D382F01DFE4FEAE6
:1083F00089007CF0A3FD626A6169A9EB050504327E
:108400006D089142824600EB850503D0521A28463A
:1084100089F08AF920687AF0D3FFC4E900A9ABE7B4
:108420002449920473710B0073B5044616460D4639
:1084300019B912B10D4882F0FAFD731B0F2B01938D
:1084400007D9002201A9204682F0F6FF019B206097
:10845000A36032462946206883F083F8019B226896
:1084600063600021D15402B070BD00BFA3710B0046
:1084700010B500F10803044603600A444FF00003FE
:10848000FFF7D2FF204610BDFFF7CEBF036870B5DF
:10849000044663B1436A45691E1DAE4204D955F8CE
:1084A000040B7AF08DFFF8E720687AF089FF204608
:1084B00070BD036882681C339342036008D1C368AF
:1084C0001A1D5B68C26003F5FC7243608260036042
:1084D000704744DF704743DF704742DF7047064B09
:1084E0001868043B1B68082B04D103288CBF0020AC
:1084F000012070470020704734010010024B1B68B8
:10850000DB0700D500BE7047F0ED00E0034B1B68B1
:10851000DB0700D500BE0020704700BFF0ED00E093
:1085200037B50446142001917CF008FD01990546F9
:108530001BF0B0FA256003B030BD022A70B50546C5
:1085400007D0032A13D0012A01D10B680360002051
:1085500070BD0C6814207CF0F1FC2146064651F8F1
:10856000043B40F8043B19F073FD2E60EFE7FEF783
:108570009FF8ECE7E1E7022A70B5054607D0032A29
:1085800013D0012A01D10B680360002070BD0C6874
:1085900014207CF0D3FC2146064651F8043B40F8F9
:1085A000043B19F055FD2E60EFE7FEF781F8ECE78C
:1085B000022A70B5054607D0032A13D0012A01D13B
:1085C0000B680360002070BD0C6814207CF0B6FCC2
:1085D0002146064651F8043B40F8043B19F038FDAB
:1085E0002E60EFE7FEF764F8ECE7E1E7022A70B5EA
:1085F000054607D0032A13D0012A01D10B68036076
:10860000002070BD0C6814207CF098FC21460646C2
:1086100051F8043B40F8043B19F01AFD2E60EFE7D7
:10862000FEF746F8ECE7E1E7E0E7DFE71FB50446D1
:10863000684619F00DFD21466846FFF7BFFC684605
:1086400077F02AFD204604B010BD7FB56E460C467B
:108650000546014630460DF01DFD94E80F0085E803
:108660000F0096E80F0084E80F0004B070BD7FB5DE
:108670006E460C4605460146304619F0F8FC94E873
:108680000F0085E80F0096E80F0084E80F0004B0A3
:1086900070BD00BF014B93F85801704798860020C9
:1086A000014B93F84901704798860020014B93F8DD
:1086B00062017047988600202DE9F041DFF8C883F9
:1086C000C64BC74DC74E404694B0442240F80C3BC1
:1086D0000021002489F042F8C34BC8F8083008F1A3
:1086E000540188F8044001207BF048F8BF4BC8F8DB
:1086F0005000C8F80030BE4ABE49404682F0DAFA5F
:10870000BD48BB4ABD49C0F884404FF40053A0F8AF
:108710008030BB4BC0F88830A0F89C4082F0CAFA89
:10872000B84B0822DC60C3E901441A701C82B64BC6
:10873000B64A1C705C70B64B01271A60B54A1F71AF
:10874000D2F8B4101973D2F8AC109973D2F8B010F3
:108750005973DC731C829C60AF4BB0491C7119606B
:10876000516F1973D1689973926F5A739C60DC735F
:108770001C821923C5E90055AC60AC812B614FF414
:108780007A732B62AE61C5F82880C5E90C44AC73DE
:10879000AC82EC6185F82C408022214605F17C00FA
:1087A00085F8384085F8784088F0D8FF882221463F
:1087B00005F1FC0088F0D2FF8D4A9949284682F0E5
:1087C00079FA98488A4A98498460C0E9000082F0A2
:1087D00071FA9648864A94498460C0E9000082F0A4
:1087E00069FA9348824A90498460C0E9000082F0A7
:1087F00061FA904876F060FA7D4A8F498D4882F0A0
:1088000059FA4FF4A4707CF099FB06F12403054655
:10881000202240F8043B214688F0A0FF6C62102221
:10882000214605F1280088F099FF2122214605F113
:10883000380088F093FF2022214605F1590088F086
:108840008DFF2022214605F1790088F087FF202244
:108850002146C5F89C4005F1A00088F07FFF85F80F
:10886000C04005F1C40076F027FA2022214605F128
:10887000C80088F073FF2022214605F1E80088F047
:108880006DFF2022214605F5847088F067FF2022C5
:10889000214605F5947088F061FF06F168032B60AE
:1088A000664B67481D6006F1AC08664B10930EA935
:1088B000CDF838808DF83E40ADF83C40119449F039
:1088C0005BFD4B4A60495E48604D82F0F3F9604BB6
:1088D000604810930EA9CDF838808DF83E40ADF871
:1088E0003C40119404F0F6FA414A5B49594882F041
:1088F000E1F95A4B5A4810930EA9CDF838808DF8FB
:108900003E40ADF83C40119404F0E4FA384A524934
:10891000534882F0CFF9534B534810930EA9CDF82A
:1089200038808DF83E40ADF83C40119404F0D2FA06
:108930002F4A49494C4882F0BDF94C4B4C481093A2
:108940000EA9CDF838808DF83E40ADF83C4011942A
:1089500004F0C0FA264A4049454882F0ABF941F696
:108960000A030EA92846CDF83880ADF83C30CDE991
:1089700010448DF83E7049F0FFFC284606F1BC0318
:1089800040F8183B2422214688F0E8FE394BEB6181
:108990001523C5E90F4485F83D30374BEB620523BD
:1089A00085F84130354B2B63132385F8423085F829
:1089B00044402846324D0E4A324982F07BF941F656
:1089C0000F030EA92846CDF83880ADF83C30CDE92C
:1089D00010448DF83E7049F0CFFC57E040AB0B00DF
:1089E000B00F0120E8710B006440002050AB0B0079
:1089F0000040002005F202006894002011F00300FE
:108A000080EE360018170120E827012000F0024010
:108A1000F0270120C0790D00042801200030024019
:108A20008B9C04001828012009F507002428012048
:108A30003028012050280120ABEC090054280120E7
:108A4000102B012046790D001F060800982B0120ED
:108A500057790D0058280120F9CE020067790D00E2
:108A6000502C012035790D00A82E012024790D000D
:108A7000B0280120DC7A0D0000700B0006700B009E
:108A8000E02B01201D060800E0520020284606F1D8
:108A9000D00340F8183B0EA942F61923ADF83C303C
:108AA000CDF83880CDE910448DF83E7004F012FA0C
:108AB0002846BD4DBD4ABE4982F0FCF8BD4BCDF8FD
:108AC00038800EA9284610938DF83E40ADF83C4002
:108AD000119449F051FC284606F1E40340F8183B94
:108AE0000EA9B54B1093CDF838808DF83E40ADF807
:108AF0003C40119404F0EEF9AC4AB049284682F0AB
:108B0000D9F8234622462146AD48009479F0B8FAB8
:108B1000AC48AD4D76F0D0F8A44AAC49A94882F0F3
:108B2000C9F8AB4876F0C8F8A04AA849A84882F02E
:108B3000C1F8A8489D4AA849046082F0BBF8A7483C
:108B40009A4AA549046082F0B5F8A54B2B61A54B64
:108B5000EB602846A44B6B6106F1F80340F8183B24
:108B60006D6045F2C072214688F0F8FD362221463C
:108B70009E4888F0F3FD28469D4D8C4A9D4982F021
:108B800099F828464FF4D072214600F8044B88F03B
:108B9000E5FD4FF4D072214605F5D27088F0DEFD78
:108BA0009548824A95498460C0E9000082F082F8C5
:108BB0009348944D7D4A9449C463C0E90144C0E997
:108BC0000344C0E90544C0E90744C0E90944C0E9D9
:108BD0000B44C0E90D4482F06DF88C4B2B612846A4
:108BE0008B4BEB6006F5887340F8183B6D606C6149
:108BF0004FF4FB52214688F0B1FD102221468548F2
:108C000088F0ACFD694A84492846844D82F052F8C8
:108C1000834B2B612846834BEB6006F5947340F839
:108C2000183B6D606C612022214688F097FD5F4AF9
:108C30007D49AC6328467D4D82F03CF87C4B2B612E
:108C400028467C4BEB6006F5A07340F8183B6D603E
:108C50006C614FF4F062214688F080FD534A7649FA
:108C6000C5F89847284682F025F874481022214616
:108C700020F8024B88F072FD71494C4A714882F02D
:108C800019F85C207CF05AF9054607F05AFC2B468F
:108C90006D4A43F8382BC5E90E3306F5AC736B63A8
:108CA0006A4B2C64C5E912344FF400734FF002088C
:108CB000A5F85830664B6D6485F850806C6585F872
:108CC0005A806F62CC201D607CF038F9054607F0B1
:108CD00038FC2B465F4A43F8382BC5E90E3306F5BE
:108CE000B6736B635C4B2C6421467422C5E9123465
:108CF0006D642C6505F1540088F030FD574BC5F8C4
:108D0000C840C5F8248058201D607CF017F905463E
:108D100007F017FC2B46524A43F8382BC5E90E33AF
:108D2000504B2C64C5E9123403236B6206F5C07600
:108D30004D4B6E636D642C65A5F8544085F8564024
:108D40006C201D607CF0FAF8054607F0FAFB2B4614
:108D5000464A43F8382BC5E90E33454B6B63454B08
:108D6000454E464A464831782C64C5E9123405F12F
:108D70005C03C5E9153404236B62424B6D641D60CE
:108D800033881380404A2C651380404A85F85C4044
:108D900013803F4A846013803E4A13803E4B7278B2
:108DA00059709A707AE000BF282B01200040002003
:108DB00021060800858F0C00958F0C002306080003
:108DC00024840020FC160120A09A0020ABEC0900AE
:108DD000001701202C1301208D9A0600B4160120E3
:108DE000496402003D6502001A700B0078F2002011
:108DF00058970020B9F703004014012009F5070037
:108E0000E49000208462002089A503007B640200B6
:108E100037650200FC810020D1830300A05A0020A6
:108E20007164020039650200A7830300E05A002044
:108E3000676402003B650200798303008A5A0020C0
:108E40009F910900D03A012060AD0B007F00030024
:108E5000BC3A0120E4290C0069E70400043B01202E
:108E6000C4FE0B00ED190400083B012064320D0024
:108E7000E0320D0005960900133E0120EC3A012076
:108E8000A00F0120103B0120EF3A0120E03A012021
:108E9000E23A0120E43A0120F23A01201C704E4AE5
:108EA0004E49C0E9004481F005FF4D484A4A4D490A
:108EB000846081F0FFFE4C48474A4C49846081F051
:108EC000F9FE4B48444A4B498460C0E9004481F0B4
:108ED000F1FE4948404A49498460C0E9004481F0B4
:108EE000E9FE47483C4A45498460C0E9004481F0B6
:108EF000E1FE4448384A44498460C0E9004481F0B6
:108F0000D9FE424B3025013D1C7303F10E03FAD10B
:108F10003F48314A37498560C0E9005581F0CAFEB3
:108F20003C482D4A3C49057200F10803C0E9003570
:108F300081F0C0FE39483A4C274A3A498560C0E979
:108F4000005581F0B7FE012714222946C4E90055D7
:108F5000A56004F10C0088F001FC1F4A3249334837
:108F60002565C4E90855C4E90A55C4E90C55C4E9A6
:108F70000E55C4E91055C4E9125584F8547081F0B7
:108F800099FE2B48144A2B49056081F093FE2A4B29
:108F90002A481D705D709D703570757021F080F9E4
:108FA0000D4A2749254881F085FE264821F078F9A9
:108FB000094A2349234881F07DFE03222946384689
:108FC0007AF032FB204B1860002845D11F4B204A15
:108FD00020480C2156F0B6FB004000204D660200F0
:108FE000C4560020A56602008C590020A566020028
:108FF000841401204DEB0900901401205D1A040037
:109000006C140120781401205D1A0400483B0120F3
:10901000E83D0120F43D01208FB60A00C45900202C
:10902000DC590020F77A0200C57B020038110120CC
:109030000C3E01208D9A0600103E012008550020AC
:10904000650C0300DC550020AC56002028700B0096
:1090500032700B0072700B009F4CA04AA049A14FC8
:10906000184681F027FEA560C4E9004404F10C0015
:109070000CF0E6FF994A9C49204681F01BFE9B4B71
:109080009B4A9D60C3E900259A4ADA609A4B9B4A45
:109090009D60C3E900259A4ADA609A499A4B9B4839
:1090A0009B4CC3E90252C3E900159A4B9A4A1A60D5
:1090B0009A4A5A609A4A9A609A4ADA609A4B9B4A4C
:1090C0009D60C3E900259A4ADA609A4B9A4A9D60EE
:1090D000C3E90025994ADA60994B9A4A9A49C3E94B
:1090E00000259A4A9A609A4ADA609A4B9A4A9D6099
:1090F000C3E90025994ADA60994A11609949856067
:10910000C2E901159849D160984A99491160994975
:109110005160994991609949D160C0E900356F4A21
:109120009749C0F8EC5080F8F05081F0C3FD9548A5
:10913000954B03610523037104F14C0300264FF0A6
:109140004008036204F15803C0E90935634A8F49B6
:1091500005730575856105778560046080F82D804D
:109160004563866381F0A6FD89488A4B036122230B
:10917000037104F16403036004F1B003036204F1BA
:10918000BC03436242F21073544A83490573057568
:1091900085610577856080F82880C762C663A0F87E
:1091A000403080F842804764066386634663856486
:1091B00081F080FD79487A4B03610423037104F147
:1091C000C803036004F58A73036204F59073434A8D
:1091D000744905730575856105778560436281F083
:1091E00069FD7148714B03610E23037104F5967399
:1091F000036004F5BC73036204F5C2734362422347
:1092000080F834306A4B354A6A49057305758561C3
:109210000577856087638362C3620363C56381F0FA
:1092200049FD6548654B03611C23037104F5C87350
:10923000036004F5EC73624E284A62490573C0E985
:109240000835057585610577856081F033FD5E49D8
:1092500002A806F03FF9304606F05CF806F130034C
:10926000C6E90A3502AA0EA8584986F8305006F019
:109270007BF857490EA882F0F9FB014608A882F056
:10928000ECF908A906F1280082F007FA08A882F094
:10929000F5F80EA882F0F2F806F0C2F802A882F003
:1092A000EDF80E4A4B49304681F004FD4A4B83F8F5
:1092B000E45083F8E850494B4FF47A729A6004F511
:1092C000F2721A6004F503744FF47F425D601C6112
:1092D0009A8214B0BDE8F0814C5A00200040002072
:1092E000F9EC090058490120F76003005C3F0120B8
:1092F00005FC09009E700B006C3F0120E9FB090092
:10930000A7700B00CBFB09004C3F01207C3F0120E4
:109310007C730B002C3F0120F5000A005965020008
:109320005765020072060C00FC3E0120D1000A00C5
:10933000AB700B000C3F012091010A00AE700B00D6
:109340003C3F0120AB000A0069010A00656502008C
:10935000B3700B001C3F01201D640200BA700B00AB
:10936000EC3E0120B7FB0900BF700B00DC3E012082
:1093700035010A00A5FB090061650200C2700B00FF
:10938000717A0300D4530020C8700B007D050300E0
:1093900010540020CF700B00BB0503005C5400206C
:1093A000D6700B00B905030094540020DD700B004B
:1093B000CDCCCC3DB7050300D8540020E5700B00A0
:1093C00084530020B505030042CF0B00EE700B0064
:1093D000F9700B0025F90200F45100202C4A0020FE
:1093E00007B503688DF807105B6801220DF10701CE
:1093F000984703B05DF804FBA0F1100000F032B90B
:10940000407DFF2801D077F0C3BD704710B5437D84
:10941000FF2B0CD0074A4FF4567000FB032001F0DD
:1094200011FC044608B97CF0D7F9204610BD002095
:10943000FCE700BF104601202DE9F74F437DFF2BCD
:1094400006460F4614462FD015464FF4567A4FF66F
:10945000FE7B15B3707D77F0D9FDF0B1737D134AB3
:1094600001930AFB03294FF6FF7209F124095D45B8
:1094700098BF2A4692B23946484601F047FB8046DB
:10948000484601F0DFFB3F28019B02D9184677F0E0
:109490007FFDB5EB0805474403D1601B03B0BDE871
:1094A000F08F7CF099F9D4E70020F7E7004601201F
:1094B00008B5437DFF2B07D0044A4FF4567000FBDC
:1094C000032001F0ADFB08BD0020FCE7244601208D
:1094D00073B5437DFF2B14D04FF456745C430A4E92
:1094E00004F1100001220DF10701304401F03EFAB1
:1094F0000546301977F0A0FD1DB19DF8070002B0B8
:1095000070BD4FF0FF30FAE70046012073B5457D8E
:10951000FF2D03D14FF0FF3002B070BD254E4FF448
:10952000567303FB0563186A18B14FF0FF317AF0E8
:109530000DFA4FF4567202FB0562118B538B908A21
:1095400089B29BB2994236BFC3EB4002CA1A521885
:1095500094B2E4B1A04209D281424FF456722CBFBA
:109560000B1A0B1802FB05629BB2538398421ED95B
:109570004FF4567101FB05610DF10700CA8A0969B4
:10958000C2F30E0202FB031188F0C0F801244FF46D
:10959000567303FB0565286A20B100231A46194655
:1095A0007AF068F8002CB5D09DF80700B4E71B1AD4
:1095B0009BB2DBE70046012010B5194B5A7DFF2A0C
:1095C0002CD11A7E52BB174C5A750121197694F88A
:1095D00050110B2908D84A1C84F8502101F1480287
:1095E000114844F822000A461A75B4F81821B4F854
:1095F0001A3161690A489B1A9BB20A4494F81C11FB
:1096000000F030F850B1B4F818311844636980B2F2
:10961000A4F81801588094F81C211A7110BD00BFDD
:109620002C4A0020484A00209CA50B0010B5407D24
:10963000FF2807D077F0EAFC044608B97CF0CCF8A4
:10964000204610BD0024FBE7034B9B68B3F5966FE3
:1096500001D177F04DBE70470046012009B900B92D
:10966000F2E770472DE9F047074692B09846154655
:10967000002A00F090804B4B93F81C6193F81D1169
:1096800093F81EA1B21C83F81C214C1C8A1C83F881
:109690001D2164F07F040AF1010241F08009E4B267
:1096A00083F81E214222002101A888F057F8002DDE
:1096B0006DD0B8F1410F73D940F20220ADF8080027
:1096C00040F20940ADF80C0040F20120ADF8100066
:1096D00024208DF8160034480690731C0120DBB25C
:1096E0008DF806608DF80E608DF81C008DF82660F0
:1096F0002E48397D8DF81E30032640F6083208903A
:109700008DF8273040F224608DF82B608DF83130D1
:1097100008260A230427ADF804208DF8141002222D
:109720000521ADF824008DF82C6040F207508DF82B
:1097300034304FF4116640238DF807208DF8122045
:109740008DF81510ADF828008DF83320ADF83800ED
:109750008DF83B208DF81F708DF82A90ADF82E60A3
:109760008DF830708DF83AA08DF83C3007238DF8D5
:109770003F308DF8401044F2020342220DEB070106
:1097800028468DF84140ADF8423087F0BFFF4220B7
:1097900012B0BDE8F087924614469146164681E71E
:1097A0000020F5E7484A0020200105242402020594
:1097B0007FB5204B204A03F11006144618685968FB
:1097C000154603C50833B3422A46F7D11B4A1B8806
:1097D000106851682B8001AB03C3127A1A7004AA77
:1097E00012E90700164B03C3194603F5887001F808
:1097F0000829144AC4F818214FF48072A4F81C21D7
:109800000122616184F81E210021202287F0A6FF39
:1098100040F20943C4F820310B4BC4F824310B4B00
:10982000C4F828310023C4F82C31042384F85031C3
:1098300004B070BDB7A50B00484A0020C9A50B00B5
:10984000604A002009000001ABA50B00DC7A0D0086
:10985000F0B50546002004462B5D2E19002B68D07C
:1098600003F14002D2B2012A3DD9F42B3BD81A06AB
:109870001BD40122A3F55846B6F5006F33D3B3F5D8
:10988000803F14444FD31E2853DCA3F5803342009D
:109890009E0A0A44C3F30903A6F52056A3F5105304
:1098A00021F8106002305380D6E703F0E002C02AAE
:1098B0001BD103F01F03022206F1010C16441CF811
:1098C000017B07F0C00EBEF1800F0CD107F03F07FF
:1098D000664547EA8313F2D1022A16D1A3F1800626
:1098E000B6F5F06FC6D30134B6E703F0F002E02A14
:1098F00003D103F00F030322DEE703F0F802F02A9E
:10990000F1D103F007030422D6E7032A04D1A3F51B
:109910000066B6F5784FE5E7A3F58032B2F5801F13
:10992000E1D20422A6E7202803D021F8103001302C
:1099300092E7F0BD0B6802490B610121184700BF97
:10994000704001202DE9F041174C184F804600254A
:1099500018262279EBB2511D994212DA38220021E1
:10996000134887F0FBFE1022FF2104F1090087F065
:10997000F5FE04F119001222BDE8F041FF2187F045
:10998000EDBE9A4207D9226806FB032333B9BDE82E
:10999000F041FEF7B3BD9B1A06FB03735B684046BC
:1099A00098470135D5E700BFDC4B0020E0A50B0050
:1099B000E14B0020F8B5124C266C00F07F07C5097A
:1099C0004FF0FF31304679F0C1FF04EB47032B44E1
:1099D00025339A79C2F38004520708D59A7912F098
:1099E000010103BF9A7961F382029A710024002376
:1099F0001A461946304679F03DFE2046F8BD00BFB4
:109A0000DC4B0020F8B5194A00F07F0302EB43035A
:109A100003EBD01000F1250490F82B5015F0010550
:109A200021D190F82B305907C3F3800717D4166C57
:109A30004FF0FF31304679F089FFA57915F0010527
:109A40000FD1A3795B0704D4A37943F00403A37176
:109A5000012500231A461946304679F00BFE2846A8
:109A6000F8BD3D46F5E70025F9E700BFDC4B0020D7
:109A700070B4827802F07F03082B07D9524B1B6821
:109A8000DB0700D500BE002070BC70474F49C4788A
:109A9000CD79818804F00304022CC1F30A010BD0B4
:109AA000032C45D0012C11D1022D40F2FF3408BF08
:109AB0004FF48064A1420DE0022D0AD1B1F5007F80
:109AC00009D0414B1B68DA0700D500BE70BCFEF719
:109AD0001DBD4029F5D83E4E5C0004EBD21406EBC8
:109AE0000414D5092181C17801F0030101292FD087
:109AF0000120384900FA03F405BB03F10C06B0401D
:109B0000C1F80403D1F8140503F594730443C1F8B4
:109B1000144541F823502F4BC3F8182542F48072A6
:109B2000C3F80C25BFF36F8FBFF34F8F0120ABE756
:109B3000022D0CBF4FF480644024BBE702339840F1
:109B4000C1F80403D1F810351C43C1F81045E2E711
:109B5000082B93D11F4BDDB9B6F8182112B1802222
:109B6000C3F81C250022C3F85021D3F8002312F4B7
:109B7000001208BFC3F85421164B4FF44012C3F82B
:109B80000423D3F8142542F48072C3F81425C9E7DE
:109B90000022C3F82C21B6F8082112B18022C3F8A4
:109BA0001C250C4BD3F8002312F4001208BFC3F895
:109BB0005421094AC3F80423D3F8102542F48072D3
:109BC000C3F81025AEE700BFF0ED00E0DC4B00204D
:109BD000344D0020007002400008200010B50B4BEF
:109BE00000F07F0203EB420303EBD0142534A3798A
:109BF0009B0709D401F07AFAA37943F00203A37119
:109C0000A37943F00103A37110BD00BFDC4B00201A
:109C100010B5104B04460146187801F023F80E4B9E
:109C200004F07F0103EB410303EBD41090F82B30D9
:109C30006FF3410380F82B3090F82B306FF3000363
:109C400080F82B3090F82B306FF3820380F82B30A4
:109C500010BD00BF04400020DC4B00202DE9F8437C
:109C6000DDE908890C4616461F460025AE4201DC98
:109C700001200EE06378052B04D1E37803F00303A1
:109C8000BB4208D00D4B186810F0010001D000BE97
:109C90000020BDE8F8832046FFF7EAFE18B9BDE8CA
:109CA000F843FEF733BCA378DA0914BF89F8003013
:109CB00088F80030237801351C44D7E7F0ED00E048
:109CC0001FB5CDE902011149002308240193486C16
:109CD0008DF805403AB9134601A94FF0FF3279F0EB
:109CE000C9FC04B010BD6A4601A9009379F05BFD80
:109CF000009B002BF5D0064B4FF080525A6040BFBE
:109D0000BFF34F8FBFF36F8FEBE700BFDC4B00203B
:109D100000ED00E02DE9FF414378484C023B054649
:109D2000042B12D8DFE803F003291B2271006379AA
:109D30006FF300036371637900226FF34103637172
:109D4000A271637962F382036371606C002961D14F
:109D50000B464FF0FF32294679F08CFC2FE06379F7
:109D6000D8072CD5637943F00403EDE76379DA076C
:109D700025D563796FF38203E6E763795B0715D531
:109D800063796FF3820363710278606C0023CDE91D
:109D900001338DF80420052203938DF8052089B93D
:109DA0000B464FF0FF3201A979F064FCDFF8948094
:109DB000002618272279F3B2511D994214DA04B013
:109DC000BDE8F0816A4601A9009379F0ECFC009BA4
:109DD000002BEBD01A4B4FF080525A6040BFBFF3BC
:109DE0004F8FBFF36F8FE1E79A420AD9226807FBD2
:109DF000032323B15B6913B169682878984701365A
:109E0000D8E79B1A07FB0383F4E7237A0133DBB21D
:109E100023729AE7002301AA2946019379F0C3FC33
:109E2000019B002BCBD0064B4FF080525A6040BFB5
:109E3000BFF34F8FBFF36F8FC1E700BFDC4B002034
:109E400000ED00E0E0A50B002DE9FF47474D074678
:109E500000F07F0005EB400606EBD7162536B479F7
:109E600014F001044FEAD71E4FEA400306D0FEF774
:109E70004DFB0446204604B0BDE8F08796F806C0C6
:109E8000DFF800814CF0010C86F806C003EB0E0CE5
:109E90004FEA0C1908EB0C1C46469CF80BA0BAF1D3
:109EA000000F17D0324A1168C90700D500BE2B44F5
:109EB000734493F82B106FF3000183F82B1093F881
:109EC0002B106FF3820183F82B101368DB07D1D5B9
:109ED00000BECFE748F80910ACF80420ACF8064003
:109EE00008BB02BB234BD3F88034C3F3C0139E4599
:109EF00019D0214800F02EFF204B59680394C1F37C
:109F0000080100394FF4E06318BF012101A8CDE931
:109F10000144ADF804308DF808708DF80940FFF762
:109F2000F9FE0124A6E70125BEF1000F1AD106EBC8
:109F30004012D57218B9124800F00CFFF1E7BFF3D8
:109F40006F8FBFF34F8F937A03F0FF0443B1D37A3F
:109F500003F0FF05002B8DD082F80AE001F062F8D3
:109F60002C4687E701F0E8F8FAE700BFDC4B002059
:109F7000F0ED00E0007002405070024000ED00E0A3
:109F80004C700240344D00202DE9F04FB54B1B784A
:109F9000FF2B93B0834600F029844FF47A7200239C
:109FA00080024FEA9B5186F0E5FC012838BF012072
:109FB0000390AD4CBBF1FF3F606C26461BD0039B6A
:109FC000BBF1000F14BF1A46002207A979F044FC28
:109FD000002800F00B849DF81D30013B072B00F298
:109FE000B283DFE813F00A001C00B0031704260454
:109FF0002B008D0332045A46E7E79DF81C00FFF75B
:10A00000A1FC9A481422002187F0A8FB9DF820307B
:10A01000E371606C79F030FD0028CAD1E6E39DF869
:10A020001C00FFF78FFC91481422002187F096FB5B
:10A030008F4B002BEDD0AFF30080EAE7237A013B92
:10A04000DBB22372227A02F0FF03002AE1D16279A7
:10A05000DFF818829DF81C50C8F8103042F0010259
:10A06000627194F82B2063F3000284F82B2094F89B
:10A070002B2063F3820284F82B2094F82C2063F3C6
:10A08000000284F82C2094F82C2063F382029DF8BF
:10A09000203084F82C2003F06002602A06D1754B32
:10A0A0001B68DD0740F1DF8200BEDCE2402A0AD1F6
:10A0B000714BC8F8103008AA0121284677F0AAF899
:10A0C0000028A6D1CFE203F01F03012B00F03E824F
:10A0D000022B00F08882002BE1D1202A20D19DF8AC
:10A0E00024300F2B00F2BF821E442379717A9942EB
:10A0F0000CD2236801EB410113EBC10100F0B382E4
:10A1000008AA0C312846FFF715FCD9E75A1D8A42E8
:10A11000C0F2A982594AC91A182303FB0121EFE7AB
:10A12000002ABCD19DF82130092BB8D801A252F8E1
:10A1300023F000BF37A5020025A502009FA0020062
:10A1400011A502009FA002005DA10200C3A30200AE
:10A150009FA0020091A10200A5A10200DDE9080173
:10A16000474BC8E90001D3F80014D3F800040022DB
:10A170000143C8E90222C3F80014C3F858214FF480
:10A180008002C3F80423637943F00203637140E75C
:10A19000A3798DF8383001230EAA08A9284676F055
:10A1A00021FA36E79DF822300193019AA3799A4269
:10A1B00000F08A80A379002B42D0324B8022C3F872
:10A1C0008420BFF34F8FBFF36F8F0127DFF8B0807C
:10A1D000DFF8C0A0B94607F10C03BA1C09FA02F275
:10A1E00009FA03F31343C8F80833BB0003F18043B3
:10A1F00003F51C33002159600AEB471099622022B5
:10A20000013787F0ABFA082F4FF00001E3D11E4B66
:10A21000C8F808332022C8F81C151C48C8F82410B8
:10A22000C8F8481087F09AFAC8F81495C8F810953D
:10A23000144B80225A60E7792846FFF783FBE771C9
:10A24000019B002B00F0B780114B5A6912B1537873
:10A25000022B21D0074B1B68DA077FF520AF00BE29
:10A260001DE700BF04400020DC4B002070400120AF
:10A2700000000000F0ED00E015120A00E0A50B0060
:10A280000070024000E100E000083000344E002081
:10A29000484A0020344D0020D379C3F38011C3F322
:10A2A00040131B0143EA4113617921F030010B4354
:10A2B00063715388D31802F109010293029B8B4208
:10A2C00009D8B74B002B73D1019BA37108A928466D
:10A2D00076F044F99DE64B780B2B03BF0B7891F891
:10A2E0000390C9184FF001094B78042BB2D1029B9F
:10A2F0005A1A92B24FF0000A37795FFA8AF87B1D3A
:10A300009845A7DC47452ED93768182303FB087703
:10A31000002F9FD0BB682846CDE904129847082833
:10A32000DDE9041241D982423FD3B9F1010F0AD1CC
:10A33000BB689C4A934208BF4FF002099A4A934275
:10A3400008BF4FF002090022D3B2994512D8974AAC
:10A35000084488421AD8954B1B79053398453FF736
:10A3600079AF0146AAE7924BA8EB0707182000FB3C
:10A370000737CFE78F783B4456FA83F301325F7A91
:10A38000FF2F7FF467AF83F80980DDE74B78052B5B
:10A3900008D18F7807F07F0302EB430303EBD71359
:10A3A00083F819800B781944D3E70AF1010AA3E76F
:10A3B000AFF3008088E77F4B002B85D0AFF30080A0
:10A3C00082E7BDF82200030A5A1EC0B20E2A00F22C
:10A3D0004A81DFE812F00F001A002B004801480103
:10A3E00091001A004801480148014801480148010C
:10A3F00048011600704A122308A9284676F0F2F8A0
:10A400005EE66E4A32F80239F6E7022B06D16A4B55
:10A410005A69002A3FF443AE5388EDE7684B002B9E
:10A4200000F02181AFF300800246F2E7624E60B196
:10A43000032819D096F85031834240F214814830F5
:10A4400006F5AA7156F8200053E0D6F82031A6F898
:10A45000543101200130430043F44072A6F85221E8
:10A4600003F0FE03574AC7E7D6F82C71002F3DD101
:10A470000AA876F03FFF0DF1280C0346B6463A468F
:10A48000D1B28B420EF1040E2DD94F4F0DF1380988
:10A4900007F1100A38687968C846A8E80300083749
:10A4A0005745C146F6D11CF8018B474F08F00F0104
:10A4B00012A801440DF1380A11F8101CAEF852111F
:10A4C00079683868D146A9E80300404908378F42C7
:10A4D000CA46F5D112A901EB1818013218F8101C60
:10A4E000AEF85011CCE75800C0B2B3E706F5AA7138
:10A4F0003846FFF7ADF9F7E7354B002B00F0B38096
:10A50000AFF300800246002800F0AD80037873E7C7
:10A51000BDF82230012B40F0A680637943F0080398
:10A520006371D3E6BDF82230012B40F09C80637943
:10A530006FF3C303F4E76379C3F340129B0803F09E
:10A5400002031343ADF83830022325E69DF824308A
:10A550000F2B00F288801E442379717A994239D2F8
:10A56000236801EB410113EBC1017CD008AA0C3137
:10A570002846FFF7DFF900287FF44BAD9DF8203027
:10A5800013F060036FD19DF82120A2F10A01012987
:10A5900069D80A2AC8F810307FF498AEF9E500BFF0
:10A5A0000000000069110A00C9090A00DC4B002004
:10A5B000E0A50B0000000000484A002079790D005A
:10A5C000000000009A4B002014AB0D0024AB0D00DE
:10A5D000000000005A1D8A4245DBA24AC91A18230E
:10A5E00003FB0121C2E79DF8240000F07F0CBCF1C1
:10A5F000080F3FF654AD06EB4C0707EBD01794F865
:10A6000004E07F7E77454FEAD0114FEA4C0A16D21C
:10A61000236807EB470703EBC70712BB9DF8212010
:10A6200002F0FD0EBEF1010F24D0002A7FF437ADF9
:10A630005644314491F82B30C3F3400382E70EF1C6
:10A640000509B945C0F20981864BA7EB0E074FF00B
:10A65000180E0EFB0737002AE0D008AA07F10C01FC
:10A6600050E5002FF9D1002000F040FD802000F0DF
:10A670003DFDCEE4BDF822E0BEF1000F2BD1012A52
:10A680003BD106EB0A020A4425329279930722D580
:10A6900010F0770F11D0744A40F4807EC2F80C0598
:10A6A000C2F80CE5C2F8180519B90CF5947C42F80B
:10A6B0002C10BFF36F8FBFF34F8F5644314491F886
:10A6C0002B306FF3410381F82B3091F82B306FF36F
:10A6D000000381F82B30002F3FF49BAC08AA07F150
:10A6E0000C012846FFF726F90023C8F8103094F82B
:10A6F0002C30DE073FF58DACE8E5FFF76FFAEAE7AF
:10A700009DF8201001F07F0706EB470606EBD116F7
:10A71000CA0996F82B006FF3000086F82B0096F814
:10A720002B006FF3820086F82B00002F4FD14F4D86
:10A730009DF81C602B78DDF82480B2EBD31F12D07B
:10A74000B8F1000F06D04A4B1B68DB077FF561AC00
:10A7500000BE5EE42B69002B3FF45BAC2A4603216C
:10A760003046984755E495F90030002B07DBA86880
:10A7700000283FF44EAC3F49424686F0C7FFAA6826
:10A78000EB8942444344AA60EA889BB29A42EB8137
:10A7900002D0B8F13F0F16D82B696BB995F900308C
:10A7A0000022002B1146B4BF38468020FFF74CFB37
:10A7B00000287FF42EACC6E72C4A02213046984789
:10A7C0000028EBD150E7304675F0E0FEF0E7737EED
:10A7D000227993420DD2226803EB430312EBC303A9
:10A7E0000FD1234B1B68D80700D500BE13B0BDE8BE
:10A7F000F08F501D9842F4DB1A489B1A182202FB76
:10A8000003031D699DF82120099B9DF81C00A847A2
:10A81000FFF7FFBB6379D9077FF5FBAB164B002B26
:10A820003FF4F7AB6079C0F3C000AFF30080FFF7EF
:10A83000F0BB6379DA077FF5ECAB104B002B3FF4EC
:10A84000E8ABAFF30080FFF7E4BB089B002B3FF4BD
:10A85000E0AB09989847FFF7DCBB002A7FF403AF11
:10A860001746DBE6E0A50B000070024070400120B7
:10A87000F0ED00E084400120000000000000000036
:10A880002DE9F743DFF8D88098F80030FF2B064613
:10A89000474648D1DFF8CC903822002109F1050065
:10A8A00086F05CFF09F14801012078F067FF4D4612
:10A8B000C9F8400040B9274B1B6813F0010F46D17F
:10A8C000002003B0BDE8F08300230093D8F80820EF
:10A8D000B8F80610B8F8040008F1100378F08EFEFE
:10A8E000D8F80C10044679F0DFF8C9F844402CB9C8
:10A8F000184B1B68DB07E3D500BEE1E7164B23B11D
:10A90000281DAFF30080C9F80000DFF85C90002438
:10A910004FF018082879E3B2421D934205DD3E70DE
:10A920000E4B80225A600120CBE7984208D9286854
:10A9300008FB030038B9074A126812F0010FBEE79E
:10A940001B1A08FB0390036898470134E2E700BE36
:10A95000B7E700BFF0ED00E00000000000E100E01C
:10A9600004400020DC4B0020E0A50B002DE9F0475F
:10A97000064600698846914618B14FF0FF3178F0DD
:10A98000E5FF33897489B7889BB2A4B2A34236BF6E
:10A99000C4EB47051D1BED18ADB2F5B1AF4206D2B1
:10A9A000BB422CBFDC1BDC19A4B274813D464D4573
:10A9B00028BF4D46A74229D9F2883168A7EB040980
:10A9C0001FFA89F9C2F30E0A4D4552460AFB0411DB
:10A9D0001FD86A43404686F099FE7389B28899B2BF
:10A9E00015FA83F39BB299424FEA420201D893428F
:10A9F00001DB9B1A9BB23069738120B100231A4698
:10AA0000194678F037FE2846BDE8F087E41BA4B26B
:10AA1000D0E719FB0AF91FFA89F94A46404686F041
:10AA200075FEEA1B224412FB0AF2316892B208EB6F
:10AA30000900D0E7F8B50446C0680F4616461D4623
:10AA400018B14FF0FF3178F081FF206918B14FF055
:10AA5000FF3178F07BFFED03E0682760002345F0CD
:10AA600001056381A680E580238118B11A46194645
:10AA700078F000FE206920B100231A46194678F0CC
:10AA8000F9FD0120F8BD38B50446C0680D4618B17F
:10AA90004FF0FF3178F05AFF206918B14FF0FF31C5
:10AAA00078F054FFE379E06865F3C713E37120B1F0
:10AAB00000231A46194678F0DDFD206920B10023F5
:10AAC0001A46194678F0D6FD012038BD10B5044667
:10AAD000C06818B14FF0FF3178F038FF206918B125
:10AAE0004FF0FF3178F032FFE0680023638123816B
:10AAF00018B11A46194678F0BDFD206920B100232F
:10AB00001A46194678F0B6FD012010BD2DE9F84F20
:10AB100007468846164642B3C06818B14FF0FF3169
:10AB200078F014FFFA793D897B89B7F80490D2094F
:10AB3000ADB29BB21CD19D4239BFC3EB490464192D
:10AB4000EB1A9CB238BFA4B2A14586BFA9EB04049E
:10AB5000A4B20024A64228BF264656BBF86820B1FE
:10AB600000231A46194678F085FD3046BDE8F88F77
:10AB7000F9884E45C1F30E0106D3A6EB090601FB89
:10AB800006881D464E46E8E79D424FEA490136BF1A
:10AB9000CA1AEA1A521992B232448A4209DB09EB04
:10ABA0000305AD1BADB2AB4201D8A94201DC6D1A61
:10ABB000ADB22C46A1451DD9FA883868A9EB040A24
:10ABC0001FFA8AFAC2F30E0BB2455A460BFB040079
:10ABD00014D37243414686F099FD7319BA889BB22B
:10ABE000AB424FEA420201D3934201DB9B1A9BB274
:10ABF0003B81B3E7A4EB0904A4B2DBE71AFB0BFA31
:10AC00001FFA8AFA5246414686F080FDA6EB0903F8
:10AC1000234413FB0BF2386892B208EB0A01DAE71F
:10AC20008288038940899BB280B2834236BFC0EBE1
:10AC30004200181AC01880B2824286BF101A80B231
:10AC4000002070470389428981889BB292B2934267
:10AC500036BFC2EB41029B1A9B1898B2884228BFAC
:10AC60000846704770B501F07F05082D2A4B2B4C24
:10AC70004FEAD11123D0012202FA05F0C043A1B955
:10AC800005F10C06B240C3F80823D3F81425104090
:10AC9000C3F8140501EB450104EB01110023CB724D
:10ACA000BFF36F8FBFF34F8F70BDAE1CB240C3F8C0
:10ACB0000823D3F810251040C3F81005EAE704EB89
:10ACC00001120020A2F80801D1B94FF48012C3F894
:10ACD0000823D3F8142522F48072C3F81425C3F88E
:10ACE00050110D4BB4F808010022C3F81C25B4F82C
:10ACF0001821C24204BF4FF40012C3F80823C9E769
:10AD00004FF40062C3F80823D3F8102522F48072B0
:10AD1000C3F81025E5E700BF00700240344D002065
:10AD200001230360BFF36F8FBFF34F8F074B984230
:10AD300002D0043B984207D1BFF35B8F044B002243
:10AD400083F82021BFF35B8F704700BF5070024033
:10AD5000344D002010B40D4BBFF35B8F01464FF014
:10AD60000104D3E84F2FC3E84C4FBCF1000FF8D1DA
:10AD7000BFF35B8F12F0FF0F05D005485DF8044B61
:10AD80000122FEF79DBF5DF8044BC9E7544E002039
:10AD900055AD020043F2040307B51A68094B9A4205
:10ADA0004FF000000AD18DF807000DF10700FBF706
:10ADB00009FE9DF80700003818BF012003B05DF8B8
:10ADC00004FB00BFDBE5B15107B5FFF7E3FF58B166
:10ADD000002301A80193FDF77CFB0198003818BF00
:10ADE000012003B05DF804FB4FF08043D3F80C243E
:10ADF000D3F80C0410F4803018BF02F00100F0E723
:10AE000001281FB5044600F0B980022853D000285D
:10AE100042D1774BD3F80025002A3DD14FF4800270
:10AE2000C3F808234FF40062C3F80024BFF36F8F08
:10AE3000BFF34F8F6F4B1B68082B10D16E4B1B68F5
:10AE4000032B0CD86D4AD35C4BB16D4B6D4A18681F
:10AE5000032118BB49F27530186011601860FDF7C6
:10AE60003EFB48B1664B684A1868C021C0B949F238
:10AE700075301860116018605D4B0124C3F80045FF
:10AE8000BFF36F8FBFF34F8FFFF79EFF20B9FFF720
:10AE900081FF38B1FDF721FB04B010BD1160DEE782
:10AEA0001160E9E7594B18601B680193019B4FF053
:10AEB00080431C60F0E74E4CD4F804351BB1FFF71B
:10AEC00083FF0028E8D1D4F800341B05FBD54FF4EC
:10AED0000063C4F80034BFF36F8FBFF34F8FFDF7EB
:10AEE000FEFA48B1464B484A1868002840D149F25A
:10AEF00075311960106019603E4B1B68082B0FD12B
:10AF00003D4B1B68032B0BD83C4AD35C43B13C4BF5
:10AF10003C4A186878BB49F27531196010601960B5
:10AF2000FDF7DDFA48B13A4B40F2E3721A60402275
:10AF30005A60BFF36F8FBFF34F8F2D4C354880227F
:10AF40000121C4F81C25C4F804133349C1F8842135
:10AF50000078FF2800D04A60FFF736FF0028FBD0BA
:10AF60000123C4F80435BFF36F8FBFF34F8F93E70E
:10AF700000231360C0E700231360D1E71C4BD3F814
:10AF80000025002A88D00022C3F80425BFF36F8F64
:10AF9000BFF34F8F20498020C1F88400BFF34F8F4B
:10AFA000BFF36F8FD3F80013C3F80813C3F800255D
:10AFB000BFF36F8FBFF34F8FFFF7ECFEA0B1FDF72C
:10AFC0008AFA164B5968C1F3080100230039CDE90C
:10AFD0000133039318BF01214FF4007301A8ADF8AA
:10AFE0000430FEF797FE57E70D4B1C60E9E700BF02
:10AFF00000700240300100103401001070A60B00F8
:10B0000000EC064014ED064014EC06400001004040
:10B01000007802400440002000E100E000ED00E084
:10B0200004000040F0B42B4ABFF35B8F02F590732D
:10B030004FF00104D3E84F1FC3E8454F002DF9D16D
:10B04000BFF35B8F11F0FF0F14460BD0224B5A68F1
:10B05000C2F30802003A0146F0BC204818BF0122A2
:10B06000FEF72EBE08281E4919D1D1F8C034D803E6
:10B0700008D5BFF35B8F002384F82031BFF35B8FCB
:10B08000F0BC704792F80B010028F2D0D2F80021F2
:10B090001448C1F8A027C1F8A437F0BC40E602EB81
:10B0A000401500F59473460151F82340EF88AB88B2
:10B0B000DB1B9BB2A4B2A34228BF2346945914229F
:10B0C00002FB0011C1F80047C1F80437064B03EB3F
:10B0D0008000E2E7344D002000ED00E035B10200D1
:10B0E00000700240487002402870024010F07F015A
:10B0F00008B507D10D4B01225A65BFF36F8FBFF31F
:10B100004F8F08BD0829F8D0084B40F48072C3F86F
:10B110001825C309F1D1064A02EB4112907A0028A2
:10B12000EBD093720846FFF77DFFE6E70070024020
:10B13000344D0020C0B275E70C4B03EB4013D98AA5
:10B140009A8A521A198B92B28A4228BF0A46196902
:10B150001423434303F1804303F51C33C3F8001663
:10B16000C3F80426024B03EB8000F3E5344D0020C6
:10B17000047002402DE9F04FC34BC44AD3F80013CA
:10B18000002385B01C4601201D4621FA03F6F60770
:10B190000BD552F8236046B100FA03F6344342F867
:10B1A0002350BFF36F8FBFF34F8F0133192BECD1B7
:10B1B000E7073BD5B44B0122C3F81425C3F810258B
:10B1C00000221546930003F1804303F51C3301323E
:10B1D000082A5D609D62F5D1AB4B5D629D64C3F84A
:10B1E0005851D3F80024D3F800140A43C3F80024BC
:10B1F000D3F80023C3F80823A54AC3F80423A54BBA
:10B200004FF492720021184686F0A8FA4022028379
:10B2100002814FF48073012101A8CDE90155039506
:10B22000ADF804308DF80850FEF774FD14F4006F8B
:10B23000984D08D0944BD3F8A8369BB2A5F8163198
:10B24000012385F81C31A60204F4800736D58E4E02
:10B25000D6F8143513F4807308D01FB1D6F8003433
:10B26000D80702D40820FFF7DDFE0123D6F8102509
:10B27000D10540F15D8195F81C319BB1B5F81631CF
:10B2800000229BB2CDE9012285F81C2103934FF4E3
:10B29000E0628823012101A8ADF80420ADF8083050
:10B2A000FEF738FD0023CDE90133039301214FF46C
:10B2B000407301A8ADF80430FEF72CFD002F37D005
:10B2C000714BD3F8006440F201723240C3F800249D
:10B2D000F2050DD50121C3F82C150023CDE901336A
:10B2E000039301A84FF48063ADF80430FEF712FD1C
:10B2F00077050FD5644B0122C3F808259A65D3F86A
:10B30000002312F4001208BFC3F854214FF40012B6
:10B31000C3F80423B0050BD50023CDE90133039313
:10B3200001214FF4A06301A8ADF80430FEF7F2FC50
:10B3300021023BD5544BD3F880E4D3F88424D3F8CE
:10B340008814D3F88C74D3F89064D3F894045FFA1B
:10B3500081FCD3F89814D3F89C341EF07F0F5FFA69
:10B360008EF8D2B2FFB2F6B2C0B2C9B2DBB201D12E
:10B37000052A1BD04FF0000EADF806E08DF80D0049
:10B380004FF4C06E8DF80E1001A80121ADF804E055
:10B390008DF808808DF809208DF80AC08DF80B70A3
:10B3A0008DF80C608DF80F30FEF7B4FC3A4B23405B
:10B3B0006BB1BFF35B8F95F82031BFF35B8F002B30
:10B3C00040F0BE80354B1B68DA0700D500BEDFF8C1
:10B3D000C480DFF8B490DFF8CCB0474600264FF0C9
:10B3E000140A06F10C0324FA03F3DB07F1B224D5A7
:10B3F0000AFB06933A68D3F8083705EB461C12FAA5
:10B4000083F23A60BCF806E098B273449BB2082E0F
:10B410004FEA4612ACF8063000F09A803B8983422E
:10B4200040F09680BCF80630B8889BB2984240F253
:10B430008F8011B95846FFF78DFC0136092E07F1B0
:10B440002007CED1164B2340002B00F089800E4BF5
:10B45000D3F86C74C3F86C74BFF36F8FBFF34F8F66
:10B4600014F4806408D0D3F88044D3F880341906EB
:10B47000C4F3C01440F18D804FF00009DFF808A03C
:10B4800000264FF0140B0FE00070024000710240E4
:10B490000514C001344D0020FCFB1F00F0ED00E05E
:10B4A000000400014C70024027FA06F3DA07F0B2FC
:10B4B00001D4D6B9CCB10BFB06A3D8F81020D3F831
:10B4C000083652FA83F2C8F8102005EB4612D18AEA
:10B4D00089B251FA83F39BB2D382D38AB8F814109D
:10B4E0009BB2994258D9FFF727FE0136082E08F182
:10B4F0002008D9D10024012604F1100327FA03F310
:10B50000DB07E0B203D47CB9B9F1000F0CD005EB36
:10B5100044116301CA7A002A53D0CA88898892B23A
:10B5200091424ED9FFF77EFD0134082CE4D117E09B
:10B53000002B7FF4B7AE4FF40013C6F80833B1E622
:10B540000023BFF35B8F85F82031BFF35B8F3EE7AD
:10B550002A44D37A3BB91C4B1B68D80700D500BEE0
:10B5600005B0BDE8F08FD388BB800023D372D288AA
:10B570004FF4E060CDE9013392B2ADF804008DF8EC
:10B58000081001A8012103928DF80930FEF7C2FBD3
:10B5900053E74FF0010971E7D28A00234FF4E061CD
:10B5A00060F07F00CDE9013392B2ADF804108DF860
:10B5B0000800012101A803928DF80930FEF7AAFBCB
:10B5C00093E72B449E72AFE7F0ED00E0034B43F6A8
:10B5D00002229A87002283F83E207047584E0020AE
:10B5E00010B4114B02209A6B83F82C10996883F8E1
:10B5F000300093F83C008A1A9A6220B942F205049E
:10B600009C8783F83E0059B152B11A7B5DF8044B18
:10B61000D20914BF93F82E0093F82F00FEF7DEBA7C
:10B620005DF8044B704700BF584E002038B5134CEE
:10B630000546607B75F0F0FD48B942F2077384F867
:10B640003E00A38728460121BDE83840C8E7A2682C
:10B65000A36B94F82F00D21AB2F5007F28BF4FF4E5
:10B66000007292B204F14001FEF7EEFB20B9044BE8
:10B670001B68DB0700D500BE38BD00BF584E002058
:10B68000F0ED00E008B5FFF7A1FFBDE8084001219B
:10B69000A6E702484022002186F060B8584E0020FC
:10B6A00002484022002186F059B800BF584E0020C1
:10B6B0002DE9F041AC4C0D4694F8301001298AB0C8
:10B6C000074600F04281032900F07381002945D12B
:10B6D00094F82F20AA4201D0012011E01F2B03D1A2
:10B6E0002268A24B9A420ED094F82E00042384F8CC
:10B6F0003030FEF773FA94F82F00FEF76FFA00204F
:10B700000AB0BDE8F0819A4B23626368A26884F8AE
:10B710002C10C4E90931012384F83030E37BC4E9FB
:10B720000D2103F0FD0128293FD1E18A49BA89B2F0
:10B730003AB9002900F0038102213846FFF750FF93
:10B740000CE0282B27D1207BC009F5D0A1B38A4279
:10B75000F2D3282B25D13846FFF794FF94F83030E8
:10B76000022BB9D194F82E00824B00F07F0203EB3C
:10B77000420303EBD01320339B799B07ACD4A3681F
:10B78000A26B934240F23B81217BC90900F03781D3
:10B79000FEF724FAA0E72A2BD8D1207BC009D5D008
:10B7A000CAE73846FFF742FFD8E7A2B1217BC909B3
:10B7B00011D1B2F5007F01D90121BEE76E4992B2E5
:10B7C0002846FEF741FB0028C8D16C4B1B68DC07FC
:10B7D00095D500BE94E7252B94F80D8006D8192B3B
:10B7E0000ED8032B75D0122B3FD093B394F83C3076
:10B7F000002BE1D142F20502A28784F83E30DBE75C
:10B800001A3B0B2BF2D801A252F823F0B9B8020070
:10B810003DB80200EDB70200EDB70200EDB702003F
:10B82000EDB70200EDB70200EDB70200EDB7020080
:10B8300061B80200EDB7020053B80200E17C404657
:10B84000C1F3400301F00102090975F0E8FC00288A
:10B8500071D194F83C30002BC8D1FFF7B7FEC5E793
:10B860000023CDE901330393F3E7454B424E00211A
:10B87000CDE901314FF020381F231022202105A8E7
:10B880008DF80830CDE9038801AD85F067FFCDF86C
:10B8900024800FCD0FC60FCD0FC62420C6F8008020
:10B8A000A268002A88D0824228BF024662633249D9
:10B8B00094F82E0092B284E7404675F0ADFC80F01B
:10B8C0000103DBB2DB0543F003030193236404208F
:10B8D000E6E71222002101A885F040FF94F83C0021
:10B8E00094F83D1094F83E208DF81010F0238DF858
:10B8F00004304FF0000360F303038DF806300A2391
:10B900008DF80B308DF8112001AD0FCD1A4E0FC6FA
:10B910002B6833801B4BB3B14FF40072A6F11001BA
:10B920004046AFF3008000239842A38784F83E305E
:10B93000FFF65CAFB4D1A368002B7FF43DAF0223C8
:10B9400084F830300AE71220EDE7A56BE27B2B4448
:10B95000282AA36303D1626B9A42F0D9FBE62A2A14
:10B9600012D1FFF733FEE8E6584E0020555342430C
:10B9700055534253E14B0020984E0020F0ED00E07B
:10B980000080020200000000237BDB0906D142F2A6
:10B990000502A28784F83E30FFF722FED4E90D327B
:10B9A0009A42CCD21C4B1B68DA077FF5D7AE00BE9B
:10B9B000D4E694F82E20AA427FF4D0AE0D2B7FF46B
:10B9C000CDAEE37B282B09D02A2B14D0134B53B1D7
:10B9D000607B04F10F01AFF3008004E0104B13B162
:10B9E000607BAFF3008000230E4994F82F0084F8A9
:10B9F00030301F22E5E6607B75F010FCF3E79B1A00
:10BA0000A362094903230D2284F83030FEF71CFAA3
:10BA100000287FF461AED8E6F0ED00E00000000001
:10BA200000000000584E0020784E0020012973B518
:10BA30000646154613D1137803F07F02022A42D13D
:10BA40006C78012C3FD16A88002A3CD13749A888FC
:10BA500091F83030042BC0B203D1FEF7BFF80120BB
:10BA600017E091F82E20904215D1022BF7D18A6B66
:10BA70008B689B1A8B62032381F830300D222031B2
:10BA8000FEF7E2F90028EAD1294B1B68DB074AD50B
:10BA900000BE02B070BD91F82F40A042DFD1002B54
:10BAA000DDD1244A04F07F0302EB430303EBD413FC
:10BAB00020339A79D107D2D49B799A07CFD41B49E6
:10BAC0001F222046DCE703F06003202B2BD16B788C
:10BAD000FE2B13D0FF2B26D16B8823BBE9888AB2BB
