:020000022000DC
:106000000000042065670A00A5670A00D5760A002B
:10601000A9670A00AB670A00AD670A00000000002C
:1060200000000000000000000000000009660A00F7
:10603000B1670A000000000029660A00B5670A007F
:106040009D690A00B7670A00ED430A0039300A006B
:10605000B7670A00B7670A0001460A00B7670A0077
:10606000B7670A00B7670A00B7670A00B7670A0090
:10607000B7670A00B7670A00B7670A00B7670A0080
:10608000B7670A0099630A00B7670A00B7670A0092
:10609000B7670A00B7670A00A1360A00B7670A00A7
:1060A000B7670A00B7670A00B7670A00B7670A0050
:1060B000B7670A00B7670A00000000000000000090
:1060C000B7670A00B7670A00B7670A00416E0A009F
:1060D000B7670A00B7670A00B7670A00D92B0A003A
:1060E000F9430A00B7670A00B7670A00000000001A
:1060F00000000000B7670A0000000000716E0A008F
:10610000000000000000000000000000000000008F
:10611000000000000000000000000000000000007F
:10612000000000000000000000000000000000006F
:10613000000000000000000000000000000000005F
:10614000000000000000000000000000000000004F
:10615000000000000000000000000000000000003F
:10616000000000000000000000000000000000002F
:10617000000000000000000000000000000000001F
:10618000000000000000000000000000000000000F
:1061900000000000000000000000000000000000FF
:1061A00000000000000000000000000000000000EF
:1061B00000000000000000000000000000000000DF
:1061C00000000000000000000000000000000000CF
:1061D00000000000000000000000000000000000BF
:1061E00000000000000000000000000000000000AF
:1061F000000000000000000000000000000000009F
:1062000010B5054C237833B9044B13B10448AFF3F0
:1062100000800123237010BD104A00200000000000
:10622000DCC60D0008B5034B1BB103490348AFF3AF
:10623000008008BD00000000144A0020DCC60D00EC
:10624000A3F5803A704700BF174B002B08BF134BD4
:106250009D46FFF7F5FF00218B460F461348144A71
:10626000121A8CF013FF0E4B002B00D098470D4BE9
:10627000002B00D098470020002104000D000D489D
:10628000002802D00C48AFF300808CF0C9FD20003C
:10629000290080F0A9FA8CF0DBFA00BF00000800AA
:1062A000000000000000000000000420104A002050
:1062B000FCC1012000000000000000007047704792
:1062C000704770477047F0B59DF820C0BDF9186061
:1062D0009DF81C709DF824E0BDF9145004680595E4
:1062E000CDE908CECDE906676469A446BDE8F04073
:1062F00060478172704770472DE9F3411D4603687E
:10630000BDF820801B69044617460E469847CDE924
:10631000007822686B1E3344556A20461BB23A4609
:106320003146A84723689B6A204602B0BDE8F04189
:1063300018472DE9F3411C460368BDF820801B690E
:1063400005461646013C34440F4624B298472B6854
:10635000CDF8048000945C6A28463B4632463946B4
:10636000A0472B689B6A284602B0BDE8F041184759
:1063700070474020704720207047102070477047BA
:106380006FF0180070476FF0180070476FF018003A
:10639000704770476FF01800704700207047BBEEE1
:1063A000090A704784B004A800E90E006FF01800D5
:1063B00004B070476FF0180070476FF01800704716
:1063C0000368D3F8E03018470368D3F8DC30184787
:1063D0004AB116290B466FF00800A8BF1623834266
:1063E000B8BF034613700931C9B220292CBF6FF022
:1063F0000C0000207047836841601944C1607047F9
:1064000000207047002070471C3070470120704703
:10641000704724307047084A8B8992F8300108B1E0
:10642000422B08D0012B05D00A3B012B8CBF00204A
:10643000012070471846704700860020006A431EFE
:106440005842584170470020704747F2305070471B
:106450002038704790F83C00831E584258417047DE
:106460002038704790F83800831E584258417047D2
:1064700000207047007B704700207047006A431E71
:10648000584258417047024B93F85801704700BF7B
:1064900000860020014B93F84901704700860020D8
:1064A0000020704720387047002070470120704757
:1064B0000020704700207047014B93F8620170473D
:1064C00000860020704770474B6A032B01BF034BC7
:1064D0001B68B3F85030038400207047083B01204C
:1064E000F2E7F1E71C307047002070470068096848
:1064F00003689B68184700207047C0F880117047F8
:1065000080ED5F0A704700207047006809680368E3
:106510009B6818470068096803689B68184700680B
:10652000096803689B68184770477047022A06D0BD
:10653000032A02D0012A00D10160002070470B68B5
:106540000360FAE7F2E7012A08BF01600020704704
:10655000F9E7F8E7F7E7F6E7F5E7F4E7F3E7F2E757
:10656000F1E7F0E7EFE7EEE7EDE7ECE7EBE7EAE787
:10657000E9E7E8E7E7E7E6E7E5E7E4E7E3E7E2E7B7
:10658000E1E7E0E7DFE7DEE7DDE7DCE7DBE7DAE7E7
:10659000D9E7D8E7D7E7D6E7D5E7D4E7D3E7D2E717
:1065A000D1E7D0E7CFE7CEE7CDE7CCE7CBE7CAE747
:1065B000C9E7C8E7C7E7C6E7C5E7C4E7C3E7C2E777
:1065C000C1E7022A06D0032A02D0012A00D10160C5
:1065D000002070470B680360FAE7F2E7F1E7F0E7A5
:1065E000EFE7EEE7EDE77047203870472038704757
:1065F00001207047002070470120704770477047A6
:106600007047007B70477BF011BA7BF00FBA2DE921
:10661000F04F2DED028B87B008EE100ABDF94870DF
:10662000BDF94C809DF850909DF854A09DF858B04D
:10663000CDE900370C4615461E46CDE904AB13469E
:10664000CDE902890A4626214DF011F9CDE904ABC6
:10665000CDE90289CDE9006718EE100A2B462246E3
:1066600024214DF004F907B0BDEC028BBDE8F08F9A
:1066700010B50C21044680F0FFF8204610BD10B57F
:106680003421044680F0F8F8204610BD10B5446867
:10669000A318436011B120468CF0D0FC012010BD3E
:1066A00010B54468A3184360084611B121468CF028
:1066B000C5FC012010BD024B024819887CF0AFBF19
:1066C000FA30012094690120024B034819887CF0BC
:1066D000A6BF00BFFA3001209469012070B50546BD
:1066E0000C464CB1E1682846FFF7F8FFA668204643
:1066F0007EF0FEFA3446F4E770BD70B505460C46F0
:106700004CB1E1682846FFF7F8FFA66820467EF006
:10671000EFFA3446F4E770BD70B505460C464CB14F
:10672000E1682846FFF7F8FFA66820467EF0E0FA09
:106730003446F4E770BD70B505460C464CB1E168CF
:106740002846FFF7F8FFA66820467EF0D1FA3446C7
:10675000F4E770BD10B50446006808B17EF0C8FAD1
:10676000204610BD11B108307EF016B9704713B540
:106770000A4C2068403059F003FA206800210AF0E2
:10678000C3FA074B01221A7000230193054B01A99C
:1067900018687EF0CFFC02B010BD00BF3C3B01206A
:1067A000C43A0120AC560020E1E7E0E710B504460A
:1067B0007BF0FCF8204610BD10B5046844B1201DE4
:1067C0007BF0F4F820461421BDE8104080F054B866
:1067D00010BD07B500680B680168019301EB031158
:1067E000C3680BB986F0E3F8036901AA043098473F
:1067F00003B05DF804FBECE707B500680B680168BF
:10680000019301EB0311C3680BB986F0D0F803695B
:1068100001AA0430984703B05DF804FB07B500688F
:106820000B68026801930C2101FB0321C3680BB9BB
:1068300086F0BDF8036901AA0430984703B05DF8FB
:1068400004FBEBE707B500680B68026801930C21B5
:1068500001FB0321C3680BB986F0A9F8036901AAFB
:106860000430984703B05DF804FBEBE7EAE7E9E79B
:10687000034607B59A680191013A08469A6085F087
:10688000BDFE019803B05DF804EB7EF031BAF0B5BF
:1068900001F1200C00254FF0000E51F8043B05F0EB
:1068A00001055E1B52F8043B6EEB4E07F41A67F1CC
:1068B0000005614540F8044BEFD105F00100F0BD43
:1068C00008B5D0E900031B1A6FF00040834202D1E3
:1068D000074886F047F8012B1A4638BF01229B185B
:1068E00004D2002BACBF18466FF0004008BD00BFBB
:1068F0002F8A0B0008B5D0E900031B1A9810094B2A
:1069000043430948834202D1084886F02BF8012B03
:106910001A4638BF01229A1802D2904228BF104668
:1069200008BD00BFABAAAAAAAAAAAA0A2F8A0B006E
:10693000034610B41B681C68084611462CB1A446D7
:106940009B685DF8044B0122604702205DF8044B10
:10695000704710B548B1046954B184680123A04759
:10696000002818BF6FF0020010BD6FF00A00FBE7AF
:106970006FF00400F8E720B1024B800143F00103FF
:1069800018477047C08E0B00A4DF7047A3DF704725
:10699000B2DF7047B1DF7047B0DF704711DF70477B
:1069A0003DDF70473CDF704763DF704762DF704751
:1069B000A8DF704786DF704785DF704781DF70474B
:1069C00046DF70478ADF70477ADF7047A0DF704785
:1069D000007D7047407C7047007D7047B5DF704791
:1069E00090DF70478FDF7047AEDF7047ADDF7047D5
:1069F000ACDF7047ABDF7047AADF704775DF7047C9
:106A000074DF704700231A4619467EF0CBBA4FF068
:106A1000FF317EF033BC30B5294C05469DB0206D6A
:106A2000FFF7F5FF94F84C30019525467BB12548DA
:106A300001AB02AA06A907F0A3FE044678B1286DAF
:106A4000FFF7E0FFB4FA84F040091DB030BD04F157
:106A50000C0007F010FB04460028E8D0EFE79DF893
:106A60000C30222B16D0174802AA06A907F04AFDBF
:106A700004460028E3D19DF80C30222BDFD11148C9
:106A800006AA12A907F024FA041ED8DB0BD10E487F
:106A900059F0E4FE0B4804AA11A906F0B0FD044623
:106AA0000028E0D0CBE71A9B0F931B9B1093002389
:106AB00004481A4606A907F0A9FB0446BFE700BF31
:106AC000E0520020EC520020498A0B0012DF704790
:106AD0004B1E062B88BF0A46817A98BF08220231D6
:106AE000D208C9B24CF04CBB4B1E062B88BF0A46DD
:106AF000417A98BF08220231D208C9B24CF040BB9B
:106B00004B1E062B88BF0A46017A98BF0822023125
:106B1000D208C9B24CF034BB30B5044685B00A2067
:106B20000D467EF09EF80A4B009303210023CDE929
:106B300001130393207923686A4643F04BFF00B2A8
:106B400020B92946684646F06CFD00B205B030BD5C
:106B5000B816012030B5044685B001200D467EF000
:106B600080F80A4B009303210023CDE9011303931E
:106B7000207923686A4643F02DFF00B220B92946E8
:106B8000684646F04EFD00B205B030BD6C270120CE
:106B900038B5437A04460D460BB94EF080FC2046CA
:106BA000032280214EF014FCE27A20462A43812100
:106BB0004EF00EFC25732046BDE838404EF01FBC59
:106BC00038B5437A04460D460BB94EF068FC2046B2
:106BD000032280214EF0FCFB227B20462A438121A8
:106BE0004EF0F6FBE5722046BDE838404EF007BC9B
:106BF00038B515461A4650B1C368AB420AD344684B
:106C00002B46A047002818BF6FF0020038BD6FF078
:106C10000A00FBE76FF00400F8E710B404460846EA
:106C200011461A4623685C6824B1A4469B685DF847
:106C3000044B604702205DF8044B704713B50446CF
:106C4000002149F066F8012301AA06212046FFF73A
:106C5000E4FF50B99DF8043001AA60F34513062102
:106C600020468DF80430FFF763FE02B010BD37B543
:106C700004460D46002149F04CF8012301AA0621E3
:106C80002046FFF7CAFF50B99DF8043001AA65F30A
:106C90008613062120468DF80430FFF749FE03B025
:106CA00030BD38B5437C04460D4673B1204645F0EF
:106CB00003F8227A657220462A43A12144F0A0FFFE
:106CC0002046BDE8384044F0ACBF034944F0BCFF67
:106CD0000028EBD138BD00BF5849012038B5437CAE
:106CE00004460D4673B1204644F0E6FF627A2572F1
:106CF00020462A43A12144F083FF2046BDE83840C6
:106D000044F08FBF024944F09FFF0028EBD138BD0B
:106D1000584901201FB504688DF80C10ACB103234D
:106D20000021CDE9003103AB01221946204609F0CC
:106D3000FAF89DF80D309DF80C001B0243EA004361
:106D40009DF80E00184304B010BD0323FF22CDE9C7
:106D5000003203AB0122194640684AF06DFEE8E7B5
:106D60001FB504688DF80C108CB102230021CDE909
:106D7000003103AB01221946204609F0D4F89DF8F2
:106D80000C009DF80D3043EA002004B010BD022332
:106D9000FF22CDE9003203AB0122194640684AF0D8
:106DA0004BFEECE708B5FFF7DBFF40BA80B208BD49
:106DB0001FB504688DF80C1064B100230122CDE9E1
:106DC000002303AB1946204609F0ADF89DF80C00EE
:106DD00004B010BD0122FF23CDE9002303AB194607
:106DE00040684AF029FEF1E71FB504688DF80D20D0
:106DF00064B10023CDE900338DF80C100123022289
:106E000003A9204609F05FF804B010BD01F07F012E
:106E100000948DF80C102346022203A940684AF022
:106E20002FFEF1E70078C0F3C20300F007029B00D9
:106E300043EA421343EA901070471FB544688DF847
:106E40000C10ACB103230021CDE9003103AB0122CA
:106E50001946204609F067F89DF80D309DF80C00A2
:106E60001B0243EA00439DF80E00184304B010BD16
:106E70000323FF22CDE9003203AB012219468068CB
:106E80004AF0DAFDE8E71FB544688DF80C109CB1B4
:106E900002230021CDE9003103AB0122194620462F
:106EA00009F041F89DF80C309DF80D0040EA0320F0
:106EB00040BA80B204B010BD0223FF22CDE90032F7
:106EC00003AB0122194680684AF0B6FDEAE71FB518
:106ED00044688DF80C1064B100230122CDE9002331
:106EE00003AB1946204609F01EF89DF80C0004B0CB
:106EF00010BD0122FF23CDE9002303AB19468068B2
:106F00004AF09AFDF1E71FB544688DF80D2064B191
:106F10000023CDE900338DF80C100123022203A9D0
:106F2000204608F0D0FF04B010BD01F07F010094AE
:106F30008DF80C102346022203A980684AF0A0FDB8
:106F4000F1E7836903B11847184670470378642254
:106F500023F0020303704068B0FBF2F0B0FBF2F3E1
:106F600002FB1300C0B27047037C0BB9037070477B
:106F7000836843600378C16043F003030370002318
:106F800003747047037819B143F00403037070472A
:106F900003F0FB03FAE770474BDF704733DF7047BE
:106FA00032DF7047BFF34F8F0549064BCA6802F4C2
:106FB000E0621343CB60BFF34F8F00BFFDE700BF1C
:106FC00000ED00E00400FA0508B17DF091BE7047C5
:106FD00010B5044616F03AF908B12388838110BD34
:106FE000425C0144487840EA022070470B4B10B5E0
:106FF0001C6811F0E5F8236801461B682046984795
:10700000044640B119F0B0FE28B194F82D3013B108
:1070100004F12D0010BD0248FCE700BFCC93002016
:107020004D8A0B00034B1A79062A0CBF93F898007F
:107030000020704798900020064B187900F0FB0361
:10704000022B04D0A0F10B03584258417047012095
:10705000704700BF98900020094B10B51C6864B1C0
:10706000606811F097F838B194F8640194F86E31C3
:1070700098422CBF0020012010BD2046FCE700BF35
:1070800024F2002010B50446006885F023FB206040
:10709000204610BD38B5044608200D467FF0E6FBBB
:1070A0002B68436023680360206038BD70B50546D7
:1070B0000C464CB1E1682846FFF7F8FFA668204669
:1070C0007DF016FE3446F4E770BD10B50446006846
:1070D00085F0DAFA2060204610BD836810B50446BA
:1070E0002BB10322014698470023C4E9023320460E
:1070F00010BD8B6873B5164604460D1D01225BB1A9
:1071000030681A69904234BF9868D8681D4634BF09
:10711000012200220346F2E7019552B1CA68AA4251
:1071200004D1C4E90035204602B070BD01A8FFF7C4
:10713000A9FF019A3368116999424FF00003F0D317
:10714000C4E90023EFE770B505460C464CB1E16891
:107150002846FFF7F8FFA66820467DF0C9FD3446B3
:10716000F4E770BD38B504460068844204D0056871
:107170007DF0BEFD2846F8E738BD70B504680546C9
:107180000E46AC4207D0A068036831469B6898471A
:1071900010B92468F5E7002070BD38B504460C200E
:1071A0000D467FF063FB2B688360214685F01FFA54
:1071B000A3680133A36038BD38B504460C200D46E2
:1071C0007FF054FB2B688360214685F010FAA3689A
:1071D0000133A36038BDF8B50D4601680446064684
:1071E0008C420FD08A682B680F689A4208D101F14F
:1071F00008039D4203D02046FFF73AFB00E00E460D
:107200003946EDE7B44205D031462046BDE8F840A6
:10721000FFF72EBBF8BD10B50446FFF7A3FF002310
:10722000C4E90044A36010BD70B5046805460E466D
:10723000AC4207D0A068036831469B68984710B9F4
:107240002468F5E7002070BD08B5054B984201D9C8
:1072500085F082FB0C235843BDE808407FF006BB55
:10726000AAAAAA0A08B17DF043BD70478B6873B51E
:10727000164604460D1D01225BB130881A8A9042E1
:1072800034BF9868D8681D4634BF012200220346E7
:10729000F2E7019552B1CA68AA4204D1C4E90035A7
:1072A000204602B070BD01A8FFF7ECFE019A3388BA
:1072B000118A99424FF00003F0D3C4E90023EFE7AD
:1072C0008B6873B5164604460D1D01225BB13088EC
:1072D0001A8A904234BF9868D8681D4634BF01228C
:1072E00000220346F2E7019552B1CA68AA4204D1CE
:1072F000C4E90035204602B070BD01A8FFF7C2FE08
:10730000019A3388118A99424FF00003F0D3C4E9FF
:107310000023EFE770B505460C464CB1E1682846FE
:10732000FFF7F8FFA66820467DF0E2FC3446F4E75C
:1073300070BD10B50C4650B13AF0FAFA38B10430CD
:1073400050E8003F234440E80032002AF8D110BD45
:1073500010B50138029C0F2800F28480DFE800F0AD
:107360005E8236281A1458084A6D7073797D8044FD
:10737000DFED427A9FED427A002908BFF0EE477AAE
:10738000C2ED007A052261E0DFED3E7A9FED3E7AA4
:107390000029F2E7DFED3B7A9FED3B7A002908BF39
:1073A000F0EE477AC2ED007A05222270082242E010
:1073B000DFED347A9FED347A002908BFF0EE477A8A
:1073C000C2ED007A05222270092234E0DFED2D7A29
:1073D0009FED2D7A002908BFF0EE477AC2ED007AC2
:1073E000052222700A2226E0DFED247A9FED247A1E
:1073F0000029E2E7DFED217A9FED217A002908BF1D
:10740000F0EE477AC2ED007A082222700B2212E0D9
:10741000DFED1E7A9FED1E7A0029F0E7DFED1B7A83
:107420009FED1B7A002908BFF0EE477AC2ED007A83
:10743000082222700C221A7010BD16491160C1E793
:1074400014491160CCE7144911600622227007220A
:10745000F1E7114911600622A7E71049116091E791
:107460000E49F7E7DFED077A9FED077A002908BF9D
:10747000F0EE477AC2ED007A0522C6E70020CB4441
:107480000000FA4300204B4400007A430020CB4325
:107490000000FA420000FA4200007A429A997941CB
:1074A0001FB50023039300238DF80B308DF80A30AD
:1074B0000DF10A03009303AA0DF10B03FFF748FF38
:1074C0009DED030A05B05DF804FBF8B50D460168B3
:1074D000044606468C420FD08A682B680F689A4291
:1074E00008D101F108039D4203D02046FFF7C0F9FF
:1074F00000E00E463946EDE7B44205D0314620465D
:10750000BDE8F840FFF7B4B9F8BD2DE9F047D0E980
:107510000487436AD0E902A904463D1D1E1DAE4200
:1075200004D955F8040B7DF0E3FBF8E7C4E906A99C
:10753000C4E90887BDE8F0872DE9F047D0E9048762
:10754000436AD0E902A904463D1D1E1DAE4204D97E
:1075500055F8040B7DF0CCFBF8E7C4E906A9C4E9B3
:107560000887BDE8F087036870B5044663B1436AD5
:1075700045691E1DAE4204D955F8040B7DF0B8FBD9
:10758000F8E720687DF0B4FB204670BD036870B555
:10759000044663B1436A45691E1DAE4204D955F8DD
:1075A000040B7DF0A5FBF8E720687DF0A1FB2046E9
:1075B00070BD50F8183B834202D018467DF098BB4E
:1075C0007047B0F1005F08B501D385F0C5F9BDE89B
:1075D000084080007FF04AB908B17DF089BB704750
:1075E000026962B1836850F82310013303F001038C
:1075F00048BF5B42013A836002610846704711460A
:10760000FBE7826A10B582B1036A50F82340013368
:10761000594201F0070103F0070302F1FF3258BF9E
:107620004B4203628262204610BD1446FBE70269AA
:1076300062B1836850F82310013303F0010348BF9F
:107640005B42013A83600261084670471146FBE7DE
:10765000826C10B582B1036C50F82340013359425B
:1076600001F00F0103F00F0302F1FF3258BF4B424C
:1076700003648264204610BD1446FBE701460148BE
:1076800015F00ABE089A00202DE9F347CB68DFF811
:10769000649001930E1D07460C4635464FF0FF38A7
:1076A000DDF804A0564510D0DAF81010D9F80430EF
:1076B000994206D0384610F01BFB804584BF5546E2
:1076C000804601A8FFF701FDEAE7AE4210D001A80D
:1076D0000195FFF7FAFC3146284685F059F87DF010
:1076E00007FB6369013B6361012002B0BDE8F087DD
:1076F0000020FAE77C8900202DE9F347CB68DFF80A
:10770000649001930E1D07460C4635464FF0FF3836
:10771000DDF804A0564510D0DAF81010D9F804307E
:10772000994206D0384610F0E3FA804584BF5546AA
:10773000804601A8FFF7C9FCEAE7AE4210D001A8D5
:107740000195FFF7C2FC3146284685F021F87DF00F
:10775000CFFA6369013B6361012002B0BDE8F087A5
:107760000020FAE77C8900202DE9F347CB68DFF899
:10777000649001930E1D07460C4635464FF0FF38C6
:10778000DDF804A0564510D0DAF81010D9F804300E
:10779000994206D0384610F0ABFA804584BF554672
:1077A000804601A8FFF791FCEAE7AE4210D001A89D
:1077B0000195FFF78AFC3146284684F0E9FF7DF009
:1077C00097FA6369013B6361012002B0BDE8F0876D
:1077D0000020FAE77C8900202DE9F347CB68DFF829
:1077E000649001930E1D07460C4635464FF0FF3856
:1077F000DDF804A0564510D0DAF81010D9F804309E
:10780000994206D0384610F073FA804584BF554639
:10781000804601A8FFF759FCEAE7AE4210D001A864
:107820000195FFF752FC3146284684F0B1FF7DF008
:107830005FFA6369013B6361012002B0BDE8F08734
:107840000020FAE77C8900208B6873B51646044651
:107850000D1D01225BB130681A69904234BF9868EF
:10786000D8681D4634BF012200220346F2E7019585
:1078700052B1CA68AA4204D1C4E90035204602B018
:1078800070BD01A8FFF7FEFB019A336811699942A8
:107890004FF00003F0D3C4E90023EFE78B6873B522
:1078A000164604460D1D01225BB130681A699042EC
:1078B00034BF9868D8681D4634BF012200220346B1
:1078C000F2E7019552B1CA68AA4204D1C4E9003571
:1078D000204602B070BD01A8FFF7D4FB019A3368BF
:1078E000116999424FF00003F0D3C4E90023EFE798
:1078F0008B6873B5164604460D1D01225BB13068D6
:107900001A69904234BF9868D8681D4634BF012276
:1079100000220346F2E7019552B1CA68AA4204D197
:10792000C4E90035204602B070BD01A8FFF7AAFBEC
:10793000019A3368116999424FF00003F0D3C4E90A
:107940000023EFE78B6873B5164604460D1D012230
:107950005BB130681A69904234BF9868D8681D4698
:1079600034BF012200220346F2E7019552B1CA68F2
:10797000AA4204D1C4E90035204602B070BD01A876
:10798000FFF780FB019A3368116999424FF00003B9
:10799000F0D3C4E90023EFE730B5031D8268184631
:1079A0003AB115690C68A5422ABF1046D2689268A0
:1079B000F6E7834204D009680269914238BF18464D
:1079C00030BD30B5031D826818463AB115690C68A0
:1079D000A5422ABF1046D2689268F6E7834204D0D7
:1079E00009680269914238BF184630BD30B5031DA1
:1079F000826818463AB115690C68A5422ABF10463C
:107A0000D2689268F6E7834204D00968026991421D
:107A100038BF184630BD30B5031D826818463AB1EC
:107A200015690C68A5422ABF1046D2689268F6E72D
:107A3000834204D009680269914238BF184630BDBC
:107A400037B54B690192272B05460C460AD901A987
:107A50002046FFF7E0FF231D834203D1214628463D
:107A6000FFF7BAFE03B030BD10B581680446FEF7DB
:107A700035FE0023221DC4E90322A360636110BD0B
:107A800010B581680446FEF738FE0023221DC4E9C4
:107A90000322A360636110BD10B581680446FEF740
:107AA0003BFE0023221DC4E90322A360636110BDD5
:107AB00010B581680446FEF73EFE0023221DC4E98E
:107AC0000322A360636110BD2DE9F84300F10409AE
:107AD000846805464E46ECB123690868834204D2A7
:107AE000E368344626461C46F5E7A368FAD8E26800
:107AF00043B1196988428ABFD968996823461C46F0
:107B00000B46F5E73AB11369984236BF1646D2687C
:107B10009268F7E73446EB68D5F81480A34209D1A0
:107B2000B14507D12846FFF7C3FF6869A8EB0000FD
:107B3000BDE8F883A642F8D0204684F0B8FD494657
:107B40000746204684F024FE7DF0D2F86B69013BA5
:107B50006B613C46EEE708B17DF0CAB87047B0F102
:107B6000005F13B501D384F0F7FE82001046019246
:107B70007EF07CFE019A002104468BF087FA2046B5
:107B800002B010BD42680B4604318A4210B504466B
:107B900004D01846521A8BF05FFA03466268043A22
:107BA0006260184610BD814210B51346A1EB000477
:107BB00005D00146224618468BF04EFA03461819A6
:107BC00010BD38B50346D3E90035ED1A6FF06043B8
:107BD000AC10A3EBA5058D42104601D284F0C2FE85
:107BE000A14238BF2146601803D2984228BF1846E8
:107BF00038BD1846FCE708B17DF07AB8704710B57B
:107C000004460068FFF7F7FF204610BD08281BD088
:107C10000A281CD010281DD015281ED01F281FD0C0
:107C20002A2820D03E2821D0C82822D0B0F5C87FED
:107C300022D0B0F5487F22D0B0F5C86F22D007EE31
:107C4000900AB8EE670A70479FED100A70479FEDE3
:107C5000100A70479FED0F0A70479FED0F0A70479B
:107C60009FED0E0A70479FED0E0A70479FED0D0ABB
:107C700070479FED0D0A70479FED0C0A70479FED0E
:107C80000C0A70479FED0B0A704700BF9A99F940A4
:107C9000666626419A9979416666A6410000FA41D6
:107CA000CDCC264200007A4200204B430020CB433B
:107CB00000204B440020CB4410B103685B68184798
:107CC000704710B103681B691847704710B5044628
:107CD000006808B1FFF7F5FF204610BD10B103683A
:107CE0001B691847704710B103685B6818477047F5
:107CF000036801600BB11846F5E7704710B10368DF
:107D00005B681847704770B505460C464CB1E16892
:107D10002846FFF7F8FFA66820467CF0E9FF3446C6
:107D2000F4E770BD70B5046805460E46AC4207D056
:107D3000A068036831469B68984710B92468F5E746
:107D4000002070BD2DE9F84FD0E90087A7EB0804AB
:107D5000A310234C5C43234B9C4206468946934622
:107D600002D1214884F0FEFD012C224638BF0122B9
:107D7000A418A1EB080531D244B19C4228BF1C468F
:107D80000C2060437EF072FD824600E0A2469BE834
:107D900007000AEB0503002D83E8070004DD2A46EF
:107DA000414650468BF058F9A7EB09070C35002FD8
:107DB000554404DD3A46494628468BF03FF93D4498
:107DC000B8F1000F02D040467CF092FF0C2000FB7F
:107DD00004A4C6E900A5B460BDE8F88F1C46CFE74F
:107DE000ABAAAAAAAAAAAA0A2F8A0B002DE9F84FC1
:107DF000064689469346FEF763FDD6E900A8071EAE
:107E0000A9EB0A0428D001DA84F0A6FD7EF02EFD4D
:107E100005469BF800302B55002C04DD22465146C8
:107E200028468BF019F9A8EB09080134B8F1000FC6
:107E30002C4404DD4246494620468BF0FFF844447A
:107E4000BAF1000F02D050467CF052FFC6E9005450
:107E50003D44B560BDE8F88F3D46DAE72DE9F041D5
:107E600006468846154617460446444509D021462D
:107E7000384685F08AF8204684F098FF1834183781
:107E8000F3E7A01BC4080448444324F060441820CE
:107E900000FB0450BDE8F081ABAAAA0A10B50C1A89
:107EA000002C134605DD0146224618468BF0D4F817
:107EB0000346181910BDB0F1005F08B501D384F076
:107EC0004BFDBDE8084080007EF0D0BC08B17CF0DE
:107ED0000FBF7047B1F1005FF8B504460E4602D3FC
:107EE000104884F03FFD026883689B1AB1EBA30F32
:107EF00014D94768BF1A91B10846FFF7DCFF054661
:107F00002A46D4E90001FFF7C9FF2068FFF7DEFF2A
:107F10002F44256005EB86056760A560F8BD0D461A
:107F2000EEE700BF518A0B0008B17CF0E1BE70475C
:107F30002DE9F843D0E901439C420746894607D022
:107F40000B6844F8043B446078680438BDE8F88363
:107F5000D0F800806FF06042A4EB0804B2EBA40FED
:107F60004FEAA40302D1164884F0FCFC012B1D4605
:107F700038BF0125ED1821D23DB1954228BF1546E5
:107F8000A8007EF073FC064600E02E46D9F80030CB
:107F90003351002C04DD2246414630468BF05CF81C
:107FA00004343444B8F1000F02D040467CF0A0FE07
:107FB00006EB8505C7E90064BD60C5E71546DFE748
:107FC0002F8A0B0038B50346D3E90035ED1A6FF060
:107FD0006043AC10A3EBA5058D42104601D284F09E
:107FE000C1FCA14238BF2146601803D2984228BF85
:107FF000184638BD1846FCE72DE9F84F05460F46F0
:1080000091460121134AFFF7DDFFD5E9008A0646B4
:10801000A7EB080BD8B1FFF74EFF0446D9F80030A4
:1080200044F80B30224639464046FFF737FF5146A9
:10803000021D3846FFF732FF07464046FFF746FF6E
:10804000C5E9004704EB8604AC60BDE8F88F044640
:10805000E4E700BF2F8A0B00D0E90032934218BF3B
:108060004360704710B504460068FFF72FFF2046B5
:1080700010BD30B50D68836885B0D0E90042056059
:108080004D68456003938D6885600023C1E9003326
:108090008B6001A8CDE90142FFF7E4FF05B030BDD8
:1080A000D0E900239A4209D1C3681A1F53F8043C4F
:1080B000436003F5FC73C2608360036003681C3B8C
:1080C0000360704713B50B460246D0E900016C46C9
:1080D00084E8030093E8030082E8030094E80300C7
:1080E00083E803009868916890609960D168D868C7
:1080F000D060D96002B010BD10B50378DB0704462C
:1081000004D57CF0A3FDE368C01A10BD4FF0FF302A
:10811000FBE72DE9F0431546074687B01420894652
:108120007EF0A4FB2B6807F1040819780174002382
:10813000C845064600F11002437483744C460CD1C6
:108140007B691BB13D692B7C8B4223D3394604A844
:1081500020F06FF8DDE9044518E099F8100001926D
:1081600088422DD9FB68CDF80C904B4526D003A84A
:10817000FEF788FF0368019A197C337C9942E5D2A7
:10818000039DEB68002B0CBF00244D46002D37D01B
:10819000002C33D1454531D0307C2B7C98422CBF0C
:1081A0000020012043462A46314684F095FA7B6937
:1081B00001337B61304607B0BDE8F0834D46E5E70B
:1081C0001ED23969CDF80C9049450DD003A8FEF7B1
:1081D0007CFF0368317C1B7C019A994207D2D9F855
:1081E0000C300BB1039B1C4625461C46CEE7394696
:1081F00004A820F01EF8DDE90434F5E70120D1E7FA
:1082000030467CF075FD2046D5E710B503463BB1FE
:108210001C7C107884422ABF1946DB689B68F6E70D
:10822000084610BDD0E9002310B5D31A114C9B109D
:1082300004FB0313002B18DB012B04DCCC2303FB12
:108240000121016010BD5A10C16801EB820451F890
:108250002210C460A3EB4203CC2201F5CC7402FBD4
:108260000313416084600360ECE7DA436FEA520273
:10827000EAE700BFFBFAFAFACA68C3689B1A9B10C8
:108280005A1ED0E900301B1A05489B10434303EBEC
:1082900042038A680968521A921000FB0230704744
:1082A000FBFAFAFA036870B5044663B1436A45699C
:1082B0001E1DAE4204D955F8040B7CF019FDF8E7F9
:1082C00020687CF015FD204670BD03688268CC33C1
:1082D0009342036008D1C3681A1D5B68C26003F54E
:1082E000CC72436082600360704708B5064B074A52
:1082F0001868074900F61C7078F008FFBDE80840D0
:108300000E200CF091BF00BF303E0120618A0B00AF
:108310007A8A0B0070B5046805460E46AC4207D059
:10832000A068036831469B68984710B92468F5E750
:10833000002070BD10B50B4904460B48FFF7EAFF5B
:1083400068B123681D2B0BD801332360074B084A03
:108350001868084900F61C7078F0D8FE012010BD9E
:108360000020FCE70CC10B0018280120303E012042
:10837000808A0B009D8A0B0070B5046805460E4686
:10838000AC4207D0A068036831469B68984710B993
:108390002468F5E7002070BD10B5D0E90043144A09
:1083A000E31A9B1002FB0312002A1BDB112A04DCD8
:1083B0001C2303FB0141016010BD122392FBF3F368
:1083C000C16801EB830451F82310C46001F5FC740B
:1083D0008460122404FB13231C2202FB031341605C
:1083E0000360E9E7D3431221B3FBF1F3DB43E7E793
:1083F000B76DDBB6CA68C3689B1AD0E90020121AB1
:1084000007489B109210424310B5013B122404FB15
:1084100003238A680968521A921000FB023010BDCB
:10842000B76DDBB62DE9F04704460F4600F10801B1
:108430001830FFF7DFFF3C4B984202D13B4884F0F5
:1084400091FA626A20686368111AA3EBA1010129FD
:1084500025D86169A2EB01084FEAA806B51CB3EB69
:10846000450F3CD95D1B6D0800EB8505131DA94226
:10847000A3EB01022CD9994202D028468AF0ECFDE8
:108480002B68E36003F5FC73236105EB080363626B
:1084900055F80830E36103F5FC73656123624FF41E
:1084A000FC70656A7EF0E2F968603D460FCDA66912
:1084B0000FC695E80700636A86E807001A1D5B6827
:1084C000626203F5FC72E3612262A361BDE8F0879A
:1084D0009942D5D008F10400801A2844CEE703F170
:1084E0000209012B2CBF994409F10109B9F1005F80
:1084F00001D384F031FA4FEA89007EF0B7F9626A5D
:108500006169A9EB050504326D089142824600EBD2
:10851000850503D0521A28468AF09EFD20687CF01B
:10852000E7FBC4E900A9ABE724499204A38A0B0046
:1085300073B5044616460D4619B912B10D4884F0BC
:108540000EFA731B0F2B019307D9002201A92046B5
:1085500084F00AFC019B2060A36032462946206813
:1085600084F097FC019B226863600021D15402B023
:1085700070BD00BFD38A0B0010B500F1080304469C
:1085800003600A444FF00003FFF7D2FF204610BDFE
:10859000FFF7CEBF036870B5044663B1436A45690F
:1085A0001E1DAE4204D955F8040B7CF0A1FBF8E780
:1085B00020687CF09DFB204670BD036882681C33F8
:1085C0009342036008D1C3681A1D5B68C26003F55B
:1085D000FC72436082600360704744DF704743DF92
:1085E000704742DF7047064B1868043B1B68082B36
:1085F00004D103288CBF0020012070470020704761
:1086000034010010024B1B68DB0700D500BE704729
:10861000F0ED00E0034B1B68DB0700D500BE002037
:10862000704700BFF0ED00E037B50446142001911B
:108630007EF01CF90199054618F06EFE256003B026
:1086400030BD022A70B5054607D0032A13D0012A8F
:1086500001D10B680360002070BD0C6814207EF00F
:1086600005F92146064651F8043B40F8043B17F053
:1086700031F92E60EFE7FEF79FF8ECE7E1E7022A19
:1086800070B5054607D0032A13D0012A01D10B6823
:108690000360002070BD0C6814207EF0E7F82146CE
:1086A000064651F8043B40F8043B17F013F92E60DE
:1086B000EFE7FEF781F8ECE7022A70B5054607D030
:1086C000032A13D0012A01D10B680360002070BD7A
:1086D0000C6814207EF0CAF82146064651F8043B87
:1086E00040F8043B17F0F6F82E60EFE7FEF764F869
:1086F000ECE7E1E7022A70B5054607D0032A13D05C
:10870000012A01D10B680360002070BD0C681420A1
:108710007EF0ACF82146064651F8043B40F8043B95
:1087200017F0D8F82E60EFE7FEF746F8ECE7E1E740
:10873000E0E7DFE71FB50446684617F0CBF82146AF
:108740006846FFF7BFFC684679F030F9204604B070
:1087500010BD7FB56E460C460546014630460CF00E
:1087600095F994E80F0085E80F0096E80F0084E87B
:108770000F0004B070BD7FB56E460C46054601463D
:10878000304617F0B6F894E80F0085E80F0096E839
:108790000F0084E80F0004B070BD00BF014B93F8D8
:1087A0005801704700860020014B93F8490170473B
:1087B00000860020014B93F862017047008600207C
:1087C0002DE9F041DFF8C883C64BC74DC74E404680
:1087D00094B0442240F80C3B002100248AF056FC5F
:1087E000C34BC8F8083008F1540188F80440012050
:1087F0007CF05CFCBF4BC8F85000C8F80030BE4AA3
:10880000BE49404683F0EEFEBD48BB4ABD49C0F8B4
:1088100084404FF40053A0F88030BB4BC0F8883040
:10882000A0F89C4083F0DEFEB84B0822DC60C3E970
:1088300001441A701C82B64BB64A1C705C70B64B71
:1088400001271A60B54A1F71D2F8B4101973D2F813
:10885000AC109973D2F8B0105973DC731C829C6011
:10886000AF4BB0491C711960516F1973D16899737E
:10887000926F5A739C60DC731C821923C5E9005502
:10888000AC60AC812B614FF47A732B62AE61C5F89A
:108890002880C5E90C44AC73AC82EC6185F82C40AF
:1088A0008022214605F17C0085F8384085F8784023
:1088B0008AF0ECFB8822214605F1FC008AF0E6FBF9
:1088C0008D4A9949284683F08DFE98488A4A9849EE
:1088D0008460C0E9000083F085FE9648864A94498A
:1088E0008460C0E9000083F07DFE9348824A90498D
:1088F0008460C0E9000083F075FE904877F064FE64
:108900007D4A8F498D4883F06DFE4FF4A4707DF051
:10891000ADFF06F124030546202240F8043B214622
:108920008AF0B4FB6C621022214605F128008AF01F
:10893000ADFB2122214605F138008AF0A7FB202259
:10894000214605F159008AF0A1FB2022214605F1BC
:1089500079008AF09BFB20222146C5F89C4005F156
:10896000A0008AF093FB85F8C04005F1C40077F0C1
:108970002BFE2022214605F1C8008AF087FB202229
:10898000214605F1E8008AF081FB2022214605F509
:1089900084708AF07BFB2022214605F594708AF0D2
:1089A00075FB06F168032B60664B67481D6006F196
:1089B000AC08664B10930EA9CDF838808DF83E4078
:1089C000ADF83C40119449F059FC4B4A60495E486F
:1089D000604D83F007FE604B604810930EA9CDF800
:1089E00038808DF83E40ADF83C40119404F0F6FA22
:1089F000414A5B49594883F0F5FD5A4B5A48109358
:108A00000EA9CDF838808DF83E40ADF83C40119469
:108A100004F0E4FA384A5249534883F0E3FD534BDB
:108A2000534810930EA9CDF838808DF83E40ADF82C
:108A30003C40119404F0D2FA2F4A49494C4883F043
:108A4000D1FD4C4B4C4810930EA9CDF838808DF8D1
:108A50003E40ADF83C40119404F0C0FA264A40492B
:108A6000454883F0BFFD41F60A030EA92846CDF81C
:108A70003880ADF83C30CDE910448DF83E7049F0B7
:108A8000FDFB284606F1BC0340F8183B2422214692
:108A90008AF0FCFA394BEB611523C5E90F4485F8E0
:108AA0003D30374BEB62052385F84130354B2B6366
:108AB000132385F8423085F844402846324D0E4A4B
:108AC000324983F08FFD41F60F030EA92846CDF8F9
:108AD0003880ADF83C30CDE910448DF83E7049F057
:108AE000CDFB57E0D8C50B00200F0120188B0B00E1
:108AF00064400020E8C50B00004000200DF3020098
:108B0000D093002095C8030080EE3600181701208E
:108B1000E827012000F00240F0270120E88F0D0037
:108B20000428012000300240E378040018280120C6
:108B3000F9060800242801203028012050280120AF
:108B4000BB050A0054280120102B01206E8F0D0058
:108B50000B180800982B01207F8F0D00582801204A
:108B600001D002008F8F0D00502C01205D8F0D0071
:108B7000A82E01204C8F0D00B028012004910D007B
:108B800030890B0036890B00E02B01200918080002
:108B9000E0520020284606F1D00340F8183B0EA909
:108BA00042F61923ADF83C30CDF83880CDE91044B9
:108BB0008DF83E7004F012FA2846BD4DBD4ABE49FC
:108BC00083F010FDBD4BCDF838800EA928461093D8
:108BD0008DF83E40ADF83C40119449F04FFB2846DB
:108BE00006F1E40340F8183B0EA9B54B1093CDF8FD
:108BF00038808DF83E40ADF83C40119404F0EEF919
:108C0000AC4AB049284683F0EDFC23462246214673
:108C1000AD4800947AF0BEFEAC48AD4D77F0D4FC80
:108C2000A44AAC49A94883F0DDFCAB4877F0CCFC02
:108C3000A04AA849A84883F0D5FCA8489D4AA8495D
:108C4000046083F0CFFCA7489A4AA549046083F0EA
:108C5000C9FCA54B2B61A54BEB602846A44B6B616F
:108C600006F1F80340F8183B6D6045F2C0722146EA
:108C70008AF00CFA362221469E488AF007FA2846E6
:108C80009D4D8C4A9D4983F0ADFC28464FF4D0722F
:108C9000214600F8044B8AF0F9F94FF4D0722146CE
:108CA00005F5D2708AF0F2F99548824A95498460B8
:108CB000C0E9000083F096FC9348944D7D4A9449A6
:108CC000C463C0E90144C0E90344C0E90544C0E904
:108CD0000744C0E90944C0E90B44C0E90D4483F0EE
:108CE00081FC8C4B2B6128468B4BEB6006F588731F
:108CF00040F8183B6D606C614FF4FB5221468AF0DE
:108D0000C5F91022214685488AF0C0F9694A84498C
:108D10002846844D83F066FC834B2B612846834BA9
:108D2000EB6006F5947340F8183B6D606C6120228F
:108D300021468AF0ABF95F4A7D49AC6328467D4DF8
:108D400083F050FC7C4B2B6128467C4BEB6006F596
:108D5000A07340F8183B6D606C614FF4F0622146DF
:108D60008AF094F9534A7649C5F89847284683F023
:108D700039FC74481022214620F8024B8AF086F90B
:108D800071494C4A714883F02DFC5C207DF06EFDEA
:108D9000054607F05AFC2B466D4A43F8382BC5E9C7
:108DA0000E3306F5AC736B636A4B2C64C5E9123461
:108DB0004FF400734FF00208A5F85830664B6D640D
:108DC00085F850806C6585F85A806F62CC201D60F4
:108DD0007DF04CFD054607F038FC2B465F4A43F812
:108DE000382BC5E90E3306F5B6736B635C4B2C6408
:108DF00021467422C5E912346D642C6505F15400D6
:108E00008AF044F9574BC5F8C840C5F8248058206B
:108E10001D607DF02BFD054607F017FC2B46524ADE
:108E200043F8382BC5E90E33504B2C64C5E9123496
:108E300003236B6206F5C0764D4B6E636D642C6543
:108E4000A5F8544085F856406C201D607DF00EFD5D
:108E5000054607F0FAFB2B46464A43F8382BC5E98E
:108E60000E33454B6B63454B454E464A4648317879
:108E70002C64C5E9123405F15C03C5E915340423FB
:108E80006B62424B6D641D6033881380404A2C65D1
:108E90001380404A85F85C4013803F4A8460138009
:108EA0003E4A13803E4B727859709A707AE000BF48
:108EB000282B0120004000200D1808003DAA0C00BE
:108EC0004DAA0C000F1808008C830020FC1601200E
:108ED000089A0020BB050A00001701203813012062
:108EE000AD990600B4160120ED640200E1650200B0
:108EF0004A890B00E0F10020C09600203DD003001D
:108F00004C140120F90608004C900020EC61002070
:108F10000D7E03001F650200DB65020064810020F6
:108F20006D5C0300085A002015650200DD65020033
:108F3000435C0300485A00200B650200DF65020015
:108F4000155C0300F05900208FA20900D03A0120DF
:108F5000F8C70B0087010300BC3A012000410C0058
:108F6000C1C30400043B01208C150C0071F2030006
:108F7000083B012080530D00FC530D00F9A60900A9
:108F8000133E0120EC3A0120100F0120103B01207C
:108F9000EF3A0120E03A0120E23A0120E43A0120D0
:108FA000F23A01201C704E4A4E49C0E9004483F059
:108FB00019FB4D484A4A4D49846083F013FB4C48E5
:108FC000474A4C49846083F00DFB4B48444A4B4967
:108FD0008460C0E9004483F005FB4948404A4949A0
:108FE0008460C0E9004483F0FDFA47483C4A4549A3
:108FF0008460C0E9004483F0F5FA4448384A4449A3
:109000008460C0E9004483F0EDFA424B3025013D15
:109010001C7303F10E03FAD13F48314A374985608A
:10902000C0E9005583F0DEFA3C482D4A3C49057200
:1090300000F10803C0E9003583F0D4FA39483A4C0E
:10904000274A3A498560C0E9005583F0CBFA0127E9
:1090500014222946C4E90055A56004F10C008AF0E9
:1090600015F81F4A324933482565C4E90855C4E953
:109070000A55C4E90C55C4E90E55C4E91055C4E9B4
:10908000125584F8547083F0ADFA2B48144A2B49DA
:10909000056083F0A7FA2A4B2A481D705D709D7009
:1090A000357075701EF028FF0D4A2749254883F05A
:1090B00099FA26481EF020FF094A2349234883F0E5
:1090C00091FA0322294638467BF046FF204B186070
:1090D000002845D11F4B204A20480C2157F028FC7E
:1090E0000040002055670200C4560020AD67020012
:1090F0008C590020AD6702008414012001FE090094
:1091000090140120E1F203006C1401207814012076
:10911000E1F20300483B0120E83D0120F43D01203D
:10912000BFCF0A003C1201206C120120FF7B02001D
:10913000CD7C0200A81001200C3E0120AD99060054
:10914000103E0120085500206D0D0300DC55002065
:10915000AC56002058890B0062890B00A2890B00D5
:109160009F4CA04AA049A14F184683F03BFAA56046
:10917000C4E9004404F10C000BF05EFC994A9C49E0
:10918000204683F02FFA9B4B9B4A9D60C3E9002544
:109190009A4ADA609A4B9B4A9D60C3E900259A4A35
:1091A000DA609A499A4B9B489B4CC3E90252C3E947
:1091B00000159A4B9A4A1A609A4A5A609A4A9A60DB
:1091C0009A4ADA609A4B9B4A9D60C3E900259A4A05
:1091D000DA609A4B9A4A9D60C3E90025994ADA60A1
:1091E000994B9A4A9A49C3E900259A4A9A609A4A41
:1091F000DA609A4B9A4A9D60C3E90025994ADA6081
:10920000994A116099498560C2E901159849D16070
:10921000984A9949116099495160994991609949D1
:10922000D160C0E900356F4A9749C0F8EC5080F82A
:10923000F05083F0D7F99548954B036105230371EE
:1092400004F14C0300264FF04008036204F1580378
:10925000C0E90935634A8F4905730575856105774E
:109260008560046080F82D804563866383F0BAF9D9
:1092700089488A4B03612223037104F1640303606C
:1092800004F1B003036204F1BC03436242F21073C1
:10929000544A83490573057585610577856080F8B3
:1092A0002880C762C663A0F8403080F842804764D7
:1092B000066386634663856483F094F979487A4B44
:1092C00003610423037104F1C803036004F58A7386
:1092D000036204F59073434A74490573057585610B
:1092E00005778560436283F07DF97148714B0361B6
:1092F0000E23037104F59673036004F5BC730362D7
:1093000004F5C2734362422380F834306A4B354A15
:109310006A49057305758561057785608763836292
:10932000C3620363C56383F05DF96548654B036100
:109330001C23037104F5C873036004F5EC73624EDB
:10934000284A62490573C0E90835057585610577C6
:10935000856083F047F95E4902A806F03FF9304680
:1093600006F05CF806F13003C6E90A3502AA0EA839
:10937000584986F8305006F07BF857490EA884F01B
:109380000DF8014608A883F000FE08A906F12800A0
:1093900083F01BFE08A883F009FD0EA883F006FDEC
:1093A00006F0C2F802A883F001FD0E4A4B49304690
:1093B00083F018F94A4B83F8E45083F8E850494B9E
:1093C0004FF47A729A6004F5F2721A6004F503742D
:1093D0004FF47F425D601C619A8214B0BDE8F08159
:1093E000B45900200040002009060A005849012015
:1093F000EF4A03005C3F012015150A00CE890B00DF
:109400006C3F0120F9140A00D7890B00DB140A0015
:109410004C3F01207C3F0120AC8C0B002C3F0120F5
:10942000091A0A00FF650200FD6502008E1D0C008E
:10943000FC3E0120E5190A00DB890B000C3F0120EE
:10944000A51A0A00DE890B003C3F0120BF190A0063
:109450007D1A0A000B660200E3890B001C3F012005
:10946000BD620200EA890B00EC3E0120C7140A002D
:10947000EF890B00DC3E0120491A0A00B5140A00EE
:1094800007660200F2890B000D530300D45300203D
:10949000F8890B008506030010540020FF890B009B
:1094A000C30603005C540020068A0B00C1060300BB
:1094B000945400200D8A0B00CDCCCC3DBF06030098
:1094C000D8540020158A0B0084530020BD060300E9
:1094D0004DE50B001E8A0B00298A0B002DFA0200B5
:1094E000F45100202C4A002007B503688DF80710BE
:1094F0005B6801220DF10701984703B05DF804FB9A
:10950000A0F1100000F032B9407DFF2801D079F0C1
:10951000C9B9704710B5437DFF2B0CD0074A4FF4F3
:10952000567000FB032001F011FC044608B97DF0E1
:10953000EBFD204610BD0020FCE700BF10460120D7
:109540002DE9F74F437DFF2B06460F4614462FD0DB
:1095500015464FF4567A4FF6FE7B15B3707D79F0C1
:10956000DFF9F0B1737D134A01930AFB03294FF62B
:10957000FF7209F124095D4598BF2A4692B2394627
:10958000484601F047FB8046484601F0DFFB3F2894
:10959000019B02D9184679F085F9B5EB08054744D7
:1095A00003D1601B03B0BDE8F08F7DF0ADFDD4E7C3
:1095B0000020F7E70046012008B5437DFF2B07D0C8
:1095C000044A4FF4567000FB032001F0ADFB08BDC8
:1095D0000020FCE72446012073B5437DFF2B14D007
:1095E0004FF456745C430A4E04F1100001220DF151
:1095F0000701304401F03EFA0546301979F0A6F92A
:109600001DB19DF8070002B070BD4FF0FF30FAE7C2
:109610000046012073B5457DFF2D03D14FF0FF308B
:1096200002B070BD254E4FF4567303FB0563186AF4
:1096300018B14FF0FF317BF021FE4FF4567202FB60
:109640000562118B538B908A89B29BB2994236BFC7
:10965000C3EB4002CA1A521894B2E4B1A04209D234
:1096600081424FF456722CBF0B1A0B1802FB056295
:109670009BB2538398421ED94FF4567101FB05618A
:109680000DF10700CA8A0969C2F30E0202FB031139
:1096900089F0D4FC01244FF4567303FB0565286A56
:1096A00020B100231A4619467BF07CFC002CB5D073
:1096B0009DF80700B4E71B1A9BB2DBE700460120C8
:1096C00010B5194B5A7DFF2A2CD11A7E52BB174C6C
:1096D0005A750121197694F850110B2908D84A1CA3
:1096E00084F8502101F14802114844F822000A464A
:1096F0001A75B4F81821B4F81A3161690A489B1A2E
:109700009BB20A4494F81C1100F030F850B1B4F840
:1097100018311844636980B2A4F81801588094F88D
:109720001C211A7110BD00BF2C4A0020484A00209D
:1097300034C00B0010B5407DFF2807D079F0F0F859
:10974000044608B97DF0E0FC204610BD0024FBE78C
:10975000034B9B68B3F5966F01D179F053BA70470C
:109760000046012009B900B9F2E770472DE9F0473A
:10977000074692B098461546002A00F090804B4B61
:1097800093F81C6193F81D1193F81EA1B21C83F885
:109790001C214C1C8A1C83F81D2164F07F040AF1F3
:1097A000010241F08009E4B283F81E214222002127
:1097B00001A889F06BFC002D6DD0B8F1410F73D971
:1097C00040F20220ADF8080040F20940ADF80C006C
:1097D00040F20120ADF8100024208DF81600344826
:1097E0000690731C0120DBB28DF806608DF80E60C8
:1097F0008DF81C008DF826602E48397D8DF81E30BE
:10980000032640F6083208908DF8273040F2246095
:109810008DF82B608DF8313008260A230427ADF827
:1098200004208DF8141002220521ADF824008DF8D3
:109830002C6040F207508DF834304FF4116640230D
:109840008DF807208DF812208DF81510ADF828003E
:109850008DF83320ADF838008DF83B208DF81F705F
:109860008DF82A90ADF82E608DF830708DF83AA002
:109870008DF83C3007238DF83F308DF8401044F2CE
:10988000020342220DEB070128468DF84140ADF856
:10989000423089F0D3FB422012B0BDE8F0879246F7
:1098A00014469146164681E70020F5E7484A002015
:1098B00020010524240202057FB5204B204A03F134
:1098C0001006144618685968154603C50833B34294
:1098D0002A46F7D11B4A1B88106851682B8001ABC0
:1098E00003C3127A1A7004AA12E90700164B03C3C5
:1098F000194603F5887001F80829144AC4F818219C
:109900004FF48072A4F81C210122616184F81E21A9
:109910000021202289F0BAFB40F20943C4F820312B
:109920000B4BC4F824310B4BC4F828310023C4F886
:109930002C31042384F8503104B070BD4FC00B00AB
:10994000484A002061C00B00604A00200900000165
:1099500043C00B0004910D00F0B5054600200446FD
:109960002B5D2E19002B68D003F14002D2B2012AE0
:109970003DD9F42B3BD81A061BD40122A3F5584637
:10998000B6F5006F33D3B3F5803F14444FD31E2890
:1099900053DCA3F5803342009E0A0A44C3F3090353
:1099A000A6F52056A3F5105321F81060023053801D
:1099B000D6E703F0E002C02A1BD103F01F03022206
:1099C00006F1010C16441CF8017B07F0C00EBEF135
:1099D000800F0CD107F03F07664547EA8313F2D1A9
:1099E000022A16D1A3F18006B6F5F06FC6D3013472
:1099F000B6E703F0F002E02A03D103F00F030322DD
:109A0000DEE703F0F802F02AF1D103F007030422A5
:109A1000D6E7032A04D1A3F50066B6F5784FE5E74B
:109A2000A3F58032B2F5801FE1D20422A6E72028F8
:109A300003D021F81030013092E7F0BD0B680249E5
:109A40000B610121184700BF704001202DE9F04152
:109A5000174C184F8046002518262279EBB2511D6D
:109A6000994212DA38220021134889F00FFB1022A4
:109A7000FF2104F1090089F009FB04F11900122209
:109A8000BDE8F041FF2189F001BB9A4207D9226865
:109A900006FB032333B9BDE8F041FEF7B3BD9B1AC3
:109AA00006FB03735B68404698470135D5E700BF66
:109AB000DC4B002078C00B00E14B0020F8B5124CC5
:109AC000266C00F07F07C5094FF0FF3130467BF070
:109AD000D5FB04EB47032B4425339A79C2F380046A
:109AE000520708D59A7912F0010103BF9A7961F300
:109AF00082029A71002400231A46194630467BF0F0
:109B000051FA2046F8BD00BFDC4B0020F8B5194AD9
:109B100000F07F0302EB430303EBD01000F12504B8
:109B200090F82B5015F0010521D190F82B305907F2
:109B3000C3F3800717D4166C4FF0FF3130467BF02B
:109B40009DFBA57915F001050FD1A3795B0704D41E
:109B5000A37943F00403A371012500231A46194693
:109B600030467BF01FFA2846F8BD3D46F5E7002554
:109B7000F9E700BFDC4B002070B4827802F07F036D
:109B8000082B07D9524B1B68DB0700D500BE00200D
:109B900070BC70474F49C478CD79818804F00304C4
:109BA000022CC1F30A010BD0032C45D0012C11D19A
:109BB000022D40F2FF3408BF4FF48064A1420DE053
:109BC000022D0AD1B1F5007F09D0414B1B68DA079D
:109BD00000D500BE70BCFEF71DBD4029F5D83E4E35
:109BE0005C0004EBD21406EB0414D5092181C17882
:109BF00001F0030101292FD00120384900FA03F4B4
:109C000005BB03F10C06B040C1F80403D1F81405FC
:109C100003F594730443C1F8144541F823502F4BC6
:109C2000C3F8182542F48072C3F80C25BFF36F8F78
:109C3000BFF34F8F0120ABE7022D0CBF4FF48064C0
:109C40004024BBE702339840C1F80403D1F8103533
:109C50001C43C1F81045E2E7082B93D11F4BDDB937
:109C6000B6F8182112B18022C3F81C250022C3F8CF
:109C70005021D3F8002312F4001208BFC3F8542176
:109C8000164B4FF44012C3F80423D3F8142542F4C2
:109C90008072C3F81425C9E70022C3F82C21B6F856
:109CA000082112B18022C3F81C250C4BD3F80023E5
:109CB00012F4001208BFC3F85421094AC3F8042360
:109CC000D3F8102542F48072C3F81025AEE700BF28
:109CD000F0ED00E0DC4B0020344D0020007002402D
:109CE0000008200010B50B4B00F07F0203EB42038D
:109CF00003EBD0142534A3799B0709D401F07AFA39
:109D0000A37943F00203A371A37943F00103A37184
:109D100010BD00BFDC4B002010B5104B04460146BF
:109D2000187801F023F80E4B04F07F0103EB410398
:109D300003EBD41090F82B306FF3410380F82B30F5
:109D400090F82B306FF3000380F82B3090F82B3015
:109D50006FF3820380F82B3010BD00BF0440002059
:109D6000DC4B00202DE9F843DDE908890C46164656
:109D70001F460025AE4201DC01200EE06378052B72
:109D800004D1E37803F00303BB4208D00D4B1868FD
:109D900010F0010001D000BE0020BDE8F88320468D
:109DA000FFF7EAFE18B9BDE8F843FEF733BCA37825
:109DB000DA0914BF89F8003088F8003023780135BB
:109DC0001C44D7E7F0ED00E01FB5CDE902011149D1
:109DD000002308240193486C8DF805403AB91346D6
:109DE00001A94FF0FF327BF0DDF804B010BD6A46E8
:109DF00001A900937BF06FF9009B002BF5D0064B77
:109E00004FF080525A6040BFBFF34F8FBFF36F8F48
:109E1000EBE700BFDC4B002000ED00E02DE9FF4147
:109E20004378484C023B0546042B12D8DFE803F088
:109E300003291B22710063796FF300036371637957
:109E400000226FF341036371A271637962F38203AD
:109E50006371606C002961D10B464FF0FF322946D7
:109E60007BF0A0F82FE06379D8072CD5637943F015
:109E70000403EDE76379DA0725D563796FF382038D
:109E8000E6E763795B0715D563796FF38203637146
:109E90000278606C0023CDE901338DF8042005229F
:109EA00003938DF8052089B90B464FF0FF3201A9C5
:109EB0007BF078F8DFF89480002618272279F3B237
:109EC000511D994214DA04B0BDE8F0816A4601A937
:109ED00000937BF000F9009B002BEBD01A4B4FF066
:109EE00080525A6040BFBFF34F8FBFF36F8FE1E7DF
:109EF0009A420AD9226807FB032323B15B6913B195
:109F00006968287898470136D8E79B1A07FB0383CE
:109F1000F4E7237A0133DBB223729AE7002301AA24
:109F2000294601937BF0D7F8019B002BCBD0064B41
:109F30004FF080525A6040BFBFF34F8FBFF36F8F17
:109F4000C1E700BFDC4B002000ED00E078C00B0053
:109F50002DE9FF47474D074600F07F0005EB40061F
:109F600006EBD7162536B47914F001044FEAD71E54
:109F70004FEA400306D0FEF74DFB0446204604B0EE
:109F8000BDE8F08796F806C0DFF800814CF0010CC0
:109F900086F806C003EB0E0C4FEA0C1908EB0C1CFC
:109FA00046469CF80BA0BAF1000F17D0324A116850
:109FB000C90700D500BE2B44734493F82B106FF3F0
:109FC000000183F82B1093F82B106FF3820183F8B4
:109FD0002B101368DB07D1D500BECFE748F8091076
:109FE000ACF80420ACF8064008BB02BB234BD3F806
:109FF0008034C3F3C0139E4519D0214800F02EFFD2
:10A00000204B59680394C1F3080100394FF4E06311
:10A0100018BF012101A8CDE90144ADF804308DF845
:10A0200008708DF80940FFF7F9FE0124A6E7012525
:10A03000BEF1000F1AD106EB4012D57218B91248C2
:10A0400000F00CFFF1E7BFF36F8FBFF34F8F937AF0
:10A0500003F0FF0443B1D37A03F0FF05002B8DD04A
:10A0600082F80AE001F062F82C4687E701F0E8F890
:10A07000FAE700BFDC4B0020F0ED00E0007002408A
:10A080005070024000ED00E04C700240344D002062
:10A090002DE9F04FB54B1B78FF2B93B0834600F0B2
:10A0A00029844FF47A72002380024FEA9B5188F092
:10A0B000F9F8012838BF01200390AD4CBBF1FF3FF8
:10A0C000606C26461BD0039BBBF1000F14BF1A46E1
:10A0D000002207A97BF058F8002800F00B849DF8B7
:10A0E0001D30013B072B00F2B283DFE813F00A00BA
:10A0F0001C00B003170426042B008D0332045A46BB
:10A10000E7E79DF81C00FFF7A1FC9A481422002104
:10A1100088F0BCFF9DF82030E371606C7BF044F95F
:10A120000028CAD1E6E39DF81C00FFF78FFC914898
:10A130001422002188F0AAFF8F4B002BEDD0AFF343
:10A140000080EAE7237A013BDBB22372227A02F035
:10A15000FF03002AE1D16279DFF818829DF81C50D4
:10A16000C8F8103042F00102627194F82B2063F3BA
:10A17000000284F82B2094F82B2063F3820284F8E9
:10A180002B2094F82C2063F3000284F82C2094F800
:10A190002C2063F382029DF8203084F82C2003F0F9
:10A1A0006002602A06D1754B1B68DD0740F1DF8233
:10A1B00000BEDCE2402A0AD1714BC8F8103008AA70
:10A1C0000121284678F0B0FC0028A6D1CFE203F0A8
:10A1D0001F03012B00F03E82022B00F08882002B2F
:10A1E000E1D1202A20D19DF824300F2B00F2BF822C
:10A1F0001E442379717A99420CD2236801EB410104
:10A2000013EBC10100F0B38208AA0C312846FFF716
:10A2100015FCD9E75A1D8A42C0F2A982594AC91AC7
:10A22000182303FB0121EFE7002ABCD19DF8213060
:10A23000092BB8D801A252F823F000BF3FA60200B4
:10A240002DA60200A7A1020019A60200A7A10200E4
:10A2500065A20200CBA40200A7A1020099A20200FD
:10A26000ADA20200DDE90801474BC8E90001D3F8BF
:10A270000014D3F8000400220143C8E90222C3F805
:10A280000014C3F858214FF48002C3F80423637903
:10A2900043F00203637140E7A3798DF8383001235E
:10A2A0000EAA08A9284677F027FE36E79DF8223047
:10A2B0000193019AA3799A4200F08A80A379002B36
:10A2C00042D0324B8022C3F88420BFF34F8FBFF3BC
:10A2D0006F8F0127DFF8B080DFF8C0A0B94607F123
:10A2E0000C03BA1C09FA02F209FA03F31343C8F883
:10A2F0000833BB0003F1804303F51C330021596090
:10A300000AEB471099622022013788F0BFFE082F20
:10A310004FF00001E3D11E4BC8F808332022C8F8E3
:10A320001C151C48C8F82410C8F8481088F0AEFE68
:10A33000C8F81495C8F81095144B80225A60E77934
:10A340002846FFF783FBE771019B002B00F0B780E5
:10A35000114B5A6912B15378022B21D0074B1B685D
:10A36000DA077FF520AF00BE1DE700BF04400020E4
:10A37000DC4B00207040012000000000F0ED00E008
:10A38000292B0A0078C00B000070024000E100E0B9
:10A3900000083000344E0020484A0020344D002090
:10A3A000D379C3F38011C3F340131B0143EA411374
:10A3B000617921F030010B4363715388D31802F1A6
:10A3C00009010293029B8B4209D8B74B002B73D132
:10A3D000019BA37108A9284677F04AFD9DE64B78BA
:10A3E0000B2B03BF0B7891F80390C9184FF00109AC
:10A3F0004B78042BB2D1029B5A1A92B24FF0000A4A
:10A4000037795FFA8AF87B1D9845A7DC47452ED936
:10A410003768182303FB0877002F9FD0BB682846B6
:10A42000CDE9041298470828DDE9041241D9824297
:10A430003FD3B9F1010F0AD1BB689C4A934208BFD0
:10A440004FF002099A4A934208BF4FF002090022D6
:10A45000D3B2994512D8974A084488421AD8954BE6
:10A460001B79053398453FF779AF0146AAE7924B30
:10A47000A8EB0707182000FB0737CFE78F783B448E
:10A4800056FA83F301325F7AFF2F7FF467AF83F8C8
:10A490000980DDE74B78052B08D18F7807F07F0323
:10A4A00002EB430303EBD71383F819800B781944AD
:10A4B000D3E70AF1010AA3E7AFF3008088E77F4BF7
:10A4C000002B85D0AFF3008082E7BDF82200030A9D
:10A4D0005A1EC0B20E2A00F24A81DFE812F00F00C5
:10A4E0001A002B004801480191001A004801480158
:10A4F000480148014801480148011600704A1223EA
:10A5000008A9284677F0F8FC5EE66E4A32F8023970
:10A51000F6E7022B06D16A4B5A69002A3FF443AE94
:10A520005388EDE7684B002B00F02181AFF30080EA
:10A530000246F2E7624E60B1032819D096F8503116
:10A54000834240F21481483006F5AA7156F8200083
:10A5500053E0D6F82031A6F85431012001304300F1
:10A5600043F44072A6F8522103F0FE03574AC7E7AE
:10A57000D6F82C71002F3DD10AA878F045FB0DF1DB
:10A58000280C0346B6463A46D1B28B420EF1040E71
:10A590002DD94F4F0DF1380907F1100A3868796845
:10A5A000C846A8E8030008375745C146F6D11CF84D
:10A5B000018B474F08F00F0112A801440DF1380A32
:10A5C00011F8101CAEF8521179683868D146A9E824
:10A5D0000300404908378F42CA46F5D112A901EB62
:10A5E0001818013218F8101CAEF85011CCE75800BA
:10A5F000C0B2B3E706F5AA713846FFF7ADF9F7E741
:10A60000354B002B00F0B380AFF3008002460028EA
:10A6100000F0AD80037873E7BDF82230012B40F0E5
:10A62000A680637943F008036371D3E6BDF8223056
:10A63000012B40F09C8063796FF3C303F4E76379E7
:10A64000C3F340129B0803F002031343ADF8383004
:10A65000022325E69DF824300F2B00F288801E444B
:10A660002379717A994239D2236801EB410113EBC6
:10A67000C1017CD008AA0C312846FFF7DFF9002879
:10A680007FF44BAD9DF8203013F060036FD19DF83F
:10A690002120A2F10A01012969D80A2AC8F810303C
:10A6A0007FF498AEF9E500BF000000007D2A0A00A3
:10A6B000DD220A00DC4B002078C00B000000000007
:10A6C000484A0020A18F0D00000000009A4B002096
:10A6D0003CC10D004CC10D00000000005A1D8A4213
:10A6E00045DBA24AC91A182303FB0121C2E79DF8E2
:10A6F000240000F07F0CBCF1080F3FF654AD06EBD0
:10A700004C0707EBD01794F804E07F7E77454FEABB
:10A71000D0114FEA4C0A16D2236807EB470703EB28
:10A72000C70712BB9DF8212002F0FD0EBEF1010FFC
:10A7300024D0002A7FF437AD5644314491F82B30B1
:10A74000C3F3400382E70EF10509B945C0F2098160
:10A75000864BA7EB0E074FF0180E0EFB0737002AAB
:10A76000E0D008AA07F10C0150E5002FF9D1002034
:10A7700000F040FD802000F03DFDCEE4BDF822E079
:10A78000BEF1000F2BD1012A3BD106EB0A020A448D
:10A7900025329279930722D510F0770F11D0744AA1
:10A7A00040F4807EC2F80C05C2F80CE5C2F818052A
:10A7B00019B90CF5947C42F82C10BFF36F8FBFF3DE
:10A7C0004F8F5644314491F82B306FF3410381F899
:10A7D0002B3091F82B306FF3000381F82B30002FD2
:10A7E0003FF49BAC08AA07F10C012846FFF726F9B5
:10A7F0000023C8F8103094F82C30DE073FF58DACFC
:10A80000E8E5FFF76FFAEAE79DF8201001F07F070F
:10A8100006EB470606EBD116CA0996F82B006FF334
:10A82000000086F82B0096F82B006FF3820086F864
:10A830002B00002F4FD14F4D9DF81C602B78DDF879
:10A840002480B2EBD31F12D0B8F1000F06D04A4BD0
:10A850001B68DB077FF561AC00BE5EE42B69002B53
:10A860003FF45BAC2A4603213046984755E495F9FE
:10A870000030002B07DBA86800283FF44EAC3F49AE
:10A88000424688F0DBFBAA68EB8942444344AA6055
:10A89000EA889BB29A42EB8102D0B8F13F0F16D8FA
:10A8A0002B696BB995F900300022002B1146B4BF1B
:10A8B00038468020FFF74CFB00287FF42EACC6E71B
:10A8C0002C4A0221304698470028EBD150E7304609
:10A8D00077F0E6FAF0E7737E227993420DD2226890
:10A8E00003EB430312EBC3030FD1234B1B68D807C1
:10A8F00000D500BE13B0BDE8F08F501D9842F4DBC8
:10A900001A489B1A182202FB03031D699DF8212097
:10A91000099B9DF81C00A847FFF7FFBB6379D90787
:10A920007FF5FBAB164B002B3FF4F7AB6079C0F320
:10A93000C000AFF30080FFF7F0BB6379DA077FF563
:10A94000ECAB104B002B3FF4E8ABAFF30080FFF70C
:10A95000E4BB089B002B3FF4E0AB09989847FFF756
:10A96000DCBB002A7FF403AF1746DBE678C00B00A0
:10A970000070024070400120F0ED00E084400120B2
:10A9800000000000000000002DE9F743DFF8D88048
:10A9900098F80030FF2B0646474648D1DFF8CC90A8
:10A9A0003822002109F1050088F070FB09F1480107
:10A9B00001207AF07BFB4D46C9F8400040B9274B97
:10A9C0001B6813F0010F46D1002003B0BDE8F083EF
:10A9D00000230093D8F80820B8F80610B8F804004F
:10A9E00008F110037AF0A2FAD8F80C1004467AF0B5
:10A9F000F3FCC9F844402CB9184B1B68DB07E3D5BE
:10AA000000BEE1E7164B23B1281DAFF30080C9F863
:10AA10000000DFF85C9000244FF018082879E3B2BA
:10AA2000421D934205DD3E700E4B80225A6001208C
:10AA3000CBE7984208D9286808FB030038B9074AD1
:10AA4000126812F0010FBEE71B1A08FB039003689F
:10AA500098470134E2E700BEB7E700BFF0ED00E041
:10AA60000000000000E100E004400020DC4B00207A
:10AA700078C00B002DE9F0470646006988469146EC
:10AA800018B14FF0FF317AF0F9FB33897489B78838
:10AA90009BB2A4B2A34236BFC4EB47051D1BED1801
:10AAA000ADB2F5B1AF4206D2BB422CBFDC1BDC1904
:10AAB000A4B274813D464D4528BF4D46A74229D9D1
:10AAC000F2883168A7EB04091FFA89F9C2F30E0A6C
:10AAD0004D4552460AFB04111FD86A43404688F090
:10AAE000ADFA7389B28899B215FA83F39BB2994291
:10AAF0004FEA420201D8934201DB9B1A9BB23069B4
:10AB0000738120B100231A4619467AF04BFA284681
:10AB1000BDE8F087E41BA4B2D0E719FB0AF91FFADD
:10AB200089F94A46404688F089FAEA1B224412FB1A
:10AB30000AF2316892B208EB0900D0E7F8B5044692
:10AB4000C0680F4616461D4618B14FF0FF317AF027
:10AB500095FB206918B14FF0FF317AF08FFBED03C0
:10AB6000E0682760002345F001056381A680E58049
:10AB7000238118B11A4619467AF014FA206920B1D7
:10AB800000231A4619467AF00DFA0120F8BD38B5AF
:10AB90000446C0680D4618B14FF0FF317AF06EFBE5
:10ABA000206918B14FF0FF317AF068FBE379E06873
:10ABB00065F3C713E37120B100231A4619467AF0F2
:10ABC000F1F9206920B100231A4619467AF0EAF912
:10ABD000012038BD10B50446C06818B14FF0FF31F0
:10ABE0007AF04CFB206918B14FF0FF317AF046FB48
:10ABF000E06800236381238118B11A4619467AF070
:10AC0000D1F9206920B100231A4619467AF0CAF911
:10AC1000012010BD2DE9F84F07468846164642B37D
:10AC2000C06818B14FF0FF317AF028FBFA793D89FE
:10AC30007B89B7F80490D209ADB29BB21CD19D427A
:10AC400039BFC3EB49046419EB1A9CB238BFA4B2F4
:10AC5000A14586BFA9EB0404A4B20024A64228BFE4
:10AC6000264656BBF86820B100231A4619467AF0EA
:10AC700099F93046BDE8F88FF9884E45C1F30E01C9
:10AC800006D3A6EB090601FB06881D464E46E8E7FB
:10AC90009D424FEA490136BFCA1AEA1A521992B2C6
:10ACA00032448A4209DB09EB0305AD1BADB2AB426E
:10ACB00001D8A94201DC6D1AADB22C46A1451DD9BF
:10ACC000FA883868A9EB040A1FFA8AFAC2F30E0B55
:10ACD000B2455A460BFB040014D37243414688F038
:10ACE000ADF97319BA889BB2AB424FEA420201D365
:10ACF000934201DB9B1A9BB23B81B3E7A4EB0904AF
:10AD0000A4B2DBE71AFB0BFA1FFA8AFA5246414655
:10AD100088F094F9A6EB0903234413FB0BF238687F
:10AD200092B208EB0A01DAE78288038940899BB274
:10AD300080B2834236BFC0EB4200181AC01880B2FE
:10AD4000824286BF101A80B2002070470389428970
:10AD500081889BB292B2934236BFC2EB41029B1AEA
:10AD60009B1898B2884228BF0846704770B501F01A
:10AD70007F05082D2A4B2B4C4FEAD11123D00122FD
:10AD800002FA05F0C043A1B905F10C06B240C3F8C0
:10AD90000823D3F814251040C3F8140501EB45012E
:10ADA00004EB01110023CB72BFF36F8FBFF34F8F02
:10ADB00070BDAE1CB240C3F80823D3F81025104074
:10ADC000C3F81005EAE704EB01120020A2F808011D
:10ADD000D1B94FF48012C3F80823D3F8142522F414
:10ADE0008072C3F81425C3F850110D4BB4F8080154
:10ADF0000022C3F81C25B4F81821C24204BF4FF446
:10AE00000012C3F80823C9E74FF40062C3F808230F
:10AE1000D3F8102522F48072C3F81025E5E700BFAF
:10AE200000700240344D002001230360BFF36F8F98
:10AE3000BFF34F8F074B984202D0043B984207D193
:10AE4000BFF35B8F044B002283F82021BFF35B8F9D
:10AE5000704700BF50700240344D002010B40D4BBD
:10AE6000BFF35B8F01464FF00104D3E84F2FC3E8D7
:10AE70004C4FBCF1000FF8D1BFF35B8F12F0FF0F06
:10AE800005D005485DF8044B0122FEF79DBF5DF833
:10AE9000044BC9E7544E00205DAE020043F20403A8
:10AEA00007B51A68094B9A424FF000000AD18DF895
:10AEB00007000DF10700FBF709FE9DF807000038B9
:10AEC00018BF012003B05DF804FB00BFDBE5B15102
:10AED00007B5FFF7E3FF58B1002301A80193FDF781
:10AEE0007CFB0198003818BF012003B05DF804FB1B
:10AEF0004FF08043D3F80C24D3F80C0410F48030C6
:10AF000018BF02F00100F0E701281FB5044600F069
:10AF1000B980022853D0002842D1774BD3F80025BE
:10AF2000002A3DD14FF48002C3F808234FF4006299
:10AF3000C3F80024BFF36F8FBFF34F8F6F4B1B68B5
:10AF4000082B10D16E4B1B68032B0CD86D4AD35CB9
:10AF50004BB16D4B6D4A1868032118BB49F275302F
:10AF6000186011601860FDF73EFB48B1664B684AF7
:10AF70001868C021C0B949F27530186011601860B6
:10AF80005D4B0124C3F80045BFF36F8FBFF34F8FB4
:10AF9000FFF79EFF20B9FFF781FF38B1FDF721FBD6
:10AFA00004B010BD1160DEE71160E9E7594B18608D
:10AFB0001B680193019B4FF080431C60F0E74E4CEF
:10AFC000D4F804351BB1FFF783FF0028E8D1D4F88B
:10AFD00000341B05FBD54FF40063C4F80034BFF305
:10AFE0006F8FBFF34F8FFDF7FEFA48B1464B484ACB
:10AFF0001868002840D149F2753119601060196055
:10B000003E4B1B68082B0FD13D4B1B68032B0BD805
:10B010003C4AD35C43B13C4B3C4A186878BB49F28C
:10B020007531196010601960FDF7DDFA48B13A4BCF
:10B0300040F2E3721A6040225A60BFF36F8FBFF391
:10B040004F8F2D4C354880220121C4F81C25C4F8AF
:10B0500004133349C1F884210078FF2800D04A60E6
:10B06000FFF736FF0028FBD00123C4F80435BFF3F7
:10B070006F8FBFF34F8F93E700231360C0E7002368
:10B080001360D1E71C4BD3F80025002A88D000229A
:10B09000C3F80425BFF36F8FBFF34F8F2049802083
:10B0A000C1F88400BFF34F8FBFF36F8FD3F8001345
:10B0B000C3F80813C3F80025BFF36F8FBFF34F8F9A
:10B0C000FFF7ECFEA0B1FDF78AFA164B5968C1F301
:10B0D000080100230039CDE90133039318BF012192
:10B0E0004FF4007301A8ADF80430FEF797FE57E760
:10B0F0000D4B1C60E9E700BF0070024030010010FA
:10B100003401001008C10B0000EC064014ED0640AD
:10B1100014EC06400001004000780240044000208A
:10B1200000E100E000ED00E004000040F0B42B4A34
:10B13000BFF35B8F02F590734FF00104D3E84F1F0C
:10B14000C3E8454F002DF9D1BFF35B8F11F0FF0F1E
:10B1500014460BD0224B5A68C2F30802003A01464B
:10B16000F0BC204818BF0122FEF72EBE08281E4959
:10B1700019D1D1F8C034D80308D5BFF35B8F0023B1
:10B1800084F82031BFF35B8FF0BC704792F80B015D
:10B190000028F2D0D2F800211448C1F8A027C1F845
:10B1A000A437F0BC40E602EB401500F5947346016D
:10B1B00051F82340EF88AB88DB1B9BB2A4B2A342BB
:10B1C00028BF23469459142202FB0011C1F80047FE
:10B1D000C1F80437064B03EB8000E2E7344D002052
:10B1E00000ED00E03DB202000070024048700240F5
:10B1F0002870024010F07F0108B507D10D4B0122E5
:10B200005A65BFF36F8FBFF34F8F08BD0829F8D081
:10B21000084B40F48072C3F81825C309F1D1064ADF
:10B2200002EB4112907A0028EBD093720846FFF7A8
:10B230007DFFE6E700700240344D0020C0B275E7A4
:10B240000C4B03EB4013D98A9A8A521A198B92B28B
:10B250008A4228BF0A4619691423434303F18043F5
:10B2600003F51C33C3F80016C3F80426024B03EBA6
:10B270008000F3E5344D0020047002402DE9F04FCA
:10B28000C34BC44AD3F80013002385B01C460120E9
:10B290001D4621FA03F6F6070BD552F8236046B196
:10B2A00000FA03F6344342F82350BFF36F8FBFF325
:10B2B0004F8F0133192BECD1E7073BD5B44B01225B
:10B2C000C3F81425C3F8102500221546930003F196
:10B2D000804303F51C330132082A5D609D62F5D17D
:10B2E000AB4B5D629D64C3F85851D3F80024D3F88A
:10B2F00000140A43C3F80024D3F80023C3F808233A
:10B30000A54AC3F80423A54B4FF4927200211846B6
:10B3100087F0BCFE4022028302814FF4807301213A
:10B3200001A8CDE901550395ADF804308DF808501A
:10B33000FEF774FD14F4006F984D08D0944BD3F8C9
:10B34000A8369BB2A5F81631012385F81C31A60258
:10B3500004F4800736D58E4ED6F8143513F4807376
:10B3600008D01FB1D6F80034D80702D40820FFF760
:10B37000DDFE0123D6F81025D10540F15D8195F859
:10B380001C319BB1B5F8163100229BB2CDE90122E8
:10B3900085F81C2103934FF4E0628823012101A862
:10B3A000ADF80420ADF80830FEF738FD0023CDE9F4
:10B3B0000133039301214FF4407301A8ADF8043029
:10B3C000FEF72CFD002F37D0714BD3F8006440F20C
:10B3D00001723240C3F80024F2050DD50121C3F8F3
:10B3E0002C150023CDE90133039301A84FF48063AA
:10B3F000ADF80430FEF712FD77050FD5644B01223E
:10B40000C3F808259A65D3F8002312F4001208BF88
:10B41000C3F854214FF40012C3F80423B0050BD530
:10B420000023CDE90133039301214FF4A06301A868
:10B43000ADF80430FEF7F2FC21023BD5544BD3F8B3
:10B4400080E4D3F88424D3F88814D3F88C74D3F828
:10B450009064D3F894045FFA81FCD3F89814D3F87D
:10B460009C341EF07F0F5FFA8EF8D2B2FFB2F6B2B4
:10B47000C0B2C9B2DBB201D1052A1BD04FF0000E19
:10B48000ADF806E08DF80D004FF4C06E8DF80E108B
:10B4900001A80121ADF804E08DF808808DF809209D
:10B4A0008DF80AC08DF80B708DF80C608DF80F3098
:10B4B000FEF7B4FC3A4B23406BB1BFF35B8F95F8BA
:10B4C0002031BFF35B8F002B40F0BE80354B1B68F3
:10B4D000DA0700D500BEDFF8C480DFF8B490DFF8EB
:10B4E000CCB0474600264FF0140A06F10C0324FAAC
:10B4F00003F3DB07F1B224D50AFB06933A68D3F8CD
:10B50000083705EB461C12FA83F23A60BCF806E0F5
:10B5100098B273449BB2082E4FEA4612ACF806303C
:10B5200000F09A803B89834240F09680BCF8063058
:10B53000B8889BB2984240F28F8011B95846FFF705
:10B540008DFC0136092E07F12007CED1164B234082
:10B55000002B00F089800E4BD3F86C74C3F86C7428
:10B56000BFF36F8FBFF34F8F14F4806408D0D3F80C
:10B570008044D3F880341906C4F3C01440F18D80A0
:10B580004FF00009DFF808A000264FF0140B0FE081
:10B5900000700240007102400514C001344D0020CB
:10B5A000FCFB1F00F0ED00E0000400014C700240C5
:10B5B00027FA06F3DA07F0B201D4D6B9CCB10BFB07
:10B5C00006A3D8F81020D3F8083652FA83F2C8F848
:10B5D000102005EB4612D18A89B251FA83F39BB24F
:10B5E000D382D38AB8F814109BB2994258D9FFF786
:10B5F00027FE0136082E08F12008D9D100240126A3
:10B6000004F1100327FA03F3DB07E0B203D47CB99B
:10B61000B9F1000F0CD005EB44116301CA7A002A7E
:10B6200053D0CA88898892B291424ED9FFF77EFDE5
:10B630000134082CE4D117E0002B7FF4B7AE4FF4AF
:10B640000013C6F80833B1E60023BFF35B8F85F81B
:10B650002031BFF35B8F3EE72A44D37A3BB91C4BC2
:10B660001B68D80700D500BE05B0BDE8F08FD388B1
:10B67000BB800023D372D2884FF4E060CDE9013360
:10B6800092B2ADF804008DF8081001A801210392D0
:10B690008DF80930FEF7C2FB53E74FF0010971E75F
:10B6A000D28A00234FF4E06160F07F00CDE90133DE
:10B6B00092B2ADF804108DF80800012101A80392A0
:10B6C0008DF80930FEF7AAFB93E72B449E72AFE793
:10B6D000F0ED00E0034B43F602229A87002283F844
:10B6E0003E207047584E002010B4114B02209A6B38
:10B6F00083F82C10996883F8300093F83C008A1A7C
:10B700009A6220B942F205049C8783F83E0059B141
:10B7100052B11A7B5DF8044BD20914BF93F82E0086
:10B7200093F82F00FEF7DEBA5DF8044B704700BFB8
:10B73000584E002038B5134C0546607B77F0F6F97B
:10B7400048B942F2077384F83E00A38728460121D6
:10B75000BDE83840C8E7A268A36B94F82F00D21A5E
:10B76000B2F5007F28BF4FF4007292B204F140019D
:10B77000FEF7EEFB20B9044B1B68DB0700D500BECB
:10B7800038BD00BF584E0020F0ED00E008B5FFF7CF
:10B79000A1FFBDE808400121A6E7024840220021A0
:10B7A00087F074BC584E002002484022002187F0E8
:10B7B0006DBC00BF584E00202DE9F041AC4C0D4649
:10B7C00094F8301001298AB0074600F0428103291D
:10B7D00000F07381002945D194F82F20AA4201D0AE
:10B7E000012011E01F2B03D12268A24B9A420ED0F8
:10B7F00094F82E00042384F83030FEF773FA94F89E
:10B800002F00FEF76FFA00200AB0BDE8F0819A4BD6
:10B8100023626368A26884F82C10C4E9093101230B
:10B8200084F83030E37BC4E90D2103F0FD012829C1
:10B830003FD1E18A49BA89B23AB9002900F00381BF
:10B8400002213846FFF750FF0CE0282B27D1207B40
:10B85000C009F5D0A1B38A42F2D3282B25D13846AE
:10B86000FFF794FF94F83030022BB9D194F82E00F2
:10B87000824B00F07F0203EB420303EBD013203333
:10B880009B799B07ACD4A368A26B934240F23B81A7
:10B89000217BC90900F03781FEF724FAA0E72A2BA3
:10B8A000D8D1207BC009D5D0CAE73846FFF742FF80
:10B8B000D8E7A2B1217BC90911D1B2F5007F01D926
:10B8C0000121BEE76E4992B22846FEF741FB0028EF
:10B8D000C8D16C4B1B68DC0795D500BE94E7252BBF
:10B8E00094F80D8006D8192B0ED8032B75D0122B87
:10B8F0003FD093B394F83C30002BE1D142F20502E3
:10B90000A28784F83E30DBE71A3B0B2BF2D801A26A
:10B9100052F823F0C1B9020045B90200F5B802009F
:10B92000F5B80200F5B80200F5B80200F5B802005B
:10B93000F5B80200F5B8020069B90200F5B80200D6
:10B940005BB90200E17C4046C1F3400301F0010213
:10B95000090977F0EEF8002871D194F83C30002BFB
:10B96000C8D1FFF7B7FEC5E70023CDE90133039344
:10B97000F3E7454B424E0021CDE901314FF020382D
:10B980001F231022202105A88DF80830CDE9038857
:10B9900001AD87F07BFBCDF824800FCD0FC60FCD16
:10B9A0000FC62420C6F80080A268002A88D08242F0
:10B9B00028BF02466263324994F82E0092B284E7AF
:10B9C000404677F0B3F880F00103DBB2DB0543F0CB
:10B9D0000303019323640420E6E71222002101A857
:10B9E00087F054FB94F83C0094F83D1094F83E2006
:10B9F0008DF81010F0238DF804304FF0000360F341
:10BA000003038DF806300A238DF80B308DF81120D2
:10BA100001AD0FCD1A4E0FC62B6833801B4BB3B14F
:10BA20004FF40072A6F110014046AFF300800023EE
:10BA30009842A38784F83E30FFF65CAFB4D1A36888
:10BA4000002B7FF43DAF022384F830300AE7122048
:10BA5000EDE7A56BE27B2B44282AA36303D1626B3D
:10BA60009A42F0D9FBE62A2A12D1FFF733FEE8E624
:10BA7000584E00205553424355534253E14B00204A
:10BA8000984E0020F0ED00E000800202000000006F
:10BA9000237BDB0906D142F20502A28784F83E30FF
:10BAA000FFF722FED4E90D329A42CCD21C4B1B6820
:10BAB000DA077FF5D7AE00BED4E694F82E20AA426E
:10BAC0007FF4D0AE0D2B7FF4CDAEE37B282B09D0D5
:10BAD0002A2B14D0134B53B1607B04F10F01AFF349
