:020000022000DC
:106000000000042035AA080075AA0800A1B90800FC
:1060100079AA08007BAA08007DAA080000000000F9
:10602000000000000000000000000000D9A80800E7
:1060300081AA080000000000F9A8080085AA08004D
:1060400069AC080087AA08009D870800D97308007A
:1060500087AA080087AA0800B189080087AA080053
:1060600087AA080087AA080087AA080087AA08004C
:1060700087AA080087AA080087AA080087AA08003C
:1060800087AA080069A6080087AA080087AA08004E
:1060900087AA080087AA0800417A080087AA080092
:1060A00087AA080087AA080087AA080087AA08000C
:1060B00087AA080087AA080000000000000000006E
:1060C00087AA080087AA080087AA08000DB108005F
:1060D00087AA080087AA080087AA0800796F080025
:1060E000A987080087AA080087AA08000000000006
:1060F0000000000087AA0800000000003DB1080071
:10610000000000000000000000000000000000008F
:10611000000000000000000000000000000000007F
:10612000000000000000000000000000000000006F
:10613000000000000000000000000000000000005F
:10614000000000000000000000000000000000004F
:10615000000000000000000000000000000000003F
:10616000000000000000000000000000000000002F
:10617000000000000000000000000000000000001F
:10618000000000000000000000000000000000000F
:1061900000000000000000000000000000000000FF
:1061A00000000000000000000000000000000000EF
:1061B00000000000000000000000000000000000DF
:1061C00000000000000000000000000000000000CF
:1061D00000000000000000000000000000000000BF
:1061E00000000000000000000000000000000000AF
:1061F000000000000000000000000000000000009F
:1062000010B5054C237833B9044B13B10448AFF3F0
:1062100000800123237010BDD04500200000000045
:10622000747A0B0008B5034B1BB103490348AFF365
:10623000008008BD00000000D4450020747A0B00E7
:10624000A3F5803A704700BF174B002B08BF134BD4
:106250009D46FFF7F5FF00218B460F461348144A71
:10626000121A6FF01BFC0E4B002B00D098470D4B01
:10627000002B00D098470020002104000D000D489D
:10628000002802D00C48AFF300806FF0D1FA200054
:10629000290064F011FC6EF0E3FF00BF000008006D
:1062A000000000000000000000000420D045002095
:1062B000B4A3012000000000000000007047022A83
:1062C00006D0032A02D0012A00D1016000207047C5
:1062D0000B680360FAE7F2E7F1E7F0E77047704711
:1062E000008A704741827047817270477047402032
:1062F0007047202070471020704770476FF01800DB
:1063000070476FF0180070476FF0180070477047C3
:10631000002070476FF01800704700207047BBEEF8
:10632000090A704784B004A800E90E006FF0180055
:1063300004B070476FF0180070476FF01800704796
:106340000368D3F8E03018470368D3F8DC30184707
:10635000806D70474AB116290B466FF00800A8BF40
:1063600016238342B8BF034613700931C9B22029EE
:106370002CBF6FF00C000020704783684160194407
:10638000C160704700207047808B70473220704793
:10639000012070477047084A8B8992F8300108B194
:1063A000422B08D0012B05D00A3B012B8CBF0020CB
:1063B0000120704718467047E0870020006A431E9E
:1063C0005842584170470020704747F2305070479C
:1063D0002038704790F83C00831E5842584170475F
:1063E0002038704790F83800831E58425841704753
:1063F0000020704700207047007B704700207047E6
:10640000006A431E584258417047024B93F85801A6
:10641000704700BFE0870020014B93F849017047A7
:10642000E087002000207047203870470020704728
:1064300001207047704700207047024B93F86201BB
:10644000704700BFE0870020704770474B6A032BFE
:1064500001BF034B1B68B3F85030838300207047A3
:1064600094F90020F2E7F1E70020704727E7012ABE
:1064700003D0022A03D0002070470160FBE70B68BD
:106480000360F8E7F3E70068096803689B6818474A
:1064900000207047C0F88011704780ED5F0A704798
:1064A000002070470068096803689B681847006807
:1064B000096803689B6818470068096803689B6857
:1064C000184770477047704720387047203870472A
:1064D00001207047002070470120704770477047C7
:1064E000704770477047007B70475FF0BDBC5FF03E
:1064F000BBBC5FF0B9BC5FF0B7BC10B50C21044663
:1065000064F022FB204610BD10B53421044664F02F
:106510001BFB204610BD10B54468A318436011B1A1
:1065200020466FF093FA012010BD10B54468A318FF
:106530004360084611B121466FF088FA012010BD72
:10654000024B0348198861F03ABA00BF085800208E
:106550004C4B0120024B0348198861F030BA00BF50
:10656000085800204C4B012070B505460C464CB134
:10657000E1682846FFF7F8FFA668204662F020FD94
:106580003446F4E770BD70B505460C464CB1E16881
:106590002846FFF7F8FFA668204662F011FD344652
:1065A000F4E770BD70B505460C464CB1E16828466D
:1065B000FFF7F8FFA668204662F002FD3446F4E7D4
:1065C00070BD70B505460C464CB1E1682846FFF732
:1065D000F8FFA668204662F0F3FC3446F4E770BD8D
:1065E00011B1083062F099BB7047034607B59A684D
:1065F0000191013A08469A606AF066F9019803B081
:106600005DF804EB62F0DCBCF0B501F1200C002574
:106610004FF0000E51F8043B05F001055E1B52F8E7
:10662000043B6EEB4E07F41A67F10005614540F834
:10663000044BEFD105F00100F0BD70B504680546CC
:106640000E46A54207D0A068036831469B6898476C
:1066500010B92468F5E7002070BD034610B41B682C
:106660005C68084611462CB1A4469B685DF8044B53
:106670000122604702205DF8044B7047034610B4C6
:106680001B681C68084611462CB1A4469B685DF83F
:10669000044B0122604702205DF8044B704713B59C
:1066A0000446002135F070FB01AA06212046FFF7C1
:1066B000D4FF50B99DF8043001AA60F345130621B8
:1066C00020468DF80430FFF7D9FF02B010BD13B596
:1066D0000446002135F058FB01AA06212046FFF7A9
:1066E000BCFF50B99DF8043001AA60F3861306215F
:1066F00020468DF80430FFF7C1FF02B010BD10B581
:1067000048B1046954B184680123A047002818BF28
:106710006FF0020010BD6FF00A00FBE76FF004009D
:10672000F8E720B1024B800143F00103184770479E
:1067300020B70900A4DF7047A3DF7047B2DF7047BE
:10674000B1DF7047B0DF704711DF70473DDF704742
:106750003CDF704763DF704762DF7047A8DF704738
:1067600086DF704785DF704781DF704746DF7047FF
:106770008ADF70477ADF7047A0DF7047007D70477F
:10678000407C7047007D7047B5DF704790DF7047F1
:106790008FDF7047AEDF7047ADDF7047ACDF70470B
:1067A000ABDF7047AADF704775DF704774DF704753
:1067B00000231A46194662F05DBD4FF0FF3162F0CA
:1067C000C5BE30B5294C05469DB0206DFFF7F5FFDD
:1067D00094F84C30019525467BB1254801AB02AABF
:1067E00006A908F089FB044678B1286DFFF7E0FFA1
:1067F000B4FA84F040091DB030BD04F10C0007F07C
:10680000F6FF04460028E8D0EFE79DF80C30222B75
:1068100016D0174802AA06A908F030FA0446002844
:10682000E3D19DF80C30222BDFD1114806AA12A922
:1068300007F00AFF041ED8DB0BD10E4845F076F9AD
:106840000B4804AA11A907F096FA04460028E0D0E4
:10685000CBE71A9B0F931B9B1093002304481A4607
:1068600006A908F08FF80446BFE700BFB04E00202D
:10687000BC4E0020EAB2090012DF70474B1E062B07
:1068800088BF0A46817A98BF08220231D208C9B26D
:1068900038F0FEBB4B1E062B88BF0A46417A98BFD4
:1068A00008220231D208C9B238F0F2BB4B1E062BC7
:1068B00088BF0A46017A98BF08220231D208C9B2BD
:1068C00038F0E6BB30B5044685B00A200D4662F0CC
:1068D00030FB0A4B009303210023CDE901130393FE
:1068E000207923686A462FF079F800B220B929464A
:1068F000684633F0B6F900B205B030BD90FB002019
:1069000030B5044685B001200D4662F012FB0A4BFB
:10691000009303210023CDE9011303932079236819
:106920006A462FF05BF800B220B92946684633F07A
:1069300098F900B205B030BDC40C012038B5437AD7
:1069400004460D460BB93AF07EFD20460322802115
:106950003AF012FDE27A20462A4381213AF00CFDFA
:1069600025732046BDE838403AF01DBD38B5437A5E
:1069700004460D460BB93AF066FD204603228021FD
:106980003AF0FAFC227B20462A4381213AF0F4FCBB
:10699000E5722046BDE838403AF005BD38B51546E9
:1069A0001A4650B1C368AB420AD344682B46A0478D
:1069B000002818BF6FF0020038BD6FF00A00FBE737
:1069C0006FF00400F8E738B5437C04460D4673B118
:1069D000204631F0C1FD227A657220462A43A1216A
:1069E00031F05EFD2046BDE8384031F06ABD034914
:1069F00031F07AFD0028EBD138BD00BF102B01200B
:106A000038B5437C04460D4673B1204631F0A4FDF1
:106A1000627A257220462A43A12131F041FD2046A9
:106A2000BDE8384031F04DBD024931F05DFD002830
:106A3000EBD138BD102B01201FB504688DF80C1068
:106A4000ACB103230021CDE9003103AB012219468B
:106A5000204609F0E4F89DF80D309DF80C001B026B
:106A600043EA00439DF80E00184304B010BD032311
:106A7000FF22CDE9003203AB01221946406836F00F
:106A80004BFFE8E71FB504688DF80C108CB10223AA
:106A90000021CDE9003103AB01221946204609F05F
:106AA000BEF89DF80C009DF80D3043EA002004B0BC
:106AB00010BD0223FF22CDE9003203AB01221946AB
:106AC000406836F029FFECE708B5FFF7DBFF40BA76
:106AD00080B208BD1FB504688DF80C1064B10023A6
:106AE0000122CDE9002303AB1946204609F097F8AF
:106AF0009DF80C0004B010BD0122FF23CDE9002356
:106B000003AB1946406836F007FFF1E71FB504688C
:106B10008DF80D2064B10023CDE900338DF80C1001
:106B20000123022203A9204609F049F804B010BD50
:106B300001F07F0100948DF80C102346022203A976
:106B4000406836F00DFFF1E70078C0F3C20300F0B3
:106B500007029B0043EA421343EA901070471FB5B7
:106B600044688DF80C10ACB103230021CDE900314D
:106B700003AB01221946204609F051F89DF80D306B
:106B80009DF80C001B0243EA00439DF80E001843D9
:106B900004B010BD0323FF22CDE9003203AB012274
:106BA0001946806836F0B8FEE8E71FB544688DF8EE
:106BB0000C109CB102230021CDE9003103AB01226E
:106BC0001946204609F02BF89DF80C309DF80D0071
:106BD00040EA032040BA80B204B010BD0223FF2275
:106BE000CDE9003203AB01221946806836F094FEED
:106BF000EAE71FB544688DF80C1064B10023012248
:106C0000CDE9002303AB1946204609F008F89DF8AA
:106C10000C0004B010BD0122FF23CDE9002303AB1B
:106C20001946806836F078FEF1E71FB544688DF8A4
:106C30000D2064B10023CDE900338DF80C10012341
:106C4000022203A9204608F0BAFF04B010BD01F0EB
:106C50007F0100948DF80C102346022203A980685E
:106C600036F07EFEF1E7836903B118471846704796
:106C70000378642223F0020303704068B0FBF2F053
:106C8000B0FBF2F302FB1300C0B27047037C0BB9F8
:106C900003707047836843600378C16043F0030367
:106CA0000370002303747047037819B143F00403A1
:106CB0000370704703F0FB03FAE770474BDF704740
:106CC00033DF704732DF7047BFF34F8F0549064B04
:106CD000CA6802F4E0621343CB60BFF34F8F00BF7A
:106CE000FDE700BF00ED00E00400FA0538B50446FA
:106CF0000068844204D0056862F062F92846F8E72B
:106D000038BD10B5044613F075FE08B123888381A1
:106D100010BD425C0144487840EA022070470B4BAA
:106D200010B51C680EF000FE236801461B68204663
:106D30009847044640B10BF077FE28B194F82D3007
:106D400013B104F12D0010BD0148FCE7B0950020FF
:106D5000EEB20900034B1A79062A0CBF93F898008B
:106D60000020704778920020064B187900F0FB0352
:106D7000022B04D0A0F10B03584258417047012068
:106D8000704700BF78920020094B10B51C6864B1B1
:106D900060680EF0B3FD38B194F8640194F86E3178
:106DA00098422CBF0020012010BD2046FCE700BF08
:106DB0001CF4002010B50446006869F0F1FD206065
:106DC000204610BD38B5044608200D4663F0B6FED7
:106DD0002B68436023680360206038BD70B50546AA
:106DE0000C464CB1E1682846FFF7F8FFA66820463C
:106DF00062F0E6F83446F4E770BD10B5044600686A
:106E000069F0A8FD2060204610BD8B6873B516465A
:106E100004460D1D01225BB130681A69904234BFEF
:106E20009868D8681D4634BF012200220346F2E765
:106E3000019552B1CA68AA4204D1C4E9003520467E
:106E400002B070BD01A8FFF7B5FF019A3368116960
:106E500099424FF00003F0D3C4E90023EFE770B587
:106E600005460C464CB1E1682846FFF7F8FFA668D6
:106E7000204662F0A5F83446F4E770BD38B5044604
:106E80000C200D4663F05AFE2B688360214669F0A2
:106E900014FDA3680133A36038BD38B504460C2047
:106EA0000D4663F04BFE2B688360214669F005FDBB
:106EB000A3680133A36038BD70B5046805460E466B
:106EC000AC4207D0A068036831469B68984710B968
:106ED0002468F5E7002070BD8B6873B5164604463C
:106EE0000D1D01225BB130881A8A904234BF986828
:106EF000D8681D4634BF012200220346F2E70195FF
:106F000052B1CA68AA4204D1C4E90035204602B091
:106F100070BD01A8FFF74EFF019A3388118A99428C
:106F20004FF00003F0D3C4E90023EFE78B6873B59B
:106F3000164604460D1D01225BB130881A8A904224
:106F400034BF9868D8681D4634BF0122002203462A
:106F5000F2E7019552B1CA68AA4204D1C4E90035EA
:106F6000204602B070BD01A8FFF724FF019A3388C4
:106F7000118A99424FF00003F0D3C4E90023EFE7F0
:106F800070B505460C464CB1E1682846FFF7F8FF9E
:106F9000A668204662F014F83446F4E770BD10B5D8
:106FA0000C4650B121F06EFB38B1043050E8003F80
:106FB000234440E80032002AF8D110BD10B5013852
:106FC000029C0F2800F28480DFE800F05E82362801
:106FD0001A1458084A6D7073797D8044DFED427A47
:106FE0009FED427A002908BFF0EE477AC2ED007AA1
:106FF000052261E0DFED3E7A9FED3E7A0029F2E75F
:10700000DFED3B7A9FED3B7A002908BFF0EE477A2F
:10701000C2ED007A05222270082242E0DFED347AC8
:107020009FED347A002908BFF0EE477AC2ED007A6E
:1070300005222270092234E0DFED2D7A9FED2D7AB2
:10704000002908BFF0EE477AC2ED007A05222270CF
:107050000A2226E0DFED247A9FED247A0029E2E778
:10706000DFED217A9FED217A002908BFF0EE477A03
:10707000C2ED007A082222700B2212E0DFED1E7AA8
:107080009FED1E7A0029F0E7DFED1B7A9FED1B7A5A
:10709000002908BFF0EE477AC2ED007A082222707C
:1070A0000C221A7010BD16491160C1E71449116015
:1070B000CCE714491160062222700722F1E711493A
:1070C00011600622A7E71049116091E70E49F7E722
:1070D000DFED077A9FED077A002908BFF0EE477AC7
:1070E000C2ED007A0522C6E70020CB440000FA4337
:1070F00000204B4400007A430020CB430000FA42BA
:107100000000FA4200007A429A997941F8B50D469A
:107110000168044606468C420FD08A682B680F68C7
:107120009A4208D101F108039D4203D02046FFF79F
:107130005CFA00E00E463946EDE7B44205D0314630
:107140002046BDE8F840FFF750BAF8BDF8B50D4647
:107150000168044606468C420FD08A682B680F6887
:107160009A4208D101F108039D4203D02046FFF75F
:107170003CFA00E00E463946EDE7B44205D0314610
:107180002046BDE8F840FFF730BAF8BD2DE9F047DA
:10719000D0E90487436AD0E902A904463D1D1E1DBB
:1071A000AE4204D955F8040B61F00AFFF8E7C4E9D0
:1071B00006A9C4E90887BDE8F0872DE9F047D0E9C2
:1071C0000487436AD0E902A904463D1D1E1DAE4254
:1071D00004D955F8040B61F0F3FEF8E7C4E906A9F9
:1071E000C4E90887BDE8F087036870B5044663B159
:1071F000436A45691E1DAE4204D955F8040B61F07F
:10720000DFFEF8E7206861F0DBFE204670BD036812
:1072100070B5044663B1436A45691E1DAE4204D988
:1072200055F8040B61F0CCFEF8E7206861F0C8FE69
:10723000204670BD50F8183B834202D0184661F0DA
:10724000BFBE704710B50446FFF750FD0023C4E9E8
:107250000044A36010BDD0E90032934218BF4360E0
:107260007047B0F1005F08B501D369F0DBFCBDE801
:107270000840800063F062BC08B161F0A1BE7047B5
:10728000026962B1836850F82310013303F00103EF
:1072900048BF5B42013A836002610846704711466D
:1072A000FBE7826A10B582B1036A50F823400133CC
:1072B000594201F0070103F0070302F1FF3258BF02
:1072C0004B4203628262204610BD1446FBE702690E
:1072D00062B1836850F82310013303F0010348BF03
:1072E0005B42013A83600261084670471146FBE742
:1072F000826C10B582B1036C50F8234001335942BF
:1073000001F00F0103F00F0302F1FF3258BF4B42AF
:1073100003648264204610BD1446FBE70146014821
:1073200013F08EBBF89B00202DE9F347CB68DFF804
:10733000649001930E1D07460C4635464FF0FF380A
:10734000DDF804A0564510D0DAF81010D9F8043052
:10735000994206D038460EF0B5F9804584BF5546AF
:10736000804601A8FFF749FDEAE7AE4210D001A828
:107370000195FFF742FD3146284669F06FFB61F049
:107380001FFE6369013B6361012002B0BDE8F08725
:107390000020FAE75C8B00202DE9F347CB68DFF88B
:1073A000649001930E1D07460C4635464FF0FF389A
:1073B000DDF804A0564510D0DAF81010D9F80430E2
:1073C000994206D038460EF07DF9804584BF554677
:1073D000804601A8FFF711FDEAE7AE4210D001A8F0
:1073E0000195FFF70AFD3146284669F037FB61F049
:1073F000E7FD6369013B6361012002B0BDE8F087EE
:107400000020FAE75C8B00202DE9F347CB68DFF81A
:10741000649001930E1D07460C4635464FF0FF3829
:10742000DDF804A0564510D0DAF81010D9F8043071
:10743000994206D038460EF045F9804584BF55463E
:10744000804601A8FFF7D9FCEAE7AE4210D001A8B8
:107450000195FFF7D2FC3146284669F0FFFA61F04A
:10746000AFFD6369013B6361012002B0BDE8F087B5
:107470000020FAE75C8B00202DE9F347CB68DFF8AA
:10748000649001930E1D07460C4635464FF0FF38B9
:10749000DDF804A0564510D0DAF81010D9F8043001
:1074A000994206D038460EF00DF9804584BF554606
:1074B000804601A8FFF7A1FCEAE7AE4210D001A880
:1074C0000195FFF79AFC3146284669F0C7FA61F04A
:1074D00077FD6369013B6361012002B0BDE8F0877D
:1074E0000020FAE75C8B00208B6873B516460446D3
:1074F0000D1D01225BB130681A69904234BF986853
:10750000D8681D4634BF012200220346F2E70195E8
:1075100052B1CA68AA4204D1C4E90035204602B07B
:1075200070BD01A8FFF746FC019A336811699942C2
:107530004FF00003F0D3C4E90023EFE78B6873B585
:10754000164604460D1D01225BB130681A6990424F
:1075500034BF9868D8681D4634BF01220022034614
:10756000F2E7019552B1CA68AA4204D1C4E90035D4
:10757000204602B070BD01A8FFF71CFC019A3368D9
:10758000116999424FF00003F0D3C4E90023EFE7FB
:107590008B6873B5164604460D1D01225BB1306839
:1075A0001A69904234BF9868D8681D4634BF0122DA
:1075B00000220346F2E7019552B1CA68AA4204D1FB
:1075C000C4E90035204602B070BD01A8FFF7F2FB08
:1075D000019A3368116999424FF00003F0D3C4E96E
:1075E0000023EFE78B6873B5164604460D1D012294
:1075F0005BB130681A69904234BF9868D8681D46FC
:1076000034BF012200220346F2E7019552B1CA6855
:10761000AA4204D1C4E90035204602B070BD01A8D9
:10762000FFF7C8FB019A3368116999424FF00003D4
:10763000F0D3C4E90023EFE730B5031D8268184694
:107640003AB115690C68A5422ABF1046D268926803
:10765000F6E7834204D009680269914238BF1846B0
:1076600030BD30B5031D826818463AB115690C6803
:10767000A5422ABF1046D2689268F6E7834204D03A
:1076800009680269914238BF184630BD30B5031D04
:10769000826818463AB115690C68A5422ABF10469F
:1076A000D2689268F6E7834204D009680269914281
:1076B00038BF184630BD30B5031D826818463AB150
:1076C00015690C68A5422ABF1046D2689268F6E791
:1076D000834204D009680269914238BF184630BD20
:1076E00037B54B690192272B05460C460AD901A9EB
:1076F0002046FFF7E0FF231D834203D121462846A1
:10770000FFF7BAFE03B030BD10B581680446FEF73E
:107710002BFF0023221DC4E90322A360636110BD77
:1077200010B581680446FEF72EFF0023221DC4E930
:107730000322A360636110BD10B581680446FEF7A3
:1077400031FF0023221DC4E90322A360636110BD41
:1077500010B581680446FEF734FF0023221DC4E9FA
:107760000322A360636110BD2DE9F84300F1040911
:10777000846805464E46ECB123690868834204D20A
:10778000E368344626461C46F5E7A368FAD8E26863
:1077900043B1196988428ABFD968996823461C4653
:1077A0000B46F5E73AB11369984236BF1646D268E0
:1077B0009268F7E73446EB68D5F81480A34209D104
:1077C000B14507D12846FFF7C3FF6869A8EB000061
:1077D000BDE8F883A642F8D0204669F0CEF84946C5
:1077E0000746204669F03AF961F0EAFB6B69013B14
:1077F0006B613C46EEE708B161F0E2BB7047B0F167
:10780000005F13B501D369F00DFA820010460192B2
:1078100063F094F9019A002104466EF03FF9204686
:1078200002B010BD42680B4604318A4210B50446CE
:1078300004D01846521A6EF017F903466268043AEB
:107840006260184610BD10B103685B681847704746
:1078500010B103681B691847704710B103685B6873
:1078600018477047036801600BB11846F5E7704789
:1078700010B103685B681847704770B505460C4641
:107880004CB1E1682846FFF7F8FFA668204661F092
:1078900097FB3446F4E770BD70B5046805460E46A4
:1078A000AC4207D0A068036831469B68984710B97E
:1078B0002468F5E7002070BD10B50378DB070446A7
:1078C00004D561F02BFBE368C01A10BD4FF0FF3008
:1078D000FBE72DE9F0431546074687B0142089469B
:1078E00063F02CF92B6807F1040819780174002360
:1078F000C845064600F11002437483744C460CD10F
:107900007B691BB13D692B7C8B4223D3394604A88C
:1079100015F04BFCDDE9044518E099F810000192E0
:1079200088422DD9FB68CDF80C904B4526D003A892
:10793000FFF740FA0368019A197C337C9942E5D23B
:10794000039DEB68002B0CBF00244D46002D37D063
:10795000002C33D1454531D0307C2B7C98422CBF54
:107960000020012043462A46314669F01BF87B6916
:1079700001337B61304607B0BDE8F0834D46E5E753
:107980001ED23969CDF80C9049450DD003A8FFF7F8
:1079900034FA0368317C1B7C019A994207D2D9F8EA
:1079A0000C300BB1039B1C4625461C46CEE73946DE
:1079B00004A815F0FAFBDDE90434F5E70120D1E76E
:1079C000304661F0FDFA2046D5E710B503463BB1DD
:1079D0001C7C107884422ABF1946DB689B68F6E756
:1079E000084610BD73B5044616460D4619B912B1C6
:1079F0000D4869F01AF9731B0F2B019307D9002268
:107A000001A9204669F016FB019B2060A360324665
:107A10002946206869F04DFB019B226863600021C4
:107A2000D15402B070BD00BFF2B20900FFF7DABF57
:107A300008B5064B064A1868064900F61C7009F09E
:107A400099FABDE808400E200AF0E8BA402001206B
:107A50001CB3090035B3090070B5046805460E462D
:107A6000AC4207D0A068036831469B68984710B9BC
:107A70002468F5E7002070BD10B50B4904460B489B
:107A8000FFF7EAFF68B123681D2B0BD80133236091
:107A9000074B084A1868084900F61C7009F06AFA92
:107AA000012010BD0020FCE77CE709007C0D0120CF
:107AB000402001203BB3090058B3090070B50468A9
:107AC00005460E46AC4207D0A068036831469B6865
:107AD000984710B92468F5E7002070BD44DF70476F
:107AE00043DF704742DF7047064B1868043B1B6852
:107AF000082B04D103288CBF0020012070470020F0
:107B0000704700BF34010010024B1B68DB0700D533
:107B100000BE7047F0ED00E0034B1B68DB0700D5AB
:107B200000BE0020704700BFF0ED00E0014B93F86D
:107B300058017047E0870020014B93F849017047D6
:107B4000E0870020014B93F862017047E087002036
:107B50002DE9F041C84EC94BC94DDFF8DC833046F2
:107B600086B0442240F80C3B002100246DF096FFC3
:107B7000C44BB360347106F15401012061F0FEFB87
:107B8000C14B30653360C14AC149304668F090FE50
:107B90002346224621460094BE4860F0CBF8234697
:107BA000224621460094BC4860F0C4F82346224691
:107BB00021460094B94860F0BDF82346224621468C
:107BC0000094B74860F0B6F8234622462146009458
:107BD000B44860F0AFF82346224621460094B248EC
:107BE00060F0A8F82346224621460094AF4860F092
:107BF000A1F82346224621460094AD4860F09AF849
:107C0000AC4860F08FF82346224621460094AA48EB
:107C100060F090F82346224621460094A74860F081
:107C200089F8A748994AA749C0F884404FF40053FF
:107C3000A0F88030A44BC0F88830A0F89C4068F0D1
:107C400037FEA24BA248DC600822C3E901441A7047
:107C50001C82A04BA04A1C705C70A04B01271A60CC
:107C60009F4A1F71D2F8B4101973D2F8AC109973EF
:107C7000D2F8B0105973DC731C829C60994B9A49FE
:107C80001C711960516F1973D1689973926F9C6060
:107C90005A73DC731C82224623462146009460F00E
:107CA00049F819232B614FF47A732B62C5E90C4410
:107CB000AC60AC81AC73AC82EC61C5F81880AE628C
:107CC00085F82C402146C5E90055802205F17C004D
:107CD00085F8384085F878406DF0E0FE214688222E
:107CE00005F1FC006DF0DAFE684A8049284668F02C
:107CF000DFFD23462246214600947D4860F01AF8B5
:107D000023462246214600947A4860F013F87A48C8
:107D10005E4A7A498460C0E9000068F0C9FD78488D
:107D20005A4A76498460C0E9000068F0C1FD754890
:107D3000564A72498460C0E9000068F0B9FD2346E4
:107D400022462146009470485FF0F4FF2346224605
:107D5000214600946D485FF0EDFF23462246214600
:107D600000946B485FF0E6FF2346224621460094CC
:107D700068485FF0DFFF23462246214600946648AC
:107D80005FF0D8FF234622462146009463485FF007
:107D9000D1FF234622462146009461485FF0CAFF86
:107DA00023462246214600945E485FF0C3FF2346E7
:107DB0002246214600945C485FF0BCFF5B485DF0C2
:107DC0005BF9324A5A49594868F072FD2346224607
:107DD0002146009457485FF0ADFF4FF4A47062F065
:107DE000ADFE08F124030546214640F8043B20225D
:107DF0006DF054FE6C622146102205F128006DF0F2
:107E00004DFE2146212205F138006DF047FE214646
:107E1000202205F159006DF041FE2146202205F196
:107E200079006DF03BFE2146C5F89C40202205F10B
:107E3000A0006DF033FE85F8C04005F1C4005DF090
:107E40001BF92146202205F1C8006DF027FE2146CE
:107E5000202205F1E8006DF021FE2146202205F5E3
:107E600084706DF01BFE2146202205F594706DF0A4
:107E700015FE08F1680361E0B04E0020CCEB09006C
:107E800020F4002064400020DCEB090000400020CA
:107E900085FA020058FB002040FA0020540C012013
:107EA00044FB00205C0C0120740C01207C0C0120A0
:107EB000C4FA002048FA0020840C012044830020EA
:107EC000B4950020C59F030080EE360034FC0020EE
:107ED000A4F50020400D012000F002404C0D0120CF
:107EE0008C480B00600D0120003002405BC803008D
:107EF000740D0120940D01207C0D0120C9B90600EC
:107F0000880D01209C0D0120A80D0120B00D01203D
:107F1000B80D0120C00D0120D80D0120E40D012075
:107F2000EC0D0120F40D0120FC0D0120040E0120B8
:107F30006B500800080E012078B309002B60BC4B81
:107F4000BC481D60224623462146009408F1AC0639
:107F50005FF0F0FEB84BB948049302A902968DF881
:107F60000E40ADF80C40059436F0F8F8B44AB54927
:107F7000B248B54D68F09CFCB44BB548049302A9D7
:107F800002968DF80E40ADF80C40059405F090FB7C
:107F9000AB4AB049AE4868F08BFCAF4BAF48049396
:107FA00002A902968DF80E40ADF80C40059405F03C
:107FB0007FFBA34AA749A94868F07AFCA84BA948C7
:107FC000049302A902968DF80E40ADF80C4005947A
:107FD00005F06EFB9A4A9F49A24868F069FCA24BE3
:107FE000A248049302A902968DF80E40ADF80C4009
:107FF000059405F05DFB924A96499C4868F058FC50
:1080000041F60A0302A92846CDE904440296ADF8D8
:108010000C308DF80E7036F0A1F8284608F1BC033C
:10802000214640F8183B24226DF038FD904BEB615F
:108030001523C5E90F4485F83D308E4BEB620523CF
:1080400085F841308C4B2B63132385F8444085F829
:1080500042302846894D7A4A894968F029FC41F620
:108060000F0302A92846CDE904440296ADF80C306E
:108070008DF80E7036F072F8284608F1D00340F8FB
:10808000183B02A942F61923ADF80C30CDE904449F
:1080900002968DF80E7005F00BFB2846794D684A64
:1080A000794968F005FC794B029602A928460493A9
:1080B0008DF80E40ADF80C40059436F04FF8284688
:1080C00008F1E40340F8183B02A9714B04930296AF
:1080D0008DF80E40ADF80C40059405F0E9FA584AC9
:1080E0006C496D4E284668F0E3FB23462246214644
:1080F00000946A486A4D5FF01DFE234622462146E1
:10810000009468485FF016FE2346224621460094FC
:1081100065485FF00FFE23462246214600946348DF
:108120005FF008FE234622462146009460485FF037
:1081300001FE23462246214600945E485FF0FAFD88
:1081400023462246214600945B485FF0F3FD234618
:1081500022462146009459485FF0ECFD2346224612
:108160002146009456485FF0E5FD2346224621460D
:10817000009454485FF0DEFD2346224621460094D9
:1081800051485FF0D7FD23462246214600944F48D0
:108190005FF0D0FD23462246214600944C485FF014
:1081A000C9FD23462246214600944A485FF0C2FD9D
:1081B000234622462146009447485FF0BBFD2346F4
:1081C00022462146009445485FF0B4FD23462246EE
:1081D0002146009442485FF0ADFD234622462146E9
:1081E000009440485FF0A6FD3F485CF045FF144A0C
:1081F0003E493D4868F05CFB3D485CF03DFF104A5D
:108200003A493B4868F054FB2346224621460094F5
:1082100038485FF08FFD23462246214600943648B9
:108220005FF088FD234622462146009466E000BFA9
:10823000100E0120A05B002011480B008058002088
:1082400000400020971903000859002022480B0025
:10825000FC520020D5D6020032480B00B057002057
:1082600000480B0050590020EF470B0054530020EA
:10827000A1490B00FCB1090002B209000C58002012
:10828000951903009858002099190300C1B70A00F6
:10829000D1B70A009B190300B8170120E0FA0020AB
:1082A00038170120140E01201C0E0120240E01207D
:1082B0002C0E0120340E01203C0E0120440E012022
:1082C0004C0E0120540E01205C0E0120640E012092
:1082D000688500206C0E0120740E01207C0E0120A8
:1082E000840E012010FC002018FC00206B500800B8
:1082F0001CFC00208C0E0120940E0120C5485FF06C
:1083000019FD2346224621460094C3485FF012FD22
:108310002346224621460094C0485FF00BFD2346C9
:10832000224621460094BE485FF004FD23462246C3
:1083300021460094BB485FF0FDFC234622462146BF
:108340000094B9485FF0F6FC23462246214600948B
:10835000B6485FF0EFFC2346224621460094B4481D
:108360005FF0E8FC2346224621460094B1485FF0C6
:10837000E1FC2346224621460094AF485FF0DAFC38
:108380002346224621460094AC485FF0D3FC2346A6
:10839000224621460094AA485FF0CCFC23462246A0
:1083A00021460094A7485FF0C5FC2346224621469B
:1083B0000094A5485FF0BEFC234622462146009467
:1083C000A2485FF0B7FC2346224621460094A0480D
:1083D0005FF0B0FC23462246214600949D485FF0A2
:1083E000A9FC23462246214600949B485FF0A2FC4C
:1083F000234622462146009498485FF09BFC234682
:1084000022462146009496485FF094FC234622467B
:108410002146009493485FF08DFC23462246214676
:10842000009491485FF086FC234622462146009442
:108430008E485FF07FFC23462246214600948C48FC
:108440005FF078FC234622462146009489485FF07D
:1084500071FC234622462146009487485FF06AFC5F
:10846000234622462146009484485FF063FC23465D
:1084700022462146009482485FF05CFC2346224657
:10848000214600947F485FF055FC23462246214652
:1084900000947D485FF04EFC23462246214600941E
:1084A0007A485FF047FC23462246214600947848EC
:1084B0005FF040FC234622462146009475485FF059
:1084C00039FC234622462146009473485FF032FC73
:1084D000234622462146009470485FF02BFC234639
:1084E0002246214600946E485FF024FC2346224633
:1084F000214600946B485FF01DFC2346224621462E
:10850000009469485FF016FC2346224621460094F9
:1085100066485FF00FFC23462246214600946448DB
:108520005FF008FC234622462146009461485FF034
:1085300001FC23462246214600945F485FF0FAFB87
:1085400023462246214600945C485FF0F3FB234615
:108550002246214600945A485FF0ECFB234622460F
:108560002146009457485FF0E5FB2346224621460A
:10857000009455485FF0DEFB2346224621460094D6
:1085800052485FF0D7FB23462246214600945048CC
:108590005FF0D0FB23462246214600944D485FF011
:1085A000C9FB23462246214600944B485FF0C2FB9C
:1085B000234622462146009448485FF0BBFB2346F1
:1085C00022462146009446485FF0B4FB23462246EB
:1085D0002146009443485FF0ADFB234622462146E6
:1085E000009441485FF0A6FB2346224621460094B2
:1085F0003E485FF09FFB23462246214600943C48BC
:108600005FF098FB234622462146009439485FF0EC
:1086100091FB71E09C0E0120A40E0120AC0E012004
:10862000B80E0120C40E0120D00E0120D80E01206A
:10863000E00E0120E80E0120F00E0120F80E0120CE
:10864000000F0120080F0120100F0120180F01203A
:1086500004FC0020F8FB0020200F01202C0F01203B
:10866000340F01203C0F0120440F01204C0F01204A
:10867000540F01205C0F0120640F01206C0F0120BA
:10868000C8F50020740F01207C0F0120840F012009
:108690008C0F0120940F01209C0F0120A40F0120BA
:1086A000AC0F0120BC0F0120C40F0120CC0F012012
:1086B000D40F0120DC0F0120E80F0120F00F012072
:1086C000F80F0120001001200810012010100120D7
:1086D0001810012020100120D8FB002028100120B4
:1086E0003010012038100120401001204C100120D2
:1086F000541001205C10012023462246214600949C
:10870000C1485FF017FB2346224621460094BF482C
:108710005FF010FB2346224621460094BC485FF0E0
:1087200009FB2346224621460094BA485FF002FB2B
:108730002346224621460094B7485FF0FBFA2346C1
:10874000224621460094B5485FF0F4FA23462246BB
:1087500021460094B2485FF0EDFA234622462146B6
:108760000094B0485FF0E6FA234622462146009482
:10877000AD485FF0DFFA2346224621460094AB481D
:108780005FF0D8FAAA48AB4AAB49046068F090F8A9
:108790002346224621460094A8485FF0CBFA2346A0
:1087A000224621460094A6485FF0C4FAA548A14A93
:1087B000A149046068F07CF82346224621460094D3
:1087C000A1485FF0B7FA23462246214600949F480D
:1087D0005FF0B0FA23462246214600949C485FF0A1
:1087E000A9FA23462246214600949A485FF0A2FA4D
:1087F000234622462146009497485FF09BFA234681
:1088000022462146009495485FF094FA234622467A
:108810002146009492485FF08DFA23462246214675
:10882000009490485FF086FA234622462146009441
:108830008D485FF07FFA23462246214600948B48FC
:108840005FF078FA234622462146009488485FF07C
:1088500071FA234622462146009486485FF06AFA60
:10886000234622462146009483485FF063FA23465C
:1088700022462146009481485FF05CFA2346224656
:10888000214600947E485FF055FA23462246214651
:1088900000947C485FF04EFA23462246214600941D
:1088A00079485FF047FA23462246214600947748EC
:1088B0005FF040FA234622462146009474485FF058
:1088C00039FA234622462146009472485FF032FA74
:1088D00023462246214600946F485FF02BFA234638
:1088E0002246214600946D485FF024FA2346224632
:1088F000214600946A485FF01DFA2346224621462D
:10890000009468485FF016FA2346224621460094F8
:1089100065485FF00FFA23462246214600946348DB
:108920005FF008FA234622462146009460485FF033
:1089300001FA23462246214600945E485FF0FAF988
:1089400023462246214600945B485FF0F3F9234614
:1089500022462146009459485FF0ECF92246214610
:108960002346009456485FF0E5F9304652F03CFB50
:10897000544B2C71AB6005F10C005FF0D3F940F261
:108980003953C5E905344EF66023C5E907342E6036
:108990004D4B4E4EAB606C624D4D304652F024FB59
:1089A00028465FF0BFF94B4A45F8046CC5E904223C
:1089B0004FF47F02AC60AC81AA6123462246214677
:1089C00000944548454D5FF0B5F9234622462146BF
:1089D000009443485FF0AEF92346224621460094B6
:1089E00040485FF0A7F923462246214600943E48BE
:1089F0005FF0A0F90F4A3D493D4867F059FF234613
:108A000022462146009475E0641001206C1001207C
:108A1000741001207C100120841001208C10012092
:108A2000E0FB0020941001209C100120CCFB0020D2
:108A3000C8FB002000400020E34D0500C0FB0020E3
:108A400088FB002084FB0020A4100120B01001202E
:108A5000B8100120C41001201413012054960020E6
:108A60001C130120241301202C1301203413012096
:108A70003C130120FCFA0020441301204C13012078
:108A800078FB002058130120581601206CFB0020B1
:108A9000C4160120D0160120D8160120E0160120AE
:108AA00060FB0020FC160120041701204CFB002075
:108AB0001017012018170120201701202817012066
:108AC000B017012020020A009F930020DC1701202C
:108AD000941701204E7A0B0004180120F89B002007
:108AE0000C180120141801201C18012053B0070095
:108AF00024180120C2485FF01DF923462246214672
:108B00000094C0485FF016F923462246214600949F
:108B1000BD485FF00FF92346224621460094BB482A
:108B20005FF008F92346224621460094B8485FF0DA
:108B300001F92346224621460094B6485FF0FAF830
:108B40002346224621460094B3485FF0F3F82346BB
:108B5000224621460094B1485FF0ECF823462246B5
:108B600021460094AE485FF0E5F8234622462146B0
:108B70000094AC485FF0DEF823462246214600947C
:108B8000A9485FF0D7F82346224621460094A7481B
:108B90005FF0D0F82346224621460094A4485FF0B7
:108BA000C9F82346224621460094A2485FF0C2F845
:108BB000A14B2B612846A14BEB6008F1F806A04BB6
:108BC0006B61214640F8186B6D6045F2C0726CF025
:108BD00065FF214636229B486CF060FF28469A4D7F
:108BE0009A4A9B4967F064FE2846214600F8044BE8
:108BF0004FF4D0726CF052FF21464FF4D07205F55D
:108C0000D2706CF04BFF23462246214600949148D7
:108C1000914D5FF08FF823462246214600948F48FD
:108C20005FF088F823462246214600948C485FF086
:108C300081F823462246214600948A485FF07AF85C
:108C4000234622462146009487485FF073F8874800
:108C50007E4A87498460C0E9000067F029FE234608
:108C600022462146009483485FF064F8234622465A
:108C70002146009480485FF05DF823462246214655
:108C800000947E485FF056F8234622462146009421
:108C90007B485FF04FF823462246214600947948EE
:108CA0005FF048F8234622462146009476485FF05C
:108CB00041F8234622462146009474485FF03AF872
:108CC0007348624A7349C463C0E90144C0E903447C
:108CD000C0E90544C0E90744C0E90944C0E90B44C0
:108CE000C0E90D4467F0E4FD234622462146009486
:108CF00069485FF01FF823462246214600946748E2
:108D00005FF018F8664B2B612846664BEB6008F560
:108D1000887340F8183B6C6121466D604FF4FB523C
:108D20006CF0BCFE214610225F486CF0B7FE474A4B
:108D30005E4928465E4D67F0BBFD5E4B2B612846C1
:108D40005D4BEB6008F5947340F8183B6C6121466D
:108D50006D6020226CF0A2FEAC633C4A5749284665
:108D6000574D67F0A5FD574B2B612846564BEB60DE
:108D700008F5A07340F8183B6C6121466D604FF414
:108D8000F0626CF08BFEC5F89847304A4F49284690
:108D900067F08EFD23462246214600944C485EF043
:108DA000C9FF23462246214600944A485EF0C2FF8E
:108DB000234622462146009447485EF0BBFF2346E7
:108DC00022462146009445485EF0B4FF23462246E1
:108DD0002146009442485EF0ADFF234622462146DC
:108DE000009440485EF0A6FF2346224621460094A8
:108DF0003D485EF09FFF234622462146009475E0E1
:108E000028180120301801203818012040180120AE
:108E100048180120501801205C1801206418012016
:108E20006C180120741801207C180120841801207E
:108E30008C180120F09B002087640200DB62020096
:108E400016B20900D0F30020A898002000400020AE
:108E5000E5A7030094180120BC630020A01801209E
:108E6000A8180120B4180120C4190120CC19012030
:108E7000C9B90600DC190120E4190120EC19012010
:108E8000F8190120D8FA0020001A0120A895002026
:108E90002C92002027570300081A0120B0630020FD
:108EA000B9640200BF620200348300209D2A0300DF
:108EB000D05B0020AF640200D7620200732A030077
:108EC000105C0020A5640200D9620200452A03005C
:108ED000F0FA002010F40020101A0120181A0120C6
:108EE000201A0120281A0120301A0120C3485EF000
:108EF00021FF2346224621460094C1485EF01AFF16
:108F00002346224621460094BE485EF013FF2346C6
:108F1000224621460094BC485EF00CFF23462246C0
:108F200021460094B9485EF005FF234622462146BB
:108F30000094B7485EF0FEFE234622462146009488
:108F4000B4485EF0F7FE2346224621460094B2481C
:108F50005EF0F0FEB148214620F8024B10226CF082
:108F60009DFD2346224621460094AD485EF0E2FE78
:108F70002346224621460094AA485EF0DBFE2346A3
:108F8000224621460094A8485EF0D4FEA749A84A8C
:108F9000A84867F08DFC5C2061F0D0FD054607F025
:108FA000C0F92B46A44A43F8382BC5E90E3308F51F
:108FB000AC736B63A14B2C64C5E912344FF400739E
:108FC0004FF00208A5F858309D4B6C656D6485F82C
:108FD000508085F85A806F62CC201D6061F0AEFD34
:108FE000054607F09EF92B46964A43F8382BC5E90B
:108FF0000E3306F174036B63934B2C642146C5E971
:10900000123474222C656D6405F154006CF046FD39
:109010008E4BC5F8C840C5F8248058201D6061F00B
:109020008DFD054607F07DF92B46894A43F8382B1C
:10903000C5E90E33874B2C64C5E9123403236B62F8
:109040008836854B2C65A5F8544085F856406E63EC
:109050006D646C201D6061F071FD054607F061F9DB
:109060002B467E4A43F8382BC5E90E337C4B6B63A5
:109070007C4B7D4A7D492C64C5E9123405F15C03C3
:10908000C5E9153404236B62794B2C651D60138888
:109090000B80784985F85C400B8077496D640B80C4
:1090A000764977480B8077496F4D0B80764B117866
:1090B00052781C7059709A702146234622460094BB
:1090C0005EF038FE23462246214600946F485EF04B
:1090D00031FE23462246214600946D485EF02AFE6A
:1090E00023462246214600946A485EF023FE23462A
:1090F00022462146009468485EF01CFE2346224624
:109100002146009465485EF015FE2346224621461E
:10911000009463485EF00EFE2346224621460094EA
:1091200060485EF007FE23462246214600945E48D2
:109130005EF000FE23462246214600945B485EF026
:10914000F9FD234622462146009459485EF0F2FD7F
:10915000234622462146009456485EF0EBFD234606
:1091600022462146009454485EF0E4FD2346224600
:109170002146009451485EF0DDFD234622462146FB
:1091800000944F485EF0D6FD2346224621460094C7
:109190004C485EF0CFFD23462246214600944A48C3
:1091A0005EF0C8FD234622462146009447485EF003
:1091B000C1FD234622462146009445485EF0BAFD93
:1091C000234622462146009442485EF0B3FD2346E2
:1091D00022462146009440485EF0ACFD23462246DC
:1091E000214600943D485EF0A5FD234622462146D7
:1091F00000943B485EF09EFD234673E0381A012040
:10920000401A0120E8FA0020481A0120D0FA002074
:10921000501A0120601B0120C45B0020B05B0020BD
:1092200038FA00206C1B01209CF90020E95F040043
:1092300000400020A4F90020C8ED09005FFE0200F4
:1092400048F9002084510A003913040090F90020E5
:1092500038640A002F57040094F9002028640A009B
:10926000B4640A0051600400DF1F0120ACF9002043
:10927000A8F9002082F900207CF900207EF9002066
:10928000781B012080F9002085F90020801B012037
:10929000881B0120901B0120981B0120A41B01208A
:1092A000AC1B0120B41B0120BC1B0120C41B0120EE
:1092B000CC1B0120D41B0120DC1B0120E41B01205E
:1092C000EC1B0120F41B0120FC1B0120081C0120C9
:1092D000101C012070F70020181C0120201C012008
:1092E000281C012022462146009496485EF022FD6B
:1092F000234622462146009493485EF01BFD2346F8
:1093000022462146009491485EF014FD23462246F1
:10931000214600948E485EF00DFD234622462146EC
:1093200000948C485EF006FD2346224621460094B8
:1093300089485EF0FFFC2346224621460094874878
:109340005EF0F8FC234622462146009484485EF0F5
:10935000F1FC234622462146009482485EF0EAFC56
:1093600023462246214600947F485EF0E3FC2346D4
:109370002246214600947D485EF0DCFC23462246CE
:10938000214600947A485EF0D5FC234622462146C9
:10939000009478485EF0CEFC234622462146009495
:1093A00075485EF0C7FC2346224621460094734868
:1093B0005EF0C0FC234622462146009470485EF0D1
:1093C000B9FC23462246214600946E485EF0B2FC6A
:1093D00023462246009421466B485EF0ABFC6B4B63
:1093E00030240022013C1A7303F10E03FAD1234604
:1093F00022462146664800945EF09CFC6548664A19
:1094000066498460C0E9004467F052FA6448624AE1
:109410006449047200F10803C0E9003467F048FAB7
:10942000234622462146604800945EF083FC234692
:10943000224621465D4800945EF07CFC234622468D
:1094400021465B4800945EF075FC23462246214687
:10945000584800945EF06EFC23462246214656484A
:1094600000945EF067FC2346224621465348009450
:109470005EF060FC234622462146514800945EF08F
:1094800059FC2346224621464E4800945EF052FC89
:109490002346224621464C4800945EF04BFC23466E
:1094A00022462146494800945EF044FC2346224669
:1094B0002146474800945EF03DFC23462246214663
:1094C000444800945EF036FC334A4349434867F011
:1094D000EFF9234622462146414800945EF02AFCDB
:1094E00040482D4A4049046067F0E2F93F4B2C7038
:1094F0001C705C709C702246234621466C703C4870
:1095000000945EF017FC3B4813F0B2FC224A3A4943
:10951000384867F0CDF9394813F0AAFC1E4A36499D
:10952000364867F0C5F90322214601205FF07CFE32
:10953000334B186000286BD1324B334A33480C212F
:1095400042F05EFB381C0120441C01204C1C012011
:1095500068F70020541C01205C1C0120641C0120C1
:109560006C1C0120741C01207C1C0120841C012027
:109570008C1C0120941C01209C1C0120A41C012097
:10958000AC1C0120B41C0120BC1C0120C41C012007
:10959000641F01206C1F012000400020754D080051
:1095A000781F0120B5110900901F0120981F01208C
:1095B000A01F0120A81F0120B01F0120B81F0120FB
:1095C000C01F012060F70020C81F0120D01F01200C
:1095D00034F700202CF70020351F0400D0F50020C0
:1095E000C0F50020D81F0120E34D0500DC1F01203D
:1095F0006451002090500020150A03006C51002097
:109600003C52002024B209002EB209006EB20900BB
:10961000AE4AAF49AF4DB04F184667F049F92346FF
:10962000224621460094AD485EF084FB2346224644
:1096300021460094AA485EF07DFB2346224621463F
:109640000094A8485EF076FB23462246214600940B
:10965000A5485EF06FFB2346224621460094A348AE
:109660005EF068FB2346224621460094A0485EF047
:1096700061FB23462246214600949E485EF05AFB39
:1096800023462246214600949B485EF053FB234626
:1096900022462146009499485EF04CFB2346224620
:1096A0002146009496485EF045FB2346224621461B
:1096B000009494485EF03EFB2346224621460094E7
:1096C00091485EF037FB23462246214600948F489E
:1096D0005EF030FB23462246214600948C485EF023
:1096E00029FB23462246214600948A485EF022FB4D
:1096F000234622462146009487485EF01BFB874B99
:10970000874A9C60C3E90024864ADA60864B874A10
:109710009C60C3E90024864ADA608649864B874804
:10972000C3E90242C3E90014854B864A1A60864A9F
:109730005A60864A9A60864ADA60864B864A9C60FE
:10974000C3E90024854ADA60854B864A9C60C3E9F8
:109750000024854ADA60854B854A8649C3E900249E
:10976000854A9A60854ADA60854B864A9C60C3E9DF
:109770000024854ADA60854A116085498460C2E91F
:1097800001148449D160844A84491160844951603C
:10979000844991608449D160C0E900344B4A8349CF
:1097A000C0F8EC4080F8F04067F082F8234622468B
:1097B000214600947E485EF0BDFA7E487E4B0361F0
:1097C0000523037105F14C0300264FF040080362A6
:1097D00005F15803C0E909343C4A7849047304751B
:1097E000846104778460056080F82D80446386631B
:1097F00067F05EF87248734B03612223037105F131
:109800006403036005F1B003036205F1BC03436226
:1098100042F210732D4A6C49047304758461047715
:10982000846080F82880C762C663A0F8403080F862
:1098300042804764066386634663846467F038F851
:109840006248634B03610423037105F1C80303609D
:1098500005F58A73036205F590731C4A5D4904732C
:109860000475846104778460436267F021F85A4884
:109870005A4B03610E23037105F59673036005F5DA
:10988000BC73036205F5C2734362422380F834302F
:10989000534B0E4A53490473047584610477846002
:1098A00087638362C3620363C46367F001F84E4851
:1098B0004E4B03611C23037105F5C873036005F566
:1098C000EC73C0E90834014A92E000BF0040002078
:1098D000B95008000CB50900102B0120B8F5002084
:1098E000E41F0120EC1F0120F41F0120FC1F0120B8
:1098F000A85B00200820012010200120ACF50020EA
:109900001C20012038200120442001204C2001206F
:10991000F452002058200120F4200120E4200120EE
:10992000D55908009AB20900FC200120B959080055
:10993000A3B209009D590800D42001200C21012068
:10994000B420012075590800E3640200E1640200BC
:109950000B2E0A0084200120DF640200A7B2090058
:1099600094200120F7640200AAB20900C42001205B
:10997000DD640200EF640200F3640200AFB209008C
:10998000A4200120BD620200B6B2090074200120AB
:1099900089590800BBB2090064200120855E0800D7
:1099A00077590800EB640200BEB2090001210300F0
:1099B00058500020544F0020C4B209005D0303003A
:1099C000904F0020CBB209009B030300DC4F002026
:1099D000D2B209009903030014500020D9B2090043
:1099E000CDCCCC3D9703030060500020E1B20900CC
:1099F00027490473047584610477846066F058FF16
:109A0000234622462146009422485EF093F92346DD
:109A100022462146009420485EF08CF923462246D7
:109A2000214600941D485EF085F9234622462146D2
:109A300000941B485EF07EF923462246214600949E
:109A400018485EF077F923462246214600941648CE
:109A50005EF070F9234622460094214613485EF0DA
:109A600069F9134B83F8E44083F8E840114B4FF455
:109A70007A729A6005F5F2721A6005F503754FF473
:109A80007F425C601D619A8206B0BDE8F08100BF34
:109A9000950303000022012008220120102201204A
:109AA00018220120A84E0020A04E002020220120D4
:109AB000B44D0020EC45002007B503688DF8071071
:109AC0005B6801220DF10701984703B05DF804FBC4
:109AD000A0F1100000F032B9407DFF2801D05DF008
:109AE000B1B8704710B5437DFF2B0CD0074A4FF437
:109AF000567000FB032001F011FC044608B961F028
:109B000069FC204610BD0020FCE700BFC8270120EB
:109B10002DE9F74F437DFF2B06460F4614462FD005
:109B200015464FF4567A4FF6FE7B15B3707D5DF007
:109B3000C7F8F0B1737D134A01930AFB03294FF66E
:109B4000FF7209F124095D4598BF2A4692B2394651
:109B5000484601F047FB8046484601F0DFFB3F28BE
:109B6000019B02D918465DF06DF8B5EB0805474436
:109B700003D1601B03B0BDE8F08F61F02BFCD4E78C
:109B80000020F7E7B827012008B5437DFF2B07D059
:109B9000044A4FF4567000FB032001F0ADFB08BDF2
:109BA0000020FCE7DC27012073B5437DFF2B14D098
:109BB0004FF456745C430A4E04F1100001220DF17B
:109BC0000701304401F03EFA054630195DF08EF889
:109BD0001DB19DF8070002B070BD4FF0FF30FAE7ED
:109BE000B827012073B5457DFF2D03D14FF0FF301D
:109BF00002B070BD254E4FF4567303FB0563186A1F
:109C000018B14FF0FF315FF0A1FC4FF4567202FB28
:109C10000562118B538B908A89B29BB2994236BFF1
:109C2000C3EB4002CA1A521894B2E4B1A04209D25E
:109C300081424FF456722CBF0B1A0B1802FB0562BF
:109C40009BB2538398421ED94FF4567101FB0561B4
:109C50000DF10700CA8A0969C2F30E0202FB031163
:109C60006BF0F4FE01244FF4567303FB0565286A7C
:109C700020B100231A4619465FF0FCFA002CB5D03B
:109C80009DF80700B4E71B1A9BB2DBE7B827012059
:109C900010B5194B5A7DFF2A2CD11A7E52BB174C96
:109CA0005A750121197694F850110B2908D84A1CCD
:109CB00084F8502101F14802114844F822000A4674
:109CC0001A75B4F81821B4F81A3161690A489B1A58
:109CD0009BB20A4494F81C1100F030F850B1B4F86B
:109CE00018311844636980B2A4F81801588094F8B8
:109CF0001C211A7110BD00BFEC4500200846002051
:109D0000A4E6090010B5407DFF2807D05CF0D8FF1D
:109D1000044608B961F05EFB204610BD0024FBE755
:109D2000034B9B68B3F5966F01D15DF03BB970476B
:109D3000B827012009B900B9F2E770472DE9F047CB
:109D4000074692B098461546002A00F090804B4B8B
:109D500093F81C6193F81D1193F81EA1B21C83F8AF
:109D60001C214C1C8A1C83F81D2164F07F040AF11D
:109D7000010241F08009E4B283F81E214222002151
:109D800001A86BF08BFE002D6DD0B8F1410F73D997
:109D900040F20220ADF8080040F20940ADF80C0096
:109DA00040F20120ADF8100024208DF81600344850
:109DB0000690731C0120DBB28DF806608DF80E60F2
:109DC0008DF81C008DF826602E48397D8DF81E30E8
:109DD000032640F6083208908DF8273040F22460C0
:109DE0008DF82B608DF8313008260A230427ADF852
:109DF00004208DF8141002220521ADF824008DF8FE
:109E00002C6040F207508DF834304FF41166402337
:109E10008DF807208DF812208DF81510ADF8280068
:109E20008DF83320ADF838008DF83B208DF81F7089
:109E30008DF82A90ADF82E608DF830708DF83AA02C
:109E40008DF83C3007238DF83F308DF8401044F2F8
:109E5000020342220DEB070128468DF84140ADF880
:109E600042306BF0F3FD422012B0BDE8F08792461D
:109E700014469146164681E70020F5E70846002083
:109E800020010524240202057FB5204B204A03F15E
:109E90001006144618685968154603C50833B342BE
:109EA0002A46F7D11B4A1B88106851682B8001ABEA
:109EB00003C3127A1A7004AA12E90700164B03C3EF
:109EC000194603F5887001F80829144AC4F81821C6
:109ED0004FF48072A4F81C210122616184F81E21D4
:109EE000002120226BF0DAFD40F20943C4F8203152
:109EF0000B4BC4F824310B4BC4F828310023C4F8B1
:109F00002C31042384F8503104B070BDBFE6090041
:109F100008460020D1E60900204600200900000183
:109F2000B3E60900A1490B00F0B505460020044640
:109F30002B5D2E19002B68D003F14002D2B2012A0A
:109F40003DD9F42B3BD81A061BD40122A3F5584661
:109F5000B6F5006F33D3B3F5803F14444FD31E28BA
:109F600053DCA3F5803342009E0A0A44C3F309037D
:109F7000A6F52056A3F5105321F810600230538047
:109F8000D6E703F0E002C02A1BD103F01F03022230
:109F900006F1010C16441CF8017B07F0C00EBEF15F
:109FA000800F0CD107F03F07664547EA8313F2D1D3
:109FB000022A16D1A3F18006B6F5F06FC6D301349C
:109FC000B6E703F0F002E02A03D103F00F03032207
:109FD000DEE703F0F802F02AF1D103F007030422D0
:109FE000D6E7032A04D1A3F50066B6F5784FE5E776
:109FF000A3F58032B2F5801FE1D20422A6E7202823
:10A0000003D021F81030013092E7F0BD0B6802490F
:10A010000B610121184700BF282201202DE9F041E2
:10A02000174C184F8046002518262279EBB2511D97
:10A03000994212DA3822002113486BF02FFD1022CA
:10A04000FF2104F109006BF029FD04F1190012222F
:10A05000BDE8F041FF216BF021BD9A4207D922688B
:10A0600006FB032333B9BDE8F041FDF74DBD9B1A54
:10A0700006FB03735B68404698470135D5E700BF90
:10A080009C470020E8E60900A1470020F8B5124CE3
:10A09000266C00F07F07C5094FF0FF3130465FF0B6
:10A0A00055FA04EB47032B4425339A79C2F3800415
:10A0B000520708D59A7912F0010103BF9A7961F32A
:10A0C00082029A71002400231A46194630465FF036
:10A0D000D1F82046F8BD00BF9C470020F8B5194ACA
:10A0E00000F07F0302EB430303EBD01000F12504E3
:10A0F00090F82B5015F0010521D190F82B3059071D
:10A10000C3F3800717D4166C4FF0FF3130465FF071
:10A110001DFAA57915F001050FD1A3795B0704D4C9
:10A12000A37943F00403A371012500231A461946BD
:10A1300030465FF09FF82846F8BD3D46F5E700251C
:10A14000F9E700BF9C47002070B4827802F07F03DB
:10A15000082B07D9524B1B68DB0700D500BE002037
:10A1600070BC70474F49C478CD79818804F00304EE
:10A17000022CC1F30A010BD0032C45D0012C11D1C4
:10A18000022D40F2FF3408BF4FF48064A1420DE07D
:10A19000022D0AD1B1F5007F09D0414B1B68DA07C7
:10A1A00000D500BE70BCFDF7B7BC4029F5D83E4EC7
:10A1B0005C0004EBD21406EB0414D5092181C178AC
:10A1C00001F0030101292FD00120384900FA03F4DE
:10A1D00005BB03F10C06B040C1F80403D1F8140527
:10A1E00003F594730443C1F8144541F823502F4BF1
:10A1F000C3F8182542F48072C3F80C25BFF36F8FA3
:10A20000BFF34F8F0120ABE7022D0CBF4FF48064EA
:10A210004024BBE702339840C1F80403D1F810355D
:10A220001C43C1F81045E2E7082B93D11F4BDDB961
:10A23000B6F8182112B18022C3F81C250022C3F8F9
:10A240005021D3F8002312F4001208BFC3F85421A0
:10A25000164B4FF44012C3F80423D3F8142542F4EC
:10A260008072C3F81425C9E70022C3F82C21B6F880
:10A27000082112B18022C3F81C250C4BD3F800230F
:10A2800012F4001208BFC3F85421094AC3F804238A
:10A29000D3F8102542F48072C3F81025AEE700BF52
:10A2A000F0ED00E09C470020F448002000700240E0
:10A2B0000008200010B50B4B00F07F0203EB4203B7
:10A2C00003EBD0142534A3799B0709D401F07AFA63
:10A2D000A37943F00203A371A37943F00103A371AF
:10A2E00010BD00BF9C47002010B5104B044601462E
:10A2F000187801F023F80E4B04F07F0103EB4103C3
:10A3000003EBD41090F82B306FF3410380F82B301F
:10A3100090F82B306FF3000380F82B3090F82B303F
:10A320006FF3820380F82B3010BD00BF0440002083
:10A330009C4700202DE9F843DDE908890C461646C4
:10A340001F460025AE4201DC01200EE06378052B9C
:10A3500004D1E37803F00303BB4208D00D4B186827
:10A3600010F0010001D000BE0020BDE8F8832046B7
:10A37000FFF7EAFE18B9BDE8F843FDF7CDBBA378B7
:10A38000DA0914BF89F8003088F8003023780135E5
:10A390001C44D7E7F0ED00E01FB5CDE902011149FB
:10A3A000002308240193486C8DF805403AB9134600
:10A3B00001A94FF0FF325EF05DFF04B010BD6A46A8
:10A3C00001A900935EF0EFFF009B002BF5D0064B38
:10A3D0004FF080525A6040BFBFF34F8FBFF36F8F73
:10A3E000EBE700BF9C47002000ED00E02DE9FF41B6
:10A3F0004378484C023B0546042B12D8DFE803F0B3
:10A4000003291B22710063796FF300036371637981
:10A4100000226FF341036371A271637962F38203D7
:10A420006371606C002961D10B464FF0FF32294601
:10A430005EF020FF2FE06379D8072CD5637943F0D5
:10A440000403EDE76379DA0725D563796FF38203B7
:10A45000E6E763795B0715D563796FF38203637170
:10A460000278606C0023CDE901338DF804200522C9
:10A4700003938DF8052089B90B464FF0FF3201A9EF
:10A480005EF0F8FEDFF89480002618272279F3B2F8
:10A49000511D994214DA04B0BDE8F0816A4601A961
:10A4A00000935EF080FF009B002BEBD01A4B4FF027
:10A4B00080525A6040BFBFF34F8FBFF36F8FE1E709
:10A4C0009A420AD9226807FB032323B15B6913B1BF
:10A4D0006968287898470136D8E79B1A07FB0383F9
:10A4E000F4E7237A0133DBB223729AE7002301AA4F
:10A4F000294601935EF057FF019B002BCBD0064B02
:10A500004FF080525A6040BFBFF34F8FBFF36F8F41
:10A51000C1E700BF9C47002000ED00E0E8E609002D
:10A520002DE9FF47474D074600F07F0005EB400649
:10A5300006EBD7162536B47914F001044FEAD71E7E
:10A540004FEA400306D0FDF7E7FA0446204604B080
:10A55000BDE8F08796F806C0DFF800814CF0010CEA
:10A5600086F806C003EB0E0C4FEA0C1908EB0C1C26
:10A5700046469CF80BA0BAF1000F17D0324A11687A
:10A58000C90700D500BE2B44734493F82B106FF31A
:10A59000000183F82B1093F82B106FF3820183F8DE
:10A5A0002B101368DB07D1D500BECFE748F80910A0
:10A5B000ACF80420ACF8064008BB02BB234BD3F830
:10A5C0008034C3F3C0139E4519D0214800F02EFFFC
:10A5D000204B59680394C1F3080100394FF4E0633C
:10A5E00018BF012101A8CDE90144ADF804308DF870
:10A5F00008708DF80940FFF7F9FE0124A6E7012550
:10A60000BEF1000F1AD106EB4012D57218B91248EC
:10A6100000F00CFFF1E7BFF36F8FBFF34F8F937A1A
:10A6200003F0FF0443B1D37A03F0FF05002B8DD074
:10A6300082F80AE001F062F82C4687E701F0E8F8BA
:10A64000FAE700BF9C470020F0ED00E000700240F8
:10A650005070024000ED00E04C700240F4480020D1
:10A660002DE9F04FB54B1B78FF2B93B0834600F0DC
:10A6700029844FF47A72002380024FEA9B516AF0DA
:10A6800019FB012838BF01200390AD4CBBF1FF3FFF
:10A69000606C26461BD0039BBBF1000F14BF1A460B
:10A6A000002207A95EF0D8FE002800F00B849DF878
:10A6B0001D30013B072B00F2B283DFE813F00A00E4
:10A6C0001C00B003170426042B008D0332045A46E5
:10A6D000E7E79DF81C00FFF7A1FC9A48142200212F
:10A6E0006BF0DCF99DF82030E371606C5EF0C4FF24
:10A6F0000028CAD1E6E39DF81C00FFF78FFC9148C3
:10A70000142200216BF0CAF98F4B002BEDD0AFF370
:10A710000080EAE7237A013BDBB22372227A02F05F
:10A72000FF03002AE1D16279DFF818829DF81C50FE
:10A73000C8F8103042F00102627194F82B2063F3E4
:10A74000000284F82B2094F82B2063F3820284F813
:10A750002B2094F82C2063F3000284F82C2094F82A
:10A760002C2063F382029DF8203084F82C2003F023
:10A770006002602A06D1754B1B68DD0740F1DF825D
:10A7800000BEDCE2402A0AD1714BC8F8103008AA9A
:10A79000012128465CF098FB0028A6D1CFE203F007
:10A7A0001F03012B00F03E82022B00F08882002B59
:10A7B000E1D1202A20D19DF824300F2B00F2BF8256
:10A7C0001E442379717A99420CD2236801EB41012E
:10A7D00013EBC10100F0B38208AA0C312846FFF741
:10A7E00015FCD9E75A1D8A42C0F2A982594AC91AF2
:10A7F000182303FB0121EFE7002ABCD19DF821308B
:10A80000092BB8D801A252F823F000BF0FAC020008
:10A81000FDAB020077A70200E9AB020077A70200B8
:10A8200035A802009BAA020077A7020069A80200CF
:10A830007DA80200DDE90801474BC8E90001D3F813
:10A840000014D3F8000400220143C8E90222C3F82F
:10A850000014C3F858214FF48002C3F8042363792D
:10A8600043F00203637140E7A3798DF83830012388
:10A870000EAA08A928465BF00FFD36E79DF82230A6
:10A880000193019AA3799A4200F08A80A379002B60
:10A8900042D0324B8022C3F88420BFF34F8FBFF3E6
:10A8A0006F8F0127DFF8B080DFF8C0A0B94607F14D
:10A8B0000C03BA1C09FA02F209FA03F31343C8F8AD
:10A8C0000833BB0003F1804303F51C3300215960BA
:10A8D0000AEB47109962202201376BF0DFF8082F4E
:10A8E0004FF00001E3D11E4BC8F808332022C8F80E
:10A8F0001C151C48C8F82410C8F848106BF0CEF896
:10A90000C8F81495C8F81095144B80225A60E7795E
:10A910002846FFF783FBE771019B002B00F0B7800F
:10A92000114B5A6912B15378022B21D0074B1B6887
:10A93000DA077FF520AF00BE1DE700BF044000200E
:10A940009C4700202822012000000000F0ED00E0DC
:10A95000C96E0800E8E609000070024000E100E06E
:10A9600000083000F449002008460020F448002088
:10A97000D379C3F38011C3F340131B0143EA41139E
:10A98000617921F030010B4363715388D31802F1D0
:10A9900009010293029B8B4209D8B74B002B73D15C
:10A9A000019BA37108A928465BF032FC9DE64B7819
:10A9B0000B2B03BF0B7891F80390C9184FF00109D6
:10A9C0004B78042BB2D1029B5A1A92B24FF0000A74
:10A9D00037795FFA8AF87B1D9845A7DC47452ED961
:10A9E0003768182303FB0877002F9FD0BB682846E1
:10A9F000CDE9041298470828DDE9041241D98242C2
:10AA00003FD3B9F1010F0AD1BB689C4A934208BFFA
:10AA10004FF002099A4A934208BF4FF00209002200
:10AA2000D3B2994512D8974A084488421AD8954B10
:10AA30001B79053398453FF779AF0146AAE7924B5A
:10AA4000A8EB0707182000FB0737CFE78F783B44B8
:10AA500056FA83F301325F7AFF2F7FF467AF83F8F2
:10AA60000980DDE74B78052B08D18F7807F07F034D
:10AA700002EB430303EBD71383F819800B781944D7
:10AA8000D3E70AF1010AA3E7AFF3008088E77F4B21
:10AA9000002B85D0AFF3008082E7BDF82200030AC7
:10AAA0005A1EC0B20E2A00F24A81DFE812F00F00EF
:10AAB0001A002B004801480191001A004801480182
:10AAC000480148014801480148011600704A122314
:10AAD00008A928465BF0E0FB5EE66E4A32F80239D0
:10AAE000F6E7022B06D16A4B5A69002A3FF443AEBF
:10AAF0005388EDE7684B002B00F02181AFF3008015
:10AB00000246F2E7624E60B1032819D096F8503140
:10AB1000834240F21481483006F5AA7156F82000AD
:10AB200053E0D6F82031A6F854310120013043001B
:10AB300043F44072A6F8522103F0FE03574AC7E7D8
:10AB4000D6F82C71002F3DD10AA85CF02DFA0DF13A
:10AB5000280C0346B6463A46D1B28B420EF1040E9B
:10AB60002DD94F4F0DF1380907F1100A386879686F
:10AB7000C846A8E8030008375745C146F6D11CF877
:10AB8000018B474F08F00F0112A801440DF1380A5C
:10AB900011F8101CAEF8521179683868D146A9E84E
:10ABA0000300404908378F42CA46F5D112A901EB8C
:10ABB0001818013218F8101CAEF85011CCE75800E4
:10ABC000C0B2B3E706F5AA713846FFF7ADF9F7E76B
:10ABD000354B002B00F0B380AFF300800246002815
:10ABE00000F0AD80037873E7BDF82230012B40F010
:10ABF000A680637943F008036371D3E6BDF8223081
:10AC0000012B40F09C8063796FF3C303F4E7637911
:10AC1000C3F340129B0803F002031343ADF838302E
:10AC2000022325E69DF824300F2B00F288801E4475
:10AC30002379717A994239D2236801EB410113EBF0
:10AC4000C1017CD008AA0C312846FFF7DFF90028A3
:10AC50007FF44BAD9DF8203013F060036FD19DF869
:10AC60002120A2F10A01012969D80A2AC8F8103066
:10AC70007FF498AEF9E500BF000000001D6E0800EB
:10AC80007D6608009C470020E8E6090000000000FF
:10AC90000846002044480B00000000005A470020EE
:10ACA0002C750B003C750B00000000005A1D8A42F9
:10ACB00045DBA24AC91A182303FB0121C2E79DF80C
:10ACC000240000F07F0CBCF1080F3FF654AD06EBFA
:10ACD0004C0707EBD01794F804E07F7E77454FEAE6
:10ACE000D0114FEA4C0A16D2236807EB470703EB53
:10ACF000C70712BB9DF8212002F0FD0EBEF1010F27
:10AD000024D0002A7FF437AD5644314491F82B30DB
:10AD1000C3F3400382E70EF10509B945C0F209818A
:10AD2000864BA7EB0E074FF0180E0EFB0737002AD5
:10AD3000E0D008AA07F10C0150E5002FF9D100205E
:10AD400000F040FD802000F03DFDCEE4BDF822E0A3
:10AD5000BEF1000F2BD1012A3BD106EB0A020A44B7
:10AD600025329279930722D510F0770F11D0744ACB
:10AD700040F4807EC2F80C05C2F80CE5C2F8180554
:10AD800019B90CF5947C42F82C10BFF36F8FBFF308
:10AD90004F8F5644314491F82B306FF3410381F8C3
:10ADA0002B3091F82B306FF3000381F82B30002FFC
:10ADB0003FF49BAC08AA07F10C012846FFF726F9DF
:10ADC0000023C8F8103094F82C30DE073FF58DAC26
:10ADD000E8E5FFF76FFAEAE79DF8201001F07F073A
:10ADE00006EB470606EBD116CA0996F82B006FF35F
:10ADF000000086F82B0096F82B006FF3820086F88F
:10AE00002B00002F4FD14F4D9DF81C602B78DDF8A3
:10AE10002480B2EBD31F12D0B8F1000F06D04A4BFA
:10AE20001B68DB077FF561AC00BE5EE42B69002B7D
:10AE30003FF45BAC2A4603213046984755E495F928
:10AE40000030002B07DBA86800283FF44EAC3F49D8
:10AE500042466AF0FBFDAA68EB8942444344AA607B
:10AE6000EA889BB29A42EB8102D0B8F13F0F16D824
:10AE70002B696BB995F900300022002B1146B4BF45
:10AE800038468020FFF74CFB00287FF42EACC6E745
:10AE90002C4A0221304698470028EBD150E7304633
:10AEA0005BF0CEF9F0E7737E227993420DD22268EF
:10AEB00003EB430312EBC3030FD1234B1B68D807EB
:10AEC00000D500BE13B0BDE8F08F501D9842F4DBF2
:10AED0001A489B1A182202FB03031D699DF82120C2
:10AEE000099B9DF81C00A847FFF7FFBB6379D907B2
:10AEF0007FF5FBAB164B002B3FF4F7AB6079C0F34B
:10AF0000C000AFF30080FFF7F0BB6379DA077FF58D
:10AF1000ECAB104B002B3FF4E8ABAFF30080FFF736
:10AF2000E4BB089B002B3FF4E0AB09989847FFF780
:10AF3000DCBB002A7FF403AF1746DBE6E8E6090036
:10AF40000070024028220120F0ED00E03C220120A8
:10AF500000000000000000002DE9F743DFF8D88072
:10AF600098F80030FF2B0646474648D1DFF8CC90D2
:10AF70003822002109F105006AF090FD09F148012D
:10AF800001205EF0FBF94D46C9F8400040B9274B5F
:10AF90001B6813F0010F46D1002003B0BDE8F08319
:10AFA00000230093D8F80820B8F80610B8F8040079
:10AFB00008F110035EF022F9D8F80C1004465EF098
:10AFC00073FBC9F844402CB9184B1B68DB07E3D569
:10AFD00000BEE1E7164B23B1281DAFF30080C9F88E
:10AFE0000000DFF85C9000244FF018082879E3B2E5
:10AFF000421D934205DD3E700E4B80225A600120B7
:10B00000CBE7984208D9286808FB030038B9074AFB
:10B01000126812F0010FBEE71B1A08FB03900368C9
:10B0200098470134E2E700BEB7E700BFF0ED00E06B
:10B030000000000000E100E0044000209C470020E8
:10B04000E8E609002DE9F047064600698846914682
:10B0500018B14FF0FF315EF079FA33897489B788FF
:10B060009BB2A4B2A34236BFC4EB47051D1BED182B
:10B07000ADB2F5B1AF4206D2BB422CBFDC1BDC192E
:10B08000A4B274813D464D4528BF4D46A74229D9FB
:10B09000F2883168A7EB04091FFA89F9C2F30E0A96
:10B0A0004D4552460AFB04111FD86A4340466AF0D8
:10B0B000CDFC7389B28899B215FA83F39BB2994299
:10B0C0004FEA420201D8934201DB9B1A9BB23069DE
:10B0D000738120B100231A4619465EF0CBF828464A
:10B0E000BDE8F087E41BA4B2D0E719FB0AF91FFA08
:10B0F00089F94A4640466AF0A9FCEA1B224412FB41
:10B100000AF2316892B208EB0900D0E7F8B50446BC
:10B11000C0680F4616461D4618B14FF0FF315EF06D
:10B1200015FA206918B14FF0FF315EF00FFAED0308
:10B13000E0682760002345F001056381A680E58073
:10B14000238118B11A4619465EF094F8206920B19F
:10B1500000231A4619465EF08DF80120F8BD38B577
:10B160000446C0680D4618B14FF0FF315EF0EEF9AD
:10B17000206918B14FF0FF315EF0E8F9E379E0683B
:10B1800065F3C713E37120B100231A4619465EF038
:10B1900071F8206920B100231A4619465EF06AF85A
:10B1A000012038BD10B50446C06818B14FF0FF311A
:10B1B0005EF0CCF9206918B14FF0FF315EF0C6F9AE
:10B1C000E06800236381238118B11A4619465EF0B6
:10B1D00051F8206920B100231A4619465EF04AF85A
:10B1E000012010BD2DE9F84F07468846164642B3A8
:10B1F000C06818B14FF0FF315EF0A8F9FA793D89C7
:10B200007B89B7F80490D209ADB29BB21CD19D42A4
:10B2100039BFC3EB49046419EB1A9CB238BFA4B21E
:10B22000A14586BFA9EB0404A4B20024A64228BF0E
:10B23000264656BBF86820B100231A4619465EF030
:10B2400019F83046BDE8F88FF9884E45C1F30E0174
:10B2500006D3A6EB090601FB06881D464E46E8E725
:10B260009D424FEA490136BFCA1AEA1A521992B2F0
:10B2700032448A4209DB09EB0305AD1BADB2AB4298
:10B2800001D8A94201DC6D1AADB22C46A1451DD9E9
:10B29000FA883868A9EB040A1FFA8AFAC2F30E0B7F
:10B2A000B2455A460BFB040014D3724341466AF080
:10B2B000CDFB7319BA889BB2AB424FEA420201D36D
:10B2C000934201DB9B1A9BB23B81B3E7A4EB0904D9
:10B2D000A4B2DBE71AFB0BFA1FFA8AFA5246414680
:10B2E0006AF0B4FBA6EB0903234413FB0BF23868A6
:10B2F00092B208EB0A01DAE78288038940899BB29F
:10B3000080B2834236BFC0EB4200181AC01880B228
:10B31000824286BF101A80B200207047038942899A
:10B3200081889BB292B2934236BFC2EB41029B1A14
:10B330009B1898B2884228BF0846704770B501F044
:10B340007F05082D2A4B2B4C4FEAD11123D0012227
:10B3500002FA05F0C043A1B905F10C06B240C3F8EA
:10B360000823D3F814251040C3F8140501EB450158
:10B3700004EB01110023CB72BFF36F8FBFF34F8F2C
:10B3800070BDAE1CB240C3F80823D3F8102510409E
:10B39000C3F81005EAE704EB01120020A2F8080147
:10B3A000D1B94FF48012C3F80823D3F8142522F43E
:10B3B0008072C3F81425C3F850110D4BB4F808017E
:10B3C0000022C3F81C25B4F81821C24204BF4FF470
:10B3D0000012C3F80823C9E74FF40062C3F808233A
:10B3E000D3F8102522F48072C3F81025E5E700BFDA
:10B3F00000700240F448002001230360BFF36F8F08
:10B40000BFF34F8F074B984202D0043B984207D1BD
:10B41000BFF35B8F044B002283F82021BFF35B8FC7
:10B42000704700BF50700240F448002010B40D4B2C
:10B43000BFF35B8F01464FF00104D3E84F2FC3E801
:10B440004C4FBCF1000FF8D1BFF35B8F12F0FF0F30
:10B4500005D005485DF8044B0122FEF79DBF5DF85D
:10B46000044BC9E7144A00202DB4020043F2040340
:10B4700007B51A68094B9A424FF000000AD18DF8BF
:10B4800007000DF10700FBF7F7F99DF807000038FA
:10B4900018BF012003B05DF804FB00BFDBE5B1512C
:10B4A00007B5FFF7E3FF58B1002301A80193FCF7AC
:10B4B00015FB0198003818BF012003B05DF804FBAC
:10B4C0004FF08043D3F80C24D3F80C0410F48030F0
:10B4D00018BF02F00100F0E701281FB5044600F094
:10B4E000B980022853D0002842D1774BD3F80025E9
:10B4F000002A3DD14FF48002C3F808234FF40062C4
:10B50000C3F80024BFF36F8FBFF34F8F6F4B1B68DF
:10B51000082B10D16E4B1B68032B0CD86D4AD35CE3
:10B520004BB16D4B6D4A1868032118BB49F2753059
:10B53000186011601860FCF7D7FA48B1664B684A8A
:10B540001868C021C0B949F27530186011601860E0
:10B550005D4B0124C3F80045BFF36F8FBFF34F8FDE
:10B56000FFF79EFF20B9FFF781FF38B1FCF7BAFA69
:10B5700004B010BD1160DEE71160E9E7594B1860B7
:10B580001B680193019B4FF080431C60F0E74E4C19
:10B59000D4F804351BB1FFF783FF0028E8D1D4F8B5
:10B5A00000341B05FBD54FF40063C4F80034BFF32F
:10B5B0006F8FBFF34F8FFCF797FA48B1464B484A5D
:10B5C0001868002840D149F275311960106019607F
:10B5D0003E4B1B68082B0FD13D4B1B68032B0BD830
:10B5E0003C4AD35C43B13C4B3C4A186878BB49F2B7
:10B5F0007531196010601960FCF776FA48B13A4B62
:10B6000040F2E3721A6040225A60BFF36F8FBFF3BB
:10B610004F8F2D4C354880220121C4F81C25C4F8D9
:10B6200004133349C1F884210078FF2800D04A6010
:10B63000FFF736FF0028FBD00123C4F80435BFF321
:10B640006F8FBFF34F8F93E700231360C0E7002392
:10B650001360D1E71C4BD3F80025002A88D00022C4
:10B66000C3F80425BFF36F8FBFF34F8F20498020AD
:10B67000C1F88400BFF34F8FBFF36F8FD3F800136F
:10B68000C3F80813C3F80025BFF36F8FBFF34F8FC4
:10B69000FFF7ECFEA0B1FCF723FA164B5968C1F393
:10B6A000080100230039CDE90133039318BF0121BC
:10B6B0004FF4007301A8ADF80430FEF797FE57E78A
:10B6C0000D4B1C60E9E700BF007002403001001024
:10B6D0003401001078E7090000EC064014ED064044
:10B6E00014EC0640000100400078024004400020B5
:10B6F00000E100E000ED00E004000040F0B42B4A5F
:10B70000BFF35B8F02F590734FF00104D3E84F1F36
:10B71000C3E8454F002DF9D1BFF35B8F11F0FF0F48
:10B7200014460BD0224B5A68C2F30802003A014675
:10B73000F0BC204818BF0122FEF72EBE08281E4983
:10B7400019D1D1F8C034D80308D5BFF35B8F0023DB
:10B7500084F82031BFF35B8FF0BC704792F80B0187
:10B760000028F2D0D2F800211448C1F8A027C1F86F
:10B77000A437F0BC40E602EB401500F59473460197
:10B7800051F82340EF88AB88DB1B9BB2A4B2A342E5
:10B7900028BF23469459142202FB0011C1F8004728
:10B7A000C1F80437064B03EB8000E2E7F4480020C1
:10B7B00000ED00E00DB80200007002404870024049
:10B7C0002870024010F07F0108B507D10D4B01220F
:10B7D0005A65BFF36F8FBFF34F8F08BD0829F8D0AC
:10B7E000084B40F48072C3F81825C309F1D1064A0A
:10B7F00002EB4112907A0028EBD093720846FFF7D3
:10B800007DFFE6E700700240F4480020C0B275E713
:10B810000C4B03EB4013D98A9A8A521A198B92B2B5
:10B820008A4228BF0A4619691423434303F180431F
:10B8300003F51C33C3F80016C3F80426024B03EBD0
:10B840008000F3E5F4480020047002402DE9F04F39
:10B85000C34BC44AD3F80013002385B01C46012013
:10B860001D4621FA03F6F6070BD552F8236046B1C0
:10B8700000FA03F6344342F82350BFF36F8FBFF34F
:10B880004F8F0133192BECD1E7073BD5B44B012285
:10B89000C3F81425C3F8102500221546930003F1C0
:10B8A000804303F51C330132082A5D609D62F5D1A7
:10B8B000AB4B5D629D64C3F85851D3F80024D3F8B4
:10B8C00000140A43C3F80024D3F80023C3F8082364
:10B8D000A54AC3F80423A54B4FF4927200211846E1
:10B8E0006AF0DCF84022028302814FF48073012168
:10B8F00001A8CDE901550395ADF804308DF8085045
:10B90000FEF774FD14F4006F984D08D0944BD3F8F3
:10B91000A8369BB2A5F81631012385F81C31A60282
:10B9200004F4800736D58E4ED6F8143513F48073A0
:10B9300008D01FB1D6F80034D80702D40820FFF78A
:10B94000DDFE0123D6F81025D10540F15D8195F883
:10B950001C319BB1B5F8163100229BB2CDE9012212
:10B9600085F81C2103934FF4E0628823012101A88C
:10B97000ADF80420ADF80830FEF738FD0023CDE91E
:10B980000133039301214FF4407301A8ADF8043053
:10B99000FEF72CFD002F37D0714BD3F8006440F236
:10B9A00001723240C3F80024F2050DD50121C3F81D
:10B9B0002C150023CDE90133039301A84FF48063D4
:10B9C000ADF80430FEF712FD77050FD5644B012268
:10B9D000C3F808259A65D3F8002312F4001208BFB3
:10B9E000C3F854214FF40012C3F80423B0050BD55B
:10B9F0000023CDE90133039301214FF4A06301A893
:10BA0000ADF80430FEF7F2FC21023BD5544BD3F8DD
:10BA100080E4D3F88424D3F88814D3F88C74D3F852
:10BA20009064D3F894045FFA81FCD3F89814D3F8A7
:10BA30009C341EF07F0F5FFA8EF8D2B2FFB2F6B2DE
:10BA4000C0B2C9B2DBB201D1052A1BD04FF0000E43
:10BA5000ADF806E08DF80D004FF4C06E8DF80E10B5
:10BA600001A80121ADF804E08DF808808DF80920C7
:10BA70008DF80AC08DF80B708DF80C608DF80F30C2
:10BA8000FEF7B4FC3A4B23406BB1BFF35B8F95F8E4
:10BA90002031BFF35B8F002B40F0BE80354B1B681D
:10BAA000DA0700D500BEDFF8C480DFF8B490DFF815
:10BAB000CCB0474600264FF0140A06F10C0324FAD6
:10BAC00003F3DB07F1B224D50AFB06933A68D3F8F7
:10BAD000083705EB461C12FA83F23A60BCF806E020
